{
  "contractName": "PrepaidCardManager",
  "abi": [
    {
      "constant": false,
      "inputs": [],
      "name": "renounceOwnership",
      "outputs": [],
      "payable": false,
      "stateMutability": "nonpayable",
      "type": "function"
    },
    {
      "constant": true,
      "inputs": [
        {
          "name": "account",
          "type": "address"
        }
      ],
      "name": "isSigner",
      "outputs": [
        {
          "name": "",
          "type": "bool"
        }
      ],
      "payable": false,
      "stateMutability": "view",
      "type": "function"
    },
    {
      "constant": true,
      "inputs": [],
      "name": "owner",
      "outputs": [
        {
          "name": "",
          "type": "address"
        }
      ],
      "payable": false,
      "stateMutability": "view",
      "type": "function"
    },
    {
      "constant": true,
      "inputs": [],
      "name": "isOwner",
      "outputs": [
        {
          "name": "",
          "type": "bool"
        }
      ],
      "payable": false,
      "stateMutability": "view",
      "type": "function"
    },
    {
      "constant": false,
      "inputs": [],
      "name": "renounceSigner",
      "outputs": [],
      "payable": false,
      "stateMutability": "nonpayable",
      "type": "function"
    },
    {
      "constant": false,
      "inputs": [
        {
          "name": "account",
          "type": "address"
        }
      ],
      "name": "addSigner",
      "outputs": [],
      "payable": false,
      "stateMutability": "nonpayable",
      "type": "function"
    },
    {
      "constant": true,
      "inputs": [],
      "name": "erc223",
      "outputs": [
        {
          "name": "",
          "type": "address"
        }
      ],
      "payable": false,
      "stateMutability": "view",
      "type": "function"
    },
    {
      "constant": false,
      "inputs": [
        {
          "name": "newOwner",
          "type": "address"
        }
      ],
      "name": "transferOwnership",
      "outputs": [],
      "payable": false,
      "stateMutability": "nonpayable",
      "type": "function"
    },
    {
      "inputs": [
        {
          "name": "_erc223Addr",
          "type": "address"
        }
      ],
      "payable": false,
      "stateMutability": "nonpayable",
      "type": "constructor"
    },
    {
      "anonymous": false,
      "inputs": [
        {
          "indexed": true,
          "name": "owner",
          "type": "address"
        },
        {
          "indexed": false,
          "name": "cardId",
          "type": "uint256"
        },
        {
          "indexed": true,
          "name": "user",
          "type": "address"
        }
      ],
      "name": "CardValidated",
      "type": "event"
    },
    {
      "anonymous": false,
      "inputs": [
        {
          "indexed": true,
          "name": "previousOwner",
          "type": "address"
        },
        {
          "indexed": true,
          "name": "newOwner",
          "type": "address"
        }
      ],
      "name": "OwnershipTransferred",
      "type": "event"
    },
    {
      "anonymous": false,
      "inputs": [
        {
          "indexed": true,
          "name": "account",
          "type": "address"
        }
      ],
      "name": "SignerAdded",
      "type": "event"
    },
    {
      "anonymous": false,
      "inputs": [
        {
          "indexed": true,
          "name": "account",
          "type": "address"
        }
      ],
      "name": "SignerRemoved",
      "type": "event"
    },
    {
      "constant": true,
      "inputs": [
        {
          "name": "_cardId",
          "type": "uint256"
        }
      ],
      "name": "getCard",
      "outputs": [
        {
          "name": "cardId",
          "type": "uint256"
        },
        {
          "name": "owner",
          "type": "address"
        },
        {
          "name": "tokens",
          "type": "uint256"
        },
        {
          "name": "active",
          "type": "bool"
        }
      ],
      "payable": false,
      "stateMutability": "view",
      "type": "function"
    },
    {
      "constant": false,
      "inputs": [
        {
          "name": "_cardId",
          "type": "uint256"
        },
        {
          "name": "_tokens",
          "type": "uint256"
        },
        {
          "name": "_hash",
          "type": "bytes32"
        }
      ],
      "name": "addCard",
      "outputs": [],
      "payable": false,
      "stateMutability": "nonpayable",
      "type": "function"
    },
    {
      "constant": false,
      "inputs": [
        {
          "name": "_cardId",
          "type": "uint256"
        }
      ],
      "name": "activateCard",
      "outputs": [],
      "payable": false,
      "stateMutability": "nonpayable",
      "type": "function"
    },
    {
      "constant": false,
      "inputs": [
        {
          "name": "_secret",
          "type": "bytes"
        }
      ],
      "name": "validateCard",
      "outputs": [],
      "payable": false,
      "stateMutability": "nonpayable",
      "type": "function"
    }
  ],
  "bytecode": "0x608060405234801561001057600080fd5b50604051602080610e8e8339810160405251610034336401000000006100a5810204565b60018054600160a060020a031916331790819055604051600160a060020a0391909116906000907f8be0079c531659141344cd1fd0a4f28419497f9722a3daafe3b4186f6b6457e0908290a360048054600160a060020a031916600160a060020a0392909216919091179055610182565b6100bd600082640100000000610c4e6100f482021704565b604051600160a060020a038216907f47d1c22a25bb3a5d4e481b9b1e6944c2eade3181a0a20b495ed61d35b5323f2490600090a250565b600160a060020a038116151561010957600080fd5b61011c828264010000000061014b810204565b1561012657600080fd5b600160a060020a0316600090815260209190915260409020805460ff19166001179055565b6000600160a060020a038216151561016257600080fd5b50600160a060020a03166000908152602091909152604090205460ff1690565b610cfd806101916000396000f3006080604052600436106100b95763ffffffff7c0100000000000000000000000000000000000000000000000000000000600035041663715018a681146100be5780637df73e27146100d55780637e09ef421461010a5780638a984385146101225780638da5cb5b146101405780638f32d59b146101715780639188d31214610186578063c1debea4146101ce578063e5c8b03d14610227578063eb12d61e1461023c578063ebf0da651461025d578063f2fde38b14610272575b600080fd5b3480156100ca57600080fd5b506100d3610293565b005b3480156100e157600080fd5b506100f6600160a060020a03600435166102fd565b604080519115158252519081900360200190f35b34801561011657600080fd5b506100d3600435610315565b34801561012e57600080fd5b506100d360043560243560443561042a565b34801561014c57600080fd5b506101556106a1565b60408051600160a060020a039092168252519081900360200190f35b34801561017d57600080fd5b506100f66106b0565b34801561019257600080fd5b5061019e6004356106c1565b60408051948552600160a060020a0390931660208501528383019190915215156060830152519081900360800190f35b3480156101da57600080fd5b506040805160206004803580820135601f81018490048402850184019095528484526100d394369492936024939284019190819084018382808284375094975061076e9650505050505050565b34801561023357600080fd5b506100d3610a67565b34801561024857600080fd5b506100d3600160a060020a0360043516610a72565b34801561026957600080fd5b50610155610a92565b34801561027e57600080fd5b506100d3600160a060020a0360043516610aa1565b61029b6106b0565b15156102a657600080fd5b600154604051600091600160a060020a0316907f8be0079c531659141344cd1fd0a4f28419497f9722a3daafe3b4186f6b6457e0908390a36001805473ffffffffffffffffffffffffffffffffffffffff19169055565b600061030f818363ffffffff610abd16565b92915050565b60008181526002602052604081206004015482911061037e576040805160e560020a62461bcd02815260206004820152600960248201527f6e6f745f65786973740000000000000000000000000000000000000000000000604482015290519081900360640190fd5b610387336102fd565b151561039257600080fd5b60008281526002602052604090206003015460ff16156103fc576040805160e560020a62461bcd02815260206004820152600f60248201527f6e6f745f6163746976617461626c650000000000000000000000000000000000604482015290519081900360640190fd5b5060008181526002602090815260408083206003808201805460ff1916600117905590548452909152902055565b610432610c9c565b836000811161048b576040805160e560020a62461bcd02815260206004820152600d60248201527f76616c69645f636172645f696400000000000000000000000000000000000000604482015290519081900360640190fd5b6104936106b0565b151561049e57600080fd5b600084116104f6576040805160e560020a62461bcd02815260206004820152600c60248201527f656d7074795f746f6b656e730000000000000000000000000000000000000000604482015290519081900360640190fd5b6000858152600260205260409020600401541561055d576040805160e560020a62461bcd02815260206004820152600a60248201527f636172645f657869737400000000000000000000000000000000000000000000604482015290519081900360640190fd5b60048054604080517f40c10f1900000000000000000000000000000000000000000000000000000000815230938101939093526024830187905251600160a060020a03909116916340c10f199160448083019260209291908290030181600087803b1580156105cb57600080fd5b505af11580156105df573d6000803e3d6000fd5b505050506040513d60208110156105f557600080fd5b50506040805160c08101825293845260208481018781528583019687526000606087018181523360808901908152600160a08a018181529b8452600295869052959092209751885591519387019390935595519085015593516003840180549551600160a060020a03166101000274ffffffffffffffffffffffffffffffffffffffff001992151560ff1990971696909617919091169490941790935550915160049092019190915550565b600154600160a060020a031690565b600154600160a060020a0316331490565b60008181526002602052604081206004015481908190819085908210610731576040805160e560020a62461bcd02815260206004820152600960248201527f6e6f745f65786973740000000000000000000000000000000000000000000000604482015290519081900360640190fd5b5050506000928352505060026020819052604090912060018101546003820154919092015491926101008204600160a060020a0316929160ff1690565b600080826040518082805190602001908083835b602083106107a15780518252601f199092019160209182019101610782565b51815160209384036101000a60001901801990921691161790526040805192909401829003909120600081815260039092529281205492965091945050831191506108389050576040805160e560020a62461bcd02815260206004820152600a60248201527f6e6f745f61637469766500000000000000000000000000000000000000000000604482015290519081900360640190fd5b60008181526002602052604090206003015460ff1615156001146108a6576040805160e560020a62461bcd02815260206004820152600a60248201527f6e6f745f61637469766500000000000000000000000000000000000000000000604482015290519081900360640190fd5b600081815260026020526040902054821461090b576040805160e560020a62461bcd02815260206004820152600c60248201527f77726f6e675f7365637265740000000000000000000000000000000000000000604482015290519081900360640190fd5b6004805460008381526002602081815260408084209092015482517fa9059cbb000000000000000000000000000000000000000000000000000000008152339681019690965260248601529051600160a060020a039093169363a9059cbb9360448083019491928390030190829087803b15801561098857600080fd5b505af115801561099c573d6000803e3d6000fd5b505050506040513d60208110156109b257600080fd5b50506000818152600260209081526040918290206003810154600190910154835190815292513393610100909204600160a060020a0316927f80de5a7d3e27e32cfffc07551af7c9ee302a01b5456991722d7ef54193eab356928290030190a36000918252600360208181526040808520859055928452600290819052918320838155600181018490559182018390558101805474ffffffffffffffffffffffffffffffffffffffffff191690556004015550565b610a7033610af4565b565b610a7b336102fd565b1515610a8657600080fd5b610a8f81610b3c565b50565b600454600160a060020a031681565b610aa96106b0565b1515610ab457600080fd5b610a8f81610b84565b6000600160a060020a0382161515610ad457600080fd5b50600160a060020a03166000908152602091909152604090205460ff1690565b610b0560008263ffffffff610c0216565b604051600160a060020a038216907f3525e22824a8a7df2c9a6029941c824cf95b6447f1e13d5128fd3826d35afe8b90600090a250565b610b4d60008263ffffffff610c4e16565b604051600160a060020a038216907f47d1c22a25bb3a5d4e481b9b1e6944c2eade3181a0a20b495ed61d35b5323f2490600090a250565b600160a060020a0381161515610b9957600080fd5b600154604051600160a060020a038084169216907f8be0079c531659141344cd1fd0a4f28419497f9722a3daafe3b4186f6b6457e090600090a36001805473ffffffffffffffffffffffffffffffffffffffff1916600160a060020a0392909216919091179055565b600160a060020a0381161515610c1757600080fd5b610c218282610abd565b1515610c2c57600080fd5b600160a060020a0316600090815260209190915260409020805460ff19169055565b600160a060020a0381161515610c6357600080fd5b610c6d8282610abd565b15610c7757600080fd5b600160a060020a0316600090815260209190915260409020805460ff19166001179055565b6040805160c081018252600080825260208201819052918101829052606081018290526080810182905260a0810191909152905600a165627a7a72305820a1c763d15c688a560477266db3486170f773f6f983ee5d87b6e0e6206abd5b4f0029",
  "source": "pragma solidity ^0.4.24;\n\nimport \"../../node_modules/openzeppelin-solidity/contracts/math/SafeMath.sol\";\nimport \"../../node_modules/openzeppelin-solidity/contracts/access/roles/SignerRole.sol\";\nimport \"../../node_modules/openzeppelin-solidity/contracts/ownership/Ownable.sol\";\n\nimport \"./token/ERC223.sol\";\n\ncontract PrepaidCardManager is SignerRole, Ownable {\n  using SafeMath for uint256;\n\n  event CardValidated(\n    address indexed owner,\n    uint256 cardId,\n    address indexed user\n  );\n\n  struct Card {\n    bytes32 hash;\n    uint256 cardId;  \n    uint256 tokens;\n    bool active;\n    address owner;\n    uint initialized;\n  }\n\n  mapping (uint256 => Card) private cards_;\n  mapping (bytes32 => uint256) private activeCards_;\n\n  ERC223 public erc223;\n\n  modifier cardExists(uint256 _cardId) {\n    require(cards_[_cardId].initialized > 0, \"not_exist\");\n    _;\n  }\n\n  modifier validExists(uint256 _cardId) {\n    require(_cardId > 0, \"valid_card_id\");\n    _;\n  }\n\n  constructor(address _erc223Addr) public {\n    erc223 = ERC223(_erc223Addr);\n  }\n\n  function getCard(uint256 _cardId) cardExists(_cardId) public view returns(uint256 cardId, address owner, uint256 tokens, bool active)  {\n    return (cards_[_cardId].cardId, cards_[_cardId].owner, cards_[_cardId].tokens, cards_[_cardId].active);\n  }\n\n  function addCard(uint256 _cardId, uint256 _tokens, bytes32 _hash) validExists(_cardId) onlyOwner public {\n    require(_tokens > 0, \"empty_tokens\");\n    require(cards_[_cardId].initialized == 0, \"card_exist\");\n    erc223.mint(this,_tokens);\n    Card memory newCard = Card(_hash, _cardId, _tokens, false, msg.sender, 1);\n    cards_[_cardId] = newCard;    \n  }\n\n  function activateCard(uint256 _cardId) cardExists(_cardId) onlySigner public {\n    require(cards_[_cardId].active == false, \"not_activatable\");\n    cards_[_cardId].active=true;    \n    activeCards_[cards_[_cardId].hash]=_cardId;\n  }\n\n  function validateCard(bytes _secret) public {\n    bytes32 hash = keccak256(_secret);\n    uint256 cardId = activeCards_[hash];\n    require(cardId > 0, \"not_active\");\n    require(cards_[cardId].active == true, \"not_active\");\n    require(cards_[cardId].hash ==  hash, \"wrong_secret\");\n  \n    erc223.transfer(msg.sender,cards_[cardId].tokens);\n    emit CardValidated(cards_[cardId].owner, cards_[cardId].cardId, msg.sender);\n  \n    delete activeCards_[hash];\n    delete cards_[cardId];\n  }\n\n}",
  "sourcePath": "/home/jordi/ws/bloomen-wallet-truffle/contracts/bloomen/PrepaidCardManager.sol",
  "compiler": {
    "name": "solc",
    "version": "0.4.24+commit.e67f0147.Emscripten.clang"
  },
  "schemaVersion": "2.0.1",
  "updatedAt": "2018-11-27T10:47:37.342Z"
}