{
  "contractName": "SimpleStorage",
  "abi": [
    {
      "constant": true,
      "inputs": [],
      "name": "storedData",
      "outputs": [
        {
          "name": "",
          "type": "uint256"
        }
      ],
      "payable": false,
      "stateMutability": "view",
      "type": "function"
    },
    {
      "inputs": [
        {
          "name": "initVal",
          "type": "uint256"
        }
      ],
      "payable": false,
      "stateMutability": "nonpayable",
      "type": "constructor"
    },
    {
      "anonymous": false,
      "inputs": [
        {
          "indexed": false,
          "name": "value",
          "type": "uint256"
        }
      ],
      "name": "ValueChanged",
      "type": "event"
    },
    {
      "constant": false,
      "inputs": [
        {
          "name": "x",
          "type": "uint256"
        }
      ],
      "name": "set",
      "outputs": [],
      "payable": false,
      "stateMutability": "nonpayable",
      "type": "function"
    },
    {
      "constant": true,
      "inputs": [],
      "name": "get",
      "outputs": [
        {
          "name": "retVal",
          "type": "uint256"
        }
      ],
      "payable": false,
      "stateMutability": "view",
      "type": "function"
    }
  ],
  "bytecode": "0x608060405234801561001057600080fd5b5060405160208061014b8339810160405251600055610117806100346000396000f30060806040526004361060525763ffffffff7c01000000000000000000000000000000000000000000000000000000006000350416632a1afcd98114605757806360fe47b114607b5780636d4ce63c146092575b600080fd5b348015606257600080fd5b50606960a4565b60408051918252519081900360200190f35b348015608657600080fd5b50609060043560aa565b005b348015609d57600080fd5b50606960e5565b60005481565b60008190556040805182815290517f93fe6d397c74fdf1402a8b72e47b68512f0510d7b98a4bc4cbdf6ac7108b3c599181900360200190a150565b600054905600a165627a7a723058200fa6ddd8b87d7ef1a1880448a13209ba608e1cf39bd76adefdce9a2aedd52e610029",
  "source": "// File: `./contracts/SimpleStorage.sol`\n\npragma solidity ^0.4.17;\n\ncontract SimpleStorage {\n  uint public storedData;\n\n  constructor(uint initVal) public {\n    storedData = initVal;\n  }\n\n  function set(uint x) public {\n    storedData = x;\n    emit ValueChanged(x);\n  }\n\n  function get() view public returns (uint retVal) {\n    return storedData;\n  }\n\n  event ValueChanged(\n    uint256 value\n  );\n}\n",
  "sourcePath": "/home/jordi/ws/bloomen-wallet-truffle/contracts/utils/SimpleStorage.sol",
  "compiler": {
    "name": "solc",
    "version": "0.4.24+commit.e67f0147.Emscripten.clang"
  },
  "schemaVersion": "2.0.1",
  "updatedAt": "2018-11-27T14:30:49.791Z"
}