{
  "contractName": "SmJson",
  "abi": [
    {
      "inputs": [],
      "payable": false,
      "stateMutability": "nonpayable",
      "type": "constructor"
    },
    {
      "constant": true,
      "inputs": [],
      "name": "getNodes",
      "outputs": [
        {
          "components": [
            {
              "name": "path",
              "type": "string"
            },
            {
              "name": "value",
              "type": "string"
            }
          ],
          "name": "",
          "type": "tuple[]"
        }
      ],
      "payable": false,
      "stateMutability": "view",
      "type": "function"
    }
  ],
  "bytecode": "0x608060405234801561001057600080fd5b5060006100966040805190810160405280600b81526020017f612e622e632e40747970650000000000000000000000000000000000000000008152506040805190810160405280600581526020017f4173736574000000000000000000000000000000000000000000000000000000815250610347640100000000026401000000009004565b81546001810180845560009384526020938490208351805192956002909402909101926100c89284929091019061036e565b5060208281015180516100e1926001850192019061036e565b50505050600061016a6040805190810160405280600a81526020017f612e622e632e6e616d65000000000000000000000000000000000000000000008152506040805190810160405280600b81526020017f4d79206e657720536f6e67000000000000000000000000000000000000000000815250610347640100000000026401000000009004565b815460018101808455600093845260209384902083518051929560029094029091019261019c9284929091019061036e565b5060208281015180516101b5926001850192019061036e565b50505050600061023e6040805190810160405280600c81526020017f612e622e632e617574686f7200000000000000000000000000000000000000008152506040805190810160405280600b81526020017f4d79206e657720536f6e67000000000000000000000000000000000000000000815250610347640100000000026401000000009004565b81546001810180845560009384526020938490208351805192956002909402909101926102709284929091019061036e565b506020828101518051610289926001850192019061036e565b5050505060006102f36040805190810160405280600c81526020017f612e622e632e6c797269637300000000000000000000000000000000000000008152506103406040519081016040528061030781526020016107976103079139640100000000610347810204565b81546001810180845560009384526020938490208351805192956002909402909101926103259284929091019061036e565b50602082810151805161033e926001850192019061036e565b50505050610420565b61034f6103ec565b6103576103ec565b505060408051808201909152918252602082015290565b828054600181600116156101000203166002900490600052602060002090601f016020900481019282601f106103af57805160ff19168380011785556103dc565b828001600101855582156103dc579182015b828111156103dc5782518255916020019190600101906103c1565b506103e8929150610403565b5090565b604080518082019091526060808252602082015290565b61041d91905b808211156103e85760008155600101610409565b90565b6103688061042f6000396000f3006080604052600436106100405763ffffffff7c0100000000000000000000000000000000000000000000000000000000600035041663e29581aa8114610045575b600080fd5b34801561005157600080fd5b5061005a610070565b60405161006791906102d2565b60405180910390f35b60606000805480602002602001604051908101604052809291908181526020016000905b828210156101f25760008481526020908190206040805160028681029093018054600181161561010002600019011693909304601f8101859004909402810160609081018352918101848152909384928491908401828280156101385780601f1061010d57610100808354040283529160200191610138565b820191906000526020600020905b81548152906001019060200180831161011b57829003601f168201915b50505050508152602001600182018054600181600116156101000203166002900480601f0160208091040260200160405190810160405280929190818152602001828054600181600116156101000203166002900480156101da5780601f106101af576101008083540402835291602001916101da565b820191906000526020600020905b8154815290600101906020018083116101bd57829003601f168201915b50505050508152505081526020019060010190610094565b50505050905090565b6000610206826102f0565b8084526020840193508360208202850161021f856102ea565b60005b8481101561025657838303885261023a838351610297565b9250610245826102ea565b602098909801979150600101610222565b50909695505050505050565b600061026d826102f0565b8084526102818160208601602086016102f4565b61028a81610324565b9093016020019392505050565b80516040808452600091908401906102af8282610262565b915050602083015184820360208601526102c98282610262565b95945050505050565b602080825281016102e381846101fb565b9392505050565b60200190565b5190565b60005b8381101561030f5781810151838201526020016102f7565b8381111561031e576000848401525b50505050565b601f01601f1916905600a265627a7a723058206a019e83881f843901ae5b1aa2fdaf16b368aa33e7156ce16950193400aaf4c46c6578706572696d656e74616cf500374e756c6c6120666163696c6973692e204e756c6c616d207269737573206475692c20656765737461732073697420616d657420636f6e736563746574757220717569732c2073757363697069742076697461652073617069656e2e20416c697175616d206e756c6c6120697073756d2c206c6163696e69612071756973206c6967756c61207365642c20636f6e76616c6c697320636f6e76616c6c6973206d61676e612e205574207669746165206e657175652073616769747469732c206661756369627573206f64696f2061632c20616363756d73616e206f64696f2e2051756973717565206d6174746973206c6967756c612071756973207269737573206c75637475732c206163206d6178696d7573206469616d207661726975732e205365642065676574206c6967756c61206475692e204e756e63206575206475692070656c6c656e7465737175652c20636f6e7365717561742066656c697320756c6c616d636f727065722c20617563746f72206c656f2e2055742061206c6163757320666163696c697369732c206d6f6c6c6973206d61676e612076656c2c2076697665727261206d617373612e20496e746567657220657569736d6f64206c6f72656d2076656c20657820736f6c6c696369747564696e20636f6e6775652e2051756973717565206e6f6e2076697665727261206a7573746f2e20416c697175616d206163207665686963756c6120617263752c206174206661756369627573206c6967756c612e204e616d20612072686f6e637573206d61757269732e20457469616d20696e206772617669646120697073756d2c2061742076656e656e61746973206d692e2044756973206c7563747573206f64696f2065742068656e64726572697420666163696c697369732e20517569737175652074726973746971756520746f72746f72206f726e617265206d61747469732066696e696275732e20446f6e656320636f6d6d6f646f206d692065742066656c69732073616769747469732c206c6f626f7274697320706c6163657261742072697375732066617563696275732e",
  "source": "// File: `./contracts/SimpleStorage.sol`\n\npragma solidity ^0.4.17;\npragma experimental ABIEncoderV2;\n\ncontract SmJson {\n\n  struct PathValue{\n    string path;\n    string value;\n  }\n\n  PathValue[] data_;\n\n\n  constructor() public {\n    data_.push(_addPathData(\"a.b.c.@type\",\"Asset\"));\n    data_.push(_addPathData(\"a.b.c.name\", \"My new Song\"));\n    data_.push(_addPathData(\"a.b.c.author\", \"My new Song\"));\n    data_.push(_addPathData(\"a.b.c.lyrics\", \"Nulla facilisi. Nullam risus dui, egestas sit amet consectetur quis, suscipit vitae sapien. Aliquam nulla ipsum, lacinia quis ligula sed, convallis convallis magna. Ut vitae neque sagittis, faucibus odio ac, accumsan odio. Quisque mattis ligula quis risus luctus, ac maximus diam varius. Sed eget ligula dui. Nunc eu dui pellentesque, consequat felis ullamcorper, auctor leo. Ut a lacus facilisis, mollis magna vel, viverra massa. Integer euismod lorem vel ex sollicitudin congue. Quisque non viverra justo. Aliquam ac vehicula arcu, at faucibus ligula. Nam a rhoncus mauris. Etiam in gravida ipsum, at venenatis mi. Duis luctus odio et hendrerit facilisis. Quisque tristique tortor ornare mattis finibus. Donec commodo mi et felis sagittis, lobortis placerat risus faucibus.\"));\n    \n  }\n\n  function getNodes() public view returns (PathValue[]){    \n    return data_;\n  }\n\n  function _addPathData(string _path, string  _data) internal pure returns (PathValue) {\n    PathValue memory result = PathValue(_path, _data);\n    return result;\n  }\n\n}",
  "sourcePath": "/home/jordi/ws/bloomen-wallet-truffle/contracts/utils/SmJson.sol",
  "compiler": {
    "name": "solc",
    "version": "0.4.24+commit.e67f0147.Emscripten.clang"
  },
  "schemaVersion": "2.0.1",
  "updatedAt": "2018-11-27T10:40:00.687Z"
}