{
  "contractName": "Assets",
  "abi": [
    {
      "constant": true,
      "inputs": [],
      "name": "name",
      "outputs": [
        {
          "name": "",
          "type": "string"
        }
      ],
      "payable": false,
      "stateMutability": "view",
      "type": "function"
    },
    {
      "constant": false,
      "inputs": [
        {
          "name": "_to",
          "type": "address"
        },
        {
          "name": "_value",
          "type": "uint256"
        },
        {
          "name": "_data",
          "type": "uint256"
        }
      ],
      "name": "transfer",
      "outputs": [],
      "payable": false,
      "stateMutability": "nonpayable",
      "type": "function"
    },
    {
      "constant": false,
      "inputs": [
        {
          "name": "spender",
          "type": "address"
        },
        {
          "name": "value",
          "type": "uint256"
        }
      ],
      "name": "approve",
      "outputs": [
        {
          "name": "",
          "type": "bool"
        }
      ],
      "payable": false,
      "stateMutability": "nonpayable",
      "type": "function"
    },
    {
      "constant": true,
      "inputs": [
        {
          "name": "_page",
          "type": "int256"
        }
      ],
      "name": "getMovements",
      "outputs": [
        {
          "components": [
            {
              "name": "amount",
              "type": "int256"
            },
            {
              "name": "description",
              "type": "string"
            },
            {
              "name": "date",
              "type": "uint256"
            },
            {
              "name": "to",
              "type": "address"
            }
          ],
          "name": "",
          "type": "tuple[]"
        }
      ],
      "payable": false,
      "stateMutability": "view",
      "type": "function"
    },
    {
      "constant": true,
      "inputs": [],
      "name": "totalSupply",
      "outputs": [
        {
          "name": "",
          "type": "uint256"
        }
      ],
      "payable": false,
      "stateMutability": "view",
      "type": "function"
    },
    {
      "constant": false,
      "inputs": [
        {
          "name": "from",
          "type": "address"
        },
        {
          "name": "to",
          "type": "address"
        },
        {
          "name": "value",
          "type": "uint256"
        }
      ],
      "name": "transferFrom",
      "outputs": [
        {
          "name": "",
          "type": "bool"
        }
      ],
      "payable": false,
      "stateMutability": "nonpayable",
      "type": "function"
    },
    {
      "constant": true,
      "inputs": [
        {
          "name": "_schemaId",
          "type": "uint256"
        }
      ],
      "name": "getSchema",
      "outputs": [
        {
          "components": [
            {
              "name": "expirationDate",
              "type": "uint256"
            },
            {
              "name": "schemaId",
              "type": "uint256"
            },
            {
              "name": "amount",
              "type": "uint256"
            },
            {
              "name": "assetLifeTime",
              "type": "uint256"
            },
            {
              "components": [
                {
                  "name": "percent",
                  "type": "uint256"
                },
                {
                  "name": "receptor",
                  "type": "address"
                },
                {
                  "name": "description",
                  "type": "string"
                }
              ],
              "name": "clearingHouseRules",
              "type": "tuple[]"
            },
            {
              "name": "valid",
              "type": "bool"
            }
          ],
          "name": "",
          "type": "tuple"
        }
      ],
      "payable": false,
      "stateMutability": "view",
      "type": "function"
    },
    {
      "constant": true,
      "inputs": [],
      "name": "decimals",
      "outputs": [
        {
          "name": "",
          "type": "uint8"
        }
      ],
      "payable": false,
      "stateMutability": "view",
      "type": "function"
    },
    {
      "constant": false,
      "inputs": [
        {
          "name": "spender",
          "type": "address"
        },
        {
          "name": "addedValue",
          "type": "uint256"
        }
      ],
      "name": "increaseAllowance",
      "outputs": [
        {
          "name": "",
          "type": "bool"
        }
      ],
      "payable": false,
      "stateMutability": "nonpayable",
      "type": "function"
    },
    {
      "constant": false,
      "inputs": [
        {
          "name": "_schemaId",
          "type": "uint256"
        }
      ],
      "name": "validateSchema",
      "outputs": [],
      "payable": false,
      "stateMutability": "nonpayable",
      "type": "function"
    },
    {
      "constant": false,
      "inputs": [
        {
          "name": "to",
          "type": "address"
        },
        {
          "name": "value",
          "type": "uint256"
        }
      ],
      "name": "mint",
      "outputs": [
        {
          "name": "",
          "type": "bool"
        }
      ],
      "payable": false,
      "stateMutability": "nonpayable",
      "type": "function"
    },
    {
      "constant": false,
      "inputs": [
        {
          "name": "value",
          "type": "uint256"
        }
      ],
      "name": "burn",
      "outputs": [],
      "payable": false,
      "stateMutability": "nonpayable",
      "type": "function"
    },
    {
      "constant": false,
      "inputs": [
        {
          "name": "_schemaId",
          "type": "uint256"
        }
      ],
      "name": "invalidateSchema",
      "outputs": [],
      "payable": false,
      "stateMutability": "nonpayable",
      "type": "function"
    },
    {
      "constant": true,
      "inputs": [
        {
          "name": "owner",
          "type": "address"
        }
      ],
      "name": "balanceOf",
      "outputs": [
        {
          "name": "",
          "type": "uint256"
        }
      ],
      "payable": false,
      "stateMutability": "view",
      "type": "function"
    },
    {
      "constant": false,
      "inputs": [],
      "name": "renounceOwnership",
      "outputs": [],
      "payable": false,
      "stateMutability": "nonpayable",
      "type": "function"
    },
    {
      "constant": false,
      "inputs": [
        {
          "name": "from",
          "type": "address"
        },
        {
          "name": "value",
          "type": "uint256"
        }
      ],
      "name": "burnFrom",
      "outputs": [],
      "payable": false,
      "stateMutability": "nonpayable",
      "type": "function"
    },
    {
      "constant": false,
      "inputs": [
        {
          "name": "_amount",
          "type": "int256"
        },
        {
          "name": "_description",
          "type": "string"
        },
        {
          "name": "_to",
          "type": "address"
        }
      ],
      "name": "addMovement",
      "outputs": [],
      "payable": false,
      "stateMutability": "nonpayable",
      "type": "function"
    },
    {
      "constant": true,
      "inputs": [],
      "name": "owner",
      "outputs": [
        {
          "name": "",
          "type": "address"
        }
      ],
      "payable": false,
      "stateMutability": "view",
      "type": "function"
    },
    {
      "constant": true,
      "inputs": [],
      "name": "isOwner",
      "outputs": [
        {
          "name": "",
          "type": "bool"
        }
      ],
      "payable": false,
      "stateMutability": "view",
      "type": "function"
    },
    {
      "constant": true,
      "inputs": [],
      "name": "symbol",
      "outputs": [
        {
          "name": "",
          "type": "string"
        }
      ],
      "payable": false,
      "stateMutability": "view",
      "type": "function"
    },
    {
      "constant": false,
      "inputs": [
        {
          "name": "account",
          "type": "address"
        }
      ],
      "name": "addMinter",
      "outputs": [],
      "payable": false,
      "stateMutability": "nonpayable",
      "type": "function"
    },
    {
      "constant": false,
      "inputs": [],
      "name": "renounceMinter",
      "outputs": [],
      "payable": false,
      "stateMutability": "nonpayable",
      "type": "function"
    },
    {
      "constant": false,
      "inputs": [
        {
          "name": "_schemaId",
          "type": "uint256"
        },
        {
          "name": "_data",
          "type": "bytes"
        }
      ],
      "name": "createSchema",
      "outputs": [],
      "payable": false,
      "stateMutability": "nonpayable",
      "type": "function"
    },
    {
      "constant": false,
      "inputs": [
        {
          "name": "spender",
          "type": "address"
        },
        {
          "name": "subtractedValue",
          "type": "uint256"
        }
      ],
      "name": "decreaseAllowance",
      "outputs": [
        {
          "name": "",
          "type": "bool"
        }
      ],
      "payable": false,
      "stateMutability": "nonpayable",
      "type": "function"
    },
    {
      "constant": false,
      "inputs": [
        {
          "name": "_to",
          "type": "address"
        },
        {
          "name": "_value",
          "type": "uint256"
        }
      ],
      "name": "transfer",
      "outputs": [
        {
          "name": "",
          "type": "bool"
        }
      ],
      "payable": false,
      "stateMutability": "nonpayable",
      "type": "function"
    },
    {
      "constant": true,
      "inputs": [
        {
          "name": "account",
          "type": "address"
        }
      ],
      "name": "isMinter",
      "outputs": [
        {
          "name": "",
          "type": "bool"
        }
      ],
      "payable": false,
      "stateMutability": "view",
      "type": "function"
    },
    {
      "constant": true,
      "inputs": [
        {
          "name": "owner",
          "type": "address"
        },
        {
          "name": "spender",
          "type": "address"
        }
      ],
      "name": "allowance",
      "outputs": [
        {
          "name": "",
          "type": "uint256"
        }
      ],
      "payable": false,
      "stateMutability": "view",
      "type": "function"
    },
    {
      "constant": false,
      "inputs": [
        {
          "name": "newOwner",
          "type": "address"
        }
      ],
      "name": "transferOwnership",
      "outputs": [],
      "payable": false,
      "stateMutability": "nonpayable",
      "type": "function"
    },
    {
      "anonymous": false,
      "inputs": [
        {
          "indexed": true,
          "name": "account",
          "type": "address"
        }
      ],
      "name": "MinterAdded",
      "type": "event"
    },
    {
      "anonymous": false,
      "inputs": [
        {
          "indexed": true,
          "name": "account",
          "type": "address"
        }
      ],
      "name": "MinterRemoved",
      "type": "event"
    },
    {
      "anonymous": false,
      "inputs": [
        {
          "indexed": true,
          "name": "from",
          "type": "address"
        },
        {
          "indexed": true,
          "name": "to",
          "type": "address"
        },
        {
          "indexed": false,
          "name": "value",
          "type": "uint256"
        }
      ],
      "name": "Transfer",
      "type": "event"
    },
    {
      "anonymous": false,
      "inputs": [
        {
          "indexed": true,
          "name": "owner",
          "type": "address"
        },
        {
          "indexed": true,
          "name": "spender",
          "type": "address"
        },
        {
          "indexed": false,
          "name": "value",
          "type": "uint256"
        }
      ],
      "name": "Approval",
      "type": "event"
    },
    {
      "anonymous": false,
      "inputs": [
        {
          "indexed": true,
          "name": "previousOwner",
          "type": "address"
        },
        {
          "indexed": true,
          "name": "newOwner",
          "type": "address"
        }
      ],
      "name": "OwnershipTransferred",
      "type": "event"
    },
    {
      "constant": true,
      "inputs": [
        {
          "name": "_assetId",
          "type": "uint256"
        },
        {
          "name": "_schemaId",
          "type": "uint256"
        }
      ],
      "name": "checkOwnership",
      "outputs": [
        {
          "name": "",
          "type": "bool"
        }
      ],
      "payable": false,
      "stateMutability": "view",
      "type": "function"
    },
    {
      "constant": true,
      "inputs": [
        {
          "name": "_target",
          "type": "address"
        },
        {
          "name": "_assetId",
          "type": "uint256"
        },
        {
          "name": "_schemaId",
          "type": "uint256"
        }
      ],
      "name": "checkOwnershipForAddress",
      "outputs": [
        {
          "name": "",
          "type": "bool"
        }
      ],
      "payable": false,
      "stateMutability": "view",
      "type": "function"
    },
    {
      "constant": false,
      "inputs": [
        {
          "name": "_assetId",
          "type": "uint256"
        },
        {
          "name": "_schemaId",
          "type": "uint256"
        },
        {
          "name": "_amount",
          "type": "uint256"
        },
        {
          "name": "_dappId",
          "type": "string"
        },
        {
          "name": "_description",
          "type": "string"
        }
      ],
      "name": "buy",
      "outputs": [],
      "payable": false,
      "stateMutability": "nonpayable",
      "type": "function"
    },
    {
      "constant": false,
      "inputs": [
        {
          "name": "_assetId",
          "type": "uint256"
        },
        {
          "name": "_schemaId",
          "type": "uint256"
        },
        {
          "name": "_amount",
          "type": "uint256"
        },
        {
          "name": "_dappId",
          "type": "string"
        }
      ],
      "name": "buy",
      "outputs": [],
      "payable": false,
      "stateMutability": "nonpayable",
      "type": "function"
    },
    {
      "constant": true,
      "inputs": [],
      "name": "getAssetsPageCount",
      "outputs": [
        {
          "name": "",
          "type": "uint256"
        }
      ],
      "payable": false,
      "stateMutability": "view",
      "type": "function"
    },
    {
      "constant": true,
      "inputs": [
        {
          "name": "_page",
          "type": "uint256"
        }
      ],
      "name": "getAssets",
      "outputs": [
        {
          "components": [
            {
              "name": "expirationDate",
              "type": "uint256"
            },
            {
              "name": "assetId",
              "type": "uint256"
            },
            {
              "name": "schemaId",
              "type": "uint256"
            },
            {
              "name": "dappId",
              "type": "string"
            },
            {
              "name": "description",
              "type": "string"
            }
          ],
          "name": "",
          "type": "tuple[]"
        }
      ],
      "payable": false,
      "stateMutability": "view",
      "type": "function"
    },
    {
      "constant": false,
      "inputs": [
        {
          "name": "_from",
          "type": "address"
        },
        {
          "name": "_value",
          "type": "uint256"
        },
        {
          "name": "_schemaId",
          "type": "uint256"
        }
      ],
      "name": "tokenFallback",
      "outputs": [],
      "payable": false,
      "stateMutability": "nonpayable",
      "type": "function"
    },
    {
      "constant": true,
      "inputs": [
        {
          "name": "theNumber",
          "type": "uint256"
        },
        {
          "name": "percentage",
          "type": "uint256"
        }
      ],
      "name": "calculatePercentage",
      "outputs": [
        {
          "name": "",
          "type": "uint256"
        }
      ],
      "payable": false,
      "stateMutability": "view",
      "type": "function"
    }
  ],
  "bytecode": "0x600b60809081527f426c6f6f6d656e436f696e00000000000000000000000000000000000000000060a0526101006040819052600360c09081527f424c4f000000000000000000000000000000000000000000000000000000000060e05260008054600160a060020a03191633178082559192600292859285928592600160a060020a031691907f8be0079c531659141344cd1fd0a4f28419497f9722a3daafe3b4186f6b6457e0908290a38251620000c0906005906020860190620001f0565b508151620000d6906006906020850190620001f0565b506007805460ff191660ff9290921691909117905550620001029050336401000000006200010b810204565b50505062000295565b620001266008826401000000006200231d6200015d82021704565b604051600160a060020a038216907f6ae172837ea30b801fbfcdd4108aa1d5bf8ff775444fd70256b44e6bf3dfc3f690600090a250565b600160a060020a03811615156200017357600080fd5b620001888282640100000000620001b8810204565b156200019357600080fd5b600160a060020a0316600090815260209190915260409020805460ff19166001179055565b6000600160a060020a0382161515620001d057600080fd5b50600160a060020a03166000908152602091909152604090205460ff1690565b828054600181600116156101000203166002900490600052602060002090601f016020900481019282601f106200023357805160ff191683800117855562000263565b8280016001018555821562000263579182015b828111156200026357825182559160200191906001019062000246565b506200027192915062000275565b5090565b6200029291905b808211156200027157600081556001016200027c565b90565b61341480620002a56000396000f3006080604052600436106101c15763ffffffff7c010000000000000000000000000000000000000000000000000000000060003504166304edae0f81146101c657806306fdde03146101fc578063080e68871461021e578063095bcdb614610240578063095ea7b31461026057806317b1b4981461028057806318160ddd146102ad5780632133e3b9146102cf57806323b872dd146102ef5780632b26fb291461030f578063313ce5671461033c578063395093511461035e5780634014d4681461037e57806340c10f191461039e57806342966c68146103be5780634aa3bfeb146103de5780634f4ee353146103f35780635a16f5c414610413578063700651aa1461043357806370a0823114610453578063715018a61461047357806379cc6790146104885780637de3b0ed146104a857806386b00ad5146104c85780638da5cb5b146104e85780638f32d59b1461050a57806395d89b411461051f578063983b2d56146105345780639865027514610554578063a2086dab14610569578063a457c2d714610589578063a9059cbb146105a9578063aa271e1a146105c9578063d9212164146105e9578063dd62ed3e14610616578063f2fde38b14610636575b600080fd5b3480156101d257600080fd5b506101e66101e1366004612afb565b610656565b6040516101f391906131fc565b60405180910390f35b34801561020857600080fd5b5061021161066c565b6040516101f3919061320a565b34801561022a57600080fd5b5061023e610239366004612b93565b610703565b005b34801561024c57600080fd5b5061023e61025b366004612a08565b610718565b34801561026c57600080fd5b506101e661027b3660046129d8565b610734565b34801561028c57600080fd5b506102a061029b366004612a3a565b6107b6565b6040516101f391906131eb565b3480156102b957600080fd5b506102c2610a06565b6040516101f391906132ec565b3480156102db57600080fd5b506102c26102ea366004612afb565b610a0c565b3480156102fb57600080fd5b506101e661030a36600461298b565b610a14565b34801561031b57600080fd5b5061032f61032a366004612a3a565b610ab1565b6040516101f391906132db565b34801561034857600080fd5b50610351610c47565b6040516101f391906132fa565b34801561036a57600080fd5b506101e66103793660046129d8565b610c50565b34801561038a57600080fd5b5061023e610399366004612a3a565b610cf3565b3480156103aa57600080fd5b506101e66103b93660046129d8565b610d14565b3480156103ca57600080fd5b5061023e6103d9366004612a3a565b610d3d565b3480156103ea57600080fd5b506102c2610d47565b3480156103ff57600080fd5b5061023e61040e366004612a08565b610d5e565b34801561041f57600080fd5b5061023e61042e366004612a3a565b610e2a565b34801561043f57600080fd5b506101e661044e366004612a08565b610e48565b34801561045f57600080fd5b506102c261046e366004612933565b610e5d565b34801561047f57600080fd5b5061023e610e78565b34801561049457600080fd5b5061023e6104a33660046129d8565b610ee2565b3480156104b457600080fd5b5061023e6104c3366004612b1a565b610ef0565b3480156104d457600080fd5b5061023e6104e3366004612a58565b610f14565b3480156104f457600080fd5b506104fd610f20565b6040516101f391906131a4565b34801561051657600080fd5b506101e6610f2f565b34801561052b57600080fd5b50610211610f40565b34801561054057600080fd5b5061023e61054f366004612933565b610fa1565b34801561056057600080fd5b5061023e610fbe565b34801561057557600080fd5b5061023e610584366004612ab3565b610fc9565b34801561059557600080fd5b506101e66105a43660046129d8565b610fe6565b3480156105b557600080fd5b506101e66105c43660046129d8565b611031565b3480156105d557600080fd5b506101e66105e4366004612933565b61104b565b3480156105f557600080fd5b50610609610604366004612a3a565b61105e565b6040516101f391906131da565b34801561062257600080fd5b506102c2610631366004612951565b6112dc565b34801561064257600080fd5b5061023e610651366004612933565b611307565b6000610663338484611323565b90505b92915050565b60058054604080516020601f60026000196101006001881615020190951694909404938401819004810282018101909252828152606093909290918301828280156106f85780601f106106cd576101008083540402835291602001916106f8565b820191906000526020600020905b8154815290600101906020018083116106db57829003601f168201915b505050505090505b90565b610711338686868686611530565b5050505050565b61072333848461165c565b61072f338484846116ed565b505050565b6000600160a060020a038316151561074b57600080fd5b336000818152600360209081526040808320600160a060020a03881680855292529182902085905590519091907f8c5be1e5ebec7d5bd14f71427d1e84f3dd0314c0f7b2291e5b200ac8c7c3b925906107a59086906132ec565b60405180910390a350600192915050565b606060006060806000806000871380156107d15750600a8713155b15156107fb5760405160e560020a62461bcd0281526004016107f29061322b565b60405180910390fd5b3360009081526009602090815260408083208054825181850281018501909352808352600a6000198d010299509193909284015b8282101561093157838290600052602060002090600402016080604051908101604052908160008201548152602001600182018054600181600116156101000203166002900480601f0160208091040260200160405190810160405280929190818152602001828054600181600116156101000203166002900480156108f65780601f106108cb576101008083540402835291602001916108f6565b820191906000526020600020905b8154815290600101906020018083116108d957829003601f168201915b50505091835250506002820154602080830191909152600390920154600160a060020a0316604090910152908252600192909201910161082f565b505050509350848451111515610946576109fc565b60408051600a808252610160820190925290816020015b61096561277d565b81526020019060019003908161095d579050509250600091505b600a8212156109f85750336000908152600a6020526040812054859003829003908112156109bd576064845110156109b9578295506109fc565b6064015b83818151811015156109cb57fe5b9060200190602002015183838151811015156109e357fe5b6020908102909101015260019091019061097f565b8295505b5050505050919050565b60045490565b606491020490565b600160a060020a0383166000908152600360209081526040808320338452909152812054821115610a4457600080fd5b600160a060020a0384166000908152600360209081526040808320338452909152902054610a78908363ffffffff6117bc16565b600160a060020a0385166000908152600360209081526040808320338452909152902055610aa784848461165c565b5060019392505050565b610ab96127af565b60008281526001602081905260408220015411610aeb5760405160e560020a62461bcd0281526004016107f29061325b565b6000828152600160208181526040808420815160c081018352815481529381015484840152600281015484830152600381015460608501526004810180548351818602810186019094528084529495919460808701949192909184015b82821015610c28576000848152602090819020604080516060810182526003860290920180548352600180820154600160a060020a0316848601526002808301805485516101009482161594909402600019011691909104601f8101879004870283018701855280835294959294938601939192909190830182828015610c105780601f10610be557610100808354040283529160200191610c10565b820191906000526020600020905b815481529060010190602001808311610bf357829003601f168201915b50505050508152505081526020019060010190610b48565b505050908252506005919091015460ff16151560209091015292915050565b60075460ff1690565b6000600160a060020a0383161515610c6757600080fd5b336000908152600360209081526040808320600160a060020a0387168452909152902054610c9b908363ffffffff6117d316565b336000818152600360209081526040808320600160a060020a038916808552925291829020849055905190927f8c5be1e5ebec7d5bd14f71427d1e84f3dd0314c0f7b2291e5b200ac8c7c3b925916107a591906132ec565b610cfb610f2f565b1515610d0657600080fd5b610d118160016117ec565b50565b6000610d1f3361104b565b1515610d2a57600080fd5b610d34838361187e565b50600192915050565b610d11338261191b565b336000908152600b6020526040902054600a900690565b610d666127af565b6000806000610d7485610ab1565b9350859250600091505b600184608001515103821015610df157610db486856080015184815181101515610da457fe5b6020908102909101015151610a0c565b9050610de1846080015183815181101515610dcb57fe5b9060200190602002015160200151826000610718565b9182900391600190910190610d7e565b60808401518051610e2191906000198101908110610e0b57fe5b9060200190602002015160200151846000610718565b50505050505050565b610e32610f2f565b1515610e3d57600080fd5b610d118160006117ec565b6000610e55848484611323565b949350505050565b600160a060020a031660009081526002602052604090205490565b610e80610f2f565b1515610e8b57600080fd5b60008054604051600160a060020a03909116907f8be0079c531659141344cd1fd0a4f28419497f9722a3daafe3b4186f6b6457e0908390a36000805473ffffffffffffffffffffffffffffffffffffffff19169055565b610eec82826119ce565b5050565b610f0e33858585856020604051908101604052806000815250611530565b50505050565b61072f83833384611a60565b600054600160a060020a031690565b600054600160a060020a0316331490565b60068054604080516020601f60026000196101006001881615020190951694909404938401819004810282018101909252828152606093909290918301828280156106f85780601f106106cd576101008083540402835291602001916106f8565b610faa3361104b565b1515610fb557600080fd5b610d1181611d1d565b610fc733611d65565b565b610fd1610f2f565b1515610fdc57600080fd5b610eec8282611dad565b6000600160a060020a0383161515610ffd57600080fd5b336000908152600360209081526040808320600160a060020a0387168452909152902054610c9b908363ffffffff6117bc16565b600061103e33848461165c565b610d3433848460006116ed565b600061066660088363ffffffff61214916565b336000908152600b602090815260408083208054825181850281018501909352808352606094600919600a88020194869485949293909291849084015b82821015611222578382906000526020600020906005020160a06040519081016040529081600082015481526020016001820154815260200160028201548152602001600382018054600181600116156101000203166002900480601f0160208091040260200160405190810160405280929190818152602001828054600181600116156101000203166002900480156111765780601f1061114b57610100808354040283529160200191611176565b820191906000526020600020905b81548152906001019060200180831161115957829003601f168201915b505050918352505060048201805460408051602060026001851615610100026000190190941693909304601f810184900484028201840190925281815293820193929183018282801561120a5780601f106111df5761010080835404028352916020019161120a565b820191906000526020600020905b8154815290600101906020018083116111ed57829003601f168201915b5050505050815250508152602001906001019061109b565b50505050925082516000148061123b5750600183510384115b15611245576112d3565b60408051600a808252610160820190925290816020015b6112646127e8565b81526020019060019003908161125c579050509150600090505b85600a028410156112cf5782518410156112c35782848151811015156112a057fe5b9060200190602002015182828151811015156112b857fe5b602090810290910101525b6001938401930161127e565b8194505b50505050919050565b600160a060020a03918216600090815260036020908152604080832093909416825291909152205490565b61130f610f2f565b151561131a57600080fd5b610d1181612180565b60008061132e6127e8565b600091505b600160a060020a0386166000908152600b602052604090205482101561152257600160a060020a0386166000908152600b6020526040902080548390811061137757fe5b906000526020600020906005020160a06040519081016040529081600082015481526020016001820154815260200160028201548152602001600382018054600181600116156101000203166002900480601f0160208091040260200160405190810160405280929190818152602001828054600181600116156101000203166002900480156114485780601f1061141d57610100808354040283529160200191611448565b820191906000526020600020905b81548152906001019060200180831161142b57829003601f168201915b505050918352505060048201805460408051602060026001851615610100026000190190941693909304601f81018490048402820184019092528181529382019392918301828280156114dc5780601f106114b1576101008083540402835291602001916114dc565b820191906000526020600020905b8154815290600101906020018083116114bf57829003601f168201915b50505050508152505090508481602001511480156114fd5750838160400151145b80156115095750805142105b156115175760019250611527565b600190910190611333565b600092505b50509392505050565b6115386127af565b61154185610ab1565b6040810151909150841461156a5760405160e560020a62461bcd0281526004016107f2906132ab565b611575878787611323565b156115955760405160e560020a62461bcd0281526004016107f2906132cb565b60008411156115a9576115a9308587610718565b600160a060020a0387166000908152600b60209081526040808320815160a081018352606080870151420182528185018c81529382018b815290820189815260808301899052835460018181018087559589529787902084516005909202019081559451968501969096555160028401559351805191949361163392600385019290910190612818565b506080820151805161164f916004840191602090910190612818565b5050505050505050505050565b6116a181600019026040805190810160405280600481526020017f73656e64000000000000000000000000000000000000000000000000000000008152508585611a60565b6116e2816040805190810160405280600781526020017f72656365697665000000000000000000000000000000000000000000000000008152508486611a60565b61072f8383836121fd565b60006116f88461230e565b1561177c57506040517f4f4ee3530000000000000000000000000000000000000000000000000000000081528390600160a060020a03821690634f4ee35390611749908890879087906004016131b2565b600060405180830381600087803b15801561176357600080fd5b505af1158015611777573d6000803e3d6000fd5b505050505b83600160a060020a031685600160a060020a03166000805160206133bb833981519152856040516117ad91906132ec565b60405180910390a35050505050565b600080838311156117cc57600080fd5b5050900390565b6000828201838110156117e557600080fd5b9392505050565b6000828152600160208190526040909120015415156118205760405160e560020a62461bcd0281526004016107f29061326b565b60008281526001602052604090206005015460ff161515811515141561185b5760405160e560020a62461bcd0281526004016107f2906132bb565b600091825260016020526040909120600501805460ff1916911515919091179055565b600160a060020a038216151561189357600080fd5b6004546118a6908263ffffffff6117d316565b600455600160a060020a0382166000908152600260205260409020546118d2908263ffffffff6117d316565b600160a060020a0383166000818152600260205260408082209390935591519091906000805160206133bb8339815191529061190f9085906132ec565b60405180910390a35050565b600160a060020a038216151561193057600080fd5b600160a060020a03821660009081526002602052604090205481111561195557600080fd5b600454611968908263ffffffff6117bc16565b600455600160a060020a038216600090815260026020526040902054611994908263ffffffff6117bc16565b600160a060020a0383166000818152600260205260408082209390935591516000805160206133bb8339815191529061190f9085906132ec565b600160a060020a03821660009081526003602090815260408083203384529091529020548111156119fe57600080fd5b600160a060020a0382166000908152600360209081526040808320338452909152902054611a32908263ffffffff6117bc16565b600160a060020a0383166000908152600360209081526040808320338452909152902055610eec828261191b565b600160a060020a03821660009081526009602052604090205460641115611b5957600160a060020a03808316600090815260096020908152604080832081516080810183528981528084018981524293820193909352948616606086015280546001818101808455928652948490208651600490920201908155915180519195949293611af293850192910190612818565b5060408281015160028301556060909201516003909101805473ffffffffffffffffffffffffffffffffffffffff1916600160a060020a03928316179055841660009081526009602090815282822054600a90915291902060001991909101905550610f0e565b600160a060020a0382166000908152600a602052604090205460631415611c4757600160a060020a038083166000818152600a602090815260408083208390558051608081018252898152808301899052428183015294861660608601529282526009905290812080549091908110611bce57fe5b9060005260206000209060040201600082015181600001556020820151816001019080519060200190611c02929190612818565b50604082015160028201556060909101516003909101805473ffffffffffffffffffffffffffffffffffffffff1916600160a060020a03909216919091179055610f0e565b600160a060020a038083166000818152600a6020818152604080842080546001019081905581516080810183528b81528084018b90524281840152968816606088015294845260098252909220915280549091908110611ca357fe5b9060005260206000209060040201600082015181600001556020820151816001019080519060200190611cd7929190612818565b50604082015160028201556060909101516003909101805473ffffffffffffffffffffffffffffffffffffffff1916600160a060020a0390921691909117905550505050565b611d2e60088263ffffffff61231d16565b604051600160a060020a038216907f6ae172837ea30b801fbfcdd4108aa1d5bf8ff775444fd70256b44e6bf3dfc3f690600090a250565b611d7660088263ffffffff61236b16565b604051600160a060020a038216907fe94479a9f7e1952cc78f2d6baab678adc1b772d936c6583def489e524cb6669290600090a250565b611db5612896565b606060008060008060606000806060600160008d8152602001908152602001600020600101546000141515611dff5760405160e560020a62461bcd0281526004016107f29061329b565b611e088b6123b7565b9950611e138a612405565b9850611e36896000815181101515611e2757fe5b906020019060200201516124cf565b9750428811611e5a5760405160e560020a62461bcd0281526004016107f29061327b565b611e6c896001815181101515611e2757fe5b9650611e80896002815181101515611e2757fe5b9550611e94896003815181101515611e2757fe5b9450611eb7896004815181101515611ea857fe5b90602001906020020151612405565b935083519250600091505b82821015611fe557611edb8483815181101515611ea857fe5b905060016000888152602001908152602001600020600401606060405190810160405280611f11846000815181101515611e2757fe5b8152602001611f37846001815181101515611f2857fe5b90602001906020020151612505565b600160a060020a03168152602001611f66846002815181101515611f5757fe5b90602001906020020151612536565b9052815460018082018085556000948552602094859020845160039094020192835583850151918301805473ffffffffffffffffffffffffffffffffffffffff1916600160a060020a0390931692909217909155604083015180519194611fd592600285019290910190612818565b505060019093019250611ec29050565b61210760016000898152602001908152602001600020600401805480602002602001604051908101604052809291908181526020016000905b828210156120fe576000848152602090819020604080516060810182526003860290920180548352600180820154600160a060020a0316848601526002808301805485516101009482161594909402600019011691909104601f81018790048702830187018552808352949592949386019391929091908301828280156120e65780601f106120bb576101008083540402835291602001916120e6565b820191906000526020600020905b8154815290600101906020018083116120c957829003601f168201915b5050505050815250508152602001906001019061201e565b5050505061259f565b50505060008481526001602081905260409091209586558581019490945550600284019190915560038301556005909101805460ff1916909117905550505050565b6000600160a060020a038216151561216057600080fd5b50600160a060020a03166000908152602091909152604090205460ff1690565b600160a060020a038116151561219557600080fd5b60008054604051600160a060020a03808516939216917f8be0079c531659141344cd1fd0a4f28419497f9722a3daafe3b4186f6b6457e091a36000805473ffffffffffffffffffffffffffffffffffffffff1916600160a060020a0392909216919091179055565b600160a060020a0383166000908152600260205260409020548111156122385760405160e560020a62461bcd0281526004016107f29061328b565b600160a060020a03821615156122635760405160e560020a62461bcd0281526004016107f29061321b565b600160a060020a03831660009081526002602052604090205461228c908263ffffffff6117bc16565b600160a060020a0380851660009081526002602052604080822093909355908416815220546122c1908263ffffffff6117d316565b600160a060020a0380841660008181526002602052604090819020939093559151908516906000805160206133bb833981519152906123019085906132ec565b60405180910390a3505050565b6000813b908111905b50919050565b600160a060020a038116151561233257600080fd5b61233c8282612149565b1561234657600080fd5b600160a060020a0316600090815260209190915260409020805460ff19166001179055565b600160a060020a038116151561238057600080fd5b61238a8282612149565b151561239557600080fd5b600160a060020a0316600090815260209190915260409020805460ff19169055565b6123bf612896565b60008251600014156123e65760408051808201909152600080825260208201529150612317565b5050604080518082019091528151815260209182019181019190915290565b6060600080600080612416866125c3565b151561242157600080fd5b61242a866125f2565b93508360405190808252806020026020018201604052801561246657816020015b612453612896565b81526020019060019003908161244b5790505b5094506124768660200151612642565b8660200151019250600090505b838110156112d357612494836126a5565b915060408051908101604052808381526020018481525085828151811015156124b957fe5b6020908102909101015291810191600101612483565b60008060008060006124e48660200151612642565b86516020978801518201519190039096036101000a90950495945050505050565b80516000906015101561252d5760405160e560020a62461bcd0281526004016107f29061324b565b610666826124cf565b60606000806060600061254c8660200151612642565b9350838660000151039250826040519080825280601f01601f191660200182016040528015612585578160200160208202803883390190505b5091508160200190506112cf848760200151018285612736565b8051600010610d115760405160e560020a62461bcd0281526004016107f29061323b565b6020810151805160009190821a9060c060ff831610156125e657600092506125eb565b600192505b5050919050565b600080600080600092506126098560200151612642565b6020860151865191810193500190505b808210156126395761262a826126a5565b60019093019290910190612619565b50909392505050565b8051600090811a608081101561265b5760009150612317565b60b8811080612676575060c08110801590612676575060f881105b156126845760019150612317565b60c08110156126995760b51981019150612317565b60f51981019150612317565b8051600090811a60808110156126be5760019150612317565b60b88110156126d357607e1981019150612317565b60c08110156127005760b78103600184019350806020036101000a84510460018201810193505050612317565b60f88110156127155760be1981019150612317565b60019290920151602083900360f7016101000a900490910160f51901919050565b60005b6020821061275b578351835260209384019390920191601f1990910190612739565b50915181516020939093036101000a6000190180199091169216919091179052565b6080604051908101604052806000815260200160608152602001600081526020016000600160a060020a031681525090565b60c06040519081016040528060008152602001600081526020016000815260200160008152602001606081526020016000151581525090565b60a06040519081016040528060008152602001600081526020016000815260200160608152602001606081525090565b828054600181600116156101000203166002900490600052602060002090601f016020900481019282601f1061285957805160ff1916838001178555612886565b82800160010185558215612886579182015b8281111561288657825182559160200191906001019061286b565b506128929291506128ad565b5090565b604080518082019091526000808252602082015290565b61070091905b8082111561289257600081556001016128b3565b60006106638235613361565b6000601f820183136128e457600080fd5b81356128f76128f28261332f565b613308565b9150808252602083016020830185838301111561291357600080fd5b61291e838284613378565b50505092915050565b60006106638235610700565b60006020828403121561294557600080fd5b6000610e5584846128c7565b6000806040838503121561296457600080fd5b600061297085856128c7565b9250506020612981858286016128c7565b9150509250929050565b6000806000606084860312156129a057600080fd5b60006129ac86866128c7565b93505060206129bd868287016128c7565b92505060406129ce86828701612927565b9150509250925092565b600080604083850312156129eb57600080fd5b60006129f785856128c7565b925050602061298185828601612927565b600080600060608486031215612a1d57600080fd5b6000612a2986866128c7565b93505060206129bd86828701612927565b600060208284031215612a4c57600080fd5b6000610e558484612927565b600080600060608486031215612a6d57600080fd5b6000612a798686612927565b935050602084013567ffffffffffffffff811115612a9657600080fd5b612aa2868287016128d3565b92505060406129ce868287016128c7565b60008060408385031215612ac657600080fd5b6000612ad28585612927565b925050602083013567ffffffffffffffff811115612aef57600080fd5b612981858286016128d3565b60008060408385031215612b0e57600080fd5b60006129f78585612927565b60008060008060808587031215612b3057600080fd5b6000612b3c8787612927565b9450506020612b4d87828801612927565b9350506040612b5e87828801612927565b925050606085013567ffffffffffffffff811115612b7b57600080fd5b612b87878288016128d3565b91505092959194509250565b600080600080600060a08688031215612bab57600080fd5b6000612bb78888612927565b9550506020612bc888828901612927565b9450506040612bd988828901612927565b935050606086013567ffffffffffffffff811115612bf657600080fd5b612c02888289016128d3565b925050608086013567ffffffffffffffff811115612c1f57600080fd5b612c2b888289016128d3565b9150509295509295909350565b612c4181613361565b82525050565b6000612c528261335d565b80845260208401935083602082028501612c6b85613357565b60005b84811015612ca2578383038852612c86838351613011565b9250612c9182613357565b602098909801979150600101612c6e565b50909695505050505050565b6000612cb98261335d565b80845260208401935083602082028501612cd285613357565b60005b84811015612ca2578383038852612ced838351613086565b9250612cf882613357565b602098909801979150600101612cd5565b6000612d148261335d565b80845260208401935083602082028501612d2d85613357565b60005b84811015612ca2578383038852612d488383516130c5565b9250612d5382613357565b602098909801979150600101612d30565b612c418161336d565b612c4181610700565b6000612d818261335d565b808452612d95816020860160208601613384565b612d9e816133b0565b9093016020019392505050565b600781527f6572726f725f3200000000000000000000000000000000000000000000000000602082015260400190565b600d81527f496e76616c696420706167652e00000000000000000000000000000000000000602082015260400190565b600981527f6e6f742072756c65730000000000000000000000000000000000000000000000602082015260400190565b603a81527f496e76616c696420524c504974656d2e2041646472657373657320617265206560208201527f6e636f64656420696e203230206279746573206f72206c657373000000000000604082015260600190565b600981527f6e6f745f65786973740000000000000000000000000000000000000000000000602082015260400190565b600981527f6e6f742065786973740000000000000000000000000000000000000000000000602082015260400190565b600781527f6578706972656400000000000000000000000000000000000000000000000000602082015260400190565b600781527f6572726f725f3100000000000000000000000000000000000000000000000000602082015260400190565b600581527f6578697374000000000000000000000000000000000000000000000000000000602082015260400190565b601081527f696e636f727265637420616d6f756e7400000000000000000000000000000000602082015260400190565b600b81527f73616d6520737461747573000000000000000000000000000000000000000000602082015260400190565b600a81527f6475706c69636174656400000000000000000000000000000000000000000000602082015260400190565b805160009060a08401906130258582612d6d565b5060208301516130386020860182612d6d565b50604083015161304b6040860182612d6d565b50606083015184820360608601526130638282612d76565b9150506080830151848203608086015261307d8282612d76565b95945050505050565b8051600090606084019061309a8582612d6d565b5060208301516130ad6020860182612c38565b506040830151848203604086015261307d8282612d76565b805160009060808401906130d98582612d6d565b50602083015184820360208601526130f18282612d76565b91505060408301516131066040860182612d6d565b5060608301516131196060860182612c38565b509392505050565b805160009060c08401906131358582612d6d565b5060208301516131486020860182612d6d565b50604083015161315b6040860182612d6d565b50606083015161316e6060860182612d6d565b50608083015184820360808601526131868282612cae565b91505060a083015161311960a0860182612d64565b612c4181613372565b602081016106668284612c38565b606081016131c08286612c38565b6131cd6020830185612d6d565b610e556040830184612d6d565b602080825281016106638184612c47565b602080825281016106638184612d09565b602081016106668284612d64565b602080825281016106638184612d76565b6020808252810161066681612dab565b6020808252810161066681612ddb565b6020808252810161066681612e0b565b6020808252810161066681612e3b565b6020808252810161066681612e91565b6020808252810161066681612ec1565b6020808252810161066681612ef1565b6020808252810161066681612f21565b6020808252810161066681612f51565b6020808252810161066681612f81565b6020808252810161066681612fb1565b6020808252810161066681612fe1565b602080825281016106638184613121565b602081016106668284612d6d565b60208101610666828461319b565b60405181810167ffffffffffffffff8111828210171561332757600080fd5b604052919050565b600067ffffffffffffffff82111561334657600080fd5b506020601f91909101601f19160190565b60200190565b5190565b600160a060020a031690565b151590565b60ff1690565b82818337506000910152565b60005b8381101561339f578181015183820152602001613387565b83811115610f0e5750506000910152565b601f01601f1916905600ddf252ad1be2c89b69c2b068fc378daa952ba7f163c4a11628f55a4df523b3efa265627a7a72305820a0fd2a119f22399c1b37653f2385899dc822eabf7eeea77de9c26cd02cbd09296c6578706572696d656e74616cf50037",
  "source": "pragma solidity 0.4.24;\npragma experimental ABIEncoderV2;\n\nimport \"./Schemas.sol\";\nimport \"./token/ERC223ReceivingContract.sol\";\nimport \"./token/ERC223.sol\";\nimport \"../../node_modules/openzeppelin-solidity/contracts/math/SafeMath.sol\";\n\ncontract  Assets is Schemas, ERC223ReceivingContract, ERC223(\"BloomenCoin\",\"BLO\",2) {\n\n  using SafeMath for uint256;\n    \n  struct UserAssets {   \n    Asset[] assets;\n  } \n\n  struct Asset {   \n    uint expirationDate;\n    uint256 assetId;\n    uint256 schemaId;\n    string dappId;\n    string description;\n  }\n\n  uint256 constant private PAGE_SIZE = 10;\n\n  // buy://<assetId>#<schemaId>#<amount>#<dappId>#amount\n\n  mapping (address => UserAssets) private userAssets_;\n\n  function checkOwnership(uint256 _assetId, uint256 _schemaId) public view returns (bool) {\n    return _checkOwnership(msg.sender, _assetId, _schemaId);  \n  }\n\n  function checkOwnershipForAddress(address _target, uint256 _assetId, uint256 _schemaId) public view returns (bool) {\n    return _checkOwnership(_target, _assetId, _schemaId);  \n  }\n\n  function buy(uint256 _assetId, uint256 _schemaId, uint256 _amount, string _dappId) public  {\n    _buy(msg.sender, _assetId, _schemaId, _amount, _dappId, \"\");  \n  }\n\n  function buy(uint256 _assetId, uint256 _schemaId, uint256 _amount, string _dappId, string _description) public  {\n    _buy(msg.sender, _assetId, _schemaId, _amount, _dappId, _description);  \n  }\n\n  function getAssetsPageCount() public view returns (uint256) {\n    return userAssets_[msg.sender].assets.length % PAGE_SIZE;\n  }\n\n  function getAssets(uint256 _page) public view returns (Asset[] memory) {\n    \n    uint256 transferIndex = PAGE_SIZE * _page - PAGE_SIZE;\n    Asset[] memory assets = userAssets_[msg.sender].assets;\n\n    if (assets.length == 0 || transferIndex > assets.length - 1) {\n      return;\n    }\n\n    Asset[] memory assetsPage = new Asset[](PAGE_SIZE);  \n    uint256 returnCounter = 0;\n\n    for (transferIndex; transferIndex < PAGE_SIZE * _page; transferIndex++) {\n      if (transferIndex < assets.length) {\n        assetsPage[returnCounter] = assets[transferIndex];\n      }\n      returnCounter++;\n    }\n\n    return (assetsPage);\n  }\n\n  function _buy(address _user, uint256 _assetId, uint256 _schemaId, uint256 _amount, string _dappId, string _description) internal  {\n    Schema memory schema = Schemas.getSchema(_schemaId);\n    require(schema.amount == _amount, \"incorrect amount\");    \n    require(!_checkOwnership(_user, _assetId, _schemaId), \"duplicated\");\n\n    if (_amount >0 ){\n      // avoid money transfer on free assets\n      ERC223.transfer(this, _amount, _schemaId);\n    }\n  \n    // registrar la compra\n    userAssets_[_user].assets.push(Asset(now + schema.assetLifeTime , _assetId, _schemaId, _dappId, _description));\n  }\n\n  function _checkOwnership(address _owner, uint256 _assetId, uint256 _schemaId) internal view returns (bool) {\n    \n    for (uint i = 0; i < userAssets_[_owner].assets.length; i++) {\n      Asset memory asset = userAssets_[_owner].assets[i];\n\n      if ( (asset.assetId == _assetId) && (asset.schemaId == _schemaId) && (asset.expirationDate > now)){\n        return true;\n      }\n    }\n    \n    return false;\n  }\n\n  function tokenFallback(address _from, uint _value, uint256 _schemaId) public {\n    Schema memory schema = Schemas.getSchema(_schemaId);\n    uint pieValue = _value;\n\n    for (uint i = 0; i < schema.clearingHouseRules.length-1; i++) {\n      uint tmpValue = calculatePercentage(_value,schema.clearingHouseRules[i].percent);\n      ERC223.transfer(schema.clearingHouseRules[i].receptor, tmpValue, 0);\n      pieValue -= tmpValue;\n    }\n\n    ERC223.transfer(schema.clearingHouseRules[schema.clearingHouseRules.length-1].receptor, pieValue, 0);\n\n  }\n\n  function calculatePercentage(uint theNumber, uint percentage) public view returns (uint) {\n    return theNumber * percentage / 100 ;\n  }\n    \n}",
  "sourcePath": "/Users/jordiescuderosubirana/ws/bloomen-wallet-truffle/contracts/bloomen/Assets.sol",
  "compiler": {
    "name": "solc",
    "version": "0.4.24+commit.e67f0147.Emscripten.clang"
  },
  "schemaVersion": "2.0.1",
  "updatedAt": "2019-01-16T19:31:10.897Z"
}