{
  "contractName": "Assets",
  "abi": [
    {
      "constant": true,
      "inputs": [],
      "name": "name",
      "outputs": [
        {
          "name": "",
          "type": "string"
        }
      ],
      "payable": false,
      "stateMutability": "view",
      "type": "function"
    },
    {
      "constant": false,
      "inputs": [
        {
          "name": "_to",
          "type": "address"
        },
        {
          "name": "_value",
          "type": "uint256"
        },
        {
          "name": "_data",
          "type": "uint256"
        }
      ],
      "name": "transfer",
      "outputs": [],
      "payable": false,
      "stateMutability": "nonpayable",
      "type": "function"
    },
    {
      "constant": false,
      "inputs": [
        {
          "name": "spender",
          "type": "address"
        },
        {
          "name": "value",
          "type": "uint256"
        }
      ],
      "name": "approve",
      "outputs": [
        {
          "name": "",
          "type": "bool"
        }
      ],
      "payable": false,
      "stateMutability": "nonpayable",
      "type": "function"
    },
    {
      "constant": true,
      "inputs": [
        {
          "name": "_page",
          "type": "int256"
        }
      ],
      "name": "getMovements",
      "outputs": [
        {
          "components": [
            {
              "name": "amount",
              "type": "int256"
            },
            {
              "name": "description",
              "type": "string"
            },
            {
              "name": "date",
              "type": "uint256"
            },
            {
              "name": "to",
              "type": "address"
            }
          ],
          "name": "",
          "type": "tuple[]"
        }
      ],
      "payable": false,
      "stateMutability": "view",
      "type": "function"
    },
    {
      "constant": true,
      "inputs": [],
      "name": "totalSupply",
      "outputs": [
        {
          "name": "",
          "type": "uint256"
        }
      ],
      "payable": false,
      "stateMutability": "view",
      "type": "function"
    },
    {
      "constant": false,
      "inputs": [
        {
          "name": "from",
          "type": "address"
        },
        {
          "name": "to",
          "type": "address"
        },
        {
          "name": "value",
          "type": "uint256"
        }
      ],
      "name": "transferFrom",
      "outputs": [
        {
          "name": "",
          "type": "bool"
        }
      ],
      "payable": false,
      "stateMutability": "nonpayable",
      "type": "function"
    },
    {
      "constant": true,
      "inputs": [
        {
          "name": "_schemaId",
          "type": "uint256"
        }
      ],
      "name": "getSchema",
      "outputs": [
        {
          "components": [
            {
              "name": "expirationDate",
              "type": "uint256"
            },
            {
              "name": "schemaId",
              "type": "uint256"
            },
            {
              "name": "amount",
              "type": "uint256"
            },
            {
              "name": "assetLifeTime",
              "type": "uint256"
            },
            {
              "components": [
                {
                  "name": "percent",
                  "type": "uint256"
                },
                {
                  "name": "receptor",
                  "type": "address"
                },
                {
                  "name": "description",
                  "type": "string"
                }
              ],
              "name": "clearingHouseRules",
              "type": "tuple[]"
            },
            {
              "name": "valid",
              "type": "bool"
            }
          ],
          "name": "",
          "type": "tuple"
        }
      ],
      "payable": false,
      "stateMutability": "view",
      "type": "function"
    },
    {
      "constant": true,
      "inputs": [],
      "name": "decimals",
      "outputs": [
        {
          "name": "",
          "type": "uint8"
        }
      ],
      "payable": false,
      "stateMutability": "view",
      "type": "function"
    },
    {
      "constant": false,
      "inputs": [
        {
          "name": "spender",
          "type": "address"
        },
        {
          "name": "addedValue",
          "type": "uint256"
        }
      ],
      "name": "increaseAllowance",
      "outputs": [
        {
          "name": "",
          "type": "bool"
        }
      ],
      "payable": false,
      "stateMutability": "nonpayable",
      "type": "function"
    },
    {
      "constant": false,
      "inputs": [
        {
          "name": "_schemaId",
          "type": "uint256"
        }
      ],
      "name": "validateSchema",
      "outputs": [],
      "payable": false,
      "stateMutability": "nonpayable",
      "type": "function"
    },
    {
      "constant": false,
      "inputs": [
        {
          "name": "to",
          "type": "address"
        },
        {
          "name": "value",
          "type": "uint256"
        }
      ],
      "name": "mint",
      "outputs": [
        {
          "name": "",
          "type": "bool"
        }
      ],
      "payable": false,
      "stateMutability": "nonpayable",
      "type": "function"
    },
    {
      "constant": false,
      "inputs": [
        {
          "name": "value",
          "type": "uint256"
        }
      ],
      "name": "burn",
      "outputs": [],
      "payable": false,
      "stateMutability": "nonpayable",
      "type": "function"
    },
    {
      "constant": false,
      "inputs": [
        {
          "name": "_schemaId",
          "type": "uint256"
        }
      ],
      "name": "invalidateSchema",
      "outputs": [],
      "payable": false,
      "stateMutability": "nonpayable",
      "type": "function"
    },
    {
      "constant": true,
      "inputs": [
        {
          "name": "owner",
          "type": "address"
        }
      ],
      "name": "balanceOf",
      "outputs": [
        {
          "name": "",
          "type": "uint256"
        }
      ],
      "payable": false,
      "stateMutability": "view",
      "type": "function"
    },
    {
      "constant": false,
      "inputs": [],
      "name": "renounceOwnership",
      "outputs": [],
      "payable": false,
      "stateMutability": "nonpayable",
      "type": "function"
    },
    {
      "constant": false,
      "inputs": [
        {
          "name": "from",
          "type": "address"
        },
        {
          "name": "value",
          "type": "uint256"
        }
      ],
      "name": "burnFrom",
      "outputs": [],
      "payable": false,
      "stateMutability": "nonpayable",
      "type": "function"
    },
    {
      "constant": false,
      "inputs": [
        {
          "name": "_amount",
          "type": "int256"
        },
        {
          "name": "_description",
          "type": "string"
        },
        {
          "name": "_to",
          "type": "address"
        }
      ],
      "name": "addMovement",
      "outputs": [],
      "payable": false,
      "stateMutability": "nonpayable",
      "type": "function"
    },
    {
      "constant": true,
      "inputs": [],
      "name": "owner",
      "outputs": [
        {
          "name": "",
          "type": "address"
        }
      ],
      "payable": false,
      "stateMutability": "view",
      "type": "function"
    },
    {
      "constant": true,
      "inputs": [],
      "name": "isOwner",
      "outputs": [
        {
          "name": "",
          "type": "bool"
        }
      ],
      "payable": false,
      "stateMutability": "view",
      "type": "function"
    },
    {
      "constant": true,
      "inputs": [],
      "name": "symbol",
      "outputs": [
        {
          "name": "",
          "type": "string"
        }
      ],
      "payable": false,
      "stateMutability": "view",
      "type": "function"
    },
    {
      "constant": false,
      "inputs": [
        {
          "name": "account",
          "type": "address"
        }
      ],
      "name": "addMinter",
      "outputs": [],
      "payable": false,
      "stateMutability": "nonpayable",
      "type": "function"
    },
    {
      "constant": false,
      "inputs": [],
      "name": "renounceMinter",
      "outputs": [],
      "payable": false,
      "stateMutability": "nonpayable",
      "type": "function"
    },
    {
      "constant": false,
      "inputs": [
        {
          "name": "_schemaId",
          "type": "uint256"
        },
        {
          "name": "_data",
          "type": "bytes"
        }
      ],
      "name": "createSchema",
      "outputs": [],
      "payable": false,
      "stateMutability": "nonpayable",
      "type": "function"
    },
    {
      "constant": false,
      "inputs": [
        {
          "name": "spender",
          "type": "address"
        },
        {
          "name": "subtractedValue",
          "type": "uint256"
        }
      ],
      "name": "decreaseAllowance",
      "outputs": [
        {
          "name": "",
          "type": "bool"
        }
      ],
      "payable": false,
      "stateMutability": "nonpayable",
      "type": "function"
    },
    {
      "constant": false,
      "inputs": [
        {
          "name": "_to",
          "type": "address"
        },
        {
          "name": "_value",
          "type": "uint256"
        }
      ],
      "name": "transfer",
      "outputs": [
        {
          "name": "",
          "type": "bool"
        }
      ],
      "payable": false,
      "stateMutability": "nonpayable",
      "type": "function"
    },
    {
      "constant": true,
      "inputs": [
        {
          "name": "account",
          "type": "address"
        }
      ],
      "name": "isMinter",
      "outputs": [
        {
          "name": "",
          "type": "bool"
        }
      ],
      "payable": false,
      "stateMutability": "view",
      "type": "function"
    },
    {
      "constant": true,
      "inputs": [
        {
          "name": "owner",
          "type": "address"
        },
        {
          "name": "spender",
          "type": "address"
        }
      ],
      "name": "allowance",
      "outputs": [
        {
          "name": "",
          "type": "uint256"
        }
      ],
      "payable": false,
      "stateMutability": "view",
      "type": "function"
    },
    {
      "constant": false,
      "inputs": [
        {
          "name": "newOwner",
          "type": "address"
        }
      ],
      "name": "transferOwnership",
      "outputs": [],
      "payable": false,
      "stateMutability": "nonpayable",
      "type": "function"
    },
    {
      "anonymous": false,
      "inputs": [
        {
          "indexed": true,
          "name": "account",
          "type": "address"
        }
      ],
      "name": "MinterAdded",
      "type": "event"
    },
    {
      "anonymous": false,
      "inputs": [
        {
          "indexed": true,
          "name": "account",
          "type": "address"
        }
      ],
      "name": "MinterRemoved",
      "type": "event"
    },
    {
      "anonymous": false,
      "inputs": [
        {
          "indexed": true,
          "name": "from",
          "type": "address"
        },
        {
          "indexed": true,
          "name": "to",
          "type": "address"
        },
        {
          "indexed": false,
          "name": "value",
          "type": "uint256"
        }
      ],
      "name": "Transfer",
      "type": "event"
    },
    {
      "anonymous": false,
      "inputs": [
        {
          "indexed": true,
          "name": "owner",
          "type": "address"
        },
        {
          "indexed": true,
          "name": "spender",
          "type": "address"
        },
        {
          "indexed": false,
          "name": "value",
          "type": "uint256"
        }
      ],
      "name": "Approval",
      "type": "event"
    },
    {
      "anonymous": false,
      "inputs": [
        {
          "indexed": true,
          "name": "previousOwner",
          "type": "address"
        },
        {
          "indexed": true,
          "name": "newOwner",
          "type": "address"
        }
      ],
      "name": "OwnershipTransferred",
      "type": "event"
    },
    {
      "constant": true,
      "inputs": [
        {
          "name": "_assetId",
          "type": "uint256"
        },
        {
          "name": "_schemaId",
          "type": "uint256"
        }
      ],
      "name": "checkOwnership",
      "outputs": [
        {
          "name": "",
          "type": "bool"
        }
      ],
      "payable": false,
      "stateMutability": "view",
      "type": "function"
    },
    {
      "constant": true,
      "inputs": [
        {
          "name": "_target",
          "type": "address"
        },
        {
          "name": "_assetId",
          "type": "uint256"
        },
        {
          "name": "_schemaId",
          "type": "uint256"
        }
      ],
      "name": "checkOwnershipForAddress",
      "outputs": [
        {
          "name": "",
          "type": "bool"
        }
      ],
      "payable": false,
      "stateMutability": "view",
      "type": "function"
    },
    {
      "constant": false,
      "inputs": [
        {
          "name": "_assetId",
          "type": "uint256"
        },
        {
          "name": "_schemaId",
          "type": "uint256"
        },
        {
          "name": "_amount",
          "type": "uint256"
        },
        {
          "name": "_dappId",
          "type": "string"
        }
      ],
      "name": "buy",
      "outputs": [],
      "payable": false,
      "stateMutability": "nonpayable",
      "type": "function"
    },
    {
      "constant": true,
      "inputs": [],
      "name": "getAssetsPageCount",
      "outputs": [
        {
          "name": "",
          "type": "uint256"
        }
      ],
      "payable": false,
      "stateMutability": "view",
      "type": "function"
    },
    {
      "constant": true,
      "inputs": [
        {
          "name": "_page",
          "type": "uint256"
        }
      ],
      "name": "getAssets",
      "outputs": [
        {
          "components": [
            {
              "name": "expirationDate",
              "type": "uint256"
            },
            {
              "name": "assetId",
              "type": "uint256"
            },
            {
              "name": "schemaId",
              "type": "uint256"
            },
            {
              "name": "dappId",
              "type": "string"
            }
          ],
          "name": "",
          "type": "tuple[]"
        }
      ],
      "payable": false,
      "stateMutability": "view",
      "type": "function"
    },
    {
      "constant": false,
      "inputs": [
        {
          "name": "_from",
          "type": "address"
        },
        {
          "name": "_value",
          "type": "uint256"
        },
        {
          "name": "_schemaId",
          "type": "uint256"
        }
      ],
      "name": "tokenFallback",
      "outputs": [],
      "payable": false,
      "stateMutability": "nonpayable",
      "type": "function"
    },
    {
      "constant": true,
      "inputs": [
        {
          "name": "theNumber",
          "type": "uint256"
        },
        {
          "name": "percentage",
          "type": "uint256"
        }
      ],
      "name": "calculatePercentage",
      "outputs": [
        {
          "name": "",
          "type": "uint256"
        }
      ],
      "payable": false,
      "stateMutability": "view",
      "type": "function"
    }
  ],
  "bytecode": "0x600b60809081527f426c6f6f6d656e436f696e00000000000000000000000000000000000000000060a0526101006040819052600360c09081527f424c4f000000000000000000000000000000000000000000000000000000000060e05260008054600160a060020a03191633178082559192600292859285928592600160a060020a031691907f8be0079c531659141344cd1fd0a4f28419497f9722a3daafe3b4186f6b6457e0908290a38251620000c0906005906020860190620001f0565b508151620000d6906006906020850190620001f0565b506007805460ff191660ff9290921691909117905550620001029050336401000000006200010b810204565b50505062000295565b62000126600882640100000000620021546200015d82021704565b604051600160a060020a038216907f6ae172837ea30b801fbfcdd4108aa1d5bf8ff775444fd70256b44e6bf3dfc3f690600090a250565b600160a060020a03811615156200017357600080fd5b620001888282640100000000620001b8810204565b156200019357600080fd5b600160a060020a0316600090815260209190915260409020805460ff19166001179055565b6000600160a060020a0382161515620001d057600080fd5b50600160a060020a03166000908152602091909152604090205460ff1690565b828054600181600116156101000203166002900490600052602060002090601f016020900481019282601f106200023357805160ff191683800117855562000263565b8280016001018555821562000263579182015b828111156200026357825182559160200191906001019062000246565b506200027192915062000275565b5090565b6200029291905b808211156200027157600081556001016200027c565b90565b61310580620002a56000396000f3006080604052600436106101b65763ffffffff7c010000000000000000000000000000000000000000000000000000000060003504166304edae0f81146101bb57806306fdde03146101f1578063095bcdb614610213578063095ea7b31461023557806317b1b4981461025557806318160ddd146102825780632133e3b9146102a457806323b872dd146102c45780632b26fb29146102e4578063313ce5671461031157806339509351146103335780634014d4681461035357806340c10f191461037357806342966c68146103935780634aa3bfeb146103b35780634f4ee353146103c85780635a16f5c4146103e8578063700651aa1461040857806370a0823114610428578063715018a61461044857806379cc67901461045d5780637de3b0ed1461047d57806386b00ad51461049d5780638da5cb5b146104bd5780638f32d59b146104df57806395d89b41146104f4578063983b2d56146105095780639865027514610529578063a2086dab1461053e578063a457c2d71461055e578063a9059cbb1461057e578063aa271e1a1461059e578063d9212164146105be578063dd62ed3e146105eb578063f2fde38b1461060b575b600080fd5b3480156101c757600080fd5b506101db6101d636600461292b565b61062b565b6040516101e89190612f0d565b60405180910390f35b3480156101fd57600080fd5b50610206610641565b6040516101e89190612f1b565b34801561021f57600080fd5b5061023361022e366004612838565b6106d8565b005b34801561024157600080fd5b506101db610250366004612808565b6106f4565b34801561026157600080fd5b5061027561027036600461286a565b610776565b6040516101e89190612efc565b34801561028e57600080fd5b506102976109c6565b6040516101e89190612fdd565b3480156102b057600080fd5b506102976102bf36600461292b565b6109cc565b3480156102d057600080fd5b506101db6102df3660046127bb565b6109d4565b3480156102f057600080fd5b506103046102ff36600461286a565b610a71565b6040516101e89190612fcc565b34801561031d57600080fd5b50610326610c07565b6040516101e89190612feb565b34801561033f57600080fd5b506101db61034e366004612808565b610c10565b34801561035f57600080fd5b5061023361036e36600461286a565b610cb3565b34801561037f57600080fd5b506101db61038e366004612808565b610cd4565b34801561039f57600080fd5b506102336103ae36600461286a565b610cfd565b3480156103bf57600080fd5b50610297610d07565b3480156103d457600080fd5b506102336103e3366004612838565b610d1e565b3480156103f457600080fd5b5061023361040336600461286a565b610dea565b34801561041457600080fd5b506101db610423366004612838565b610e08565b34801561043457600080fd5b50610297610443366004612763565b610e1d565b34801561045457600080fd5b50610233610e38565b34801561046957600080fd5b50610233610478366004612808565b610ea2565b34801561048957600080fd5b5061023361049836600461294a565b610eb0565b3480156104a957600080fd5b506102336104b8366004612888565b610ec3565b3480156104c957600080fd5b506104d2610ecf565b6040516101e89190612eb5565b3480156104eb57600080fd5b506101db610ede565b34801561050057600080fd5b50610206610eef565b34801561051557600080fd5b50610233610524366004612763565b610f50565b34801561053557600080fd5b50610233610f6d565b34801561054a57600080fd5b506102336105593660046128e3565b610f78565b34801561056a57600080fd5b506101db610579366004612808565b610f95565b34801561058a57600080fd5b506101db610599366004612808565b610fe0565b3480156105aa57600080fd5b506101db6105b9366004612763565b610ffa565b3480156105ca57600080fd5b506105de6105d936600461286a565b61100d565b6040516101e89190612eeb565b3480156105f757600080fd5b50610297610606366004612781565b6111f7565b34801561061757600080fd5b50610233610626366004612763565b611222565b600061063833848461123e565b90505b92915050565b60058054604080516020601f60026000196101006001881615020190951694909404938401819004810282018101909252828152606093909290918301828280156106cd5780601f106106a2576101008083540402835291602001916106cd565b820191906000526020600020905b8154815290600101906020018083116106b057829003601f168201915b505050505090505b90565b6106e33384846113b7565b6106ef33848484611448565b505050565b6000600160a060020a038316151561070b57600080fd5b336000818152600360209081526040808320600160a060020a03881680855292529182902085905590519091907f8c5be1e5ebec7d5bd14f71427d1e84f3dd0314c0f7b2291e5b200ac8c7c3b92590610765908690612fdd565b60405180910390a350600192915050565b606060006060806000806000871380156107915750600a8713155b15156107bb5760405160e560020a62461bcd0281526004016107b290612f2c565b60405180910390fd5b3360009081526009602090815260408083208054825181850281018501909352808352600a6000198d010299509193909284015b828210156108f157838290600052602060002090600402016080604051908101604052908160008201548152602001600182018054600181600116156101000203166002900480601f0160208091040260200160405190810160405280929190818152602001828054600181600116156101000203166002900480156108b65780601f1061088b576101008083540402835291602001916108b6565b820191906000526020600020905b81548152906001019060200180831161089957829003601f168201915b50505091835250506002820154602080830191909152600390920154600160a060020a031660409091015290825260019290920191016107ef565b505050509350848451111515610906576109bc565b60408051600a808252610160820190925290816020015b6109256125b4565b81526020019060019003908161091d579050509250600091505b600a8212156109b85750336000908152600a60205260408120548590038290039081121561097d57606484511015610979578295506109bc565b6064015b838181518110151561098b57fe5b9060200190602002015183838151811015156109a357fe5b6020908102909101015260019091019061093f565b8295505b5050505050919050565b60045490565b606491020490565b600160a060020a0383166000908152600360209081526040808320338452909152812054821115610a0457600080fd5b600160a060020a0384166000908152600360209081526040808320338452909152902054610a38908363ffffffff61151716565b600160a060020a0385166000908152600360209081526040808320338452909152902055610a678484846113b7565b5060019392505050565b610a796125e6565b60008281526001602081905260408220015411610aab5760405160e560020a62461bcd0281526004016107b290612f5c565b6000828152600160208181526040808420815160c081018352815481529381015484840152600281015484830152600381015460608501526004810180548351818602810186019094528084529495919460808701949192909184015b82821015610be8576000848152602090819020604080516060810182526003860290920180548352600180820154600160a060020a0316848601526002808301805485516101009482161594909402600019011691909104601f8101879004870283018701855280835294959294938601939192909190830182828015610bd05780601f10610ba557610100808354040283529160200191610bd0565b820191906000526020600020905b815481529060010190602001808311610bb357829003601f168201915b50505050508152505081526020019060010190610b08565b505050908252506005919091015460ff16151560209091015292915050565b60075460ff1690565b6000600160a060020a0383161515610c2757600080fd5b336000908152600360209081526040808320600160a060020a0387168452909152902054610c5b908363ffffffff61152e16565b336000818152600360209081526040808320600160a060020a038916808552925291829020849055905190927f8c5be1e5ebec7d5bd14f71427d1e84f3dd0314c0f7b2291e5b200ac8c7c3b925916107659190612fdd565b610cbb610ede565b1515610cc657600080fd5b610cd1816001611547565b50565b6000610cdf33610ffa565b1515610cea57600080fd5b610cf483836115d9565b50600192915050565b610cd13382611676565b336000908152600b6020526040902054600a900690565b610d266125e6565b6000806000610d3485610a71565b9350859250600091505b600184608001515103821015610db157610d7486856080015184815181101515610d6457fe5b60209081029091010151516109cc565b9050610da1846080015183815181101515610d8b57fe5b90602001906020020151602001518260006106d8565b9182900391600190910190610d3e565b60808401518051610de191906000198101908110610dcb57fe5b90602001906020020151602001518460006106d8565b50505050505050565b610df2610ede565b1515610dfd57600080fd5b610cd1816000611547565b6000610e1584848461123e565b949350505050565b600160a060020a031660009081526002602052604090205490565b610e40610ede565b1515610e4b57600080fd5b60008054604051600160a060020a03909116907f8be0079c531659141344cd1fd0a4f28419497f9722a3daafe3b4186f6b6457e0908390a36000805473ffffffffffffffffffffffffffffffffffffffff19169055565b610eac8282611729565b5050565b610ebd33858585856117bb565b50505050565b6106ef838333846118c3565b600054600160a060020a031690565b600054600160a060020a0316331490565b60068054604080516020601f60026000196101006001881615020190951694909404938401819004810282018101909252828152606093909290918301828280156106cd5780601f106106a2576101008083540402835291602001916106cd565b610f5933610ffa565b1515610f6457600080fd5b610cd181611b80565b610f7633611bc8565b565b610f80610ede565b1515610f8b57600080fd5b610eac8282611c10565b6000600160a060020a0383161515610fac57600080fd5b336000908152600360209081526040808320600160a060020a0387168452909152902054610c5b908363ffffffff61151716565b6000610fed3384846113b7565b610cf43384846000611448565b600061063b60088363ffffffff611fac16565b336000908152600b602090815260408083208054825181850281018501909352808352606094600919600a88020194869485949293909291849084015b8282101561113d578382906000526020600020906004020160806040519081016040529081600082015481526020016001820154815260200160028201548152602001600382018054600181600116156101000203166002900480601f0160208091040260200160405190810160405280929190818152602001828054600181600116156101000203166002900480156111255780601f106110fa57610100808354040283529160200191611125565b820191906000526020600020905b81548152906001019060200180831161110857829003601f168201915b5050505050815250508152602001906001019061104a565b5050505092508251600014806111565750600183510384115b15611160576111ee565b60408051600a808252610160820190925290816020015b61117f61261f565b815260200190600190039081611177579050509150600090505b85600a028410156111ea5782518410156111de5782848151811015156111bb57fe5b9060200190602002015182828151811015156111d357fe5b602090810290910101525b60019384019301611199565b8194505b50505050919050565b600160a060020a03918216600090815260036020908152604080832093909416825291909152205490565b61122a610ede565b151561123557600080fd5b610cd181611fe3565b60008061124961261f565b600091505b600160a060020a0386166000908152600b60205260409020548210156113a957600160a060020a0386166000908152600b6020526040902080548390811061129257fe5b906000526020600020906004020160806040519081016040529081600082015481526020016001820154815260200160028201548152602001600382018054600181600116156101000203166002900480601f0160208091040260200160405190810160405280929190818152602001828054600181600116156101000203166002900480156113635780601f1061133857610100808354040283529160200191611363565b820191906000526020600020905b81548152906001019060200180831161134657829003601f168201915b50505050508152505090508481602001511480156113845750838160400151145b80156113905750805142105b1561139e57600192506113ae565b60019091019061124e565b600092505b50509392505050565b6113fc81600019026040805190810160405280600481526020017f73656e640000000000000000000000000000000000000000000000000000000081525085856118c3565b61143d816040805190810160405280600781526020017f726563656976650000000000000000000000000000000000000000000000000081525084866118c3565b6106ef838383612060565b600061145384612145565b156114d757506040517f4f4ee3530000000000000000000000000000000000000000000000000000000081528390600160a060020a03821690634f4ee353906114a490889087908790600401612ec3565b600060405180830381600087803b1580156114be57600080fd5b505af11580156114d2573d6000803e3d6000fd5b505050505b83600160a060020a031685600160a060020a03166000805160206130ac833981519152856040516115089190612fdd565b60405180910390a35050505050565b6000808383111561152757600080fd5b5050900390565b60008282018381101561154057600080fd5b9392505050565b60008281526001602081905260409091200154151561157b5760405160e560020a62461bcd0281526004016107b290612f6c565b60008281526001602052604090206005015460ff16151581151514156115b65760405160e560020a62461bcd0281526004016107b290612fac565b600091825260016020526040909120600501805460ff1916911515919091179055565b600160a060020a03821615156115ee57600080fd5b600454611601908263ffffffff61152e16565b600455600160a060020a03821660009081526002602052604090205461162d908263ffffffff61152e16565b600160a060020a0383166000818152600260205260408082209390935591519091906000805160206130ac8339815191529061166a908590612fdd565b60405180910390a35050565b600160a060020a038216151561168b57600080fd5b600160a060020a0382166000908152600260205260409020548111156116b057600080fd5b6004546116c3908263ffffffff61151716565b600455600160a060020a0382166000908152600260205260409020546116ef908263ffffffff61151716565b600160a060020a0383166000818152600260205260408082209390935591516000805160206130ac8339815191529061166a908590612fdd565b600160a060020a038216600090815260036020908152604080832033845290915290205481111561175957600080fd5b600160a060020a038216600090815260036020908152604080832033845290915290205461178d908263ffffffff61151716565b600160a060020a0383166000908152600360209081526040808320338452909152902055610eac8282611676565b6117c36125e6565b6117cc84610a71565b604081015190915083146117f55760405160e560020a62461bcd0281526004016107b290612f9c565b61180086868661123e565b156118205760405160e560020a62461bcd0281526004016107b290612fbc565b6000831115611834576118343084866106d8565b600160a060020a0386166000908152600b602090815260408083208151608081018352606080870151420182528185018b81529382018a815290820188815283546001818101808755958952978790208451600490920201908155945196850196909655516002840155935180519194936118b792600385019290910190612648565b50505050505050505050565b600160a060020a038216600090815260096020526040902054606411156119bc57600160a060020a0380831660009081526009602090815260408083208151608081018352898152808401898152429382019390935294861660608601528054600181810180845592865294849020865160049092020190815591518051919594929361195593850192910190612648565b5060408281015160028301556060909201516003909101805473ffffffffffffffffffffffffffffffffffffffff1916600160a060020a03928316179055841660009081526009602090815282822054600a90915291902060001991909101905550610ebd565b600160a060020a0382166000908152600a602052604090205460631415611aaa57600160a060020a038083166000818152600a602090815260408083208390558051608081018252898152808301899052428183015294861660608601529282526009905290812080549091908110611a3157fe5b9060005260206000209060040201600082015181600001556020820151816001019080519060200190611a65929190612648565b50604082015160028201556060909101516003909101805473ffffffffffffffffffffffffffffffffffffffff1916600160a060020a03909216919091179055610ebd565b600160a060020a038083166000818152600a6020818152604080842080546001019081905581516080810183528b81528084018b90524281840152968816606088015294845260098252909220915280549091908110611b0657fe5b9060005260206000209060040201600082015181600001556020820151816001019080519060200190611b3a929190612648565b50604082015160028201556060909101516003909101805473ffffffffffffffffffffffffffffffffffffffff1916600160a060020a0390921691909117905550505050565b611b9160088263ffffffff61215416565b604051600160a060020a038216907f6ae172837ea30b801fbfcdd4108aa1d5bf8ff775444fd70256b44e6bf3dfc3f690600090a250565b611bd960088263ffffffff6121a216565b604051600160a060020a038216907fe94479a9f7e1952cc78f2d6baab678adc1b772d936c6583def489e524cb6669290600090a250565b611c186126c6565b606060008060008060606000806060600160008d8152602001908152602001600020600101546000141515611c625760405160e560020a62461bcd0281526004016107b290612f8c565b611c6b8b6121ee565b9950611c768a61223c565b9850611c99896000815181101515611c8a57fe5b90602001906020020151612306565b9750428811611cbd5760405160e560020a62461bcd0281526004016107b290612f7c565b611ccf896001815181101515611c8a57fe5b9650611ce3896002815181101515611c8a57fe5b9550611cf7896003815181101515611c8a57fe5b9450611d1a896004815181101515611d0b57fe5b9060200190602002015161223c565b935083519250600091505b82821015611e4857611d3e8483815181101515611d0b57fe5b905060016000888152602001908152602001600020600401606060405190810160405280611d74846000815181101515611c8a57fe5b8152602001611d9a846001815181101515611d8b57fe5b9060200190602002015161233c565b600160a060020a03168152602001611dc9846002815181101515611dba57fe5b9060200190602002015161236d565b9052815460018082018085556000948552602094859020845160039094020192835583850151918301805473ffffffffffffffffffffffffffffffffffffffff1916600160a060020a0390931692909217909155604083015180519194611e3892600285019290910190612648565b505060019093019250611d259050565b611f6a60016000898152602001908152602001600020600401805480602002602001604051908101604052809291908181526020016000905b82821015611f61576000848152602090819020604080516060810182526003860290920180548352600180820154600160a060020a0316848601526002808301805485516101009482161594909402600019011691909104601f8101879004870283018701855280835294959294938601939192909190830182828015611f495780601f10611f1e57610100808354040283529160200191611f49565b820191906000526020600020905b815481529060010190602001808311611f2c57829003601f168201915b50505050508152505081526020019060010190611e81565b505050506123d6565b50505060008481526001602081905260409091209586558581019490945550600284019190915560038301556005909101805460ff1916909117905550505050565b6000600160a060020a0382161515611fc357600080fd5b50600160a060020a03166000908152602091909152604090205460ff1690565b600160a060020a0381161515611ff857600080fd5b60008054604051600160a060020a03808516939216917f8be0079c531659141344cd1fd0a4f28419497f9722a3daafe3b4186f6b6457e091a36000805473ffffffffffffffffffffffffffffffffffffffff1916600160a060020a0392909216919091179055565b600160a060020a03831660009081526002602052604090205481111561208557600080fd5b600160a060020a038216151561209a57600080fd5b600160a060020a0383166000908152600260205260409020546120c3908263ffffffff61151716565b600160a060020a0380851660009081526002602052604080822093909355908416815220546120f8908263ffffffff61152e16565b600160a060020a0380841660008181526002602052604090819020939093559151908516906000805160206130ac83398151915290612138908590612fdd565b60405180910390a3505050565b6000813b908111905b50919050565b600160a060020a038116151561216957600080fd5b6121738282611fac565b1561217d57600080fd5b600160a060020a0316600090815260209190915260409020805460ff19166001179055565b600160a060020a03811615156121b757600080fd5b6121c18282611fac565b15156121cc57600080fd5b600160a060020a0316600090815260209190915260409020805460ff19169055565b6121f66126c6565b600082516000141561221d576040805180820190915260008082526020820152915061214e565b5050604080518082019091528151815260209182019181019190915290565b606060008060008061224d866123fa565b151561225857600080fd5b61226186612429565b93508360405190808252806020026020018201604052801561229d57816020015b61228a6126c6565b8152602001906001900390816122825790505b5094506122ad8660200151612479565b8660200151019250600090505b838110156111ee576122cb836124dc565b915060408051908101604052808381526020018481525085828151811015156122f057fe5b60209081029091010152918101916001016122ba565b600080600080600061231b8660200151612479565b86516020978801518201519190039096036101000a90950495945050505050565b8051600090601510156123645760405160e560020a62461bcd0281526004016107b290612f4c565b61063b82612306565b6060600080606060006123838660200151612479565b9350838660000151039250826040519080825280601f01601f1916602001820160405280156123bc578160200160208202803883390190505b5091508160200190506111ea84876020015101828561256d565b8051600010610cd15760405160e560020a62461bcd0281526004016107b290612f3c565b6020810151805160009190821a9060c060ff8316101561241d5760009250612422565b600192505b5050919050565b600080600080600092506124408560200151612479565b6020860151865191810193500190505b8082101561247057612461826124dc565b60019093019290910190612450565b50909392505050565b8051600090811a6080811015612492576000915061214e565b60b88110806124ad575060c081108015906124ad575060f881105b156124bb576001915061214e565b60c08110156124d05760b5198101915061214e565b60f5198101915061214e565b8051600090811a60808110156124f5576001915061214e565b60b881101561250a57607e198101915061214e565b60c08110156125375760b78103600184019350806020036101000a8451046001820181019350505061214e565b60f881101561254c5760be198101915061214e565b60019290920151602083900360f7016101000a900490910160f51901919050565b60005b60208210612592578351835260209384019390920191601f1990910190612570565b50915181516020939093036101000a6000190180199091169216919091179052565b6080604051908101604052806000815260200160608152602001600081526020016000600160a060020a031681525090565b60c06040519081016040528060008152602001600081526020016000815260200160008152602001606081526020016000151581525090565b608060405190810160405280600081526020016000815260200160008152602001606081525090565b828054600181600116156101000203166002900490600052602060002090601f016020900481019282601f1061268957805160ff19168380011785556126b6565b828001600101855582156126b6579182015b828111156126b657825182559160200191906001019061269b565b506126c29291506126dd565b5090565b604080518082019091526000808252602082015290565b6106d591905b808211156126c257600081556001016126e3565b60006106388235613052565b6000601f8201831361271457600080fd5b813561272761272282613020565b612ff9565b9150808252602083016020830185838301111561274357600080fd5b61274e838284613069565b50505092915050565b600061063882356106d5565b60006020828403121561277557600080fd5b6000610e1584846126f7565b6000806040838503121561279457600080fd5b60006127a085856126f7565b92505060206127b1858286016126f7565b9150509250929050565b6000806000606084860312156127d057600080fd5b60006127dc86866126f7565b93505060206127ed868287016126f7565b92505060406127fe86828701612757565b9150509250925092565b6000806040838503121561281b57600080fd5b600061282785856126f7565b92505060206127b185828601612757565b60008060006060848603121561284d57600080fd5b600061285986866126f7565b93505060206127ed86828701612757565b60006020828403121561287c57600080fd5b6000610e158484612757565b60008060006060848603121561289d57600080fd5b60006128a98686612757565b935050602084013567ffffffffffffffff8111156128c657600080fd5b6128d286828701612703565b92505060406127fe868287016126f7565b600080604083850312156128f657600080fd5b60006129028585612757565b925050602083013567ffffffffffffffff81111561291f57600080fd5b6127b185828601612703565b6000806040838503121561293e57600080fd5b60006128278585612757565b6000806000806080858703121561296057600080fd5b600061296c8787612757565b945050602061297d87828801612757565b935050604061298e87828801612757565b925050606085013567ffffffffffffffff8111156129ab57600080fd5b6129b787828801612703565b91505092959194509250565b6129cc81613052565b82525050565b60006129dd8261304e565b808452602084019350836020820285016129f685613048565b60005b84811015612a2d578383038852612a11838351612d3c565b9250612a1c82613048565b6020989098019791506001016129f9565b50909695505050505050565b6000612a448261304e565b80845260208401935083602082028501612a5d85613048565b60005b84811015612a2d578383038852612a78838351612d97565b9250612a8382613048565b602098909801979150600101612a60565b6000612a9f8261304e565b80845260208401935083602082028501612ab885613048565b60005b84811015612a2d578383038852612ad3838351612dd6565b9250612ade82613048565b602098909801979150600101612abb565b6129cc8161305e565b6129cc816106d5565b6000612b0c8261304e565b808452612b20816020860160208601613075565b612b29816130a1565b9093016020019392505050565b600d81527f496e76616c696420706167652e00000000000000000000000000000000000000602082015260400190565b600981527f6e6f742072756c65730000000000000000000000000000000000000000000000602082015260400190565b603a81527f496e76616c696420524c504974656d2e2041646472657373657320617265206560208201527f6e636f64656420696e203230206279746573206f72206c657373000000000000604082015260600190565b600981527f6e6f745f65786973740000000000000000000000000000000000000000000000602082015260400190565b600981527f6e6f742065786973740000000000000000000000000000000000000000000000602082015260400190565b600781527f6578706972656400000000000000000000000000000000000000000000000000602082015260400190565b600581527f6578697374000000000000000000000000000000000000000000000000000000602082015260400190565b601081527f696e636f727265637420616d6f756e7400000000000000000000000000000000602082015260400190565b600b81527f73616d6520737461747573000000000000000000000000000000000000000000602082015260400190565b600a81527f6475706c69636174656400000000000000000000000000000000000000000000602082015260400190565b80516000906080840190612d508582612af8565b506020830151612d636020860182612af8565b506040830151612d766040860182612af8565b5060608301518482036060860152612d8e8282612b01565b95945050505050565b80516000906060840190612dab8582612af8565b506020830151612dbe60208601826129c3565b5060408301518482036040860152612d8e8282612b01565b80516000906080840190612dea8582612af8565b5060208301518482036020860152612e028282612b01565b9150506040830151612e176040860182612af8565b506060830151612e2a60608601826129c3565b509392505050565b805160009060c0840190612e468582612af8565b506020830151612e596020860182612af8565b506040830151612e6c6040860182612af8565b506060830151612e7f6060860182612af8565b5060808301518482036080860152612e978282612a39565b91505060a0830151612e2a60a0860182612aef565b6129cc81613063565b6020810161063b82846129c3565b60608101612ed182866129c3565b612ede6020830185612af8565b610e156040830184612af8565b6020808252810161063881846129d2565b602080825281016106388184612a94565b6020810161063b8284612aef565b602080825281016106388184612b01565b6020808252810161063b81612b36565b6020808252810161063b81612b66565b6020808252810161063b81612b96565b6020808252810161063b81612bec565b6020808252810161063b81612c1c565b6020808252810161063b81612c4c565b6020808252810161063b81612c7c565b6020808252810161063b81612cac565b6020808252810161063b81612cdc565b6020808252810161063b81612d0c565b602080825281016106388184612e32565b6020810161063b8284612af8565b6020810161063b8284612eac565b60405181810167ffffffffffffffff8111828210171561301857600080fd5b604052919050565b600067ffffffffffffffff82111561303757600080fd5b506020601f91909101601f19160190565b60200190565b5190565b600160a060020a031690565b151590565b60ff1690565b82818337506000910152565b60005b83811015613090578181015183820152602001613078565b83811115610ebd5750506000910152565b601f01601f1916905600ddf252ad1be2c89b69c2b068fc378daa952ba7f163c4a11628f55a4df523b3efa265627a7a72305820cb133fc4c015f9dce31e97667caaf37a60550bc5a546a6fbd4a5287e8e06f08e6c6578706572696d656e74616cf50037",
  "source": "pragma solidity 0.4.24;\npragma experimental ABIEncoderV2;\n\nimport \"./Schemas.sol\";\nimport \"./token/ERC223ReceivingContract.sol\";\nimport \"./token/ERC223.sol\";\nimport \"../../node_modules/openzeppelin-solidity/contracts/math/SafeMath.sol\";\n\ncontract  Assets is Schemas, ERC223ReceivingContract, ERC223(\"BloomenCoin\",\"BLO\",2) {\n\n  using SafeMath for uint256;\n    \n  struct UserAssets {   \n    Asset[] assets;\n  } \n\n  struct Asset {   \n    uint expirationDate;\n    uint256 assetId;\n    uint256 schemaId;\n    string dappId;\n  }\n\n  uint256 constant private PAGE_SIZE = 10;\n\n  // buy://<assetId>#<schemaId>#<amount>#<dappId>#amount\n\n  mapping (address => UserAssets) private userAssets_;\n\n  function checkOwnership(uint256 _assetId, uint256 _schemaId) public view returns (bool) {\n    return _checkOwnership(msg.sender, _assetId, _schemaId);  \n  }\n\n  function checkOwnershipForAddress(address _target, uint256 _assetId, uint256 _schemaId) public view returns (bool) {\n    return _checkOwnership(_target, _assetId, _schemaId);  \n  }\n\n  function buy(uint256 _assetId, uint256 _schemaId, uint256 _amount, string _dappId) public  {\n    _buy(msg.sender, _assetId, _schemaId, _amount, _dappId);  \n  }\n\n  function getAssetsPageCount() public view returns (uint256) {\n    return userAssets_[msg.sender].assets.length % PAGE_SIZE;\n  }\n\n  function getAssets(uint256 _page) public view returns (Asset[] memory) {\n    \n    uint256 transferIndex = PAGE_SIZE * _page - PAGE_SIZE;\n    Asset[] memory assets = userAssets_[msg.sender].assets;\n\n    if (assets.length == 0 || transferIndex > assets.length - 1) {\n      return;\n    }\n\n    Asset[] memory assetsPage = new Asset[](PAGE_SIZE);  \n    uint256 returnCounter = 0;\n\n    for (transferIndex; transferIndex < PAGE_SIZE * _page; transferIndex++) {\n      if (transferIndex < assets.length) {\n        assetsPage[returnCounter] = assets[transferIndex];\n      }\n      returnCounter++;\n    }\n\n    return (assetsPage);\n  }\n\n  function _buy(address _user, uint256 _assetId, uint256 _schemaId, uint256 _amount, string _dappId) internal  {\n    Schema memory schema = Schemas.getSchema(_schemaId);\n    require(schema.amount == _amount, \"incorrect amount\");    \n    require(!_checkOwnership(_user, _assetId, _schemaId), \"duplicated\");\n\n    if (_amount >0 ){\n      // avoid money transfer on free assets\n      ERC223.transfer(this, _amount, _schemaId);\n    }\n  \n    // registrar la compra\n    userAssets_[_user].assets.push(Asset(now + schema.assetLifeTime , _assetId, _schemaId, _dappId));\n  }\n\n  function _checkOwnership(address _owner, uint256 _assetId, uint256 _schemaId) internal view returns (bool) {\n    \n    for (uint i = 0; i < userAssets_[_owner].assets.length; i++) {\n      Asset memory asset = userAssets_[_owner].assets[i];\n\n      if ( (asset.assetId == _assetId) && (asset.schemaId == _schemaId) && (asset.expirationDate > now)){\n        return true;\n      }\n    }\n    \n    return false;\n  }\n\n  function tokenFallback(address _from, uint _value, uint256 _schemaId) public {\n    Schema memory schema = Schemas.getSchema(_schemaId);\n    uint pieValue = _value;\n\n    for (uint i = 0; i < schema.clearingHouseRules.length-1; i++) {\n      uint tmpValue = calculatePercentage(_value,schema.clearingHouseRules[i].percent);\n      ERC223.transfer(schema.clearingHouseRules[i].receptor, tmpValue, 0);\n      pieValue -= tmpValue;\n    }\n\n    ERC223.transfer(schema.clearingHouseRules[schema.clearingHouseRules.length-1].receptor, pieValue, 0);\n\n  }\n\n  function calculatePercentage(uint theNumber, uint percentage) public view returns (uint) {\n    return theNumber * percentage / 100 ;\n  }\n    \n}",
  "sourcePath": "/home/jordi/ws/bloomen-wallet-truffle/contracts/bloomen/Assets.sol",
  "compiler": {
    "name": "solc",
    "version": "0.4.24+commit.e67f0147.Emscripten.clang"
  },
  "schemaVersion": "2.0.1",
  "updatedAt": "2019-01-11T12:54:55.939Z"
}