{
  "contractName": "Assets",
  "abi": [
    {
      "constant": true,
      "inputs": [],
      "name": "name",
      "outputs": [
        {
          "name": "",
          "type": "string"
        }
      ],
      "payable": false,
      "stateMutability": "view",
      "type": "function"
    },
    {
      "constant": false,
      "inputs": [
        {
          "name": "_to",
          "type": "address"
        },
        {
          "name": "_value",
          "type": "uint256"
        },
        {
          "name": "_data",
          "type": "uint256"
        }
      ],
      "name": "transfer",
      "outputs": [],
      "payable": false,
      "stateMutability": "nonpayable",
      "type": "function"
    },
    {
      "constant": false,
      "inputs": [
        {
          "name": "spender",
          "type": "address"
        },
        {
          "name": "value",
          "type": "uint256"
        }
      ],
      "name": "approve",
      "outputs": [
        {
          "name": "",
          "type": "bool"
        }
      ],
      "payable": false,
      "stateMutability": "nonpayable",
      "type": "function"
    },
    {
      "constant": true,
      "inputs": [
        {
          "name": "_page",
          "type": "int256"
        }
      ],
      "name": "getMovements",
      "outputs": [
        {
          "components": [
            {
              "name": "amount",
              "type": "int256"
            },
            {
              "name": "description",
              "type": "string"
            },
            {
              "name": "date",
              "type": "uint256"
            },
            {
              "name": "to",
              "type": "address"
            }
          ],
          "name": "",
          "type": "tuple[]"
        }
      ],
      "payable": false,
      "stateMutability": "view",
      "type": "function"
    },
    {
      "constant": true,
      "inputs": [],
      "name": "totalSupply",
      "outputs": [
        {
          "name": "",
          "type": "uint256"
        }
      ],
      "payable": false,
      "stateMutability": "view",
      "type": "function"
    },
    {
      "constant": false,
      "inputs": [
        {
          "name": "from",
          "type": "address"
        },
        {
          "name": "to",
          "type": "address"
        },
        {
          "name": "value",
          "type": "uint256"
        }
      ],
      "name": "transferFrom",
      "outputs": [
        {
          "name": "",
          "type": "bool"
        }
      ],
      "payable": false,
      "stateMutability": "nonpayable",
      "type": "function"
    },
    {
      "constant": true,
      "inputs": [
        {
          "name": "_schemaId",
          "type": "uint256"
        }
      ],
      "name": "getSchema",
      "outputs": [
        {
          "components": [
            {
              "name": "expirationDate",
              "type": "uint256"
            },
            {
              "name": "schemaId",
              "type": "uint256"
            },
            {
              "name": "amount",
              "type": "uint256"
            },
            {
              "name": "assetLifeTime",
              "type": "uint256"
            },
            {
              "components": [
                {
                  "name": "percent",
                  "type": "uint256"
                },
                {
                  "name": "receptor",
                  "type": "address"
                },
                {
                  "name": "description",
                  "type": "string"
                }
              ],
              "name": "clearingHouseRules",
              "type": "tuple[]"
            },
            {
              "name": "valid",
              "type": "bool"
            }
          ],
          "name": "",
          "type": "tuple"
        }
      ],
      "payable": false,
      "stateMutability": "view",
      "type": "function"
    },
    {
      "constant": true,
      "inputs": [],
      "name": "decimals",
      "outputs": [
        {
          "name": "",
          "type": "uint8"
        }
      ],
      "payable": false,
      "stateMutability": "view",
      "type": "function"
    },
    {
      "constant": false,
      "inputs": [
        {
          "name": "spender",
          "type": "address"
        },
        {
          "name": "addedValue",
          "type": "uint256"
        }
      ],
      "name": "increaseAllowance",
      "outputs": [
        {
          "name": "",
          "type": "bool"
        }
      ],
      "payable": false,
      "stateMutability": "nonpayable",
      "type": "function"
    },
    {
      "constant": false,
      "inputs": [
        {
          "name": "_schemaId",
          "type": "uint256"
        }
      ],
      "name": "validateSchema",
      "outputs": [],
      "payable": false,
      "stateMutability": "nonpayable",
      "type": "function"
    },
    {
      "constant": false,
      "inputs": [
        {
          "name": "to",
          "type": "address"
        },
        {
          "name": "value",
          "type": "uint256"
        }
      ],
      "name": "mint",
      "outputs": [
        {
          "name": "",
          "type": "bool"
        }
      ],
      "payable": false,
      "stateMutability": "nonpayable",
      "type": "function"
    },
    {
      "constant": false,
      "inputs": [
        {
          "name": "value",
          "type": "uint256"
        }
      ],
      "name": "burn",
      "outputs": [],
      "payable": false,
      "stateMutability": "nonpayable",
      "type": "function"
    },
    {
      "constant": false,
      "inputs": [
        {
          "name": "_schemaId",
          "type": "uint256"
        }
      ],
      "name": "invalidateSchema",
      "outputs": [],
      "payable": false,
      "stateMutability": "nonpayable",
      "type": "function"
    },
    {
      "constant": true,
      "inputs": [
        {
          "name": "owner",
          "type": "address"
        }
      ],
      "name": "balanceOf",
      "outputs": [
        {
          "name": "",
          "type": "uint256"
        }
      ],
      "payable": false,
      "stateMutability": "view",
      "type": "function"
    },
    {
      "constant": false,
      "inputs": [],
      "name": "renounceOwnership",
      "outputs": [],
      "payable": false,
      "stateMutability": "nonpayable",
      "type": "function"
    },
    {
      "constant": false,
      "inputs": [
        {
          "name": "from",
          "type": "address"
        },
        {
          "name": "value",
          "type": "uint256"
        }
      ],
      "name": "burnFrom",
      "outputs": [],
      "payable": false,
      "stateMutability": "nonpayable",
      "type": "function"
    },
    {
      "constant": false,
      "inputs": [
        {
          "name": "_amount",
          "type": "int256"
        },
        {
          "name": "_description",
          "type": "string"
        },
        {
          "name": "_to",
          "type": "address"
        }
      ],
      "name": "addMovement",
      "outputs": [],
      "payable": false,
      "stateMutability": "nonpayable",
      "type": "function"
    },
    {
      "constant": true,
      "inputs": [],
      "name": "owner",
      "outputs": [
        {
          "name": "",
          "type": "address"
        }
      ],
      "payable": false,
      "stateMutability": "view",
      "type": "function"
    },
    {
      "constant": true,
      "inputs": [],
      "name": "isOwner",
      "outputs": [
        {
          "name": "",
          "type": "bool"
        }
      ],
      "payable": false,
      "stateMutability": "view",
      "type": "function"
    },
    {
      "constant": true,
      "inputs": [],
      "name": "symbol",
      "outputs": [
        {
          "name": "",
          "type": "string"
        }
      ],
      "payable": false,
      "stateMutability": "view",
      "type": "function"
    },
    {
      "constant": false,
      "inputs": [
        {
          "name": "account",
          "type": "address"
        }
      ],
      "name": "addMinter",
      "outputs": [],
      "payable": false,
      "stateMutability": "nonpayable",
      "type": "function"
    },
    {
      "constant": false,
      "inputs": [],
      "name": "renounceMinter",
      "outputs": [],
      "payable": false,
      "stateMutability": "nonpayable",
      "type": "function"
    },
    {
      "constant": false,
      "inputs": [
        {
          "name": "_schemaId",
          "type": "uint256"
        },
        {
          "name": "_data",
          "type": "bytes"
        }
      ],
      "name": "createSchema",
      "outputs": [],
      "payable": false,
      "stateMutability": "nonpayable",
      "type": "function"
    },
    {
      "constant": false,
      "inputs": [
        {
          "name": "spender",
          "type": "address"
        },
        {
          "name": "subtractedValue",
          "type": "uint256"
        }
      ],
      "name": "decreaseAllowance",
      "outputs": [
        {
          "name": "",
          "type": "bool"
        }
      ],
      "payable": false,
      "stateMutability": "nonpayable",
      "type": "function"
    },
    {
      "constant": false,
      "inputs": [
        {
          "name": "_to",
          "type": "address"
        },
        {
          "name": "_value",
          "type": "uint256"
        }
      ],
      "name": "transfer",
      "outputs": [
        {
          "name": "",
          "type": "bool"
        }
      ],
      "payable": false,
      "stateMutability": "nonpayable",
      "type": "function"
    },
    {
      "constant": true,
      "inputs": [
        {
          "name": "account",
          "type": "address"
        }
      ],
      "name": "isMinter",
      "outputs": [
        {
          "name": "",
          "type": "bool"
        }
      ],
      "payable": false,
      "stateMutability": "view",
      "type": "function"
    },
    {
      "constant": true,
      "inputs": [
        {
          "name": "owner",
          "type": "address"
        },
        {
          "name": "spender",
          "type": "address"
        }
      ],
      "name": "allowance",
      "outputs": [
        {
          "name": "",
          "type": "uint256"
        }
      ],
      "payable": false,
      "stateMutability": "view",
      "type": "function"
    },
    {
      "constant": false,
      "inputs": [
        {
          "name": "newOwner",
          "type": "address"
        }
      ],
      "name": "transferOwnership",
      "outputs": [],
      "payable": false,
      "stateMutability": "nonpayable",
      "type": "function"
    },
    {
      "anonymous": false,
      "inputs": [
        {
          "indexed": true,
          "name": "account",
          "type": "address"
        }
      ],
      "name": "MinterAdded",
      "type": "event"
    },
    {
      "anonymous": false,
      "inputs": [
        {
          "indexed": true,
          "name": "account",
          "type": "address"
        }
      ],
      "name": "MinterRemoved",
      "type": "event"
    },
    {
      "anonymous": false,
      "inputs": [
        {
          "indexed": true,
          "name": "from",
          "type": "address"
        },
        {
          "indexed": true,
          "name": "to",
          "type": "address"
        },
        {
          "indexed": false,
          "name": "value",
          "type": "uint256"
        }
      ],
      "name": "Transfer",
      "type": "event"
    },
    {
      "anonymous": false,
      "inputs": [
        {
          "indexed": true,
          "name": "owner",
          "type": "address"
        },
        {
          "indexed": true,
          "name": "spender",
          "type": "address"
        },
        {
          "indexed": false,
          "name": "value",
          "type": "uint256"
        }
      ],
      "name": "Approval",
      "type": "event"
    },
    {
      "anonymous": false,
      "inputs": [
        {
          "indexed": true,
          "name": "previousOwner",
          "type": "address"
        },
        {
          "indexed": true,
          "name": "newOwner",
          "type": "address"
        }
      ],
      "name": "OwnershipTransferred",
      "type": "event"
    },
    {
      "constant": true,
      "inputs": [
        {
          "name": "_assetId",
          "type": "uint256"
        },
        {
          "name": "_schemaId",
          "type": "uint256"
        }
      ],
      "name": "checkOwnership",
      "outputs": [
        {
          "name": "",
          "type": "bool"
        }
      ],
      "payable": false,
      "stateMutability": "view",
      "type": "function"
    },
    {
      "constant": false,
      "inputs": [
        {
          "name": "_assetId",
          "type": "uint256"
        },
        {
          "name": "_schemaId",
          "type": "uint256"
        },
        {
          "name": "_amount",
          "type": "uint256"
        },
        {
          "name": "_dappId",
          "type": "string"
        }
      ],
      "name": "buy",
      "outputs": [],
      "payable": false,
      "stateMutability": "nonpayable",
      "type": "function"
    },
    {
      "constant": true,
      "inputs": [
        {
          "name": "_page",
          "type": "uint256"
        }
      ],
      "name": "getAssets",
      "outputs": [
        {
          "components": [
            {
              "name": "expirationDate",
              "type": "uint256"
            },
            {
              "name": "assetId",
              "type": "uint256"
            },
            {
              "name": "schemaId",
              "type": "uint256"
            },
            {
              "name": "dappId",
              "type": "string"
            }
          ],
          "name": "",
          "type": "tuple[]"
        }
      ],
      "payable": false,
      "stateMutability": "view",
      "type": "function"
    },
    {
      "constant": false,
      "inputs": [
        {
          "name": "_from",
          "type": "address"
        },
        {
          "name": "_value",
          "type": "uint256"
        },
        {
          "name": "_schemaId",
          "type": "uint256"
        }
      ],
      "name": "tokenFallback",
      "outputs": [],
      "payable": false,
      "stateMutability": "nonpayable",
      "type": "function"
    },
    {
      "constant": true,
      "inputs": [
        {
          "name": "theNumber",
          "type": "uint256"
        },
        {
          "name": "percentage",
          "type": "uint256"
        }
      ],
      "name": "calculatePercentage",
      "outputs": [
        {
          "name": "",
          "type": "uint256"
        }
      ],
      "payable": false,
      "stateMutability": "view",
      "type": "function"
    }
  ],
  "bytecode": "0x600b60809081527f426c6f6f6d656e436f696e00000000000000000000000000000000000000000060a0526101006040819052600360c09081527f424c4f000000000000000000000000000000000000000000000000000000000060e05260008054600160a060020a03191633178082559192600292859285928592600160a060020a031691907f8be0079c531659141344cd1fd0a4f28419497f9722a3daafe3b4186f6b6457e0908290a38251620000c0906005906020860190620001f0565b508151620000d6906006906020850190620001f0565b506007805460ff191660ff9290921691909117905550620001029050336401000000006200010b810204565b50505062000295565b62000126600882640100000000620020d46200015d82021704565b604051600160a060020a038216907f6ae172837ea30b801fbfcdd4108aa1d5bf8ff775444fd70256b44e6bf3dfc3f690600090a250565b600160a060020a03811615156200017357600080fd5b620001888282640100000000620001b8810204565b156200019357600080fd5b600160a060020a0316600090815260209190915260409020805460ff19166001179055565b6000600160a060020a0382161515620001d057600080fd5b50600160a060020a03166000908152602091909152604090205460ff1690565b828054600181600116156101000203166002900490600052602060002090601f016020900481019282601f106200023357805160ff191683800117855562000263565b8280016001018555821562000263579182015b828111156200026357825182559160200191906001019062000246565b506200027192915062000275565b5090565b6200029291905b808211156200027157600081556001016200027c565b90565b61308d80620002a56000396000f3006080604052600436106101a05763ffffffff7c010000000000000000000000000000000000000000000000000000000060003504166304edae0f81146101a557806306fdde03146101db578063095bcdb6146101fd578063095ea7b31461021f57806317b1b4981461023f57806318160ddd1461026c5780632133e3b91461028e57806323b872dd146102ae5780632b26fb29146102ce578063313ce567146102fb578063395093511461031d5780634014d4681461033d57806340c10f191461035d57806342966c681461037d5780634f4ee3531461039d5780635a16f5c4146103bd57806370a08231146103dd578063715018a6146103fd57806379cc6790146104125780637de3b0ed1461043257806386b00ad5146104525780638da5cb5b146104725780638f32d59b1461049457806395d89b41146104a9578063983b2d56146104be57806398650275146104de578063a2086dab146104f3578063a457c2d714610513578063a9059cbb14610533578063aa271e1a14610553578063d921216414610573578063dd62ed3e146105a0578063f2fde38b146105c0575b600080fd5b3480156101b157600080fd5b506101c56101c03660046128b3565b6105e0565b6040516101d29190612e95565b60405180910390f35b3480156101e757600080fd5b506101f06105f6565b6040516101d29190612ea3565b34801561020957600080fd5b5061021d6102183660046127c0565b61068d565b005b34801561022b57600080fd5b506101c561023a366004612790565b6106a9565b34801561024b57600080fd5b5061025f61025a3660046127f2565b61072b565b6040516101d29190612e84565b34801561027857600080fd5b5061028161097b565b6040516101d29190612f65565b34801561029a57600080fd5b506102816102a93660046128b3565b610981565b3480156102ba57600080fd5b506101c56102c9366004612743565b610989565b3480156102da57600080fd5b506102ee6102e93660046127f2565b610a26565b6040516101d29190612f54565b34801561030757600080fd5b50610310610bbc565b6040516101d29190612f73565b34801561032957600080fd5b506101c5610338366004612790565b610bc5565b34801561034957600080fd5b5061021d6103583660046127f2565b610c68565b34801561036957600080fd5b506101c5610378366004612790565b610c89565b34801561038957600080fd5b5061021d6103983660046127f2565b610cb2565b3480156103a957600080fd5b5061021d6103b83660046127c0565b610cbc565b3480156103c957600080fd5b5061021d6103d83660046127f2565b610d88565b3480156103e957600080fd5b506102816103f83660046126e3565b610da6565b34801561040957600080fd5b5061021d610dc1565b34801561041e57600080fd5b5061021d61042d366004612790565b610e2b565b34801561043e57600080fd5b5061021d61044d3660046128d2565b610e39565b34801561045e57600080fd5b5061021d61046d366004612810565b610e4c565b34801561047e57600080fd5b50610487610e58565b6040516101d29190612e3d565b3480156104a057600080fd5b506101c5610e67565b3480156104b557600080fd5b506101f0610e78565b3480156104ca57600080fd5b5061021d6104d93660046126e3565b610ed9565b3480156104ea57600080fd5b5061021d610ef6565b3480156104ff57600080fd5b5061021d61050e36600461286b565b610f01565b34801561051f57600080fd5b506101c561052e366004612790565b610f1e565b34801561053f57600080fd5b506101c561054e366004612790565b610f69565b34801561055f57600080fd5b506101c561056e3660046126e3565b610f83565b34801561057f57600080fd5b5061059361058e3660046127f2565b610f96565b6040516101d29190612e73565b3480156105ac57600080fd5b506102816105bb366004612709565b611180565b3480156105cc57600080fd5b5061021d6105db3660046126e3565b6111ab565b60006105ed3384846111c7565b90505b92915050565b60058054604080516020601f60026000196101006001881615020190951694909404938401819004810282018101909252828152606093909290918301828280156106825780601f1061065757610100808354040283529160200191610682565b820191906000526020600020905b81548152906001019060200180831161066557829003601f168201915b505050505090505b90565b610698338484611340565b6106a4338484846113d1565b505050565b6000600160a060020a03831615156106c057600080fd5b336000818152600360209081526040808320600160a060020a03881680855292529182902085905590519091907f8c5be1e5ebec7d5bd14f71427d1e84f3dd0314c0f7b2291e5b200ac8c7c3b9259061071a908690612f65565b60405180910390a350600192915050565b606060006060806000806000871380156107465750600a8713155b15156107705760405160e560020a62461bcd02815260040161076790612eb4565b60405180910390fd5b3360009081526009602090815260408083208054825181850281018501909352808352600a6000198d010299509193909284015b828210156108a657838290600052602060002090600402016080604051908101604052908160008201548152602001600182018054600181600116156101000203166002900480601f01602080910402602001604051908101604052809291908181526020018280546001816001161561010002031660029004801561086b5780601f106108405761010080835404028352916020019161086b565b820191906000526020600020905b81548152906001019060200180831161084e57829003601f168201915b50505091835250506002820154602080830191909152600390920154600160a060020a031660409091015290825260019290920191016107a4565b5050505093508484511115156108bb57610971565b60408051600a808252610160820190925290816020015b6108da612534565b8152602001906001900390816108d2579050509250600091505b600a82121561096d5750336000908152600a6020526040812054859003829003908112156109325760648451101561092e57829550610971565b6064015b838181518110151561094057fe5b90602001906020020151838381518110151561095857fe5b602090810290910101526001909101906108f4565b8295505b5050505050919050565b60045490565b606491020490565b600160a060020a03831660009081526003602090815260408083203384529091528120548211156109b957600080fd5b600160a060020a03841660009081526003602090815260408083203384529091529020546109ed908363ffffffff6114a016565b600160a060020a0385166000908152600360209081526040808320338452909152902055610a1c848484611340565b5060019392505050565b610a2e612566565b60008281526001602081905260408220015411610a605760405160e560020a62461bcd02815260040161076790612ee4565b6000828152600160208181526040808420815160c081018352815481529381015484840152600281015484830152600381015460608501526004810180548351818602810186019094528084529495919460808701949192909184015b82821015610b9d576000848152602090819020604080516060810182526003860290920180548352600180820154600160a060020a0316848601526002808301805485516101009482161594909402600019011691909104601f8101879004870283018701855280835294959294938601939192909190830182828015610b855780601f10610b5a57610100808354040283529160200191610b85565b820191906000526020600020905b815481529060010190602001808311610b6857829003601f168201915b50505050508152505081526020019060010190610abd565b505050908252506005919091015460ff16151560209091015292915050565b60075460ff1690565b6000600160a060020a0383161515610bdc57600080fd5b336000908152600360209081526040808320600160a060020a0387168452909152902054610c10908363ffffffff6114b716565b336000818152600360209081526040808320600160a060020a038916808552925291829020849055905190927f8c5be1e5ebec7d5bd14f71427d1e84f3dd0314c0f7b2291e5b200ac8c7c3b9259161071a9190612f65565b610c70610e67565b1515610c7b57600080fd5b610c868160016114d0565b50565b6000610c9433610f83565b1515610c9f57600080fd5b610ca98383611562565b50600192915050565b610c8633826115ff565b610cc4612566565b6000806000610cd285610a26565b9350859250600091505b600184608001515103821015610d4f57610d1286856080015184815181101515610d0257fe5b6020908102909101015151610981565b9050610d3f846080015183815181101515610d2957fe5b906020019060200201516020015182600061068d565b9182900391600190910190610cdc565b60808401518051610d7f91906000198101908110610d6957fe5b906020019060200201516020015184600061068d565b50505050505050565b610d90610e67565b1515610d9b57600080fd5b610c868160006114d0565b600160a060020a031660009081526002602052604090205490565b610dc9610e67565b1515610dd457600080fd5b60008054604051600160a060020a03909116907f8be0079c531659141344cd1fd0a4f28419497f9722a3daafe3b4186f6b6457e0908390a36000805473ffffffffffffffffffffffffffffffffffffffff19169055565b610e3582826116b2565b5050565b610e463385858585611744565b50505050565b6106a483833384611843565b600054600160a060020a031690565b600054600160a060020a0316331490565b60068054604080516020601f60026000196101006001881615020190951694909404938401819004810282018101909252828152606093909290918301828280156106825780601f1061065757610100808354040283529160200191610682565b610ee233610f83565b1515610eed57600080fd5b610c8681611b00565b610eff33611b48565b565b610f09610e67565b1515610f1457600080fd5b610e358282611b90565b6000600160a060020a0383161515610f3557600080fd5b336000908152600360209081526040808320600160a060020a0387168452909152902054610c10908363ffffffff6114a016565b6000610f76338484611340565b610ca933848460006113d1565b60006105f060088363ffffffff611f2c16565b336000908152600b602090815260408083208054825181850281018501909352808352606094600919600a88020194869485949293909291849084015b828210156110c6578382906000526020600020906004020160806040519081016040529081600082015481526020016001820154815260200160028201548152602001600382018054600181600116156101000203166002900480601f0160208091040260200160405190810160405280929190818152602001828054600181600116156101000203166002900480156110ae5780601f10611083576101008083540402835291602001916110ae565b820191906000526020600020905b81548152906001019060200180831161109157829003601f168201915b50505050508152505081526020019060010190610fd3565b5050505092508251600014806110df5750600183510384115b156110e957611177565b60408051600a808252610160820190925290816020015b61110861259f565b815260200190600190039081611100579050509150600090505b85600a0284101561117357825184101561116757828481518110151561114457fe5b90602001906020020151828281518110151561115c57fe5b602090810290910101525b60019384019301611122565b8194505b50505050919050565b600160a060020a03918216600090815260036020908152604080832093909416825291909152205490565b6111b3610e67565b15156111be57600080fd5b610c8681611f63565b6000806111d261259f565b600091505b600160a060020a0386166000908152600b602052604090205482101561133257600160a060020a0386166000908152600b6020526040902080548390811061121b57fe5b906000526020600020906004020160806040519081016040529081600082015481526020016001820154815260200160028201548152602001600382018054600181600116156101000203166002900480601f0160208091040260200160405190810160405280929190818152602001828054600181600116156101000203166002900480156112ec5780601f106112c1576101008083540402835291602001916112ec565b820191906000526020600020905b8154815290600101906020018083116112cf57829003601f168201915b505050505081525050905084816020015114801561130d5750838160400151145b80156113195750805142105b156113275760019250611337565b6001909101906111d7565b600092505b50509392505050565b61138581600019026040805190810160405280600481526020017f73656e64000000000000000000000000000000000000000000000000000000008152508585611843565b6113c6816040805190810160405280600781526020017f72656365697665000000000000000000000000000000000000000000000000008152508486611843565b6106a4838383611fe0565b60006113dc846120c5565b1561146057506040517f4f4ee3530000000000000000000000000000000000000000000000000000000081528390600160a060020a03821690634f4ee3539061142d90889087908790600401612e4b565b600060405180830381600087803b15801561144757600080fd5b505af115801561145b573d6000803e3d6000fd5b505050505b83600160a060020a031685600160a060020a0316600080516020613034833981519152856040516114919190612f65565b60405180910390a35050505050565b600080838311156114b057600080fd5b5050900390565b6000828201838110156114c957600080fd5b9392505050565b6000828152600160208190526040909120015415156115045760405160e560020a62461bcd02815260040161076790612ef4565b60008281526001602052604090206005015460ff161515811515141561153f5760405160e560020a62461bcd02815260040161076790612f34565b600091825260016020526040909120600501805460ff1916911515919091179055565b600160a060020a038216151561157757600080fd5b60045461158a908263ffffffff6114b716565b600455600160a060020a0382166000908152600260205260409020546115b6908263ffffffff6114b716565b600160a060020a038316600081815260026020526040808220939093559151909190600080516020613034833981519152906115f3908590612f65565b60405180910390a35050565b600160a060020a038216151561161457600080fd5b600160a060020a03821660009081526002602052604090205481111561163957600080fd5b60045461164c908263ffffffff6114a016565b600455600160a060020a038216600090815260026020526040902054611678908263ffffffff6114a016565b600160a060020a038316600081815260026020526040808220939093559151600080516020613034833981519152906115f3908590612f65565b600160a060020a03821660009081526003602090815260408083203384529091529020548111156116e257600080fd5b600160a060020a0382166000908152600360209081526040808320338452909152902054611716908263ffffffff6114a016565b600160a060020a0383166000908152600360209081526040808320338452909152902055610e3582826115ff565b61174c612566565b61175584610a26565b6040810151909150831461177e5760405160e560020a62461bcd02815260040161076790612f24565b6117898686866111c7565b156117a95760405160e560020a62461bcd02815260040161076790612f44565b6117b430848661068d565b600160a060020a0386166000908152600b602090815260408083208151608081018352606080870151420182528185018b81529382018a81529082018881528354600181810180875595895297879020845160049092020190815594519685019690965551600284015593518051919493611837926003850192909101906125c8565b50505050505050505050565b600160a060020a0382166000908152600960205260409020546064111561193c57600160a060020a038083166000908152600960209081526040808320815160808101835289815280840189815242938201939093529486166060860152805460018181018084559286529484902086516004909202019081559151805191959492936118d5938501929101906125c8565b5060408281015160028301556060909201516003909101805473ffffffffffffffffffffffffffffffffffffffff1916600160a060020a03928316179055841660009081526009602090815282822054600a90915291902060001991909101905550610e46565b600160a060020a0382166000908152600a602052604090205460631415611a2a57600160a060020a038083166000818152600a6020908152604080832083905580516080810182528981528083018990524281830152948616606086015292825260099052908120805490919081106119b157fe5b90600052602060002090600402016000820151816000015560208201518160010190805190602001906119e59291906125c8565b50604082015160028201556060909101516003909101805473ffffffffffffffffffffffffffffffffffffffff1916600160a060020a03909216919091179055610e46565b600160a060020a038083166000818152600a6020818152604080842080546001019081905581516080810183528b81528084018b90524281840152968816606088015294845260098252909220915280549091908110611a8657fe5b9060005260206000209060040201600082015181600001556020820151816001019080519060200190611aba9291906125c8565b50604082015160028201556060909101516003909101805473ffffffffffffffffffffffffffffffffffffffff1916600160a060020a0390921691909117905550505050565b611b1160088263ffffffff6120d416565b604051600160a060020a038216907f6ae172837ea30b801fbfcdd4108aa1d5bf8ff775444fd70256b44e6bf3dfc3f690600090a250565b611b5960088263ffffffff61212216565b604051600160a060020a038216907fe94479a9f7e1952cc78f2d6baab678adc1b772d936c6583def489e524cb6669290600090a250565b611b98612646565b606060008060008060606000806060600160008d8152602001908152602001600020600101546000141515611be25760405160e560020a62461bcd02815260040161076790612f14565b611beb8b61216e565b9950611bf68a6121bc565b9850611c19896000815181101515611c0a57fe5b90602001906020020151612286565b9750428811611c3d5760405160e560020a62461bcd02815260040161076790612f04565b611c4f896001815181101515611c0a57fe5b9650611c63896002815181101515611c0a57fe5b9550611c77896003815181101515611c0a57fe5b9450611c9a896004815181101515611c8b57fe5b906020019060200201516121bc565b935083519250600091505b82821015611dc857611cbe8483815181101515611c8b57fe5b905060016000888152602001908152602001600020600401606060405190810160405280611cf4846000815181101515611c0a57fe5b8152602001611d1a846001815181101515611d0b57fe5b906020019060200201516122bc565b600160a060020a03168152602001611d49846002815181101515611d3a57fe5b906020019060200201516122ed565b9052815460018082018085556000948552602094859020845160039094020192835583850151918301805473ffffffffffffffffffffffffffffffffffffffff1916600160a060020a0390931692909217909155604083015180519194611db8926002850192909101906125c8565b505060019093019250611ca59050565b611eea60016000898152602001908152602001600020600401805480602002602001604051908101604052809291908181526020016000905b82821015611ee1576000848152602090819020604080516060810182526003860290920180548352600180820154600160a060020a0316848601526002808301805485516101009482161594909402600019011691909104601f8101879004870283018701855280835294959294938601939192909190830182828015611ec95780601f10611e9e57610100808354040283529160200191611ec9565b820191906000526020600020905b815481529060010190602001808311611eac57829003601f168201915b50505050508152505081526020019060010190611e01565b50505050612356565b50505060008481526001602081905260409091209586558581019490945550600284019190915560038301556005909101805460ff1916909117905550505050565b6000600160a060020a0382161515611f4357600080fd5b50600160a060020a03166000908152602091909152604090205460ff1690565b600160a060020a0381161515611f7857600080fd5b60008054604051600160a060020a03808516939216917f8be0079c531659141344cd1fd0a4f28419497f9722a3daafe3b4186f6b6457e091a36000805473ffffffffffffffffffffffffffffffffffffffff1916600160a060020a0392909216919091179055565b600160a060020a03831660009081526002602052604090205481111561200557600080fd5b600160a060020a038216151561201a57600080fd5b600160a060020a038316600090815260026020526040902054612043908263ffffffff6114a016565b600160a060020a038085166000908152600260205260408082209390935590841681522054612078908263ffffffff6114b716565b600160a060020a038084166000818152600260205260409081902093909355915190851690600080516020613034833981519152906120b8908590612f65565b60405180910390a3505050565b6000813b908111905b50919050565b600160a060020a03811615156120e957600080fd5b6120f38282611f2c565b156120fd57600080fd5b600160a060020a0316600090815260209190915260409020805460ff19166001179055565b600160a060020a038116151561213757600080fd5b6121418282611f2c565b151561214c57600080fd5b600160a060020a0316600090815260209190915260409020805460ff19169055565b612176612646565b600082516000141561219d57604080518082019091526000808252602082015291506120ce565b5050604080518082019091528151815260209182019181019190915290565b60606000806000806121cd8661237a565b15156121d857600080fd5b6121e1866123a9565b93508360405190808252806020026020018201604052801561221d57816020015b61220a612646565b8152602001906001900390816122025790505b50945061222d86602001516123f9565b8660200151019250600090505b838110156111775761224b8361245c565b9150604080519081016040528083815260200184815250858281518110151561227057fe5b602090810290910101529181019160010161223a565b600080600080600061229b86602001516123f9565b86516020978801518201519190039096036101000a90950495945050505050565b8051600090601510156122e45760405160e560020a62461bcd02815260040161076790612ed4565b6105f082612286565b60606000806060600061230386602001516123f9565b9350838660000151039250826040519080825280601f01601f19166020018201604052801561233c578160200160208202803883390190505b5091508160200190506111738487602001510182856124ed565b8051600010610c865760405160e560020a62461bcd02815260040161076790612ec4565b6020810151805160009190821a9060c060ff8316101561239d57600092506123a2565b600192505b5050919050565b600080600080600092506123c085602001516123f9565b6020860151865191810193500190505b808210156123f0576123e18261245c565b600190930192909101906123d0565b50909392505050565b8051600090811a608081101561241257600091506120ce565b60b881108061242d575060c0811080159061242d575060f881105b1561243b57600191506120ce565b60c08110156124505760b519810191506120ce565b60f519810191506120ce565b8051600090811a608081101561247557600191506120ce565b60b881101561248a57607e19810191506120ce565b60c08110156124b75760b78103600184019350806020036101000a845104600182018101935050506120ce565b60f88110156124cc5760be19810191506120ce565b60019290920151602083900360f7016101000a900490910160f51901919050565b60005b60208210612512578351835260209384019390920191601f19909101906124f0565b50915181516020939093036101000a6000190180199091169216919091179052565b6080604051908101604052806000815260200160608152602001600081526020016000600160a060020a031681525090565b60c06040519081016040528060008152602001600081526020016000815260200160008152602001606081526020016000151581525090565b608060405190810160405280600081526020016000815260200160008152602001606081525090565b828054600181600116156101000203166002900490600052602060002090601f016020900481019282601f1061260957805160ff1916838001178555612636565b82800160010185558215612636579182015b8281111561263657825182559160200191906001019061261b565b5061264292915061265d565b5090565b604080518082019091526000808252602082015290565b61068a91905b808211156126425760008155600101612663565b60006105ed8235612fda565b6000601f8201831361269457600080fd5b81356126a76126a282612fa8565b612f81565b915080825260208301602083018583830111156126c357600080fd5b6126ce838284612ff1565b50505092915050565b60006105ed823561068a565b6000602082840312156126f557600080fd5b60006127018484612677565b949350505050565b6000806040838503121561271c57600080fd5b60006127288585612677565b925050602061273985828601612677565b9150509250929050565b60008060006060848603121561275857600080fd5b60006127648686612677565b935050602061277586828701612677565b9250506040612786868287016126d7565b9150509250925092565b600080604083850312156127a357600080fd5b60006127af8585612677565b9250506020612739858286016126d7565b6000806000606084860312156127d557600080fd5b60006127e18686612677565b9350506020612775868287016126d7565b60006020828403121561280457600080fd5b600061270184846126d7565b60008060006060848603121561282557600080fd5b600061283186866126d7565b935050602084013567ffffffffffffffff81111561284e57600080fd5b61285a86828701612683565b925050604061278686828701612677565b6000806040838503121561287e57600080fd5b600061288a85856126d7565b925050602083013567ffffffffffffffff8111156128a757600080fd5b61273985828601612683565b600080604083850312156128c657600080fd5b60006127af85856126d7565b600080600080608085870312156128e857600080fd5b60006128f487876126d7565b9450506020612905878288016126d7565b9350506040612916878288016126d7565b925050606085013567ffffffffffffffff81111561293357600080fd5b61293f87828801612683565b91505092959194509250565b61295481612fda565b82525050565b600061296582612fd6565b8084526020840193508360208202850161297e85612fd0565b60005b848110156129b5578383038852612999838351612cc4565b92506129a482612fd0565b602098909801979150600101612981565b50909695505050505050565b60006129cc82612fd6565b808452602084019350836020820285016129e585612fd0565b60005b848110156129b5578383038852612a00838351612d1f565b9250612a0b82612fd0565b6020989098019791506001016129e8565b6000612a2782612fd6565b80845260208401935083602082028501612a4085612fd0565b60005b848110156129b5578383038852612a5b838351612d5e565b9250612a6682612fd0565b602098909801979150600101612a43565b61295481612fe6565b6129548161068a565b6000612a9482612fd6565b808452612aa8816020860160208601612ffd565b612ab181613029565b9093016020019392505050565b600d81527f496e76616c696420706167652e00000000000000000000000000000000000000602082015260400190565b600981527f6e6f742072756c65730000000000000000000000000000000000000000000000602082015260400190565b603a81527f496e76616c696420524c504974656d2e2041646472657373657320617265206560208201527f6e636f64656420696e203230206279746573206f72206c657373000000000000604082015260600190565b600981527f6e6f745f65786973740000000000000000000000000000000000000000000000602082015260400190565b600981527f6e6f742065786973740000000000000000000000000000000000000000000000602082015260400190565b600781527f6578706972656400000000000000000000000000000000000000000000000000602082015260400190565b600581527f6578697374000000000000000000000000000000000000000000000000000000602082015260400190565b601081527f696e636f727265637420616d6f756e7400000000000000000000000000000000602082015260400190565b600b81527f73616d6520737461747573000000000000000000000000000000000000000000602082015260400190565b600a81527f6475706c69636174656400000000000000000000000000000000000000000000602082015260400190565b80516000906080840190612cd88582612a80565b506020830151612ceb6020860182612a80565b506040830151612cfe6040860182612a80565b5060608301518482036060860152612d168282612a89565b95945050505050565b80516000906060840190612d338582612a80565b506020830151612d46602086018261294b565b5060408301518482036040860152612d168282612a89565b80516000906080840190612d728582612a80565b5060208301518482036020860152612d8a8282612a89565b9150506040830151612d9f6040860182612a80565b506060830151612db2606086018261294b565b509392505050565b805160009060c0840190612dce8582612a80565b506020830151612de16020860182612a80565b506040830151612df46040860182612a80565b506060830151612e076060860182612a80565b5060808301518482036080860152612e1f82826129c1565b91505060a0830151612db260a0860182612a77565b61295481612feb565b602081016105f0828461294b565b60608101612e59828661294b565b612e666020830185612a80565b6127016040830184612a80565b602080825281016105ed818461295a565b602080825281016105ed8184612a1c565b602081016105f08284612a77565b602080825281016105ed8184612a89565b602080825281016105f081612abe565b602080825281016105f081612aee565b602080825281016105f081612b1e565b602080825281016105f081612b74565b602080825281016105f081612ba4565b602080825281016105f081612bd4565b602080825281016105f081612c04565b602080825281016105f081612c34565b602080825281016105f081612c64565b602080825281016105f081612c94565b602080825281016105ed8184612dba565b602081016105f08284612a80565b602081016105f08284612e34565b60405181810167ffffffffffffffff81118282101715612fa057600080fd5b604052919050565b600067ffffffffffffffff821115612fbf57600080fd5b506020601f91909101601f19160190565b60200190565b5190565b600160a060020a031690565b151590565b60ff1690565b82818337506000910152565b60005b83811015613018578181015183820152602001613000565b83811115610e465750506000910152565b601f01601f1916905600ddf252ad1be2c89b69c2b068fc378daa952ba7f163c4a11628f55a4df523b3efa265627a7a7230582078171049020861f551eac3329bbcc5574ed70a46baff3a3299aa4b411f6b21b36c6578706572696d656e74616cf50037",
  "source": "pragma solidity 0.4.24;\npragma experimental ABIEncoderV2;\n\nimport \"./Schemas.sol\";\nimport \"./token/ERC223ReceivingContract.sol\";\nimport \"./token/ERC223.sol\";\nimport \"../../node_modules/openzeppelin-solidity/contracts/math/SafeMath.sol\";\n\ncontract  Assets is Schemas, ERC223ReceivingContract, ERC223(\"BloomenCoin\",\"BLO\",2) {\n\n  using SafeMath for uint256;\n    \n  struct UserAssets {   \n    Asset[] assets;\n  } \n\n  struct Asset {   \n    uint expirationDate;\n    uint256 assetId;\n    uint256 schemaId;\n    string dappId;\n  }\n\n  uint256 constant private PAGE_SIZE = 10;\n\n  // buy://<assetId>#<schemaId>#<amount>#<dappId>#amount\n\n  mapping (address => UserAssets) private userAssets_;\n\n  function checkOwnership(uint256 _assetId, uint256 _schemaId) public view returns (bool) {\n    return _checkOwnership(msg.sender, _assetId, _schemaId);  \n  }\n\n  function buy(uint256 _assetId, uint256 _schemaId, uint256 _amount, string _dappId) public  {\n    _buy(msg.sender, _assetId, _schemaId, _amount, _dappId);  \n  }\n\n  function getAssets(uint256 _page) public view returns (Asset[] memory) {\n    \n    uint256 transferIndex = PAGE_SIZE * _page - PAGE_SIZE;\n    Asset[] memory assets = userAssets_[msg.sender].assets;\n\n    if (assets.length == 0 || transferIndex > assets.length - 1) {\n      return;\n    }\n\n    Asset[] memory assetsPage = new Asset[](PAGE_SIZE);  \n    uint256 returnCounter = 0;\n\n    for (transferIndex; transferIndex < PAGE_SIZE * _page; transferIndex++) {\n      if (transferIndex < assets.length) {\n        assetsPage[returnCounter] = assets[transferIndex];\n      }\n      returnCounter++;\n    }\n\n    return (assetsPage);\n  }\n\n  function _buy(address _user, uint256 _assetId, uint256 _schemaId, uint256 _amount, string _dappId) internal  {\n    Schema memory schema = Schemas.getSchema(_schemaId);\n    require(schema.amount == _amount, \"incorrect amount\");    \n    require(!_checkOwnership(_user, _assetId, _schemaId), \"duplicated\");\n    \n    ERC223.transfer(this, _amount, _schemaId);\n\n    // registrar la compra\n    userAssets_[_user].assets.push(Asset(now + schema.assetLifeTime , _assetId, _schemaId, _dappId));\n  }\n\n  function _checkOwnership(address _owner, uint256 _assetId, uint256 _schemaId) internal view returns (bool) {\n    \n    for (uint i = 0; i < userAssets_[_owner].assets.length; i++) {\n      Asset memory asset = userAssets_[_owner].assets[i];\n\n      if ( (asset.assetId == _assetId) && (asset.schemaId == _schemaId) && (asset.expirationDate > now)){\n        return true;\n      }\n    }\n    \n    return false;\n  }\n\n  function tokenFallback(address _from, uint _value, uint256 _schemaId) public {\n    Schema memory schema = Schemas.getSchema(_schemaId);\n    uint pieValue = _value;\n\n    for (uint i = 0; i < schema.clearingHouseRules.length-1; i++) {\n      uint tmpValue = calculatePercentage(_value,schema.clearingHouseRules[i].percent);\n      ERC223.transfer(schema.clearingHouseRules[i].receptor, tmpValue, 0);\n      pieValue -= tmpValue;\n    }\n\n    ERC223.transfer(schema.clearingHouseRules[schema.clearingHouseRules.length-1].receptor, pieValue, 0);\n\n  }\n\n  function calculatePercentage(uint theNumber, uint percentage) public view returns (uint) {\n    return theNumber * percentage / 100 ;\n  }\n    \n}",
  "sourcePath": "/home/jordi/ws/bloomen-wallet-truffle/contracts/bloomen/Assets.sol",
  "compiler": {
    "name": "solc",
    "version": "0.4.24+commit.e67f0147.Emscripten.clang"
  },
  "schemaVersion": "2.0.1",
  "updatedAt": "2019-01-04T16:56:49.455Z"
}