{
  "contractName": "Bloomen",
  "abi": [
    {
      "constant": true,
      "inputs": [],
      "name": "prepaidCardManager",
      "outputs": [
        {
          "name": "",
          "type": "address"
        }
      ],
      "payable": false,
      "stateMutability": "view",
      "type": "function"
    },
    {
      "constant": true,
      "inputs": [],
      "name": "assets",
      "outputs": [
        {
          "name": "",
          "type": "address"
        }
      ],
      "payable": false,
      "stateMutability": "view",
      "type": "function"
    },
    {
      "constant": true,
      "inputs": [
        {
          "name": "",
          "type": "uint256"
        }
      ],
      "name": "dapps",
      "outputs": [
        {
          "name": "",
          "type": "address"
        }
      ],
      "payable": false,
      "stateMutability": "view",
      "type": "function"
    },
    {
      "constant": true,
      "inputs": [],
      "name": "devices",
      "outputs": [
        {
          "name": "",
          "type": "address"
        }
      ],
      "payable": false,
      "stateMutability": "view",
      "type": "function"
    },
    {
      "constant": true,
      "inputs": [],
      "name": "erc223",
      "outputs": [
        {
          "name": "",
          "type": "address"
        }
      ],
      "payable": false,
      "stateMutability": "view",
      "type": "function"
    },
    {
      "inputs": [
        {
          "name": "_erc223Addr",
          "type": "address"
        },
        {
          "name": "_prepaidCardManagerAddr",
          "type": "address"
        },
        {
          "name": "_assetsAddr",
          "type": "address"
        },
        {
          "name": "_devicesAddr",
          "type": "address"
        }
      ],
      "payable": false,
      "stateMutability": "nonpayable",
      "type": "constructor"
    },
    {
      "constant": false,
      "inputs": [
        {
          "name": "_dappAddress",
          "type": "address"
        }
      ],
      "name": "addDapp",
      "outputs": [],
      "payable": false,
      "stateMutability": "nonpayable",
      "type": "function"
    }
  ],
  "bytecode": "0x608060405234801561001057600080fd5b506040516080806103f9833981018060405261002f9190810190610094565b60038054600160a060020a03958616600160a060020a03199182161790915560008054948616948216949094179093556001805491851691841691909117905560028054919093169116179055610101565b600061008d82516100f5565b9392505050565b600080600080608085870312156100aa57600080fd5b60006100b68787610081565b94505060206100c787828801610081565b93505060406100d887828801610081565b92505060606100e987828801610081565b91505092959194509250565b600160a060020a031690565b6102e9806101106000396000f3006080604052600436106100775763ffffffff7c01000000000000000000000000000000000000000000000000000000006000350416630ae7a5a8811461007c57806327b7ca5f146100a757806371a97305146100c95780639640fe35146100de578063c30a4d481461010b578063ebf0da6514610120575b600080fd5b34801561008857600080fd5b50610091610135565b60405161009e9190610287565b60405180910390f35b3480156100b357600080fd5b506100c76100c2366004610217565b610144565b005b3480156100d557600080fd5b506100916101a3565b3480156100ea57600080fd5b506100fe6100f936600461023d565b6101b2565b60405161009e9190610273565b34801561011757600080fd5b506100916101da565b34801561012c57600080fd5b506100916101e9565b600054600160a060020a031681565b600480546001810182556000919091527f8a35acfbc15ff81a39ae7d344fd709f28e8600b4aa8c65c6b64bfe7fe36bd19b01805473ffffffffffffffffffffffffffffffffffffffff1916600160a060020a0392909216919091179055565b600254600160a060020a031681565b60048054829081106101c057fe5b600091825260209091200154600160a060020a0316905081565b600154600160a060020a031681565b600354600160a060020a031681565b60006102048235610295565b9392505050565b600061020482356102a1565b60006020828403121561022957600080fd5b600061023584846101f8565b949350505050565b60006020828403121561024f57600080fd5b6000610235848461020b565b61026481610295565b82525050565b610264816102a4565b60208101610281828461025b565b92915050565b60208101610281828461026a565b600160a060020a031690565b90565b6000610281826102955600a265627a7a723058202dcdc4261286b3ece0323f6eefab67bbd4deed44bab1f37886b9be3a4afda0346c6578706572696d656e74616cf50037",
  "source": "pragma solidity 0.4.24;\r\npragma experimental ABIEncoderV2;\r\n\r\nimport \"./PrepaidCardManager.sol\";\r\nimport \"./Devices.sol\";\r\nimport \"./Assets.sol\";\r\nimport \"./common/DAPP.sol\";\r\nimport \"./token/ERC223.sol\";\r\nimport \"./dapp/ANT1DAPP.sol\";\r\nimport \"./dapp/DemoDAPP.sol\";\r\nimport \"../../node_modules/json-warehouse/contracts/JsonContainerFactory.sol\";\r\n\r\ncontract Bloomen {\r\n\r\n    PrepaidCardManager public prepaidCardManager;\r\n    Devices public devices;\r\n    Assets public assets;\r\n    ERC223 public erc223;\r\n    address[] public dapps;\r\n\r\n    constructor(address _erc223Addr, address _prepaidCardManagerAddr, address _assetsAddr, address _devicesAddr) public {\r\n        erc223 = ERC223(_erc223Addr);\r\n        prepaidCardManager = PrepaidCardManager(_prepaidCardManagerAddr);\r\n        devices = Devices(_devicesAddr);\r\n        assets = Assets(_assetsAddr);\r\n    }\r\n\r\n    function addDapp(address _dappAddress) public {\r\n        // TODO: Only owner protection\r\n        dapps.push(_dappAddress);\r\n    }\r\n}",
  "sourcePath": "C:\\Users\\a562145\\git\\bloomen-wallet-truffle\\contracts\\bloomen\\Bloomen.sol",
  "compiler": {
    "name": "solc",
    "version": "0.4.24+commit.e67f0147.Emscripten.clang"
  },
  "schemaVersion": "2.0.1",
  "updatedAt": "2018-12-03T13:49:20.325Z"
}