{
  "contractName": "Bloomen",
  "abi": [
    {
      "constant": true,
      "inputs": [],
      "name": "prepaidCardManager",
      "outputs": [
        {
          "name": "",
          "type": "address"
        }
      ],
      "payable": false,
      "stateMutability": "view",
      "type": "function"
    },
    {
      "constant": true,
      "inputs": [],
      "name": "assets",
      "outputs": [
        {
          "name": "",
          "type": "address"
        }
      ],
      "payable": false,
      "stateMutability": "view",
      "type": "function"
    },
    {
      "constant": true,
      "inputs": [
        {
          "name": "",
          "type": "uint256"
        }
      ],
      "name": "dapps",
      "outputs": [
        {
          "name": "",
          "type": "address"
        }
      ],
      "payable": false,
      "stateMutability": "view",
      "type": "function"
    },
    {
      "constant": true,
      "inputs": [],
      "name": "devices",
      "outputs": [
        {
          "name": "",
          "type": "address"
        }
      ],
      "payable": false,
      "stateMutability": "view",
      "type": "function"
    },
    {
      "constant": true,
      "inputs": [],
      "name": "erc223",
      "outputs": [
        {
          "name": "",
          "type": "address"
        }
      ],
      "payable": false,
      "stateMutability": "view",
      "type": "function"
    },
    {
      "inputs": [
        {
          "name": "_erc223Addr",
          "type": "address"
        },
        {
          "name": "_prepaidCardManagerAddr",
          "type": "address"
        },
        {
          "name": "_assetsAddr",
          "type": "address"
        },
        {
          "name": "_devicesAddr",
          "type": "address"
        }
      ],
      "payable": false,
      "stateMutability": "nonpayable",
      "type": "constructor"
    },
    {
      "constant": false,
      "inputs": [
        {
          "name": "_dappAddress",
          "type": "address"
        }
      ],
      "name": "addDapp",
      "outputs": [],
      "payable": false,
      "stateMutability": "nonpayable",
      "type": "function"
    }
  ],
  "bytecode": "0x608060405234801561001057600080fd5b506040516080806102a6833981016040908152815160208301519183015160609093015160038054600160a060020a03938416600160a060020a03199182161790915560008054948416948216949094179093556001805491831691841691909117905560028054919093169116179055610216806100906000396000f3006080604052600436106100775763ffffffff7c01000000000000000000000000000000000000000000000000000000006000350416630ae7a5a8811461007c57806327b7ca5f146100ad57806371a97305146100d05780639640fe35146100e5578063c30a4d48146100fd578063ebf0da6514610112575b600080fd5b34801561008857600080fd5b50610091610127565b60408051600160a060020a039092168252519081900360200190f35b3480156100b957600080fd5b506100ce600160a060020a0360043516610136565b005b3480156100dc57600080fd5b50610091610195565b3480156100f157600080fd5b506100916004356101a4565b34801561010957600080fd5b506100916101cc565b34801561011e57600080fd5b506100916101db565b600054600160a060020a031681565b600480546001810182556000919091527f8a35acfbc15ff81a39ae7d344fd709f28e8600b4aa8c65c6b64bfe7fe36bd19b01805473ffffffffffffffffffffffffffffffffffffffff1916600160a060020a0392909216919091179055565b600254600160a060020a031681565b60048054829081106101b257fe5b600091825260209091200154600160a060020a0316905081565b600154600160a060020a031681565b600354600160a060020a0316815600a165627a7a72305820803519fcfe24b8d0ea445eea0cbf3166df99082cb4c92c7964195fb86e1321390029",
  "source": "pragma solidity ^0.4.23;\n\nimport \"./PrepaidCardManager.sol\";\nimport \"./Devices.sol\";\nimport \"./Assets.sol\";\nimport \"./common/DAPP.sol\";\nimport \"./token/ERC223.sol\";\nimport \"./dapp/ANT1DAPP.sol\";\nimport \"./dapp/DemoDAPP.sol\";\n\ncontract Bloomen {\n\n  PrepaidCardManager public prepaidCardManager;\n  Devices public devices;\n  Assets public assets;\n  ERC223 public erc223;\n  address[] public dapps;\n\n  constructor(address _erc223Addr, address _prepaidCardManagerAddr, address _assetsAddr, address _devicesAddr) public {\n    erc223 = ERC223(_erc223Addr);\n    prepaidCardManager = PrepaidCardManager(_prepaidCardManagerAddr);\n    devices = Devices(_devicesAddr);\n    assets = Assets(_assetsAddr);\n\n  }\n\n  function addDapp(address _dappAddress) public {\n    // TODO: Only owner protection\n    dapps.push(_dappAddress);\n  }\n}",
  "sourcePath": "/home/jordi/ws/bloomen-wallet-truffle/contracts/bloomen/Bloomen.sol",
  "compiler": {
    "name": "solc",
    "version": "0.4.24+commit.e67f0147.Emscripten.clang"
  },
  "schemaVersion": "2.0.1",
  "updatedAt": "2018-12-02T19:26:51.061Z"
}