{
  "contractName": "Bloomen",
  "abi": [
    {
      "constant": false,
      "inputs": [],
      "name": "renounceOwnership",
      "outputs": [],
      "payable": false,
      "stateMutability": "nonpayable",
      "type": "function"
    },
    {
      "constant": true,
      "inputs": [],
      "name": "owner",
      "outputs": [
        {
          "name": "",
          "type": "address"
        }
      ],
      "payable": false,
      "stateMutability": "view",
      "type": "function"
    },
    {
      "constant": true,
      "inputs": [],
      "name": "isOwner",
      "outputs": [
        {
          "name": "",
          "type": "bool"
        }
      ],
      "payable": false,
      "stateMutability": "view",
      "type": "function"
    },
    {
      "constant": false,
      "inputs": [
        {
          "name": "newOwner",
          "type": "address"
        }
      ],
      "name": "transferOwnership",
      "outputs": [],
      "payable": false,
      "stateMutability": "nonpayable",
      "type": "function"
    },
    {
      "anonymous": false,
      "inputs": [
        {
          "indexed": true,
          "name": "previousOwner",
          "type": "address"
        },
        {
          "indexed": true,
          "name": "newOwner",
          "type": "address"
        }
      ],
      "name": "OwnershipTransferred",
      "type": "event"
    },
    {
      "constant": false,
      "inputs": [
        {
          "name": "_dappAddress",
          "type": "address"
        }
      ],
      "name": "addDapp",
      "outputs": [],
      "payable": false,
      "stateMutability": "nonpayable",
      "type": "function"
    },
    {
      "constant": false,
      "inputs": [
        {
          "name": "_index",
          "type": "uint256"
        }
      ],
      "name": "deleteDapp",
      "outputs": [],
      "payable": false,
      "stateMutability": "nonpayable",
      "type": "function"
    },
    {
      "constant": false,
      "inputs": [
        {
          "name": "_index",
          "type": "uint256"
        },
        {
          "name": "_newAddress",
          "type": "address"
        }
      ],
      "name": "setDapp",
      "outputs": [],
      "payable": false,
      "stateMutability": "nonpayable",
      "type": "function"
    },
    {
      "constant": true,
      "inputs": [],
      "name": "getDapps",
      "outputs": [
        {
          "name": "",
          "type": "address[]"
        }
      ],
      "payable": false,
      "stateMutability": "view",
      "type": "function"
    }
  ],
  "bytecode": "0x6080604081905260008054600160a060020a0319163317808255600160a060020a0316917f8be0079c531659141344cd1fd0a4f28419497f9722a3daafe3b4186f6b6457e0908290a36104b5806100576000396000f30060806040526004361061008d5763ffffffff7c010000000000000000000000000000000000000000000000000000000060003504166327b7ca5f81146100925780632baaed18146100b5578063715018a61461011a5780638da5cb5b1461012f5780638f32d59b14610160578063c930158514610189578063e247dea8146101ad578063f2fde38b146101c5575b600080fd5b34801561009e57600080fd5b506100b3600160a060020a03600435166101e6565b005b3480156100c157600080fd5b506100ca610257565b60408051602080825283518183015283519192839290830191858101910280838360005b838110156101065781810151838201526020016100ee565b505050509050019250505060405180910390f35b34801561012657600080fd5b506100b36102b9565b34801561013b57600080fd5b50610144610323565b60408051600160a060020a039092168252519081900360200190f35b34801561016c57600080fd5b50610175610332565b604080519115158252519081900360200190f35b34801561019557600080fd5b506100b3600435600160a060020a0360243516610343565b3480156101b957600080fd5b506100b3600435610398565b3480156101d157600080fd5b506100b3600160a060020a03600435166103ed565b6101ee610332565b15156101f957600080fd5b6001805480820182556000919091527fb10e2d527612073b26eecdfd717e6a320cf44b4afac2b0732d9fcbe2b7fa0cf601805473ffffffffffffffffffffffffffffffffffffffff1916600160a060020a0392909216919091179055565b606060018054806020026020016040519081016040528092919081815260200182805480156102af57602002820191906000526020600020905b8154600160a060020a03168152600190910190602001808311610291575b5050505050905090565b6102c1610332565b15156102cc57600080fd5b60008054604051600160a060020a03909116907f8be0079c531659141344cd1fd0a4f28419497f9722a3daafe3b4186f6b6457e0908390a36000805473ffffffffffffffffffffffffffffffffffffffff19169055565b600054600160a060020a031690565b600054600160a060020a0316331490565b61034b610332565b151561035657600080fd5b8060018381548110151561036657fe5b9060005260206000200160006101000a815481600160a060020a030219169083600160a060020a031602179055505050565b6103a0610332565b15156103ab57600080fd5b60006001828154811015156103bc57fe5b9060005260206000200160006101000a815481600160a060020a030219169083600160a060020a0316021790555050565b6103f5610332565b151561040057600080fd5b6104098161040c565b50565b600160a060020a038116151561042157600080fd5b60008054604051600160a060020a03808516939216917f8be0079c531659141344cd1fd0a4f28419497f9722a3daafe3b4186f6b6457e091a36000805473ffffffffffffffffffffffffffffffffffffffff1916600160a060020a03929092169190911790555600a165627a7a723058205838b51e51fc68d69ee81f308fb191ecb94d64ef872b6a16e81f135d8035895c0029",
  "source": "pragma solidity ^0.4.23;\n\nimport \"../../node_modules/openzeppelin-solidity/contracts/ownership/Ownable.sol\";\n\ncontract Bloomen is Ownable{\n\n  address[] private _dapps;\n\n\n  function addDapp(address _dappAddress) onlyOwner public {\n    _dapps.push(_dappAddress);\n  }\n\n  function deleteDapp(uint _index) onlyOwner public {\n    _dapps[_index]=address(0);\n  }\n\n  function setDapp(uint _index, address _newAddress) onlyOwner public {\n    _dapps[_index]=_newAddress;\n  }\n\n  function getDapps() view public returns(address[]) {\n    return _dapps;\n  }\n\n\n\n}",
  "sourcePath": "/home/jordi/ws/bloomen-wallet-truffle/contracts/bloomen/Bloomen.sol",
  "compiler": {
    "name": "solc",
    "version": "0.4.24+commit.e67f0147.Emscripten.clang"
  },
  "schemaVersion": "2.0.1",
  "updatedAt": "2019-01-04T17:24:47.306Z"
}