{
  "contractName": "DAPP",
  "abi": [
    {
      "constant": false,
      "inputs": [
        {
          "name": "_path",
          "type": "string"
        },
        {
          "name": "_data",
          "type": "string"
        }
      ],
      "name": "addPathData",
      "outputs": [],
      "payable": false,
      "stateMutability": "nonpayable",
      "type": "function"
    },
    {
      "constant": true,
      "inputs": [],
      "name": "getNodes",
      "outputs": [
        {
          "components": [
            {
              "name": "path",
              "type": "string"
            },
            {
              "name": "value",
              "type": "string"
            }
          ],
          "name": "",
          "type": "tuple[]"
        }
      ],
      "payable": false,
      "stateMutability": "view",
      "type": "function"
    },
    {
      "constant": true,
      "inputs": [],
      "name": "erc223",
      "outputs": [
        {
          "name": "",
          "type": "address"
        }
      ],
      "payable": false,
      "stateMutability": "view",
      "type": "function"
    },
    {
      "inputs": [
        {
          "name": "_erc223Addr",
          "type": "address"
        }
      ],
      "payable": false,
      "stateMutability": "nonpayable",
      "type": "constructor"
    },
    {
      "constant": true,
      "inputs": [
        {
          "name": "_in",
          "type": "bytes"
        }
      ],
      "name": "decode",
      "outputs": [
        {
          "name": "",
          "type": "uint256"
        },
        {
          "name": "",
          "type": "string"
        }
      ],
      "payable": false,
      "stateMutability": "pure",
      "type": "function"
    }
  ],
  "bytecode": "0x608060405234801561001057600080fd5b50604051602080610ba0833981016040818152915160018054600160a060020a031916600160a060020a0383161790558282018352600582527f40747970650000000000000000000000000000000000000000000000000000006020808401919091528351808501909452600484527f444150500000000000000000000000000000000000000000000000000000000090840152916100b891906401000000006100be810204565b506101fb565b6100c6610149565b506040805180820190915282815260208082018390526000805460018101808355918052835180519293859360029093027f290decd9548b62a8d60345a988386fc84ba6bc95484008f6362f93160ef3e56301926101279284920190610160565b5060208281015180516101409260018501920190610160565b50505050505050565b604080518082019091526060808252602082015290565b828054600181600116156101000203166002900490600052602060002090601f016020900481019282601f106101a157805160ff19168380011785556101ce565b828001600101855582156101ce579182015b828111156101ce5782518255916020019190600101906101b3565b506101da9291506101de565b5090565b6101f891905b808211156101da57600081556001016101e4565b90565b6109968061020a6000396000f3006080604052600436106100615763ffffffff7c01000000000000000000000000000000000000000000000000000000006000350416633e9c14b28114610066578063e29581aa146100ff578063e5c5e9a314610163578063ebf0da651461023b575b600080fd5b34801561007257600080fd5b506040805160206004803580820135601f81018490048402850184019095528484526100fd94369492936024939284019190819084018382808284375050604080516020601f89358b018035918201839004830284018301909452808352979a9998810197919650918201945092508291508401838280828437509497506102799650505050505050565b005b34801561010b57600080fd5b50610114610304565b60405180806020018281038252838181518152602001915080516000925b818410156101525760208085028401810151825260019094019301610132565b925050509250505060405180910390f35b34801561016f57600080fd5b506040805160206004803580820135601f81018490048402850184019095528484526101bc9436949293602493928401919081908401838280828437509497506104909650505050505050565b6040518083815260200180602001828103825283818151815260200191508051906020019080838360005b838110156101ff5781810151838201526020016101e7565b50505050905090810190601f16801561022c5780820380516001836020036101000a031916815260200191505b50935050505060405180910390f35b34801561024757600080fd5b50610250610502565b6040805173ffffffffffffffffffffffffffffffffffffffff9092168252519081900360200190f35b6102816108a4565b506040805180820190915282815260208082018390526000805460018101808355918052835180519293859360029093027f290decd9548b62a8d60345a988386fc84ba6bc95484008f6362f93160ef3e56301926102e292849201906108bb565b5060208281015180516102fb92600185019201906108bb565b50505050505050565b60606000805480602002602001604051908101604052809291908181526020016000905b828210156104865760008481526020908190206040805160028681029093018054600181161561010002600019011693909304601f8101859004909402810160609081018352918101848152909384928491908401828280156103cc5780601f106103a1576101008083540402835291602001916103cc565b820191906000526020600020905b8154815290600101906020018083116103af57829003601f168201915b50505050508152602001600182018054600181600116156101000203166002900480601f01602080910402602001604051908101604052809291908181526020018280546001816001161561010002031660029004801561046e5780601f106104435761010080835404028352916020019161046e565b820191906000526020600020905b81548152906001019060200180831161045157829003601f168201915b50505050508152505081526020019060010190610328565b5050505090505b90565b6000606061049c610939565b60606104a78561051e565b91506104b28261056f565b90506104d58160008151811015156104c657fe5b90602001906020020151610642565b6104f68260018151811015156104e757fe5b90602001906020020151610678565b90945092505050915091565b60015473ffffffffffffffffffffffffffffffffffffffff1681565b610526610939565b600082516000141561054d5760408051808201909152600080825260208201529150610569565b5050604080518082019091528151815260208281019082018190525b50919050565b6060600080600080610580866106ea565b151561058b57600080fd5b61059486610719565b9350836040519080825280602002602001820160405280156105d057816020015b6105bd610939565b8152602001906001900390816105b55790505b5094506105e08660200151610769565b8660200151019250600090505b83811015610639576105fe836107cc565b9150604080519081016040528083815260200184815250858281518110151561062357fe5b60209081029091010152918101916001016105ed565b50505050919050565b60008060008060006106578660200151610769565b86516020978801518201519190039096036101000a90950495945050505050565b60606000806060600061068e8660200151610769565b9350838660000151039250826040519080825280601f01601f1916602001820160405280156106c7578160200160208202803883390190505b5091508160200190506106e184876020015101828561085d565b50949350505050565b6020810151805160009190821a9060c060ff8316101561070d5760009250610712565b600192505b5050919050565b600080600080600092506107308560200151610769565b6020860151865191810193500190505b8082101561076057610751826107cc565b60019093019290910190610740565b50909392505050565b8051600090811a60808110156107825760009150610569565b60b881108061079d575060c0811080159061079d575060f881105b156107ab5760019150610569565b60c08110156107c05760b51981019150610569565b60f51981019150610569565b8051600090811a60808110156107e55760019150610569565b60b88110156107fa57607e1981019150610569565b60c08110156108275760b78103600184019350806020036101000a84510460018201810193505050610569565b60f881101561083c5760be1981019150610569565b60019290920151602083900360f7016101000a900490910160f51901919050565b60005b60208210610882578351835260209384019390920191601f1990910190610860565b50915181516020939093036101000a6000190180199091169216919091179052565b604080518082019091526060808252602082015290565b828054600181600116156101000203166002900490600052602060002090601f016020900481019282601f106108fc57805160ff1916838001178555610929565b82800160010185558215610929579182015b8281111561092957825182559160200191906001019061090e565b50610935929150610950565b5090565b604080518082019091526000808252602082015290565b61048d91905b8082111561093557600081556001016109565600a165627a7a7230582005de1698ca7d0fcbd64eb78e133fd4ba278e6eb81e81e3cec5756c5c52e1ebd80029",
  "source": "pragma solidity ^0.4.23;\n\n\n\nimport \"./Json.sol\"; \nimport \"../token/ERC223.sol\";\nimport \"../../../node_modules/solidity-rlp/contracts/RLPReader.sol\";\n\ncontract DAPP is Json {\n\n  ERC223 public erc223;\n  using RLPReader for bytes;\n  using RLPReader for uint;\n  using RLPReader for RLPReader.RLPItem;\n  \n  constructor(address _erc223Addr) public {\n    erc223 = ERC223(_erc223Addr);\n    addPathData(\"@type\",\"DAPP\");\n  }\n\n  function decode(bytes memory _in) public pure returns (uint, string) {\n   \n    RLPReader.RLPItem memory item = _in.toRlpItem();\n    RLPReader.RLPItem[] memory itemList = item.toList();\n    \n    return (itemList[0].toUint(), string(itemList[1].toBytes()));        \n  }\n    \n}",
  "sourcePath": "/home/jordi/ws/bloomen-wallet-truffle/contracts/bloomen/common/DAPP.sol",
  "compiler": {
    "name": "solc",
    "version": "0.4.24+commit.e67f0147.Emscripten.clang"
  },
  "schemaVersion": "2.0.1",
  "updatedAt": "2018-12-02T19:26:18.273Z"
}