{
  "contractName": "DemoDAPP",
  "abi": [
    {
      "constant": false,
      "inputs": [
        {
          "components": [
            {
              "name": "path",
              "type": "string"
            },
            {
              "name": "value",
              "type": "string"
            },
            {
              "name": "valueType",
              "type": "string"
            }
          ],
          "name": "_data",
          "type": "tuple[]"
        }
      ],
      "name": "initialize",
      "outputs": [],
      "payable": false,
      "stateMutability": "nonpayable",
      "type": "function"
    },
    {
      "constant": true,
      "inputs": [],
      "name": "getData",
      "outputs": [
        {
          "components": [
            {
              "name": "path",
              "type": "string"
            },
            {
              "name": "value",
              "type": "string"
            },
            {
              "name": "valueType",
              "type": "string"
            }
          ],
          "name": "",
          "type": "tuple[]"
        }
      ],
      "payable": false,
      "stateMutability": "view",
      "type": "function"
    },
    {
      "constant": false,
      "inputs": [
        {
          "name": "_in",
          "type": "bytes"
        }
      ],
      "name": "update",
      "outputs": [],
      "payable": false,
      "stateMutability": "nonpayable",
      "type": "function"
    },
    {
      "constant": true,
      "inputs": [],
      "name": "erc223",
      "outputs": [
        {
          "name": "",
          "type": "address"
        }
      ],
      "payable": false,
      "stateMutability": "view",
      "type": "function"
    },
    {
      "inputs": [
        {
          "name": "_erc223Addr",
          "type": "address"
        }
      ],
      "payable": false,
      "stateMutability": "nonpayable",
      "type": "constructor"
    }
  ],
  "bytecode": "0x608060405234801561001057600080fd5b506040516020806200193483398101806040526100309190810190610068565b60028054600160a060020a031916600160a060020a039290921691909117905561009a565b6000610061825161008e565b9392505050565b60006020828403121561007a57600080fd5b60006100868484610055565b949350505050565b600160a060020a031690565b61188a80620000aa6000396000f3006080604052600436106100615763ffffffff7c010000000000000000000000000000000000000000000000000000000060003504166309d2213a81146100665780633bc5de3014610088578063c43ed2c8146100b3578063ebf0da65146100d3575b600080fd5b34801561007257600080fd5b50610086610081366004611558565b6100f5565b005b34801561009457600080fd5b5061009d610153565b6040516100aa919061172a565b60405180910390f35b3480156100bf57600080fd5b506100866100ce366004611595565b610376565b3480156100df57600080fd5b506100e86104ef565b6040516100aa9190611742565b6000806101006112c9565b83519250600091505b8282101561014d57838281518110151561011f57fe5b90602001906020020151905061014281600001518260200151836040015161050b565b600190910190610109565b50505050565b60606001805480602002602001604051908101604052809291908181526020016000905b8282101561036c5760008481526020908190206040805160038602909201805460026001821615610100026000190190911604601f81018590049094028301608090810190925260608301848152929390928492909184918401828280156102205780601f106101f557610100808354040283529160200191610220565b820191906000526020600020905b81548152906001019060200180831161020357829003601f168201915b50505050508152602001600182018054600181600116156101000203166002900480601f0160208091040260200160405190810160405280929190818152602001828054600181600116156101000203166002900480156102c25780601f10610297576101008083540402835291602001916102c2565b820191906000526020600020905b8154815290600101906020018083116102a557829003601f168201915b5050509183525050600282810180546040805160206001841615610100026000190190931694909404601f810183900483028501830190915280845293810193908301828280156103545780601f1061032957610100808354040283529160200191610354565b820191906000526020600020905b81548152906001019060200180831161033757829003601f168201915b50505050508152505081526020019060010190610177565b5050505090505b90565b61037e6112eb565b6060600080600061038e86610958565b9450610399856109a9565b935083519250600091505b828210156104e7576103eb6103cf85848151811015156103c057fe5b906020019060200201516109a9565b805160039081106103dc57fe5b90602001906020020151610a7c565b90508015156104735761046e61042761040b86858151811015156103c057fe5b8051600090811061041857fe5b90602001906020020151610ab2565b61044861043b87868151811015156103c057fe5b8051600190811061041857fe5b61046961045c88878151811015156103c057fe5b8051600290811061041857fe5b61050b565b6104dc565b80600114156104985761046e61049361040b86858151811015156103c057fe5b610b24565b6104dc6104af61040b86858151811015156103c057fe5b6104c361043b87868151811015156103c057fe5b6104d761045c88878151811015156103c057fe5b610d83565b6001909101906103a4565b505050505050565b60025473ffffffffffffffffffffffffffffffffffffffff1681565b60006060600080606061051c6112c9565b6000896040518082805190602001908083835b6020831061054e5780518252601f19909201916020918201910161052f565b51815160209384036101000a6000190180199092169116179052604080519290940182900382206000818152808352859020805480840285018401909652858452909d5091955090935084019050828280156105c957602002820191906000526020600020905b8154815260200190600101908083116105b5575b505050505095506000865111156107155785519450600093505b8484101561071557600186858151811015156105fb57fe5b602090810290910101518154811061060f57fe5b6000918252602091829020600390910201805460408051601f60026000196101006001871615020190941693909304928301859004850281018501909152818152928301828280156106a25780601f10610677576101008083540402835291602001916106a2565b820191906000526020600020905b81548152906001019060200180831161068557829003601f168201915b505050505092506106ca6106b58b611018565b6106be85611018565b9063ffffffff61103e16565b1561070a576040517f08c379a000000000000000000000000000000000000000000000000000000000815260040161070190611750565b60405180910390fd5b6001909301926105e3565b50506040805160608101825289815260208101899052908101879052600154600093505b8084101561089e576107f86107f360018681548110151561075657fe5b6000918252602091829020600390910201805460408051601f60026000196101006001871615020190941693909304928301859004850281018501909152818152928301828280156107e95780601f106107be576101008083540402835291602001916107e9565b820191906000526020600020905b8154815290600101906020018083116107cc57829003601f168201915b5050505050611018565b611054565b15610893578160018581548110151561080d57fe5b90600052602060002090600302016000820151816000019080519060200190610837929190611302565b5060208281015180516108509260018501920190611302565b506040820151805161086c916002840191602090910190611302565b5050506000878152602081815260408220805460018101825590835291200184905561094c565b600190930192610739565b600180548082018083556000929092528351805185926003027fb10e2d527612073b26eecdfd717e6a320cf44b4afac2b0732d9fcbe2b7fa0cf601916108e991839160200190611302565b5060208281015180516109029260018501920190611302565b506040820151805161091e916002840191602090910190611302565b5050506000888152602081815260408220600180548254918201835591845291909220600019909201910155505b50505050505050505050565b6109606112eb565b600082516000141561098757604080518082019091526000808252602082015291506109a3565b5050604080518082019091528151815260208281019082018190525b50919050565b60606000806000806109ba86611059565b15156109c557600080fd5b6109ce86611088565b935083604051908082528060200260200182016040528015610a0a57816020015b6109f76112eb565b8152602001906001900390816109ef5790505b509450610a1a86602001516110d8565b8660200151019250600090505b83811015610a7357610a388361113b565b91506040805190810160405280838152602001848152508582815181101515610a5d57fe5b6020908102909101015291810191600101610a27565b50505050919050565b6000806000806000610a9186602001516110d8565b86516020978801518201519190039096036101000a90950495945050505050565b606060008060606000610ac886602001516110d8565b9350838660000151039250826040519080825280601f01601f191660200182016040528015610b01578160200160208202803883390190505b509150816020019050610b1b8487602001510182856111cc565b50949350505050565b600060606000806060856040518082805190602001908083835b60208310610b5d5780518252601f199092019160209182019101610b3e565b51815160209384036101000a6000190180199092169116179052604080519290940182900382206000818152808352859020805480840285018401909652858452909b509195509093508401905082828015610bd857602002820191906000526020600020905b815481526020019060010190808311610bc4575b5050505050935060008451111515610c1c576040517f08c379a000000000000000000000000000000000000000000000000000000000815260040161070190611760565b83519250600091505b828210156104e75760018483815181101515610c3d57fe5b6020908102909101015181548110610c5157fe5b6000918252602091829020600390910201805460408051601f6002600019610100600187161502019094169390930492830185900485028101850190915281815292830182828015610ce45780601f10610cb957610100808354040283529160200191610ce4565b820191906000526020600020905b815481529060010190602001808311610cc757829003601f168201915b50505050509050610d00610cf787611018565b6106be83611018565b15610d785760018483815181101515610d1557fe5b6020908102909101015181548110610d2957fe5b60009182526020822060039091020190610d438282611380565b610d51600183016000611380565b610d5f600283016000611380565b50506000858152602081905260408120610d78916113c7565b600190910190610c25565b600060606000806060876040518082805190602001908083835b60208310610dbc5780518252601f199092019160209182019101610d9d565b51815160209384036101000a6000190180199092169116179052604080519290940182900382206000818152808352859020805480840285018401909652858452909b509195509093508401905082828015610e3757602002820191906000526020600020905b815481526020019060010190808311610e23575b5050505050935060008451111515610e7b576040517f08c379a000000000000000000000000000000000000000000000000000000000815260040161070190611760565b83519250600091505b8282101561100e5760018483815181101515610e9c57fe5b6020908102909101015181548110610eb057fe5b6000918252602091829020600390910201805460408051601f6002600019610100600187161502019094169390930492830185900485028101850190915281815292830182828015610f435780601f10610f1857610100808354040283529160200191610f43565b820191906000526020600020905b815481529060010190602001808311610f2657829003601f168201915b50505050509050610f56610cf789611018565b15611003576060604051908101604052808981526020018881526020018781525060018584815181101515610f8757fe5b6020908102909101015181548110610f9b57fe5b90600052602060002090600302016000820151816000019080519060200190610fc5929190611302565b506020828101518051610fde9260018501920190611302565b5060408201518051610ffa916002840191602090910190611302565b5090505061100e565b600190910190610e84565b5050505050505050565b6110206112eb565b50604080518082019091528151815260209182019181019190915290565b600061104a8383611213565b1590505b92915050565b511590565b6020810151805160009190821a9060c060ff8316101561107c5760009250611081565b600192505b5050919050565b6000806000806000925061109f85602001516110d8565b6020860151865191810193500190505b808210156110cf576110c08261113b565b600190930192909101906110af565b50909392505050565b8051600090811a60808110156110f157600091506109a3565b60b881108061110c575060c0811080159061110c575060f881105b1561111a57600191506109a3565b60c081101561112f5760b519810191506109a3565b60f519810191506109a3565b8051600090811a608081101561115457600191506109a3565b60b881101561116957607e19810191506109a3565b60c08110156111965760b78103600184019350806020036101000a845104600182018101935050506109a3565b60f88110156111ab5760be19810191506109a3565b60019290920151602083900360f7016101000a900490910160f51901919050565b60005b602082106111f1578351835260209384019390920191601f19909101906111cf565b50915181516020939093036101000a6000190180199091169216919091179052565b60008060008060008060008060008a6000015197508a600001518a60000151101561123d57895197505b8a60200151965089602001519550600094505b878510156112b35786518651909450925082841461129f576000199150602088101561128957600185896020030160080260020a031991505b5081811683821603801561129f578098506112bb565b602096870196958601959490940193611250565b89518b510398505b505050505050505092915050565b6060604051908101604052806060815260200160608152602001606081525090565b604080518082019091526000808252602082015290565b828054600181600116156101000203166002900490600052602060002090601f016020900481019282601f1061134357805160ff1916838001178555611370565b82800160010185558215611370579182015b82811115611370578251825591602001919060010190611355565b5061137c9291506113e1565b5090565b50805460018160011615610100020316600290046000825580601f106113a657506113c4565b601f0160209004906000526020600020908101906113c491906113e1565b50565b50805460008255906000526020600020908101906113c491905b61037391905b8082111561137c57600081556001016113e7565b6000601f8201831361140c57600080fd5b813561141f61141a82611797565b611770565b81815260209384019390925082018360005b8381101561145d578135860161144788826114b6565b8452506020928301929190910190600101611431565b5050505092915050565b6000601f8201831361147857600080fd5b813561148661141a826117b8565b915080825260208301602083018583830111156114a257600080fd5b6114ad83828461180e565b50505092915050565b6000606082840312156114c857600080fd5b6114d26060611770565b9050813567ffffffffffffffff8111156114eb57600080fd5b6114f784828501611467565b825250602082013567ffffffffffffffff81111561151457600080fd5b61152084828501611467565b602083015250604082013567ffffffffffffffff81111561154057600080fd5b61154c84828501611467565b60408301525092915050565b60006020828403121561156a57600080fd5b813567ffffffffffffffff81111561158157600080fd5b61158d848285016113fb565b949350505050565b6000602082840312156115a757600080fd5b813567ffffffffffffffff8111156115be57600080fd5b61158d84828501611467565b60006115d5826117e6565b808452602084019350836020820285016115ee856117e0565b60005b848110156116255783830388526116098383516116d5565b9250611614826117e0565b6020989098019791506001016115f1565b50909695505050505050565b61163a81611803565b82525050565b600061164b826117e6565b80845261165f81602086016020860161181a565b61166881611846565b9093016020019392505050565b601b81527f4572726f723a207061746820616c7265616479206578697374732e0000000000602082015260400190565b601c81527f4572726f723a207061746820646f6573206e6f74206578697374732e00000000602082015260400190565b80516060808452600091908401906116ed8282611640565b915050602083015184820360208601526117078282611640565b915050604083015184820360408601526117218282611640565b95945050505050565b6020808252810161173b81846115ca565b9392505050565b6020810161104e8284611631565b6020808252810161104e81611675565b6020808252810161104e816116a5565b60405181810167ffffffffffffffff8111828210171561178f57600080fd5b604052919050565b600067ffffffffffffffff8211156117ae57600080fd5b5060209081020190565b600067ffffffffffffffff8211156117cf57600080fd5b506020601f91909101601f19160190565b60200190565b5190565b73ffffffffffffffffffffffffffffffffffffffff1690565b600061104e826117ea565b82818337506000910152565b60005b8381101561183557818101518382015260200161181d565b8381111561014d5750506000910152565b601f01601f1916905600a265627a7a72305820f30f0cbd257f1e721915fd1b794df83d3d861699ecd750d499b1de801a6cb1ce6c6578706572696d656e74616cf50037",
  "source": "pragma solidity 0.4.24;\r\npragma experimental ABIEncoderV2;\r\n\r\nimport \"../common/DAPP.sol\"; \r\n\r\ncontract DemoDAPP is DAPP {\r\n    constructor(address _erc223Addr)  DAPP(_erc223Addr) public {\r\n    }\r\n}",
  "sourcePath": "C:\\Users\\a562145\\git\\bloomen-wallet-truffle\\contracts\\bloomen\\dapp\\DemoDAPP.sol",
  "compiler": {
    "name": "solc",
    "version": "0.4.24+commit.e67f0147.Emscripten.clang"
  },
  "schemaVersion": "2.0.1",
  "updatedAt": "2018-12-03T13:49:20.327Z"
}