{
  "contractName": "Devices",
  "abi": [
    {
      "constant": true,
      "inputs": [
        {
          "name": "_assetId",
          "type": "uint256"
        },
        {
          "name": "_schemaId",
          "type": "uint256"
        }
      ],
      "name": "checkOwnership",
      "outputs": [
        {
          "name": "",
          "type": "bool"
        }
      ],
      "payable": false,
      "stateMutability": "view",
      "type": "function"
    },
    {
      "constant": true,
      "inputs": [],
      "name": "name",
      "outputs": [
        {
          "name": "",
          "type": "string"
        }
      ],
      "payable": false,
      "stateMutability": "view",
      "type": "function"
    },
    {
      "constant": false,
      "inputs": [
        {
          "name": "_to",
          "type": "address"
        },
        {
          "name": "_value",
          "type": "uint256"
        },
        {
          "name": "_data",
          "type": "uint256"
        }
      ],
      "name": "transfer",
      "outputs": [],
      "payable": false,
      "stateMutability": "nonpayable",
      "type": "function"
    },
    {
      "constant": false,
      "inputs": [
        {
          "name": "spender",
          "type": "address"
        },
        {
          "name": "value",
          "type": "uint256"
        }
      ],
      "name": "approve",
      "outputs": [
        {
          "name": "",
          "type": "bool"
        }
      ],
      "payable": false,
      "stateMutability": "nonpayable",
      "type": "function"
    },
    {
      "constant": true,
      "inputs": [
        {
          "name": "_page",
          "type": "int256"
        }
      ],
      "name": "getMovements",
      "outputs": [
        {
          "components": [
            {
              "name": "amount",
              "type": "int256"
            },
            {
              "name": "description",
              "type": "string"
            },
            {
              "name": "date",
              "type": "uint256"
            },
            {
              "name": "to",
              "type": "address"
            }
          ],
          "name": "",
          "type": "tuple[]"
        }
      ],
      "payable": false,
      "stateMutability": "view",
      "type": "function"
    },
    {
      "constant": true,
      "inputs": [],
      "name": "totalSupply",
      "outputs": [
        {
          "name": "",
          "type": "uint256"
        }
      ],
      "payable": false,
      "stateMutability": "view",
      "type": "function"
    },
    {
      "constant": true,
      "inputs": [
        {
          "name": "theNumber",
          "type": "uint256"
        },
        {
          "name": "percentage",
          "type": "uint256"
        }
      ],
      "name": "calculatePercentage",
      "outputs": [
        {
          "name": "",
          "type": "uint256"
        }
      ],
      "payable": false,
      "stateMutability": "view",
      "type": "function"
    },
    {
      "constant": false,
      "inputs": [
        {
          "name": "from",
          "type": "address"
        },
        {
          "name": "to",
          "type": "address"
        },
        {
          "name": "value",
          "type": "uint256"
        }
      ],
      "name": "transferFrom",
      "outputs": [
        {
          "name": "",
          "type": "bool"
        }
      ],
      "payable": false,
      "stateMutability": "nonpayable",
      "type": "function"
    },
    {
      "constant": true,
      "inputs": [
        {
          "name": "_schemaId",
          "type": "uint256"
        }
      ],
      "name": "getSchema",
      "outputs": [
        {
          "components": [
            {
              "name": "expirationDate",
              "type": "uint256"
            },
            {
              "name": "schemaId",
              "type": "uint256"
            },
            {
              "name": "amount",
              "type": "uint256"
            },
            {
              "name": "assetLifeTime",
              "type": "uint256"
            },
            {
              "components": [
                {
                  "name": "percent",
                  "type": "uint256"
                },
                {
                  "name": "receptor",
                  "type": "address"
                },
                {
                  "name": "description",
                  "type": "string"
                }
              ],
              "name": "clearingHouseRules",
              "type": "tuple[]"
            },
            {
              "name": "valid",
              "type": "bool"
            }
          ],
          "name": "",
          "type": "tuple"
        }
      ],
      "payable": false,
      "stateMutability": "view",
      "type": "function"
    },
    {
      "constant": true,
      "inputs": [],
      "name": "decimals",
      "outputs": [
        {
          "name": "",
          "type": "uint8"
        }
      ],
      "payable": false,
      "stateMutability": "view",
      "type": "function"
    },
    {
      "constant": false,
      "inputs": [
        {
          "name": "spender",
          "type": "address"
        },
        {
          "name": "addedValue",
          "type": "uint256"
        }
      ],
      "name": "increaseAllowance",
      "outputs": [
        {
          "name": "",
          "type": "bool"
        }
      ],
      "payable": false,
      "stateMutability": "nonpayable",
      "type": "function"
    },
    {
      "constant": false,
      "inputs": [
        {
          "name": "_schemaId",
          "type": "uint256"
        }
      ],
      "name": "validateSchema",
      "outputs": [],
      "payable": false,
      "stateMutability": "nonpayable",
      "type": "function"
    },
    {
      "constant": false,
      "inputs": [
        {
          "name": "to",
          "type": "address"
        },
        {
          "name": "value",
          "type": "uint256"
        }
      ],
      "name": "mint",
      "outputs": [
        {
          "name": "",
          "type": "bool"
        }
      ],
      "payable": false,
      "stateMutability": "nonpayable",
      "type": "function"
    },
    {
      "constant": false,
      "inputs": [
        {
          "name": "value",
          "type": "uint256"
        }
      ],
      "name": "burn",
      "outputs": [],
      "payable": false,
      "stateMutability": "nonpayable",
      "type": "function"
    },
    {
      "constant": true,
      "inputs": [],
      "name": "getAssetsPageCount",
      "outputs": [
        {
          "name": "",
          "type": "uint256"
        }
      ],
      "payable": false,
      "stateMutability": "view",
      "type": "function"
    },
    {
      "constant": false,
      "inputs": [
        {
          "name": "_from",
          "type": "address"
        },
        {
          "name": "_value",
          "type": "uint256"
        },
        {
          "name": "_schemaId",
          "type": "uint256"
        }
      ],
      "name": "tokenFallback",
      "outputs": [],
      "payable": false,
      "stateMutability": "nonpayable",
      "type": "function"
    },
    {
      "constant": false,
      "inputs": [
        {
          "name": "_schemaId",
          "type": "uint256"
        }
      ],
      "name": "invalidateSchema",
      "outputs": [],
      "payable": false,
      "stateMutability": "nonpayable",
      "type": "function"
    },
    {
      "constant": true,
      "inputs": [
        {
          "name": "_target",
          "type": "address"
        },
        {
          "name": "_assetId",
          "type": "uint256"
        },
        {
          "name": "_schemaId",
          "type": "uint256"
        }
      ],
      "name": "checkOwnershipForAddress",
      "outputs": [
        {
          "name": "",
          "type": "bool"
        }
      ],
      "payable": false,
      "stateMutability": "view",
      "type": "function"
    },
    {
      "constant": true,
      "inputs": [
        {
          "name": "owner",
          "type": "address"
        }
      ],
      "name": "balanceOf",
      "outputs": [
        {
          "name": "",
          "type": "uint256"
        }
      ],
      "payable": false,
      "stateMutability": "view",
      "type": "function"
    },
    {
      "constant": false,
      "inputs": [],
      "name": "renounceOwnership",
      "outputs": [],
      "payable": false,
      "stateMutability": "nonpayable",
      "type": "function"
    },
    {
      "constant": false,
      "inputs": [
        {
          "name": "from",
          "type": "address"
        },
        {
          "name": "value",
          "type": "uint256"
        }
      ],
      "name": "burnFrom",
      "outputs": [],
      "payable": false,
      "stateMutability": "nonpayable",
      "type": "function"
    },
    {
      "constant": false,
      "inputs": [
        {
          "name": "_assetId",
          "type": "uint256"
        },
        {
          "name": "_schemaId",
          "type": "uint256"
        },
        {
          "name": "_amount",
          "type": "uint256"
        },
        {
          "name": "_dappId",
          "type": "string"
        }
      ],
      "name": "buy",
      "outputs": [],
      "payable": false,
      "stateMutability": "nonpayable",
      "type": "function"
    },
    {
      "constant": false,
      "inputs": [
        {
          "name": "_amount",
          "type": "int256"
        },
        {
          "name": "_description",
          "type": "string"
        },
        {
          "name": "_to",
          "type": "address"
        }
      ],
      "name": "addMovement",
      "outputs": [],
      "payable": false,
      "stateMutability": "nonpayable",
      "type": "function"
    },
    {
      "constant": true,
      "inputs": [],
      "name": "owner",
      "outputs": [
        {
          "name": "",
          "type": "address"
        }
      ],
      "payable": false,
      "stateMutability": "view",
      "type": "function"
    },
    {
      "constant": true,
      "inputs": [],
      "name": "isOwner",
      "outputs": [
        {
          "name": "",
          "type": "bool"
        }
      ],
      "payable": false,
      "stateMutability": "view",
      "type": "function"
    },
    {
      "constant": true,
      "inputs": [],
      "name": "symbol",
      "outputs": [
        {
          "name": "",
          "type": "string"
        }
      ],
      "payable": false,
      "stateMutability": "view",
      "type": "function"
    },
    {
      "constant": false,
      "inputs": [
        {
          "name": "account",
          "type": "address"
        }
      ],
      "name": "addMinter",
      "outputs": [],
      "payable": false,
      "stateMutability": "nonpayable",
      "type": "function"
    },
    {
      "constant": false,
      "inputs": [],
      "name": "renounceMinter",
      "outputs": [],
      "payable": false,
      "stateMutability": "nonpayable",
      "type": "function"
    },
    {
      "constant": false,
      "inputs": [
        {
          "name": "_schemaId",
          "type": "uint256"
        },
        {
          "name": "_data",
          "type": "bytes"
        }
      ],
      "name": "createSchema",
      "outputs": [],
      "payable": false,
      "stateMutability": "nonpayable",
      "type": "function"
    },
    {
      "constant": false,
      "inputs": [
        {
          "name": "spender",
          "type": "address"
        },
        {
          "name": "subtractedValue",
          "type": "uint256"
        }
      ],
      "name": "decreaseAllowance",
      "outputs": [
        {
          "name": "",
          "type": "bool"
        }
      ],
      "payable": false,
      "stateMutability": "nonpayable",
      "type": "function"
    },
    {
      "constant": false,
      "inputs": [
        {
          "name": "_to",
          "type": "address"
        },
        {
          "name": "_value",
          "type": "uint256"
        }
      ],
      "name": "transfer",
      "outputs": [
        {
          "name": "",
          "type": "bool"
        }
      ],
      "payable": false,
      "stateMutability": "nonpayable",
      "type": "function"
    },
    {
      "constant": true,
      "inputs": [
        {
          "name": "account",
          "type": "address"
        }
      ],
      "name": "isMinter",
      "outputs": [
        {
          "name": "",
          "type": "bool"
        }
      ],
      "payable": false,
      "stateMutability": "view",
      "type": "function"
    },
    {
      "constant": true,
      "inputs": [
        {
          "name": "_page",
          "type": "uint256"
        }
      ],
      "name": "getAssets",
      "outputs": [
        {
          "components": [
            {
              "name": "expirationDate",
              "type": "uint256"
            },
            {
              "name": "assetId",
              "type": "uint256"
            },
            {
              "name": "schemaId",
              "type": "uint256"
            },
            {
              "name": "dappId",
              "type": "string"
            }
          ],
          "name": "",
          "type": "tuple[]"
        }
      ],
      "payable": false,
      "stateMutability": "view",
      "type": "function"
    },
    {
      "constant": true,
      "inputs": [
        {
          "name": "owner",
          "type": "address"
        },
        {
          "name": "spender",
          "type": "address"
        }
      ],
      "name": "allowance",
      "outputs": [
        {
          "name": "",
          "type": "uint256"
        }
      ],
      "payable": false,
      "stateMutability": "view",
      "type": "function"
    },
    {
      "constant": false,
      "inputs": [
        {
          "name": "newOwner",
          "type": "address"
        }
      ],
      "name": "transferOwnership",
      "outputs": [],
      "payable": false,
      "stateMutability": "nonpayable",
      "type": "function"
    },
    {
      "anonymous": false,
      "inputs": [
        {
          "indexed": true,
          "name": "account",
          "type": "address"
        }
      ],
      "name": "MinterAdded",
      "type": "event"
    },
    {
      "anonymous": false,
      "inputs": [
        {
          "indexed": true,
          "name": "account",
          "type": "address"
        }
      ],
      "name": "MinterRemoved",
      "type": "event"
    },
    {
      "anonymous": false,
      "inputs": [
        {
          "indexed": true,
          "name": "from",
          "type": "address"
        },
        {
          "indexed": true,
          "name": "to",
          "type": "address"
        },
        {
          "indexed": false,
          "name": "value",
          "type": "uint256"
        }
      ],
      "name": "Transfer",
      "type": "event"
    },
    {
      "anonymous": false,
      "inputs": [
        {
          "indexed": true,
          "name": "owner",
          "type": "address"
        },
        {
          "indexed": true,
          "name": "spender",
          "type": "address"
        },
        {
          "indexed": false,
          "name": "value",
          "type": "uint256"
        }
      ],
      "name": "Approval",
      "type": "event"
    },
    {
      "anonymous": false,
      "inputs": [
        {
          "indexed": true,
          "name": "previousOwner",
          "type": "address"
        },
        {
          "indexed": true,
          "name": "newOwner",
          "type": "address"
        }
      ],
      "name": "OwnershipTransferred",
      "type": "event"
    },
    {
      "constant": true,
      "inputs": [
        {
          "name": "_deviceHash",
          "type": "bytes32"
        }
      ],
      "name": "isAllowed",
      "outputs": [
        {
          "name": "",
          "type": "bool"
        }
      ],
      "payable": false,
      "stateMutability": "view",
      "type": "function"
    },
    {
      "constant": true,
      "inputs": [
        {
          "name": "_target",
          "type": "address"
        },
        {
          "name": "_deviceHash",
          "type": "bytes32"
        }
      ],
      "name": "isAllowedForAddress",
      "outputs": [
        {
          "name": "",
          "type": "bool"
        }
      ],
      "payable": false,
      "stateMutability": "view",
      "type": "function"
    },
    {
      "constant": true,
      "inputs": [],
      "name": "getDevicesPageCount",
      "outputs": [
        {
          "name": "",
          "type": "uint256"
        }
      ],
      "payable": false,
      "stateMutability": "view",
      "type": "function"
    },
    {
      "constant": true,
      "inputs": [
        {
          "name": "_page",
          "type": "uint256"
        }
      ],
      "name": "getDevices",
      "outputs": [
        {
          "components": [
            {
              "name": "expirationDate",
              "type": "uint256"
            },
            {
              "name": "assetId",
              "type": "uint256"
            },
            {
              "name": "schemaId",
              "type": "uint256"
            },
            {
              "name": "dappId",
              "type": "string"
            }
          ],
          "name": "",
          "type": "tuple[]"
        }
      ],
      "payable": false,
      "stateMutability": "view",
      "type": "function"
    },
    {
      "constant": true,
      "inputs": [
        {
          "name": "_deviceHash",
          "type": "bytes32"
        }
      ],
      "name": "getAddress",
      "outputs": [
        {
          "name": "",
          "type": "address"
        }
      ],
      "payable": false,
      "stateMutability": "view",
      "type": "function"
    },
    {
      "constant": false,
      "inputs": [
        {
          "name": "_deviceHash",
          "type": "bytes32"
        },
        {
          "name": "_assetId",
          "type": "uint256"
        },
        {
          "name": "_schemaId",
          "type": "uint256"
        },
        {
          "name": "_lifeTime",
          "type": "uint256"
        },
        {
          "name": "_dappId",
          "type": "string"
        }
      ],
      "name": "handshake",
      "outputs": [],
      "payable": false,
      "stateMutability": "nonpayable",
      "type": "function"
    },
    {
      "constant": false,
      "inputs": [
        {
          "name": "_deviceHash",
          "type": "bytes32"
        }
      ],
      "name": "removeDevice",
      "outputs": [],
      "payable": false,
      "stateMutability": "nonpayable",
      "type": "function"
    }
  ],
  "bytecode": "0x600b60809081527f426c6f6f6d656e436f696e00000000000000000000000000000000000000000060a0526101006040819052600360c09081527f424c4f000000000000000000000000000000000000000000000000000000000060e05260008054600160a060020a03191633178082559192600292859285928592600160a060020a031691907f8be0079c531659141344cd1fd0a4f28419497f9722a3daafe3b4186f6b6457e0908290a38251620000c0906005906020860190620001f0565b508151620000d6906006906020850190620001f0565b506007805460ff191660ff9290921691909117905550620001029050336401000000006200010b810204565b50505062000295565b62000126600882640100000000620028676200015d82021704565b604051600160a060020a038216907f6ae172837ea30b801fbfcdd4108aa1d5bf8ff775444fd70256b44e6bf3dfc3f690600090a250565b600160a060020a03811615156200017357600080fd5b620001888282640100000000620001b8810204565b156200019357600080fd5b600160a060020a0316600090815260209190915260409020805460ff19166001179055565b6000600160a060020a0382161515620001d057600080fd5b50600160a060020a03166000908152602091909152604090205460ff1690565b828054600181600116156101000203166002900490600052602060002090601f016020900481019282601f106200023357805160ff191683800117855562000263565b8280016001018555821562000263579182015b828111156200026357825182559160200191906001019062000246565b506200027192915062000275565b5090565b6200029291905b808211156200027157600081556001016200027c565b90565b613a2d80620002a56000396000f3006080604052600436106102035763ffffffff7c010000000000000000000000000000000000000000000000000000000060003504166304edae0f811461020857806306fdde031461023e578063095bcdb614610260578063095ea7b314610282578063132c6aa4146102a257806317b1b498146102c257806318160ddd146102ef5780631d266200146103115780631d841899146103315780632133e3b91461035157806321f8a7211461037157806323b872dd1461039e5780632b26fb29146103be578063313ce567146103eb578063395093511461040d5780634014d4681461042d57806340c10f191461044d57806342966c681461046d5780634aa3bfeb1461048d5780634f4ee353146104a25780635a16f5c4146104c25780636d9db7ed146104e2578063700651aa1461050f57806370a082311461052f578063715018a61461054f578063787552951461056457806379cc6790146105845780637de3b0ed146105a457806386b00ad5146105c45780638da5cb5b146105e45780638f32d59b146105f957806395d89b411461060e578063983b2d56146106235780639865027514610643578063a2086dab14610658578063a457c2d714610678578063a9059cbb14610698578063aa271e1a146106b8578063c8c2eb66146106d8578063d9212164146106ed578063dd62ed3e1461071a578063f2fde38b1461073a575b600080fd5b34801561021457600080fd5b50610228610223366004613127565b61075a565b6040516102359190613805565b60405180910390f35b34801561024a57600080fd5b50610253610770565b6040516102359190613813565b34801561026c57600080fd5b5061028061027b366004612fa7565b610807565b005b34801561028e57600080fd5b5061022861029d366004612f77565b610823565b3480156102ae57600080fd5b506102806102bd366004612ff7565b6108a5565b3480156102ce57600080fd5b506102e26102dd366004612fd9565b6108ba565b60405161023591906137f4565b3480156102fb57600080fd5b50610304610b0a565b6040516102359190613905565b34801561031d57600080fd5b5061028061032c366004612fd9565b610b10565b34801561033d57600080fd5b5061022861034c366004612f77565b610b1d565b34801561035d57600080fd5b5061030461036c366004613127565b610b54565b34801561037d57600080fd5b5061039161038c366004612fd9565b610b5c565b604051610235919061379c565b3480156103aa57600080fd5b506102286103b9366004612f2a565b610b97565b3480156103ca57600080fd5b506103de6103d9366004612fd9565b610c34565b60405161023591906138f4565b3480156103f757600080fd5b50610400610dca565b6040516102359190613913565b34801561041957600080fd5b50610228610428366004612f77565b610dd3565b34801561043957600080fd5b50610280610448366004612fd9565b610e76565b34801561045957600080fd5b50610228610468366004612f77565b610e94565b34801561047957600080fd5b50610280610488366004612fd9565b610ebd565b34801561049957600080fd5b50610304610ec7565b3480156104ae57600080fd5b506102806104bd366004612fa7565b610ee1565b3480156104ce57600080fd5b506102806104dd366004612fd9565b610fad565b3480156104ee57600080fd5b506105026104fd366004612fd9565b610fcb565b60405161023591906137e3565b34801561051b57600080fd5b5061022861052a366004612fa7565b6111ce565b34801561053b57600080fd5b5061030461054a366004612ed2565b6111db565b34801561055b57600080fd5b506102806111f6565b34801561057057600080fd5b5061022861057f366004612fd9565b611253565b34801561059057600080fd5b5061028061059f366004612f77565b61128a565b3480156105b057600080fd5b506102806105bf366004613146565b611298565b3480156105d057600080fd5b506102806105df366004613084565b6112ab565b3480156105f057600080fd5b506103916112b7565b34801561060557600080fd5b506102286112c6565b34801561061a57600080fd5b506102536112d7565b34801561062f57600080fd5b5061028061063e366004612ed2565b611338565b34801561064f57600080fd5b50610280611355565b34801561066457600080fd5b506102806106733660046130df565b611360565b34801561068457600080fd5b50610228610693366004612f77565b61137d565b3480156106a457600080fd5b506102286106b3366004612f77565b6113c8565b3480156106c457600080fd5b506102286106d3366004612ed2565b6113e2565b3480156106e457600080fd5b506103046113f5565b3480156106f957600080fd5b5061070d610708366004612fd9565b611410565b60405161023591906137d2565b34801561072657600080fd5b50610304610735366004612ef0565b6115f6565b34801561074657600080fd5b50610280610755366004612ed2565b611621565b600061076733848461163d565b90505b92915050565b60058054604080516020601f60026000196101006001881615020190951694909404938401819004810282018101909252828152606093909290918301828280156107fc5780601f106107d1576101008083540402835291602001916107fc565b820191906000526020600020905b8154815290600101906020018083116107df57829003601f168201915b505050505090505b90565b6108123384846117b6565b61081e33848484611847565b505050565b6000600160a060020a038316151561083a57600080fd5b336000818152600360209081526040808320600160a060020a03881680855292529182902085905590519091907f8c5be1e5ebec7d5bd14f71427d1e84f3dd0314c0f7b2291e5b200ac8c7c3b92590610894908690613905565b60405180910390a350600192915050565b6108b3338686868686611916565b5050505050565b606060006060806000806000871380156108d55750600a8713155b15156108ff5760405160e560020a62461bcd0281526004016108f690613824565b60405180910390fd5b3360009081526009602090815260408083208054825181850281018501909352808352600a6000198d010299509193909284015b82821015610a3557838290600052602060002090600402016080604051908101604052908160008201548152602001600182018054600181600116156101000203166002900480601f0160208091040260200160405190810160405280929190818152602001828054600181600116156101000203166002900480156109fa5780601f106109cf576101008083540402835291602001916109fa565b820191906000526020600020905b8154815290600101906020018083116109dd57829003601f168201915b50505091835250506002820154602080830191909152600390920154600160a060020a03166040909101529082526001929092019101610933565b505050509350848451111515610a4a57610b00565b60408051600a808252610160820190925290816020015b610a69612cbb565b815260200190600190039081610a61579050509250600091505b600a821215610afc5750336000908152600a602052604081205485900382900390811215610ac157606484511015610abd57829550610b00565b6064015b8381815181101515610acf57fe5b906020019060200201518383815181101515610ae757fe5b60209081029091010152600190910190610a83565b8295505b5050505050919050565b60045490565b610b1a3382611a8e565b50565b6000818152600d60205260408120548190600160a060020a038581169116148015610b4c5750610b4c83611253565b949350505050565b606491020490565b6000806000610b6a84611253565b91508115610b8c57506000838152600d6020526040902054600160a060020a03165b8092505b5050919050565b600160a060020a0383166000908152600360209081526040808320338452909152812054821115610bc757600080fd5b600160a060020a0384166000908152600360209081526040808320338452909152902054610bfb908363ffffffff611c7216565b600160a060020a0385166000908152600360209081526040808320338452909152902055610c2a8484846117b6565b5060019392505050565b610c3c612ced565b60008281526001602081905260408220015411610c6e5760405160e560020a62461bcd0281526004016108f690613854565b6000828152600160208181526040808420815160c081018352815481529381015484840152600281015484830152600381015460608501526004810180548351818602810186019094528084529495919460808701949192909184015b82821015610dab576000848152602090819020604080516060810182526003860290920180548352600180820154600160a060020a0316848601526002808301805485516101009482161594909402600019011691909104601f8101879004870283018701855280835294959294938601939192909190830182828015610d935780601f10610d6857610100808354040283529160200191610d93565b820191906000526020600020905b815481529060010190602001808311610d7657829003601f168201915b50505050508152505081526020019060010190610ccb565b505050908252506005919091015460ff16151560209091015292915050565b60075460ff1690565b6000600160a060020a0383161515610dea57600080fd5b336000908152600360209081526040808320600160a060020a0387168452909152902054610e1e908363ffffffff611c8916565b336000818152600360209081526040808320600160a060020a038916808552925291829020849055905190927f8c5be1e5ebec7d5bd14f71427d1e84f3dd0314c0f7b2291e5b200ac8c7c3b925916108949190613905565b610e7e6112c6565b1515610e8957600080fd5b610b1a816001611ca2565b6000610e9f336113e2565b1515610eaa57600080fd5b610eb48383611d34565b50600192915050565b610b1a3382611dd1565b336000908152600b6020526040812054600a905b06905090565b610ee9612ced565b6000806000610ef785610c34565b9350859250600091505b600184608001515103821015610f7457610f3786856080015184815181101515610f2757fe5b6020908102909101015151610b54565b9050610f64846080015183815181101515610f4e57fe5b9060200190602002015160200151826000610807565b9182900391600190910190610f01565b60808401518051610fa491906000198101908110610f8e57fe5b9060200190602002015160200151846000610807565b50505050505050565b610fb56112c6565b1515610fc057600080fd5b610b1a816000611ca2565b60408051600a8082526101608201909252606091829160009183918391816020015b610ff5612d26565b815260200190600190039081610fed575050336000908152600c60209081526040918290206001018054835181840281018401909452808452939750600a8a0260091901965091929083018282801561106e57602002820191906000526020600020905b81548152600190910190602001808311611059575b505050505091508151600014806110885750600182510383115b15611092576111c5565b5060005b85600a028310156111c15781518310156111b557336000908152600c6020526040812083519091908490869081106110ca57fe5b6020908102919091018101518252818101929092526040908101600020815160808101835281548152600180830154828601526002808401548386015260038401805486516000199482161561010002949094011691909104601f81018790048702830187019095528482529194929360608601939192918301828280156111935780601f1061116857610100808354040283529160200191611193565b820191906000526020600020905b81548152906001019060200180831161117657829003601f168201915b50505050508152505084828151811015156111aa57fe5b602090810290910101525b60019283019201611096565b8394505b50505050919050565b6000610b4c84848461163d565b600160a060020a031660009081526002602052604090205490565b6111fe6112c6565b151561120957600080fd5b60008054604051600160a060020a03909116907f8be0079c531659141344cd1fd0a4f28419497f9722a3daafe3b4186f6b6457e0908390a360008054600160a060020a0319169055565b6000818152600d6020908152604080832054600160a060020a03168352600c82528083208484529091529020544210805b50919050565b6112948282611e84565b5050565b6112a53385858585611f16565b50505050565b61081e8383338461201e565b600054600160a060020a031690565b600054600160a060020a0316331490565b60068054604080516020601f60026000196101006001881615020190951694909404938401819004810282018101909252828152606093909290918301828280156107fc5780601f106107d1576101008083540402835291602001916107fc565b611341336113e2565b151561134c57600080fd5b610b1a816122b4565b61135e336122fc565b565b6113686112c6565b151561137357600080fd5b6112948282612344565b6000600160a060020a038316151561139457600080fd5b336000908152600360209081526040808320600160a060020a0387168452909152902054610e1e908363ffffffff611c7216565b60006113d53384846117b6565b610eb43384846000611847565b600061076a60088363ffffffff6126d316565b336000908152600c6020526040812060010154600a90610edb565b336000908152600b602090815260408083208054825181850281018501909352808352606094600919600a88020194869485949293909291849084015b82821015611540578382906000526020600020906004020160806040519081016040529081600082015481526020016001820154815260200160028201548152602001600382018054600181600116156101000203166002900480601f0160208091040260200160405190810160405280929190818152602001828054600181600116156101000203166002900480156115285780601f106114fd57610100808354040283529160200191611528565b820191906000526020600020905b81548152906001019060200180831161150b57829003601f168201915b5050505050815250508152602001906001019061144d565b5050505092508251600014806115595750600183510384115b15611563576111c5565b60408051600a808252610160820190925290816020015b611582612d26565b81526020019060019003908161157a579050509150600090505b85600a028410156115ed5782518410156115e15782848151811015156115be57fe5b9060200190602002015182828151811015156115d657fe5b602090810290910101525b6001938401930161159c565b50949350505050565b600160a060020a03918216600090815260036020908152604080832093909416825291909152205490565b6116296112c6565b151561163457600080fd5b610b1a8161270a565b600080611648612d26565b600091505b600160a060020a0386166000908152600b60205260409020548210156117a857600160a060020a0386166000908152600b6020526040902080548390811061169157fe5b906000526020600020906004020160806040519081016040529081600082015481526020016001820154815260200160028201548152602001600382018054600181600116156101000203166002900480601f0160208091040260200160405190810160405280929190818152602001828054600181600116156101000203166002900480156117625780601f1061173757610100808354040283529160200191611762565b820191906000526020600020905b81548152906001019060200180831161174557829003601f168201915b50505050508152505090508481602001511480156117835750838160400151145b801561178f5750805142105b1561179d57600192506117ad565b60019091019061164d565b600092505b50509392505050565b6117fb81600019026040805190810160405280600481526020017f73656e6400000000000000000000000000000000000000000000000000000000815250858561201e565b61183c816040805190810160405280600781526020017f7265636569766500000000000000000000000000000000000000000000000000815250848661201e565b61081e83838361277a565b60006118528461285f565b156118d657506040517f4f4ee3530000000000000000000000000000000000000000000000000000000081528390600160a060020a03821690634f4ee353906118a3908890879087906004016137aa565b600060405180830381600087803b1580156118bd57600080fd5b505af11580156118d1573d6000803e3d6000fd5b505050505b83600160a060020a031685600160a060020a03166000805160206139d4833981519152856040516119079190613905565b60405180910390a35050505050565b61192186858561163d565b15156119425760405160e560020a62461bcd0281526004016108f690613864565b6000858152600d6020526040902054600160a060020a03161580159061196e575061196c85611253565b155b15611995576000858152600d602052604090205461199590600160a060020a031686611a8e565b6000858152600d6020526040902054600160a060020a0316156119cd5760405160e560020a62461bcd0281526004016108f6906138e4565b6000858152600d602090815260408083208054600160a060020a031916600160a060020a038b16908117909155815160808101835286815280840189815281840189815260608301888152938752600c86528487208c8852865293909520815181559451600186015591516002850155518051919392611a5592600385019290910190612d4f565b505050600160a060020a039095166000908152600c60209081526040822060019081018054918201815583529120019390935550505050565b6000818152600d60205260408120548190600160a060020a03858116911614611acc5760405160e560020a62461bcd0281526004016108f690613894565b6000838152600d602090815260408083208054600160a060020a0319169055600160a060020a0387168352600c82528083208684529091528120818155600181018290556002810182905590611b256003830182612dcd565b505060009150600090505b600160a060020a0384166000908152600c602052604090206001015460001901811015611c0f578115611bcd57600160a060020a0384166000908152600c602052604090206001908101805490918301908110611b8957fe5b6000918252602080832090910154600160a060020a0387168352600c9091526040909120600101805483908110611bbc57fe5b600091825260209091200155611c07565b600160a060020a0384166000908152600c60205260409020600101805484919083908110611bf757fe5b6000918252602090912001541491505b600101611b30565b600160a060020a0384166000908152600c6020526040902060010180546000198101908110611c3a57fe5b60009182526020808320909101829055600160a060020a0386168252600c9052604090206001018054906108b3906000198301612e11565b60008083831115611c8257600080fd5b5050900390565b600082820183811015611c9b57600080fd5b9392505050565b600082815260016020819052604090912001541515611cd65760405160e560020a62461bcd0281526004016108f690613874565b60008281526001602052604090206005015460ff1615158115151415611d115760405160e560020a62461bcd0281526004016108f6906138c4565b600091825260016020526040909120600501805460ff1916911515919091179055565b600160a060020a0382161515611d4957600080fd5b600454611d5c908263ffffffff611c8916565b600455600160a060020a038216600090815260026020526040902054611d88908263ffffffff611c8916565b600160a060020a0383166000818152600260205260408082209390935591519091906000805160206139d483398151915290611dc5908590613905565b60405180910390a35050565b600160a060020a0382161515611de657600080fd5b600160a060020a038216600090815260026020526040902054811115611e0b57600080fd5b600454611e1e908263ffffffff611c7216565b600455600160a060020a038216600090815260026020526040902054611e4a908263ffffffff611c7216565b600160a060020a0383166000818152600260205260408082209390935591516000805160206139d483398151915290611dc5908590613905565b600160a060020a0382166000908152600360209081526040808320338452909152902054811115611eb457600080fd5b600160a060020a0382166000908152600360209081526040808320338452909152902054611ee8908263ffffffff611c7216565b600160a060020a03831660009081526003602090815260408083203384529091529020556112948282611dd1565b611f1e612ced565b611f2784610c34565b60408101519091508314611f505760405160e560020a62461bcd0281526004016108f6906138b4565b611f5b86868661163d565b15611f7b5760405160e560020a62461bcd0281526004016108f6906138d4565b6000831115611f8f57611f8f308486610807565b600160a060020a0386166000908152600b602090815260408083208151608081018352606080870151420182528185018b81529382018a8152908201888152835460018181018087559589529787902084516004909202019081559451968501969096555160028401559351805191949361201292600385019290910190612d4f565b50505050505050505050565b600160a060020a0382166000908152600960205260409020546064111561210a57600160a060020a038083166000908152600960209081526040808320815160808101835289815280840189815242938201939093529486166060860152805460018181018084559286529484902086516004909202019081559151805191959492936120b093850192910190612d4f565b50604082810151600283015560609092015160039091018054600160a060020a031916600160a060020a03928316179055841660009081526009602090815282822054600a909152919020600019919091019055506112a5565b600160a060020a0382166000908152600a6020526040902054606314156121eb57600160a060020a038083166000818152600a60209081526040808320839055805160808101825289815280830189905242818301529486166060860152928252600990529081208054909190811061217f57fe5b90600052602060002090600402016000820151816000015560208201518160010190805190602001906121b3929190612d4f565b506040820151600282015560609091015160039091018054600160a060020a031916600160a060020a039092169190911790556112a5565b600160a060020a038083166000818152600a6020818152604080842080546001019081905581516080810183528b81528084018b9052428184015296881660608801529484526009825290922091528054909190811061224757fe5b906000526020600020906004020160008201518160000155602082015181600101908051906020019061227b929190612d4f565b506040820151600282015560609091015160039091018054600160a060020a031916600160a060020a0390921691909117905550505050565b6122c560088263ffffffff61286716565b604051600160a060020a038216907f6ae172837ea30b801fbfcdd4108aa1d5bf8ff775444fd70256b44e6bf3dfc3f690600090a250565b61230d60088263ffffffff6128b516565b604051600160a060020a038216907fe94479a9f7e1952cc78f2d6baab678adc1b772d936c6583def489e524cb6669290600090a250565b61234c612e35565b606060008060008060606000806060600160008d81526020019081526020016000206001015460001415156123965760405160e560020a62461bcd0281526004016108f6906138a4565b61239f8b612901565b99506123aa8a61294f565b98506123cd8960008151811015156123be57fe5b90602001906020020151612a19565b97504288116123f15760405160e560020a62461bcd0281526004016108f690613884565b6124038960018151811015156123be57fe5b96506124178960028151811015156123be57fe5b955061242b8960038151811015156123be57fe5b945061244e89600481518110151561243f57fe5b9060200190602002015161294f565b935083519250600091505b8282101561256f57612472848381518110151561243f57fe5b9050600160008881526020019081526020016000206004016060604051908101604052806124a88460008151811015156123be57fe5b81526020016124ce8460018151811015156124bf57fe5b90602001906020020151612a4f565b600160a060020a031681526020016124fd8460028151811015156124ee57fe5b90602001906020020151612a80565b90528154600180820180855560009485526020948590208451600390940201928355838501519183018054600160a060020a031916600160a060020a039093169290921790915560408301518051919461255f92600285019290910190612d4f565b5050600190930192506124599050565b61269160016000898152602001908152602001600020600401805480602002602001604051908101604052809291908181526020016000905b82821015612688576000848152602090819020604080516060810182526003860290920180548352600180820154600160a060020a0316848601526002808301805485516101009482161594909402600019011691909104601f81018790048702830187018552808352949592949386019391929091908301828280156126705780601f1061264557610100808354040283529160200191612670565b820191906000526020600020905b81548152906001019060200180831161265357829003601f168201915b505050505081525050815260200190600101906125a8565b50505050612ae9565b50505060008481526001602081905260409091209586558581019490945550600284019190915560038301556005909101805460ff1916909117905550505050565b6000600160a060020a03821615156126ea57600080fd5b50600160a060020a03166000908152602091909152604090205460ff1690565b600160a060020a038116151561271f57600080fd5b60008054604051600160a060020a03808516939216917f8be0079c531659141344cd1fd0a4f28419497f9722a3daafe3b4186f6b6457e091a360008054600160a060020a031916600160a060020a0392909216919091179055565b600160a060020a03831660009081526002602052604090205481111561279f57600080fd5b600160a060020a03821615156127b457600080fd5b600160a060020a0383166000908152600260205260409020546127dd908263ffffffff611c7216565b600160a060020a038085166000908152600260205260408082209390935590841681522054612812908263ffffffff611c8916565b600160a060020a0380841660008181526002602052604090819020939093559151908516906000805160206139d483398151915290612852908590613905565b60405180910390a3505050565b6000903b1190565b600160a060020a038116151561287c57600080fd5b61288682826126d3565b1561289057600080fd5b600160a060020a0316600090815260209190915260409020805460ff19166001179055565b600160a060020a03811615156128ca57600080fd5b6128d482826126d3565b15156128df57600080fd5b600160a060020a0316600090815260209190915260409020805460ff19169055565b612909612e35565b60008251600014156129305760408051808201909152600080825260208201529150611284565b5050604080518082019091528151815260209182019181019190915290565b606060008060008061296086612b0d565b151561296b57600080fd5b61297486612b30565b9350836040519080825280602002602001820160405280156129b057816020015b61299d612e35565b8152602001906001900390816129955790505b5094506129c08660200151612b80565b8660200151019250600090505b838110156111c5576129de83612be3565b91506040805190810160405280838152602001848152508582815181101515612a0357fe5b60209081029091010152918101916001016129cd565b6000806000806000612a2e8660200151612b80565b86516020978801518201519190039096036101000a90950495945050505050565b805160009060151015612a775760405160e560020a62461bcd0281526004016108f690613844565b61076a82612a19565b606060008060606000612a968660200151612b80565b9350838660000151039250826040519080825280601f01601f191660200182016040528015612acf578160200160208202803883390190505b5091508160200190506115ed848760200151018285612c74565b8051600010610b1a5760405160e560020a62461bcd0281526004016108f690613834565b6020810151805160009190821a9060c060ff83161015610c2a5760009250610b90565b60008060008060009250612b478560200151612b80565b6020860151865191810193500190505b80821015612b7757612b6882612be3565b60019093019290910190612b57565b50909392505050565b8051600090811a6080811015612b995760009150611284565b60b8811080612bb4575060c08110801590612bb4575060f881105b15612bc25760019150611284565b60c0811015612bd75760b51981019150611284565b60f51981019150611284565b8051600090811a6080811015612bfc5760019150611284565b60b8811015612c1157607e1981019150611284565b60c0811015612c3e5760b78103600184019350806020036101000a84510460018201810193505050611284565b60f8811015612c535760be1981019150611284565b60019290920151602083900360f7016101000a900490910160f51901919050565b60005b60208210612c99578351835260209384019390920191601f1990910190612c77565b50915181516020939093036101000a6000190180199091169216919091179052565b6080604051908101604052806000815260200160608152602001600081526020016000600160a060020a031681525090565b60c06040519081016040528060008152602001600081526020016000815260200160008152602001606081526020016000151581525090565b608060405190810160405280600081526020016000815260200160008152602001606081525090565b828054600181600116156101000203166002900490600052602060002090601f016020900481019282601f10612d9057805160ff1916838001178555612dbd565b82800160010185558215612dbd579182015b82811115612dbd578251825591602001919060010190612da2565b50612dc9929150612e4c565b5090565b50805460018160011615610100020316600290046000825580601f10612df35750610b1a565b601f016020900490600052602060002090810190610b1a9190612e4c565b81548183558181111561081e5760008381526020902061081e918101908301612e4c565b604080518082019091526000808252602082015290565b61080491905b80821115612dc95760008155600101612e52565b6000610767823561397a565b60006107678235610804565b6000601f82018313612e8f57600080fd5b8135612ea2612e9d82613948565b613921565b91508082526020830160208301858383011115612ebe57600080fd5b612ec9838284613991565b50505092915050565b600060208284031215612ee457600080fd5b6000610b4c8484612e66565b60008060408385031215612f0357600080fd5b6000612f0f8585612e66565b9250506020612f2085828601612e66565b9150509250929050565b600080600060608486031215612f3f57600080fd5b6000612f4b8686612e66565b9350506020612f5c86828701612e66565b9250506040612f6d86828701612e72565b9150509250925092565b60008060408385031215612f8a57600080fd5b6000612f968585612e66565b9250506020612f2085828601612e72565b600080600060608486031215612fbc57600080fd5b6000612fc88686612e66565b9350506020612f5c86828701612e72565b600060208284031215612feb57600080fd5b6000610b4c8484612e72565b600080600080600060a0868803121561300f57600080fd5b600061301b8888612e72565b955050602061302c88828901612e72565b945050604061303d88828901612e72565b935050606061304e88828901612e72565b925050608086013567ffffffffffffffff81111561306b57600080fd5b61307788828901612e7e565b9150509295509295909350565b60008060006060848603121561309957600080fd5b60006130a58686612e72565b935050602084013567ffffffffffffffff8111156130c257600080fd5b6130ce86828701612e7e565b9250506040612f6d86828701612e66565b600080604083850312156130f257600080fd5b60006130fe8585612e72565b925050602083013567ffffffffffffffff81111561311b57600080fd5b612f2085828601612e7e565b6000806040838503121561313a57600080fd5b6000612f968585612e72565b6000806000806080858703121561315c57600080fd5b60006131688787612e72565b945050602061317987828801612e72565b935050604061318a87828801612e72565b925050606085013567ffffffffffffffff8111156131a757600080fd5b6131b387828801612e7e565b91505092959194509250565b6131c88161397a565b82525050565b60006131d982613976565b808452602084019350836020820285016131f285613970565b60005b8481101561322957838303885261320d838351613623565b925061321882613970565b6020989098019791506001016131f5565b50909695505050505050565b600061324082613976565b8084526020840193508360208202850161325985613970565b60005b8481101561322957838303885261327483835161367e565b925061327f82613970565b60209890980197915060010161325c565b600061329b82613976565b808452602084019350836020820285016132b485613970565b60005b848110156132295783830388526132cf838351613623565b92506132da82613970565b6020989098019791506001016132b7565b60006132f682613976565b8084526020840193508360208202850161330f85613970565b60005b8481101561322957838303885261332a8383516136bd565b925061333582613970565b602098909801979150600101613312565b6131c881613986565b6131c881610804565b600061336382613976565b80845261337781602086016020860161399d565b613380816139c9565b9093016020019392505050565b600d81527f496e76616c696420706167652e00000000000000000000000000000000000000602082015260400190565b600981527f6e6f742072756c65730000000000000000000000000000000000000000000000602082015260400190565b603a81527f496e76616c696420524c504974656d2e2041646472657373657320617265206560208201527f6e636f64656420696e203230206279746573206f72206c657373000000000000604082015260600190565b600981527f6e6f745f65786973740000000000000000000000000000000000000000000000602082015260400190565b600b81527f6e6f7420616c6c6f776564000000000000000000000000000000000000000000602082015260400190565b600981527f6e6f742065786973740000000000000000000000000000000000000000000000602082015260400190565b600781527f6578706972656400000000000000000000000000000000000000000000000000602082015260400190565b600a81527f73616d65206f776e657200000000000000000000000000000000000000000000602082015260400190565b600581527f6578697374000000000000000000000000000000000000000000000000000000602082015260400190565b601081527f696e636f727265637420616d6f756e7400000000000000000000000000000000602082015260400190565b600b81527f73616d6520737461747573000000000000000000000000000000000000000000602082015260400190565b600a81527f6475706c69636174656400000000000000000000000000000000000000000000602082015260400190565b600f81527f6475706c69636174656420686173680000000000000000000000000000000000602082015260400190565b80516000906080840190613637858261334f565b50602083015161364a602086018261334f565b50604083015161365d604086018261334f565b50606083015184820360608601526136758282613358565b95945050505050565b80516000906060840190613692858261334f565b5060208301516136a560208601826131bf565b50604083015184820360408601526136758282613358565b805160009060808401906136d1858261334f565b50602083015184820360208601526136e98282613358565b91505060408301516136fe604086018261334f565b50606083015161371160608601826131bf565b509392505050565b805160009060c084019061372d858261334f565b506020830151613740602086018261334f565b506040830151613753604086018261334f565b506060830151613766606086018261334f565b506080830151848203608086015261377e8282613235565b91505060a083015161371160a0860182613346565b6131c88161398b565b6020810161076a82846131bf565b606081016137b882866131bf565b6137c5602083018561334f565b610b4c604083018461334f565b6020808252810161076781846131ce565b602080825281016107678184613290565b6020808252810161076781846132eb565b6020810161076a8284613346565b602080825281016107678184613358565b6020808252810161076a8161338d565b6020808252810161076a816133bd565b6020808252810161076a816133ed565b6020808252810161076a81613443565b6020808252810161076a81613473565b6020808252810161076a816134a3565b6020808252810161076a816134d3565b6020808252810161076a81613503565b6020808252810161076a81613533565b6020808252810161076a81613563565b6020808252810161076a81613593565b6020808252810161076a816135c3565b6020808252810161076a816135f3565b602080825281016107678184613719565b6020810161076a828461334f565b6020810161076a8284613793565b60405181810167ffffffffffffffff8111828210171561394057600080fd5b604052919050565b600067ffffffffffffffff82111561395f57600080fd5b506020601f91909101601f19160190565b60200190565b5190565b600160a060020a031690565b151590565b60ff1690565b82818337506000910152565b60005b838110156139b85781810151838201526020016139a0565b838111156112a55750506000910152565b601f01601f1916905600ddf252ad1be2c89b69c2b068fc378daa952ba7f163c4a11628f55a4df523b3efa265627a7a72305820ba4774c3512b60cb88a8750c1b5653ebe1fd2e1c542097f5342dc7f0066475516c6578706572696d656e74616cf50037",
  "source": "pragma solidity 0.4.24;\npragma experimental ABIEncoderV2;\n\nimport \"./Assets.sol\";\n\ncontract Devices  is Assets {\n\n  struct UserDevices {   \n    mapping (bytes32 => Device) devices;\n    bytes32[] deviceArray;\n  } \n\n  struct Device {   \n    uint256 expirationDate;\n    uint256 assetId;\n    uint256 schemaId;\n    string dappId;\n  }\n\n  uint256 constant private PAGE_SIZE = 10;\n\n  mapping (address => UserDevices) private userDevices_;\n\n  mapping (bytes32 => address) private deviceHashes_;\n    \n  function isAllowed(bytes32 _deviceHash) public view returns (bool) {\n    bool allowed = userDevices_[deviceHashes_[_deviceHash]].devices[_deviceHash].expirationDate > now ;\n    return allowed;\n  }\n\n  function isAllowedForAddress(address _target, bytes32 _deviceHash) public view returns (bool) {\n    bool allowed =  (deviceHashes_[_deviceHash] == _target) && (isAllowed(_deviceHash));\n    return allowed;\n  }\n   \n  function getDevicesPageCount() public view returns (uint256) {\n    return userDevices_[msg.sender].deviceArray.length % PAGE_SIZE;\n  }\n\n  function getDevices(uint256 _page) public view returns (Device[] memory) {\n    Device[] memory devicesPage = new Device[](PAGE_SIZE); \n    uint256 transferIndex = PAGE_SIZE * _page - PAGE_SIZE;\n    bytes32[] memory devices = userDevices_[msg.sender].deviceArray;\n\n    if (devices.length == 0 || transferIndex > devices.length - 1) {\n      return;\n    }\n   \n    uint256 returnCounter = 0;\n\n    for (transferIndex; transferIndex < PAGE_SIZE * _page; transferIndex++) {\n      if (transferIndex < devices.length) {\n        devicesPage[returnCounter] = userDevices_[msg.sender].devices[devices[transferIndex]];\n      }\n      returnCounter++;\n    }\n    return devicesPage;\n  }\n\n  function getAddress(bytes32 _deviceHash) public view returns (address) {\n    bool allowed = isAllowed(_deviceHash);\n    address ownerAddress;\n    if (allowed) {\n      ownerAddress = deviceHashes_[_deviceHash];\n    } \n    return ownerAddress;\n  }\n\n  function handshake(bytes32 _deviceHash, uint256 _assetId, uint256 _schemaId, uint256 _lifeTime, string _dappId) public {\n    _handshake(msg.sender, _deviceHash, _assetId, _schemaId, _lifeTime, _dappId);\n  }\n\n  function removeDevice(bytes32 _deviceHash) public {\n    _removeDevice(msg.sender, _deviceHash);\n  }\n\n    \n  function _handshake(address _owner, bytes32 _deviceHash, uint256 _assetId, uint256 _schemaId, uint256 _lifeTime, string _dappId) internal {\n\n    require(Assets._checkOwnership(_owner, _assetId, _schemaId),\"not allowed\");\n\n    if ((deviceHashes_[_deviceHash] != address(0)) && (!isAllowed(_deviceHash))) {\n      _removeDevice(deviceHashes_[_deviceHash], _deviceHash);\n    }\n\n    require(deviceHashes_[_deviceHash] == address(0), \"duplicated hash\");\n    deviceHashes_[_deviceHash] = _owner; \n    userDevices_[_owner].devices[_deviceHash] =  Device(_lifeTime, _assetId, _schemaId, _dappId);\n    userDevices_[_owner].deviceArray.push(_deviceHash);\n  }\n\n  function _removeDevice(address _owner, bytes32 _deviceHash) internal {\n    require(deviceHashes_[_deviceHash] == _owner, \"same owner\");\n    delete deviceHashes_[_deviceHash];\n    delete userDevices_[_owner].devices[_deviceHash];\n    bool found=false;\n    for (uint i = 0; i < userDevices_[_owner].deviceArray.length-1;i++){\n      if(found){\n        userDevices_[_owner].deviceArray[i] = userDevices_[_owner].deviceArray[i+1];\n      } else {\n        found = userDevices_[_owner].deviceArray[i] == _deviceHash;\n      }\n    }\n    delete userDevices_[_owner].deviceArray[userDevices_[_owner].deviceArray.length-1];\n    userDevices_[_owner].deviceArray.length--;\n  }\n\n}",
  "sourcePath": "/home/jordi/ws/bloomen-wallet-truffle/contracts/bloomen/Devices.sol",
  "compiler": {
    "name": "solc",
    "version": "0.4.24+commit.e67f0147.Emscripten.clang"
  },
  "schemaVersion": "2.0.1",
  "updatedAt": "2019-01-15T20:00:27.481Z"
}