{
  "contractName": "Devices",
  "abi": [
    {
      "constant": true,
      "inputs": [
        {
          "name": "_assetId",
          "type": "uint256"
        },
        {
          "name": "_schemaId",
          "type": "uint256"
        }
      ],
      "name": "checkOwnership",
      "outputs": [
        {
          "name": "",
          "type": "bool"
        }
      ],
      "payable": false,
      "stateMutability": "view",
      "type": "function"
    },
    {
      "constant": true,
      "inputs": [],
      "name": "name",
      "outputs": [
        {
          "name": "",
          "type": "string"
        }
      ],
      "payable": false,
      "stateMutability": "view",
      "type": "function"
    },
    {
      "constant": false,
      "inputs": [
        {
          "name": "_assetId",
          "type": "uint256"
        },
        {
          "name": "_schemaId",
          "type": "uint256"
        },
        {
          "name": "_amount",
          "type": "uint256"
        },
        {
          "name": "_dappId",
          "type": "string"
        },
        {
          "name": "_description",
          "type": "string"
        }
      ],
      "name": "buy",
      "outputs": [],
      "payable": false,
      "stateMutability": "nonpayable",
      "type": "function"
    },
    {
      "constant": false,
      "inputs": [
        {
          "name": "_to",
          "type": "address"
        },
        {
          "name": "_value",
          "type": "uint256"
        },
        {
          "name": "_data",
          "type": "uint256"
        }
      ],
      "name": "transfer",
      "outputs": [],
      "payable": false,
      "stateMutability": "nonpayable",
      "type": "function"
    },
    {
      "constant": false,
      "inputs": [
        {
          "name": "spender",
          "type": "address"
        },
        {
          "name": "value",
          "type": "uint256"
        }
      ],
      "name": "approve",
      "outputs": [
        {
          "name": "",
          "type": "bool"
        }
      ],
      "payable": false,
      "stateMutability": "nonpayable",
      "type": "function"
    },
    {
      "constant": true,
      "inputs": [
        {
          "name": "_page",
          "type": "int256"
        }
      ],
      "name": "getMovements",
      "outputs": [
        {
          "components": [
            {
              "name": "amount",
              "type": "int256"
            },
            {
              "name": "description",
              "type": "string"
            },
            {
              "name": "date",
              "type": "uint256"
            },
            {
              "name": "to",
              "type": "address"
            }
          ],
          "name": "",
          "type": "tuple[]"
        }
      ],
      "payable": false,
      "stateMutability": "view",
      "type": "function"
    },
    {
      "constant": true,
      "inputs": [],
      "name": "totalSupply",
      "outputs": [
        {
          "name": "",
          "type": "uint256"
        }
      ],
      "payable": false,
      "stateMutability": "view",
      "type": "function"
    },
    {
      "constant": true,
      "inputs": [
        {
          "name": "theNumber",
          "type": "uint256"
        },
        {
          "name": "percentage",
          "type": "uint256"
        }
      ],
      "name": "calculatePercentage",
      "outputs": [
        {
          "name": "",
          "type": "uint256"
        }
      ],
      "payable": false,
      "stateMutability": "view",
      "type": "function"
    },
    {
      "constant": false,
      "inputs": [
        {
          "name": "from",
          "type": "address"
        },
        {
          "name": "to",
          "type": "address"
        },
        {
          "name": "value",
          "type": "uint256"
        }
      ],
      "name": "transferFrom",
      "outputs": [
        {
          "name": "",
          "type": "bool"
        }
      ],
      "payable": false,
      "stateMutability": "nonpayable",
      "type": "function"
    },
    {
      "constant": true,
      "inputs": [
        {
          "name": "_schemaId",
          "type": "uint256"
        }
      ],
      "name": "getSchema",
      "outputs": [
        {
          "components": [
            {
              "name": "expirationDate",
              "type": "uint256"
            },
            {
              "name": "schemaId",
              "type": "uint256"
            },
            {
              "name": "amount",
              "type": "uint256"
            },
            {
              "name": "assetLifeTime",
              "type": "uint256"
            },
            {
              "components": [
                {
                  "name": "percent",
                  "type": "uint256"
                },
                {
                  "name": "receptor",
                  "type": "address"
                },
                {
                  "name": "description",
                  "type": "string"
                }
              ],
              "name": "clearingHouseRules",
              "type": "tuple[]"
            },
            {
              "name": "valid",
              "type": "bool"
            }
          ],
          "name": "",
          "type": "tuple"
        }
      ],
      "payable": false,
      "stateMutability": "view",
      "type": "function"
    },
    {
      "constant": true,
      "inputs": [],
      "name": "decimals",
      "outputs": [
        {
          "name": "",
          "type": "uint8"
        }
      ],
      "payable": false,
      "stateMutability": "view",
      "type": "function"
    },
    {
      "constant": false,
      "inputs": [
        {
          "name": "spender",
          "type": "address"
        },
        {
          "name": "addedValue",
          "type": "uint256"
        }
      ],
      "name": "increaseAllowance",
      "outputs": [
        {
          "name": "",
          "type": "bool"
        }
      ],
      "payable": false,
      "stateMutability": "nonpayable",
      "type": "function"
    },
    {
      "constant": false,
      "inputs": [
        {
          "name": "_schemaId",
          "type": "uint256"
        }
      ],
      "name": "validateSchema",
      "outputs": [],
      "payable": false,
      "stateMutability": "nonpayable",
      "type": "function"
    },
    {
      "constant": false,
      "inputs": [
        {
          "name": "to",
          "type": "address"
        },
        {
          "name": "value",
          "type": "uint256"
        }
      ],
      "name": "mint",
      "outputs": [
        {
          "name": "",
          "type": "bool"
        }
      ],
      "payable": false,
      "stateMutability": "nonpayable",
      "type": "function"
    },
    {
      "constant": false,
      "inputs": [
        {
          "name": "value",
          "type": "uint256"
        }
      ],
      "name": "burn",
      "outputs": [],
      "payable": false,
      "stateMutability": "nonpayable",
      "type": "function"
    },
    {
      "constant": true,
      "inputs": [],
      "name": "getAssetsPageCount",
      "outputs": [
        {
          "name": "",
          "type": "uint256"
        }
      ],
      "payable": false,
      "stateMutability": "view",
      "type": "function"
    },
    {
      "constant": false,
      "inputs": [
        {
          "name": "_from",
          "type": "address"
        },
        {
          "name": "_value",
          "type": "uint256"
        },
        {
          "name": "_schemaId",
          "type": "uint256"
        }
      ],
      "name": "tokenFallback",
      "outputs": [],
      "payable": false,
      "stateMutability": "nonpayable",
      "type": "function"
    },
    {
      "constant": false,
      "inputs": [
        {
          "name": "_schemaId",
          "type": "uint256"
        }
      ],
      "name": "invalidateSchema",
      "outputs": [],
      "payable": false,
      "stateMutability": "nonpayable",
      "type": "function"
    },
    {
      "constant": true,
      "inputs": [
        {
          "name": "_target",
          "type": "address"
        },
        {
          "name": "_assetId",
          "type": "uint256"
        },
        {
          "name": "_schemaId",
          "type": "uint256"
        }
      ],
      "name": "checkOwnershipForAddress",
      "outputs": [
        {
          "name": "",
          "type": "bool"
        }
      ],
      "payable": false,
      "stateMutability": "view",
      "type": "function"
    },
    {
      "constant": true,
      "inputs": [
        {
          "name": "owner",
          "type": "address"
        }
      ],
      "name": "balanceOf",
      "outputs": [
        {
          "name": "",
          "type": "uint256"
        }
      ],
      "payable": false,
      "stateMutability": "view",
      "type": "function"
    },
    {
      "constant": false,
      "inputs": [],
      "name": "renounceOwnership",
      "outputs": [],
      "payable": false,
      "stateMutability": "nonpayable",
      "type": "function"
    },
    {
      "constant": false,
      "inputs": [
        {
          "name": "from",
          "type": "address"
        },
        {
          "name": "value",
          "type": "uint256"
        }
      ],
      "name": "burnFrom",
      "outputs": [],
      "payable": false,
      "stateMutability": "nonpayable",
      "type": "function"
    },
    {
      "constant": false,
      "inputs": [
        {
          "name": "_assetId",
          "type": "uint256"
        },
        {
          "name": "_schemaId",
          "type": "uint256"
        },
        {
          "name": "_amount",
          "type": "uint256"
        },
        {
          "name": "_dappId",
          "type": "string"
        }
      ],
      "name": "buy",
      "outputs": [],
      "payable": false,
      "stateMutability": "nonpayable",
      "type": "function"
    },
    {
      "constant": false,
      "inputs": [
        {
          "name": "_amount",
          "type": "int256"
        },
        {
          "name": "_description",
          "type": "string"
        },
        {
          "name": "_to",
          "type": "address"
        }
      ],
      "name": "addMovement",
      "outputs": [],
      "payable": false,
      "stateMutability": "nonpayable",
      "type": "function"
    },
    {
      "constant": true,
      "inputs": [],
      "name": "owner",
      "outputs": [
        {
          "name": "",
          "type": "address"
        }
      ],
      "payable": false,
      "stateMutability": "view",
      "type": "function"
    },
    {
      "constant": true,
      "inputs": [],
      "name": "isOwner",
      "outputs": [
        {
          "name": "",
          "type": "bool"
        }
      ],
      "payable": false,
      "stateMutability": "view",
      "type": "function"
    },
    {
      "constant": true,
      "inputs": [],
      "name": "symbol",
      "outputs": [
        {
          "name": "",
          "type": "string"
        }
      ],
      "payable": false,
      "stateMutability": "view",
      "type": "function"
    },
    {
      "constant": false,
      "inputs": [
        {
          "name": "account",
          "type": "address"
        }
      ],
      "name": "addMinter",
      "outputs": [],
      "payable": false,
      "stateMutability": "nonpayable",
      "type": "function"
    },
    {
      "constant": false,
      "inputs": [],
      "name": "renounceMinter",
      "outputs": [],
      "payable": false,
      "stateMutability": "nonpayable",
      "type": "function"
    },
    {
      "constant": false,
      "inputs": [
        {
          "name": "_schemaId",
          "type": "uint256"
        },
        {
          "name": "_data",
          "type": "bytes"
        }
      ],
      "name": "createSchema",
      "outputs": [],
      "payable": false,
      "stateMutability": "nonpayable",
      "type": "function"
    },
    {
      "constant": false,
      "inputs": [
        {
          "name": "spender",
          "type": "address"
        },
        {
          "name": "subtractedValue",
          "type": "uint256"
        }
      ],
      "name": "decreaseAllowance",
      "outputs": [
        {
          "name": "",
          "type": "bool"
        }
      ],
      "payable": false,
      "stateMutability": "nonpayable",
      "type": "function"
    },
    {
      "constant": false,
      "inputs": [
        {
          "name": "_to",
          "type": "address"
        },
        {
          "name": "_value",
          "type": "uint256"
        }
      ],
      "name": "transfer",
      "outputs": [
        {
          "name": "",
          "type": "bool"
        }
      ],
      "payable": false,
      "stateMutability": "nonpayable",
      "type": "function"
    },
    {
      "constant": true,
      "inputs": [
        {
          "name": "account",
          "type": "address"
        }
      ],
      "name": "isMinter",
      "outputs": [
        {
          "name": "",
          "type": "bool"
        }
      ],
      "payable": false,
      "stateMutability": "view",
      "type": "function"
    },
    {
      "constant": true,
      "inputs": [
        {
          "name": "_page",
          "type": "uint256"
        }
      ],
      "name": "getAssets",
      "outputs": [
        {
          "components": [
            {
              "name": "expirationDate",
              "type": "uint256"
            },
            {
              "name": "assetId",
              "type": "uint256"
            },
            {
              "name": "schemaId",
              "type": "uint256"
            },
            {
              "name": "dappId",
              "type": "string"
            },
            {
              "name": "description",
              "type": "string"
            }
          ],
          "name": "",
          "type": "tuple[]"
        }
      ],
      "payable": false,
      "stateMutability": "view",
      "type": "function"
    },
    {
      "constant": true,
      "inputs": [
        {
          "name": "owner",
          "type": "address"
        },
        {
          "name": "spender",
          "type": "address"
        }
      ],
      "name": "allowance",
      "outputs": [
        {
          "name": "",
          "type": "uint256"
        }
      ],
      "payable": false,
      "stateMutability": "view",
      "type": "function"
    },
    {
      "constant": false,
      "inputs": [
        {
          "name": "newOwner",
          "type": "address"
        }
      ],
      "name": "transferOwnership",
      "outputs": [],
      "payable": false,
      "stateMutability": "nonpayable",
      "type": "function"
    },
    {
      "anonymous": false,
      "inputs": [
        {
          "indexed": true,
          "name": "account",
          "type": "address"
        }
      ],
      "name": "MinterAdded",
      "type": "event"
    },
    {
      "anonymous": false,
      "inputs": [
        {
          "indexed": true,
          "name": "account",
          "type": "address"
        }
      ],
      "name": "MinterRemoved",
      "type": "event"
    },
    {
      "anonymous": false,
      "inputs": [
        {
          "indexed": true,
          "name": "from",
          "type": "address"
        },
        {
          "indexed": true,
          "name": "to",
          "type": "address"
        },
        {
          "indexed": false,
          "name": "value",
          "type": "uint256"
        }
      ],
      "name": "Transfer",
      "type": "event"
    },
    {
      "anonymous": false,
      "inputs": [
        {
          "indexed": true,
          "name": "owner",
          "type": "address"
        },
        {
          "indexed": true,
          "name": "spender",
          "type": "address"
        },
        {
          "indexed": false,
          "name": "value",
          "type": "uint256"
        }
      ],
      "name": "Approval",
      "type": "event"
    },
    {
      "anonymous": false,
      "inputs": [
        {
          "indexed": true,
          "name": "previousOwner",
          "type": "address"
        },
        {
          "indexed": true,
          "name": "newOwner",
          "type": "address"
        }
      ],
      "name": "OwnershipTransferred",
      "type": "event"
    },
    {
      "constant": true,
      "inputs": [
        {
          "name": "_deviceHash",
          "type": "bytes32"
        }
      ],
      "name": "isAllowed",
      "outputs": [
        {
          "name": "",
          "type": "bool"
        }
      ],
      "payable": false,
      "stateMutability": "view",
      "type": "function"
    },
    {
      "constant": true,
      "inputs": [
        {
          "name": "_target",
          "type": "address"
        },
        {
          "name": "_deviceHash",
          "type": "bytes32"
        }
      ],
      "name": "isAllowedForAddress",
      "outputs": [
        {
          "name": "",
          "type": "bool"
        }
      ],
      "payable": false,
      "stateMutability": "view",
      "type": "function"
    },
    {
      "constant": true,
      "inputs": [],
      "name": "getDevicesPageCount",
      "outputs": [
        {
          "name": "",
          "type": "uint256"
        }
      ],
      "payable": false,
      "stateMutability": "view",
      "type": "function"
    },
    {
      "constant": true,
      "inputs": [
        {
          "name": "_page",
          "type": "uint256"
        }
      ],
      "name": "getDevices",
      "outputs": [
        {
          "components": [
            {
              "name": "expirationDate",
              "type": "uint256"
            },
            {
              "name": "assetId",
              "type": "uint256"
            },
            {
              "name": "schemaId",
              "type": "uint256"
            },
            {
              "name": "dappId",
              "type": "string"
            },
            {
              "name": "description",
              "type": "string"
            }
          ],
          "name": "",
          "type": "tuple[]"
        }
      ],
      "payable": false,
      "stateMutability": "view",
      "type": "function"
    },
    {
      "constant": true,
      "inputs": [
        {
          "name": "_deviceHash",
          "type": "bytes32"
        }
      ],
      "name": "getAddress",
      "outputs": [
        {
          "name": "",
          "type": "address"
        }
      ],
      "payable": false,
      "stateMutability": "view",
      "type": "function"
    },
    {
      "constant": false,
      "inputs": [
        {
          "name": "_deviceHash",
          "type": "bytes32"
        },
        {
          "name": "_assetId",
          "type": "uint256"
        },
        {
          "name": "_schemaId",
          "type": "uint256"
        },
        {
          "name": "_lifeTime",
          "type": "uint256"
        },
        {
          "name": "_dappId",
          "type": "string"
        }
      ],
      "name": "handshake",
      "outputs": [],
      "payable": false,
      "stateMutability": "nonpayable",
      "type": "function"
    },
    {
      "constant": false,
      "inputs": [
        {
          "name": "_deviceHash",
          "type": "bytes32"
        },
        {
          "name": "_assetId",
          "type": "uint256"
        },
        {
          "name": "_schemaId",
          "type": "uint256"
        },
        {
          "name": "_lifeTime",
          "type": "uint256"
        },
        {
          "name": "_dappId",
          "type": "string"
        },
        {
          "name": "_description",
          "type": "string"
        }
      ],
      "name": "handshake",
      "outputs": [],
      "payable": false,
      "stateMutability": "nonpayable",
      "type": "function"
    },
    {
      "constant": false,
      "inputs": [
        {
          "name": "_deviceHash",
          "type": "bytes32"
        }
      ],
      "name": "removeDevice",
      "outputs": [],
      "payable": false,
      "stateMutability": "nonpayable",
      "type": "function"
    }
  ],
  "bytecode": "0x600b60809081527f426c6f6f6d656e436f696e00000000000000000000000000000000000000000060a0526101006040819052600360c09081527f424c4f000000000000000000000000000000000000000000000000000000000060e05260008054600160a060020a03191633178082559192600292859285928592600160a060020a031691907f8be0079c531659141344cd1fd0a4f28419497f9722a3daafe3b4186f6b6457e0908290a38251620000c0906005906020860190620001f0565b508151620000d6906006906020850190620001f0565b506007805460ff191660ff9290921691909117905550620001029050336401000000006200010b810204565b50505062000295565b6200012660088264010000000062002b426200015d82021704565b604051600160a060020a038216907f6ae172837ea30b801fbfcdd4108aa1d5bf8ff775444fd70256b44e6bf3dfc3f690600090a250565b600160a060020a03811615156200017357600080fd5b620001888282640100000000620001b8810204565b156200019357600080fd5b600160a060020a0316600090815260209190915260409020805460ff19166001179055565b6000600160a060020a0382161515620001d057600080fd5b50600160a060020a03166000908152602091909152604090205460ff1690565b828054600181600116156101000203166002900490600052602060002090601f016020900481019282601f106200023357805160ff191683800117855562000263565b8280016001018555821562000263579182015b828111156200026357825182559160200191906001019062000246565b506200027192915062000275565b5090565b6200029291905b808211156200027157600081556001016200027c565b90565b613ecf80620002a56000396000f3006080604052600436106102195763ffffffff7c010000000000000000000000000000000000000000000000000000000060003504166304edae0f811461021e57806306fdde0314610254578063080e688714610276578063095bcdb614610298578063095ea7b3146102b8578063132c6aa4146102d857806317b1b498146102f857806318160ddd146103255780631d266200146103475780631d841899146103675780632133e3b91461038757806321f8a721146103a757806323b872dd146103d45780632b26fb29146103f4578063313ce5671461042157806339509351146104435780634014d4681461046357806340c10f191461048357806342966c68146104a357806342b4bed4146104c35780634aa3bfeb146104e35780634f4ee353146104f85780635a16f5c4146105185780636d9db7ed14610538578063700651aa1461056557806370a0823114610585578063715018a6146105a557806378755295146105ba57806379cc6790146105da5780637de3b0ed146105fa57806386b00ad51461061a5780638da5cb5b1461063a5780638f32d59b1461064f57806395d89b4114610664578063983b2d56146106795780639865027514610699578063a2086dab146106ae578063a457c2d7146106ce578063a9059cbb146106ee578063aa271e1a1461070e578063c8c2eb661461072e578063d921216414610743578063dd62ed3e14610770578063f2fde38b14610790575b600080fd5b34801561022a57600080fd5b5061023e6102393660046134c0565b6107b0565b60405161024b9190613c87565b60405180910390f35b34801561026057600080fd5b506102696107c6565b60405161024b9190613c95565b34801561028257600080fd5b50610296610291366004613558565b61085d565b005b3480156102a457600080fd5b506102966102b3366004613289565b610872565b3480156102c457600080fd5b5061023e6102d3366004613259565b61088e565b3480156102e457600080fd5b506102966102f33660046132d9565b610910565b34801561030457600080fd5b506103186103133660046132bb565b61092f565b60405161024b9190613c76565b34801561033157600080fd5b5061033a610b7f565b60405161024b9190613da7565b34801561035357600080fd5b506102966103623660046132bb565b610b85565b34801561037357600080fd5b5061023e610382366004613259565b610b92565b34801561039357600080fd5b5061033a6103a23660046134c0565b610bc9565b3480156103b357600080fd5b506103c76103c23660046132bb565b610bd1565b60405161024b9190613c1e565b3480156103e057600080fd5b5061023e6103ef36600461320c565b610c0c565b34801561040057600080fd5b5061041461040f3660046132bb565b610ca9565b60405161024b9190613d96565b34801561042d57600080fd5b50610436610e3f565b60405161024b9190613db5565b34801561044f57600080fd5b5061023e61045e366004613259565b610e48565b34801561046f57600080fd5b5061029661047e3660046132bb565b610eeb565b34801561048f57600080fd5b5061023e61049e366004613259565b610f09565b3480156104af57600080fd5b506102966104be3660046132bb565b610f32565b3480156104cf57600080fd5b506102966104de366004613366565b610f3c565b3480156104ef57600080fd5b5061033a610f53565b34801561050457600080fd5b50610296610513366004613289565b610f6d565b34801561052457600080fd5b506102966105333660046132bb565b611039565b34801561054457600080fd5b506105586105533660046132bb565b611057565b60405161024b9190613c65565b34801561057157600080fd5b5061023e610580366004613289565b6112ee565b34801561059157600080fd5b5061033a6105a03660046131b4565b6112fb565b3480156105b157600080fd5b50610296611316565b3480156105c657600080fd5b5061023e6105d53660046132bb565b611373565b3480156105e657600080fd5b506102966105f5366004613259565b6113aa565b34801561060657600080fd5b506102966106153660046134df565b6113b8565b34801561062657600080fd5b5061029661063536600461341d565b6113dc565b34801561064657600080fd5b506103c76113e8565b34801561065b57600080fd5b5061023e6113f7565b34801561067057600080fd5b50610269611408565b34801561068557600080fd5b506102966106943660046131b4565b611469565b3480156106a557600080fd5b50610296611486565b3480156106ba57600080fd5b506102966106c9366004613478565b611491565b3480156106da57600080fd5b5061023e6106e9366004613259565b6114ae565b3480156106fa57600080fd5b5061023e610709366004613259565b6114f9565b34801561071a57600080fd5b5061023e6107293660046131b4565b611513565b34801561073a57600080fd5b5061033a611526565b34801561074f57600080fd5b5061076361075e3660046132bb565b611541565b60405161024b9190613c54565b34801561077c57600080fd5b5061033a61078b3660046131d2565b6117bb565b34801561079c57600080fd5b506102966107ab3660046131b4565b6117e6565b60006107bd338484611802565b90505b92915050565b60058054604080516020601f60026000196101006001881615020190951694909404938401819004810282018101909252828152606093909290918301828280156108525780601f1061082757610100808354040283529160200191610852565b820191906000526020600020905b81548152906001019060200180831161083557829003601f168201915b505050505090505b90565b61086b338686868686611a0f565b5050505050565b61087d338484611b3b565b61088933848484611bcc565b505050565b6000600160a060020a03831615156108a557600080fd5b336000818152600360209081526040808320600160a060020a03881680855292529182902085905590519091907f8c5be1e5ebec7d5bd14f71427d1e84f3dd0314c0f7b2291e5b200ac8c7c3b925906108ff908690613da7565b60405180910390a350600192915050565b61086b3386868686866020604051908101604052806000815250611c9b565b6060600060608060008060008713801561094a5750600a8713155b15156109745760405160e560020a62461bcd02815260040161096b90613cb6565b60405180910390fd5b3360009081526009602090815260408083208054825181850281018501909352808352600a6000198d010299509193909284015b82821015610aaa57838290600052602060002090600402016080604051908101604052908160008201548152602001600182018054600181600116156101000203166002900480601f016020809104026020016040519081016040528092919081815260200182805460018160011615610100020316600290048015610a6f5780601f10610a4457610100808354040283529160200191610a6f565b820191906000526020600020905b815481529060010190602001808311610a5257829003601f168201915b50505091835250506002820154602080830191909152600390920154600160a060020a031660409091015290825260019290920191016109a8565b505050509350848451111515610abf57610b75565b60408051600a808252610160820190925290816020015b610ade612f96565b815260200190600190039081610ad6579050509250600091505b600a821215610b715750336000908152600a602052604081205485900382900390811215610b3657606484511015610b3257829550610b75565b6064015b8381815181101515610b4457fe5b906020019060200201518383815181101515610b5c57fe5b60209081029091010152600190910190610af8565b8295505b5050505050919050565b60045490565b610b8f3382611e37565b50565b6000818152600d60205260408120548190600160a060020a038581169116148015610bc15750610bc183611373565b949350505050565b606491020490565b6000806000610bdf84611373565b91508115610c0157506000838152600d6020526040902054600160a060020a03165b8092505b5050919050565b600160a060020a0383166000908152600360209081526040808320338452909152812054821115610c3c57600080fd5b600160a060020a0384166000908152600360209081526040808320338452909152902054610c70908363ffffffff61202916565b600160a060020a0385166000908152600360209081526040808320338452909152902055610c9f848484611b3b565b5060019392505050565b610cb1612fc8565b60008281526001602081905260408220015411610ce35760405160e560020a62461bcd02815260040161096b90613ce6565b6000828152600160208181526040808420815160c081018352815481529381015484840152600281015484830152600381015460608501526004810180548351818602810186019094528084529495919460808701949192909184015b82821015610e20576000848152602090819020604080516060810182526003860290920180548352600180820154600160a060020a0316848601526002808301805485516101009482161594909402600019011691909104601f8101879004870283018701855280835294959294938601939192909190830182828015610e085780601f10610ddd57610100808354040283529160200191610e08565b820191906000526020600020905b815481529060010190602001808311610deb57829003601f168201915b50505050508152505081526020019060010190610d40565b505050908252506005919091015460ff16151560209091015292915050565b60075460ff1690565b6000600160a060020a0383161515610e5f57600080fd5b336000908152600360209081526040808320600160a060020a0387168452909152902054610e93908363ffffffff61204016565b336000818152600360209081526040808320600160a060020a038916808552925291829020849055905190927f8c5be1e5ebec7d5bd14f71427d1e84f3dd0314c0f7b2291e5b200ac8c7c3b925916108ff9190613da7565b610ef36113f7565b1515610efe57600080fd5b610b8f816001612059565b6000610f1433611513565b1515610f1f57600080fd5b610f2983836120eb565b50600192915050565b610b8f3382612188565b610f4b33878787878787611c9b565b505050505050565b336000908152600b6020526040812054600a905b06905090565b610f75612fc8565b6000806000610f8385610ca9565b9350859250600091505b60018460800151510382101561100057610fc386856080015184815181101515610fb357fe5b6020908102909101015151610bc9565b9050610ff0846080015183815181101515610fda57fe5b9060200190602002015160200151826000610872565b9182900391600190910190610f8d565b608084015180516110309190600019810190811061101a57fe5b9060200190602002015160200151846000610872565b50505050505050565b6110416113f7565b151561104c57600080fd5b610b8f816000612059565b60408051600a8082526101608201909252606091829160009183918391816020015b611081613001565b815260200190600190039081611079575050336000908152600c60209081526040918290206001018054835181840281018401909452808452939750600a8a026009190196509192908301828280156110fa57602002820191906000526020600020905b815481526001909101906020018083116110e5575b505050505091508151600014806111145750600182510383115b1561111e576112e5565b5060005b85600a028310156112e15781518310156112d557336000908152600c60205260408120835190919084908690811061115657fe5b6020908102919091018101518252818101929092526040908101600020815160a08101835281548152600180830154828601526002808401548386015260038401805486516000199482161561010002949094011691909104601f810187900487028301870190955284825291949293606086019391929183018282801561121f5780601f106111f45761010080835404028352916020019161121f565b820191906000526020600020905b81548152906001019060200180831161120257829003601f168201915b505050918352505060048201805460408051602060026001851615610100026000190190941693909304601f81018490048402820184019092528181529382019392918301828280156112b35780601f10611288576101008083540402835291602001916112b3565b820191906000526020600020905b81548152906001019060200180831161129657829003601f168201915b50505050508152505084828151811015156112ca57fe5b602090810290910101525b60019283019201611122565b8394505b50505050919050565b6000610bc1848484611802565b600160a060020a031660009081526002602052604090205490565b61131e6113f7565b151561132957600080fd5b60008054604051600160a060020a03909116907f8be0079c531659141344cd1fd0a4f28419497f9722a3daafe3b4186f6b6457e0908390a360008054600160a060020a0319169055565b6000818152600d6020908152604080832054600160a060020a03168352600c82528083208484529091529020544210805b50919050565b6113b4828261223b565b5050565b6113d633858585856020604051908101604052806000815250611a0f565b50505050565b610889838333846122cd565b600054600160a060020a031690565b600054600160a060020a0316331490565b60068054604080516020601f60026000196101006001881615020190951694909404938401819004810282018101909252828152606093909290918301828280156108525780601f1061082757610100808354040283529160200191610852565b61147233611513565b151561147d57600080fd5b610b8f81612563565b61148f336125ab565b565b6114996113f7565b15156114a457600080fd5b6113b482826125f3565b6000600160a060020a03831615156114c557600080fd5b336000908152600360209081526040808320600160a060020a0387168452909152902054610e93908363ffffffff61202916565b6000611506338484611b3b565b610f293384846000611bcc565b60006107c060088363ffffffff61298216565b336000908152600c6020526040812060010154600a90610f67565b336000908152600b602090815260408083208054825181850281018501909352808352606094600919600a88020194869485949293909291849084015b82821015611705578382906000526020600020906005020160a06040519081016040529081600082015481526020016001820154815260200160028201548152602001600382018054600181600116156101000203166002900480601f0160208091040260200160405190810160405280929190818152602001828054600181600116156101000203166002900480156116595780601f1061162e57610100808354040283529160200191611659565b820191906000526020600020905b81548152906001019060200180831161163c57829003601f168201915b505050918352505060048201805460408051602060026001851615610100026000190190941693909304601f81018490048402820184019092528181529382019392918301828280156116ed5780601f106116c2576101008083540402835291602001916116ed565b820191906000526020600020905b8154815290600101906020018083116116d057829003601f168201915b5050505050815250508152602001906001019061157e565b50505050925082516000148061171e5750600183510384115b15611728576112e5565b60408051600a808252610160820190925290816020015b611747613001565b81526020019060019003908161173f579050509150600090505b85600a028410156117b25782518410156117a657828481518110151561178357fe5b90602001906020020151828281518110151561179b57fe5b602090810290910101525b60019384019301611761565b50949350505050565b600160a060020a03918216600090815260036020908152604080832093909416825291909152205490565b6117ee6113f7565b15156117f957600080fd5b610b8f816129b9565b60008061180d613001565b600091505b600160a060020a0386166000908152600b6020526040902054821015611a0157600160a060020a0386166000908152600b6020526040902080548390811061185657fe5b906000526020600020906005020160a06040519081016040529081600082015481526020016001820154815260200160028201548152602001600382018054600181600116156101000203166002900480601f0160208091040260200160405190810160405280929190818152602001828054600181600116156101000203166002900480156119275780601f106118fc57610100808354040283529160200191611927565b820191906000526020600020905b81548152906001019060200180831161190a57829003601f168201915b505050918352505060048201805460408051602060026001851615610100026000190190941693909304601f81018490048402820184019092528181529382019392918301828280156119bb5780601f10611990576101008083540402835291602001916119bb565b820191906000526020600020905b81548152906001019060200180831161199e57829003601f168201915b50505050508152505090508481602001511480156119dc5750838160400151145b80156119e85750805142105b156119f65760019250611a06565b600190910190611812565b600092505b50509392505050565b611a17612fc8565b611a2085610ca9565b60408101519091508414611a495760405160e560020a62461bcd02815260040161096b90613d56565b611a54878787611802565b15611a745760405160e560020a62461bcd02815260040161096b90613d76565b6000841115611a8857611a88308587610872565b600160a060020a0387166000908152600b60209081526040808320815160a081018352606080870151420182528185018c81529382018b8152908201898152608083018990528354600181810180875595895297879020845160059092020190815594519685019690965551600284015593518051919493611b1292600385019290910190613031565b5060808201518051611b2e916004840191602090910190613031565b5050505050505050505050565b611b8081600019026040805190810160405280600481526020017f73656e640000000000000000000000000000000000000000000000000000000081525085856122cd565b611bc1816040805190810160405280600781526020017f726563656976650000000000000000000000000000000000000000000000000081525084866122cd565b610889838383612a29565b6000611bd784612b3a565b15611c5b57506040517f4f4ee3530000000000000000000000000000000000000000000000000000000081528390600160a060020a03821690634f4ee35390611c2890889087908790600401613c2c565b600060405180830381600087803b158015611c4257600080fd5b505af1158015611c56573d6000803e3d6000fd5b505050505b83600160a060020a031685600160a060020a0316600080516020613e7683398151915285604051611c8c9190613da7565b60405180910390a35050505050565b611ca6878686611802565b1515611cc75760405160e560020a62461bcd02815260040161096b90613cf6565b6000868152600d6020526040902054600160a060020a031615801590611cf35750611cf186611373565b155b15611d1a576000868152600d6020526040902054611d1a90600160a060020a031687611e37565b6000868152600d6020526040902054600160a060020a031615611d525760405160e560020a62461bcd02815260040161096b90613d86565b6000868152600d602090815260408083208054600160a060020a031916600160a060020a038c16908117909155815160a0810183528781528084018a81528184018a81526060830189815260808401899052938752600c86528487208d8852865293909520815181559451600186015591516002850155518051919392611de192600385019290910190613031565b5060808201518051611dfd916004840191602090910190613031565b505050600160a060020a039096166000908152600c6020908152604082206001908101805491820181558352912001949094555050505050565b6000818152600d60205260408120548190600160a060020a03858116911614611e755760405160e560020a62461bcd02815260040161096b90613d26565b6000838152600d602090815260408083208054600160a060020a0319169055600160a060020a0387168352600c82528083208684529091528120818155600181018290556002810182905590611ece60038301826130af565b611edc6004830160006130af565b505060009150600090505b600160a060020a0384166000908152600c602052604090206001015460001901811015611fc6578115611f8457600160a060020a0384166000908152600c602052604090206001908101805490918301908110611f4057fe5b6000918252602080832090910154600160a060020a0387168352600c9091526040909120600101805483908110611f7357fe5b600091825260209091200155611fbe565b600160a060020a0384166000908152600c60205260409020600101805484919083908110611fae57fe5b6000918252602090912001541491505b600101611ee7565b600160a060020a0384166000908152600c6020526040902060010180546000198101908110611ff157fe5b60009182526020808320909101829055600160a060020a0386168252600c90526040902060010180549061086b9060001983016130f3565b6000808383111561203957600080fd5b5050900390565b60008282018381101561205257600080fd5b9392505050565b60008281526001602081905260409091200154151561208d5760405160e560020a62461bcd02815260040161096b90613d06565b60008281526001602052604090206005015460ff16151581151514156120c85760405160e560020a62461bcd02815260040161096b90613d66565b600091825260016020526040909120600501805460ff1916911515919091179055565b600160a060020a038216151561210057600080fd5b600454612113908263ffffffff61204016565b600455600160a060020a03821660009081526002602052604090205461213f908263ffffffff61204016565b600160a060020a038316600081815260026020526040808220939093559151909190600080516020613e768339815191529061217c908590613da7565b60405180910390a35050565b600160a060020a038216151561219d57600080fd5b600160a060020a0382166000908152600260205260409020548111156121c257600080fd5b6004546121d5908263ffffffff61202916565b600455600160a060020a038216600090815260026020526040902054612201908263ffffffff61202916565b600160a060020a038316600081815260026020526040808220939093559151600080516020613e768339815191529061217c908590613da7565b600160a060020a038216600090815260036020908152604080832033845290915290205481111561226b57600080fd5b600160a060020a038216600090815260036020908152604080832033845290915290205461229f908263ffffffff61202916565b600160a060020a03831660009081526003602090815260408083203384529091529020556113b48282612188565b600160a060020a038216600090815260096020526040902054606411156123b957600160a060020a0380831660009081526009602090815260408083208151608081018352898152808401898152429382019390935294861660608601528054600181810180845592865294849020865160049092020190815591518051919594929361235f93850192910190613031565b50604082810151600283015560609092015160039091018054600160a060020a031916600160a060020a03928316179055841660009081526009602090815282822054600a909152919020600019919091019055506113d6565b600160a060020a0382166000908152600a60205260409020546063141561249a57600160a060020a038083166000818152600a60209081526040808320839055805160808101825289815280830189905242818301529486166060860152928252600990529081208054909190811061242e57fe5b9060005260206000209060040201600082015181600001556020820151816001019080519060200190612462929190613031565b506040820151600282015560609091015160039091018054600160a060020a031916600160a060020a039092169190911790556113d6565b600160a060020a038083166000818152600a6020818152604080842080546001019081905581516080810183528b81528084018b905242818401529688166060880152948452600982529092209152805490919081106124f657fe5b906000526020600020906004020160008201518160000155602082015181600101908051906020019061252a929190613031565b506040820151600282015560609091015160039091018054600160a060020a031916600160a060020a0390921691909117905550505050565b61257460088263ffffffff612b4216565b604051600160a060020a038216907f6ae172837ea30b801fbfcdd4108aa1d5bf8ff775444fd70256b44e6bf3dfc3f690600090a250565b6125bc60088263ffffffff612b9016565b604051600160a060020a038216907fe94479a9f7e1952cc78f2d6baab678adc1b772d936c6583def489e524cb6669290600090a250565b6125fb613117565b606060008060008060606000806060600160008d81526020019081526020016000206001015460001415156126455760405160e560020a62461bcd02815260040161096b90613d46565b61264e8b612bdc565b99506126598a612c2a565b985061267c89600081518110151561266d57fe5b90602001906020020151612cf4565b97504288116126a05760405160e560020a62461bcd02815260040161096b90613d16565b6126b289600181518110151561266d57fe5b96506126c689600281518110151561266d57fe5b95506126da89600381518110151561266d57fe5b94506126fd8960048151811015156126ee57fe5b90602001906020020151612c2a565b935083519250600091505b8282101561281e5761272184838151811015156126ee57fe5b90506001600088815260200190815260200160002060040160606040519081016040528061275784600081518110151561266d57fe5b815260200161277d84600181518110151561276e57fe5b90602001906020020151612d2a565b600160a060020a031681526020016127ac84600281518110151561279d57fe5b90602001906020020151612d5b565b90528154600180820180855560009485526020948590208451600390940201928355838501519183018054600160a060020a031916600160a060020a039093169290921790915560408301518051919461280e92600285019290910190613031565b5050600190930192506127089050565b61294060016000898152602001908152602001600020600401805480602002602001604051908101604052809291908181526020016000905b82821015612937576000848152602090819020604080516060810182526003860290920180548352600180820154600160a060020a0316848601526002808301805485516101009482161594909402600019011691909104601f810187900487028301870185528083529495929493860193919290919083018282801561291f5780601f106128f45761010080835404028352916020019161291f565b820191906000526020600020905b81548152906001019060200180831161290257829003601f168201915b50505050508152505081526020019060010190612857565b50505050612dc4565b50505060008481526001602081905260409091209586558581019490945550600284019190915560038301556005909101805460ff1916909117905550505050565b6000600160a060020a038216151561299957600080fd5b50600160a060020a03166000908152602091909152604090205460ff1690565b600160a060020a03811615156129ce57600080fd5b60008054604051600160a060020a03808516939216917f8be0079c531659141344cd1fd0a4f28419497f9722a3daafe3b4186f6b6457e091a360008054600160a060020a031916600160a060020a0392909216919091179055565b600160a060020a038316600090815260026020526040902054811115612a645760405160e560020a62461bcd02815260040161096b90613d36565b600160a060020a0382161515612a8f5760405160e560020a62461bcd02815260040161096b90613ca6565b600160a060020a038316600090815260026020526040902054612ab8908263ffffffff61202916565b600160a060020a038085166000908152600260205260408082209390935590841681522054612aed908263ffffffff61204016565b600160a060020a038084166000818152600260205260409081902093909355915190851690600080516020613e7683398151915290612b2d908590613da7565b60405180910390a3505050565b6000903b1190565b600160a060020a0381161515612b5757600080fd5b612b618282612982565b15612b6b57600080fd5b600160a060020a0316600090815260209190915260409020805460ff19166001179055565b600160a060020a0381161515612ba557600080fd5b612baf8282612982565b1515612bba57600080fd5b600160a060020a0316600090815260209190915260409020805460ff19169055565b612be4613117565b6000825160001415612c0b57604080518082019091526000808252602082015291506113a4565b5050604080518082019091528151815260209182019181019190915290565b6060600080600080612c3b86612de8565b1515612c4657600080fd5b612c4f86612e0b565b935083604051908082528060200260200182016040528015612c8b57816020015b612c78613117565b815260200190600190039081612c705790505b509450612c9b8660200151612e5b565b8660200151019250600090505b838110156112e557612cb983612ebe565b91506040805190810160405280838152602001848152508582815181101515612cde57fe5b6020908102909101015291810191600101612ca8565b6000806000806000612d098660200151612e5b565b86516020978801518201519190039096036101000a90950495945050505050565b805160009060151015612d525760405160e560020a62461bcd02815260040161096b90613cd6565b6107c082612cf4565b606060008060606000612d718660200151612e5b565b9350838660000151039250826040519080825280601f01601f191660200182016040528015612daa578160200160208202803883390190505b5091508160200190506117b2848760200151018285612f4f565b8051600010610b8f5760405160e560020a62461bcd02815260040161096b90613cc6565b6020810151805160009190821a9060c060ff83161015610c9f5760009250610c05565b60008060008060009250612e228560200151612e5b565b6020860151865191810193500190505b80821015612e5257612e4382612ebe565b60019093019290910190612e32565b50909392505050565b8051600090811a6080811015612e7457600091506113a4565b60b8811080612e8f575060c08110801590612e8f575060f881105b15612e9d57600191506113a4565b60c0811015612eb25760b519810191506113a4565b60f519810191506113a4565b8051600090811a6080811015612ed757600191506113a4565b60b8811015612eec57607e19810191506113a4565b60c0811015612f195760b78103600184019350806020036101000a845104600182018101935050506113a4565b60f8811015612f2e5760be19810191506113a4565b60019290920151602083900360f7016101000a900490910160f51901919050565b60005b60208210612f74578351835260209384019390920191601f1990910190612f52565b50915181516020939093036101000a6000190180199091169216919091179052565b6080604051908101604052806000815260200160608152602001600081526020016000600160a060020a031681525090565b60c06040519081016040528060008152602001600081526020016000815260200160008152602001606081526020016000151581525090565b60a06040519081016040528060008152602001600081526020016000815260200160608152602001606081525090565b828054600181600116156101000203166002900490600052602060002090601f016020900481019282601f1061307257805160ff191683800117855561309f565b8280016001018555821561309f579182015b8281111561309f578251825591602001919060010190613084565b506130ab92915061312e565b5090565b50805460018160011615610100020316600290046000825580601f106130d55750610b8f565b601f016020900490600052602060002090810190610b8f919061312e565b8154818355818111156108895760008381526020902061088991810190830161312e565b604080518082019091526000808252602082015290565b61085a91905b808211156130ab5760008155600101613134565b60006107bd8235613e1c565b60006107bd823561085a565b6000601f8201831361317157600080fd5b813561318461317f82613dea565b613dc3565b915080825260208301602083018583830111156131a057600080fd5b6131ab838284613e33565b50505092915050565b6000602082840312156131c657600080fd5b6000610bc18484613148565b600080604083850312156131e557600080fd5b60006131f18585613148565b925050602061320285828601613148565b9150509250929050565b60008060006060848603121561322157600080fd5b600061322d8686613148565b935050602061323e86828701613148565b925050604061324f86828701613154565b9150509250925092565b6000806040838503121561326c57600080fd5b60006132788585613148565b925050602061320285828601613154565b60008060006060848603121561329e57600080fd5b60006132aa8686613148565b935050602061323e86828701613154565b6000602082840312156132cd57600080fd5b6000610bc18484613154565b600080600080600060a086880312156132f157600080fd5b60006132fd8888613154565b955050602061330e88828901613154565b945050604061331f88828901613154565b935050606061333088828901613154565b925050608086013567ffffffffffffffff81111561334d57600080fd5b61335988828901613160565b9150509295509295909350565b60008060008060008060c0878903121561337f57600080fd5b600061338b8989613154565b965050602061339c89828a01613154565b95505060406133ad89828a01613154565b94505060606133be89828a01613154565b935050608087013567ffffffffffffffff8111156133db57600080fd5b6133e789828a01613160565b92505060a087013567ffffffffffffffff81111561340457600080fd5b61341089828a01613160565b9150509295509295509295565b60008060006060848603121561343257600080fd5b600061343e8686613154565b935050602084013567ffffffffffffffff81111561345b57600080fd5b61346786828701613160565b925050604061324f86828701613148565b6000806040838503121561348b57600080fd5b60006134978585613154565b925050602083013567ffffffffffffffff8111156134b457600080fd5b61320285828601613160565b600080604083850312156134d357600080fd5b60006132788585613154565b600080600080608085870312156134f557600080fd5b60006135018787613154565b945050602061351287828801613154565b935050604061352387828801613154565b925050606085013567ffffffffffffffff81111561354057600080fd5b61354c87828801613160565b91505092959194509250565b600080600080600060a0868803121561357057600080fd5b600061357c8888613154565b955050602061358d88828901613154565b945050604061359e88828901613154565b935050606086013567ffffffffffffffff8111156135bb57600080fd5b61333088828901613160565b6135d081613e1c565b82525050565b60006135e182613e18565b808452602084019350836020820285016135fa85613e12565b60005b84811015613631578383038852613615838351613a8b565b925061362082613e12565b6020989098019791506001016135fd565b50909695505050505050565b600061364882613e18565b8084526020840193508360208202850161366185613e12565b60005b8481101561363157838303885261367c838351613b00565b925061368782613e12565b602098909801979150600101613664565b60006136a382613e18565b808452602084019350836020820285016136bc85613e12565b60005b848110156136315783830388526136d7838351613a8b565b92506136e282613e12565b6020989098019791506001016136bf565b60006136fe82613e18565b8084526020840193508360208202850161371785613e12565b60005b84811015613631578383038852613732838351613b3f565b925061373d82613e12565b60209890980197915060010161371a565b6135d081613e28565b6135d08161085a565b600061376b82613e18565b80845261377f816020860160208601613e3f565b61378881613e6b565b9093016020019392505050565b600781527f6572726f725f3200000000000000000000000000000000000000000000000000602082015260400190565b600d81527f496e76616c696420706167652e00000000000000000000000000000000000000602082015260400190565b600981527f6e6f742072756c65730000000000000000000000000000000000000000000000602082015260400190565b603a81527f496e76616c696420524c504974656d2e2041646472657373657320617265206560208201527f6e636f64656420696e203230206279746573206f72206c657373000000000000604082015260600190565b600981527f6e6f745f65786973740000000000000000000000000000000000000000000000602082015260400190565b600b81527f6e6f7420616c6c6f776564000000000000000000000000000000000000000000602082015260400190565b600981527f6e6f742065786973740000000000000000000000000000000000000000000000602082015260400190565b600781527f6578706972656400000000000000000000000000000000000000000000000000602082015260400190565b600a81527f73616d65206f776e657200000000000000000000000000000000000000000000602082015260400190565b600781527f6572726f725f3100000000000000000000000000000000000000000000000000602082015260400190565b600581527f6578697374000000000000000000000000000000000000000000000000000000602082015260400190565b601081527f696e636f727265637420616d6f756e7400000000000000000000000000000000602082015260400190565b600b81527f73616d6520737461747573000000000000000000000000000000000000000000602082015260400190565b600a81527f6475706c69636174656400000000000000000000000000000000000000000000602082015260400190565b600f81527f6475706c69636174656420686173680000000000000000000000000000000000602082015260400190565b805160009060a0840190613a9f8582613757565b506020830151613ab26020860182613757565b506040830151613ac56040860182613757565b5060608301518482036060860152613add8282613760565b91505060808301518482036080860152613af78282613760565b95945050505050565b80516000906060840190613b148582613757565b506020830151613b2760208601826135c7565b5060408301518482036040860152613af78282613760565b80516000906080840190613b538582613757565b5060208301518482036020860152613b6b8282613760565b9150506040830151613b806040860182613757565b506060830151613b9360608601826135c7565b509392505050565b805160009060c0840190613baf8582613757565b506020830151613bc26020860182613757565b506040830151613bd56040860182613757565b506060830151613be86060860182613757565b5060808301518482036080860152613c00828261363d565b91505060a0830151613b9360a086018261374e565b6135d081613e2d565b602081016107c082846135c7565b60608101613c3a82866135c7565b613c476020830185613757565b610bc16040830184613757565b602080825281016107bd81846135d6565b602080825281016107bd8184613698565b602080825281016107bd81846136f3565b602081016107c0828461374e565b602080825281016107bd8184613760565b602080825281016107c081613795565b602080825281016107c0816137c5565b602080825281016107c0816137f5565b602080825281016107c081613825565b602080825281016107c08161387b565b602080825281016107c0816138ab565b602080825281016107c0816138db565b602080825281016107c08161390b565b602080825281016107c08161393b565b602080825281016107c08161396b565b602080825281016107c08161399b565b602080825281016107c0816139cb565b602080825281016107c0816139fb565b602080825281016107c081613a2b565b602080825281016107c081613a5b565b602080825281016107bd8184613b9b565b602081016107c08284613757565b602081016107c08284613c15565b60405181810167ffffffffffffffff81118282101715613de257600080fd5b604052919050565b600067ffffffffffffffff821115613e0157600080fd5b506020601f91909101601f19160190565b60200190565b5190565b600160a060020a031690565b151590565b60ff1690565b82818337506000910152565b60005b83811015613e5a578181015183820152602001613e42565b838111156113d65750506000910152565b601f01601f1916905600ddf252ad1be2c89b69c2b068fc378daa952ba7f163c4a11628f55a4df523b3efa265627a7a72305820184918ba6548cb38373f42990d4c9668e9a6213673fad92c0b9ceae7fe3349a36c6578706572696d656e74616cf50037",
  "source": "pragma solidity 0.4.24;\npragma experimental ABIEncoderV2;\n\nimport \"./Assets.sol\";\n\ncontract Devices  is Assets {\n\n  struct UserDevices {   \n    mapping (bytes32 => Device) devices;\n    bytes32[] deviceArray;\n  } \n\n  struct Device {   \n    uint256 expirationDate;\n    uint256 assetId;\n    uint256 schemaId;\n    string dappId;\n    string description;\n  }\n\n  uint256 constant private PAGE_SIZE = 10;\n\n  mapping (address => UserDevices) private userDevices_;\n\n  mapping (bytes32 => address) private deviceHashes_;\n    \n  function isAllowed(bytes32 _deviceHash) public view returns (bool) {\n    bool allowed = userDevices_[deviceHashes_[_deviceHash]].devices[_deviceHash].expirationDate > now ;\n    return allowed;\n  }\n\n  function isAllowedForAddress(address _target, bytes32 _deviceHash) public view returns (bool) {\n    bool allowed =  (deviceHashes_[_deviceHash] == _target) && (isAllowed(_deviceHash));\n    return allowed;\n  }\n   \n  function getDevicesPageCount() public view returns (uint256) {\n    return userDevices_[msg.sender].deviceArray.length % PAGE_SIZE;\n  }\n\n  function getDevices(uint256 _page) public view returns (Device[] memory) {\n    Device[] memory devicesPage = new Device[](PAGE_SIZE); \n    uint256 transferIndex = PAGE_SIZE * _page - PAGE_SIZE;\n    bytes32[] memory devices = userDevices_[msg.sender].deviceArray;\n\n    if (devices.length == 0 || transferIndex > devices.length - 1) {\n      return;\n    }\n   \n    uint256 returnCounter = 0;\n\n    for (transferIndex; transferIndex < PAGE_SIZE * _page; transferIndex++) {\n      if (transferIndex < devices.length) {\n        devicesPage[returnCounter] = userDevices_[msg.sender].devices[devices[transferIndex]];\n      }\n      returnCounter++;\n    }\n    return devicesPage;\n  }\n\n  function getAddress(bytes32 _deviceHash) public view returns (address) {\n    bool allowed = isAllowed(_deviceHash);\n    address ownerAddress;\n    if (allowed) {\n      ownerAddress = deviceHashes_[_deviceHash];\n    } \n    return ownerAddress;\n  }\n\n  function handshake(bytes32 _deviceHash, uint256 _assetId, uint256 _schemaId, uint256 _lifeTime, string _dappId) public {\n    _handshake(msg.sender, _deviceHash, _assetId, _schemaId, _lifeTime, _dappId, \"\");\n  }\n\n  function handshake(bytes32 _deviceHash, uint256 _assetId, uint256 _schemaId, uint256 _lifeTime, string _dappId, string _description) public {\n    _handshake(msg.sender, _deviceHash, _assetId, _schemaId, _lifeTime, _dappId, _description);\n  }\n\n  function removeDevice(bytes32 _deviceHash) public {\n    _removeDevice(msg.sender, _deviceHash);\n  }\n\n    \n  function _handshake(address _owner, bytes32 _deviceHash, uint256 _assetId, uint256 _schemaId, uint256 _lifeTime, string _dappId, string _description) internal {\n\n    require(Assets._checkOwnership(_owner, _assetId, _schemaId),\"not allowed\");\n\n    if ((deviceHashes_[_deviceHash] != address(0)) && (!isAllowed(_deviceHash))) {\n      _removeDevice(deviceHashes_[_deviceHash], _deviceHash);\n    }\n\n    require(deviceHashes_[_deviceHash] == address(0), \"duplicated hash\");\n    deviceHashes_[_deviceHash] = _owner; \n    userDevices_[_owner].devices[_deviceHash] =  Device(_lifeTime, _assetId, _schemaId, _dappId, _description);\n    userDevices_[_owner].deviceArray.push(_deviceHash);\n  }\n\n  function _removeDevice(address _owner, bytes32 _deviceHash) internal {\n    require(deviceHashes_[_deviceHash] == _owner, \"same owner\");\n    delete deviceHashes_[_deviceHash];\n    delete userDevices_[_owner].devices[_deviceHash];\n    bool found=false;\n    for (uint i = 0; i < userDevices_[_owner].deviceArray.length-1;i++){\n      if(found){\n        userDevices_[_owner].deviceArray[i] = userDevices_[_owner].deviceArray[i+1];\n      } else {\n        found = userDevices_[_owner].deviceArray[i] == _deviceHash;\n      }\n    }\n    delete userDevices_[_owner].deviceArray[userDevices_[_owner].deviceArray.length-1];\n    userDevices_[_owner].deviceArray.length--;\n  }\n\n}",
  "sourcePath": "/Users/jordiescuderosubirana/ws/bloomen-wallet-truffle/contracts/bloomen/Devices.sol",
  "compiler": {
    "name": "solc",
    "version": "0.4.24+commit.e67f0147.Emscripten.clang"
  },
  "schemaVersion": "2.0.1",
  "updatedAt": "2019-01-16T19:31:10.910Z"
}