{
  "contractName": "Devices",
  "abi": [
    {
      "constant": true,
      "inputs": [
        {
          "name": "_assetId",
          "type": "uint256"
        },
        {
          "name": "_schemaId",
          "type": "uint256"
        }
      ],
      "name": "checkOwnership",
      "outputs": [
        {
          "name": "",
          "type": "bool"
        }
      ],
      "payable": false,
      "stateMutability": "view",
      "type": "function"
    },
    {
      "constant": true,
      "inputs": [],
      "name": "name",
      "outputs": [
        {
          "name": "",
          "type": "string"
        }
      ],
      "payable": false,
      "stateMutability": "view",
      "type": "function"
    },
    {
      "constant": false,
      "inputs": [
        {
          "name": "_to",
          "type": "address"
        },
        {
          "name": "_value",
          "type": "uint256"
        },
        {
          "name": "_data",
          "type": "uint256"
        }
      ],
      "name": "transfer",
      "outputs": [],
      "payable": false,
      "stateMutability": "nonpayable",
      "type": "function"
    },
    {
      "constant": false,
      "inputs": [
        {
          "name": "spender",
          "type": "address"
        },
        {
          "name": "value",
          "type": "uint256"
        }
      ],
      "name": "approve",
      "outputs": [
        {
          "name": "",
          "type": "bool"
        }
      ],
      "payable": false,
      "stateMutability": "nonpayable",
      "type": "function"
    },
    {
      "constant": true,
      "inputs": [
        {
          "name": "_page",
          "type": "int256"
        }
      ],
      "name": "getMovements",
      "outputs": [
        {
          "components": [
            {
              "name": "amount",
              "type": "int256"
            },
            {
              "name": "description",
              "type": "string"
            },
            {
              "name": "date",
              "type": "uint256"
            },
            {
              "name": "to",
              "type": "address"
            }
          ],
          "name": "",
          "type": "tuple[]"
        }
      ],
      "payable": false,
      "stateMutability": "view",
      "type": "function"
    },
    {
      "constant": true,
      "inputs": [],
      "name": "totalSupply",
      "outputs": [
        {
          "name": "",
          "type": "uint256"
        }
      ],
      "payable": false,
      "stateMutability": "view",
      "type": "function"
    },
    {
      "constant": true,
      "inputs": [
        {
          "name": "theNumber",
          "type": "uint256"
        },
        {
          "name": "percentage",
          "type": "uint256"
        }
      ],
      "name": "calculatePercentage",
      "outputs": [
        {
          "name": "",
          "type": "uint256"
        }
      ],
      "payable": false,
      "stateMutability": "view",
      "type": "function"
    },
    {
      "constant": false,
      "inputs": [
        {
          "name": "from",
          "type": "address"
        },
        {
          "name": "to",
          "type": "address"
        },
        {
          "name": "value",
          "type": "uint256"
        }
      ],
      "name": "transferFrom",
      "outputs": [
        {
          "name": "",
          "type": "bool"
        }
      ],
      "payable": false,
      "stateMutability": "nonpayable",
      "type": "function"
    },
    {
      "constant": true,
      "inputs": [
        {
          "name": "_schemaId",
          "type": "uint256"
        }
      ],
      "name": "getSchema",
      "outputs": [
        {
          "components": [
            {
              "name": "expirationDate",
              "type": "uint256"
            },
            {
              "name": "schemaId",
              "type": "uint256"
            },
            {
              "name": "amount",
              "type": "uint256"
            },
            {
              "name": "assetLifeTime",
              "type": "uint256"
            },
            {
              "components": [
                {
                  "name": "percent",
                  "type": "uint256"
                },
                {
                  "name": "receptor",
                  "type": "address"
                },
                {
                  "name": "description",
                  "type": "string"
                }
              ],
              "name": "clearingHouseRules",
              "type": "tuple[]"
            },
            {
              "name": "valid",
              "type": "bool"
            }
          ],
          "name": "",
          "type": "tuple"
        }
      ],
      "payable": false,
      "stateMutability": "view",
      "type": "function"
    },
    {
      "constant": true,
      "inputs": [],
      "name": "decimals",
      "outputs": [
        {
          "name": "",
          "type": "uint8"
        }
      ],
      "payable": false,
      "stateMutability": "view",
      "type": "function"
    },
    {
      "constant": false,
      "inputs": [
        {
          "name": "spender",
          "type": "address"
        },
        {
          "name": "addedValue",
          "type": "uint256"
        }
      ],
      "name": "increaseAllowance",
      "outputs": [
        {
          "name": "",
          "type": "bool"
        }
      ],
      "payable": false,
      "stateMutability": "nonpayable",
      "type": "function"
    },
    {
      "constant": false,
      "inputs": [
        {
          "name": "_schemaId",
          "type": "uint256"
        }
      ],
      "name": "validateSchema",
      "outputs": [],
      "payable": false,
      "stateMutability": "nonpayable",
      "type": "function"
    },
    {
      "constant": false,
      "inputs": [
        {
          "name": "to",
          "type": "address"
        },
        {
          "name": "value",
          "type": "uint256"
        }
      ],
      "name": "mint",
      "outputs": [
        {
          "name": "",
          "type": "bool"
        }
      ],
      "payable": false,
      "stateMutability": "nonpayable",
      "type": "function"
    },
    {
      "constant": false,
      "inputs": [
        {
          "name": "value",
          "type": "uint256"
        }
      ],
      "name": "burn",
      "outputs": [],
      "payable": false,
      "stateMutability": "nonpayable",
      "type": "function"
    },
    {
      "constant": false,
      "inputs": [
        {
          "name": "_from",
          "type": "address"
        },
        {
          "name": "_value",
          "type": "uint256"
        },
        {
          "name": "_schemaId",
          "type": "uint256"
        }
      ],
      "name": "tokenFallback",
      "outputs": [],
      "payable": false,
      "stateMutability": "nonpayable",
      "type": "function"
    },
    {
      "constant": false,
      "inputs": [
        {
          "name": "_schemaId",
          "type": "uint256"
        }
      ],
      "name": "invalidateSchema",
      "outputs": [],
      "payable": false,
      "stateMutability": "nonpayable",
      "type": "function"
    },
    {
      "constant": true,
      "inputs": [
        {
          "name": "owner",
          "type": "address"
        }
      ],
      "name": "balanceOf",
      "outputs": [
        {
          "name": "",
          "type": "uint256"
        }
      ],
      "payable": false,
      "stateMutability": "view",
      "type": "function"
    },
    {
      "constant": false,
      "inputs": [],
      "name": "renounceOwnership",
      "outputs": [],
      "payable": false,
      "stateMutability": "nonpayable",
      "type": "function"
    },
    {
      "constant": false,
      "inputs": [
        {
          "name": "from",
          "type": "address"
        },
        {
          "name": "value",
          "type": "uint256"
        }
      ],
      "name": "burnFrom",
      "outputs": [],
      "payable": false,
      "stateMutability": "nonpayable",
      "type": "function"
    },
    {
      "constant": false,
      "inputs": [
        {
          "name": "_assetId",
          "type": "uint256"
        },
        {
          "name": "_schemaId",
          "type": "uint256"
        },
        {
          "name": "_amount",
          "type": "uint256"
        },
        {
          "name": "_dappId",
          "type": "string"
        }
      ],
      "name": "buy",
      "outputs": [],
      "payable": false,
      "stateMutability": "nonpayable",
      "type": "function"
    },
    {
      "constant": false,
      "inputs": [
        {
          "name": "_amount",
          "type": "int256"
        },
        {
          "name": "_description",
          "type": "string"
        },
        {
          "name": "_to",
          "type": "address"
        }
      ],
      "name": "addMovement",
      "outputs": [],
      "payable": false,
      "stateMutability": "nonpayable",
      "type": "function"
    },
    {
      "constant": true,
      "inputs": [],
      "name": "owner",
      "outputs": [
        {
          "name": "",
          "type": "address"
        }
      ],
      "payable": false,
      "stateMutability": "view",
      "type": "function"
    },
    {
      "constant": true,
      "inputs": [],
      "name": "isOwner",
      "outputs": [
        {
          "name": "",
          "type": "bool"
        }
      ],
      "payable": false,
      "stateMutability": "view",
      "type": "function"
    },
    {
      "constant": true,
      "inputs": [],
      "name": "symbol",
      "outputs": [
        {
          "name": "",
          "type": "string"
        }
      ],
      "payable": false,
      "stateMutability": "view",
      "type": "function"
    },
    {
      "constant": false,
      "inputs": [
        {
          "name": "account",
          "type": "address"
        }
      ],
      "name": "addMinter",
      "outputs": [],
      "payable": false,
      "stateMutability": "nonpayable",
      "type": "function"
    },
    {
      "constant": false,
      "inputs": [],
      "name": "renounceMinter",
      "outputs": [],
      "payable": false,
      "stateMutability": "nonpayable",
      "type": "function"
    },
    {
      "constant": false,
      "inputs": [
        {
          "name": "_schemaId",
          "type": "uint256"
        },
        {
          "name": "_data",
          "type": "bytes"
        }
      ],
      "name": "createSchema",
      "outputs": [],
      "payable": false,
      "stateMutability": "nonpayable",
      "type": "function"
    },
    {
      "constant": false,
      "inputs": [
        {
          "name": "spender",
          "type": "address"
        },
        {
          "name": "subtractedValue",
          "type": "uint256"
        }
      ],
      "name": "decreaseAllowance",
      "outputs": [
        {
          "name": "",
          "type": "bool"
        }
      ],
      "payable": false,
      "stateMutability": "nonpayable",
      "type": "function"
    },
    {
      "constant": false,
      "inputs": [
        {
          "name": "_to",
          "type": "address"
        },
        {
          "name": "_value",
          "type": "uint256"
        }
      ],
      "name": "transfer",
      "outputs": [
        {
          "name": "",
          "type": "bool"
        }
      ],
      "payable": false,
      "stateMutability": "nonpayable",
      "type": "function"
    },
    {
      "constant": true,
      "inputs": [
        {
          "name": "account",
          "type": "address"
        }
      ],
      "name": "isMinter",
      "outputs": [
        {
          "name": "",
          "type": "bool"
        }
      ],
      "payable": false,
      "stateMutability": "view",
      "type": "function"
    },
    {
      "constant": true,
      "inputs": [
        {
          "name": "_page",
          "type": "uint256"
        }
      ],
      "name": "getAssets",
      "outputs": [
        {
          "components": [
            {
              "name": "expirationDate",
              "type": "uint256"
            },
            {
              "name": "assetId",
              "type": "uint256"
            },
            {
              "name": "schemaId",
              "type": "uint256"
            },
            {
              "name": "dappId",
              "type": "string"
            }
          ],
          "name": "",
          "type": "tuple[]"
        }
      ],
      "payable": false,
      "stateMutability": "view",
      "type": "function"
    },
    {
      "constant": true,
      "inputs": [
        {
          "name": "owner",
          "type": "address"
        },
        {
          "name": "spender",
          "type": "address"
        }
      ],
      "name": "allowance",
      "outputs": [
        {
          "name": "",
          "type": "uint256"
        }
      ],
      "payable": false,
      "stateMutability": "view",
      "type": "function"
    },
    {
      "constant": false,
      "inputs": [
        {
          "name": "newOwner",
          "type": "address"
        }
      ],
      "name": "transferOwnership",
      "outputs": [],
      "payable": false,
      "stateMutability": "nonpayable",
      "type": "function"
    },
    {
      "anonymous": false,
      "inputs": [
        {
          "indexed": true,
          "name": "account",
          "type": "address"
        }
      ],
      "name": "MinterAdded",
      "type": "event"
    },
    {
      "anonymous": false,
      "inputs": [
        {
          "indexed": true,
          "name": "account",
          "type": "address"
        }
      ],
      "name": "MinterRemoved",
      "type": "event"
    },
    {
      "anonymous": false,
      "inputs": [
        {
          "indexed": true,
          "name": "from",
          "type": "address"
        },
        {
          "indexed": true,
          "name": "to",
          "type": "address"
        },
        {
          "indexed": false,
          "name": "value",
          "type": "uint256"
        }
      ],
      "name": "Transfer",
      "type": "event"
    },
    {
      "anonymous": false,
      "inputs": [
        {
          "indexed": true,
          "name": "owner",
          "type": "address"
        },
        {
          "indexed": true,
          "name": "spender",
          "type": "address"
        },
        {
          "indexed": false,
          "name": "value",
          "type": "uint256"
        }
      ],
      "name": "Approval",
      "type": "event"
    },
    {
      "anonymous": false,
      "inputs": [
        {
          "indexed": true,
          "name": "previousOwner",
          "type": "address"
        },
        {
          "indexed": true,
          "name": "newOwner",
          "type": "address"
        }
      ],
      "name": "OwnershipTransferred",
      "type": "event"
    },
    {
      "constant": true,
      "inputs": [
        {
          "name": "_deviceHash",
          "type": "bytes32"
        }
      ],
      "name": "isAllowed",
      "outputs": [
        {
          "name": "",
          "type": "bool"
        }
      ],
      "payable": false,
      "stateMutability": "view",
      "type": "function"
    },
    {
      "constant": false,
      "inputs": [
        {
          "name": "_deviceHash",
          "type": "bytes32"
        },
        {
          "name": "_assetId",
          "type": "uint256"
        },
        {
          "name": "_schemaId",
          "type": "uint256"
        },
        {
          "name": "_lifeTime",
          "type": "uint256"
        },
        {
          "name": "_dappId",
          "type": "string"
        }
      ],
      "name": "handshake",
      "outputs": [],
      "payable": false,
      "stateMutability": "nonpayable",
      "type": "function"
    },
    {
      "constant": false,
      "inputs": [
        {
          "name": "_deviceHash",
          "type": "bytes32"
        }
      ],
      "name": "removeDevice",
      "outputs": [],
      "payable": false,
      "stateMutability": "nonpayable",
      "type": "function"
    }
  ],
  "bytecode": "0x600b60809081527f426c6f6f6d656e436f696e00000000000000000000000000000000000000000060a0526101006040819052600360c09081527f424c4f000000000000000000000000000000000000000000000000000000000060e05260008054600160a060020a03191633178082559192600292859285928592600160a060020a031691907f8be0079c531659141344cd1fd0a4f28419497f9722a3daafe3b4186f6b6457e0908290a38251620000c0906005906020860190620001f0565b508151620000d6906006906020850190620001f0565b506007805460ff191660ff9290921691909117905550620001029050336401000000006200010b810204565b50505062000295565b62000126600882640100000000620023346200015d82021704565b604051600160a060020a038216907f6ae172837ea30b801fbfcdd4108aa1d5bf8ff775444fd70256b44e6bf3dfc3f690600090a250565b600160a060020a03811615156200017357600080fd5b620001888282640100000000620001b8810204565b156200019357600080fd5b600160a060020a0316600090815260209190915260409020805460ff19166001179055565b6000600160a060020a0382161515620001d057600080fd5b50600160a060020a03166000908152602091909152604090205460ff1690565b828054600181600116156101000203166002900490600052602060002090601f016020900481019282601f106200023357805160ff191683800117855562000263565b8280016001018555821562000263579182015b828111156200026357825182559160200191906001019062000246565b506200027192915062000275565b5090565b6200029291905b808211156200027157600081556001016200027c565b90565b61347e80620002a56000396000f3006080604052600436106101c15763ffffffff7c010000000000000000000000000000000000000000000000000000000060003504166304edae0f81146101c657806306fdde03146101fc578063095bcdb61461021e578063095ea7b314610240578063132c6aa41461026057806317b1b4981461028057806318160ddd146102ad5780631d266200146102cf5780632133e3b9146102ef57806323b872dd1461030f5780632b26fb291461032f578063313ce5671461035c578063395093511461037e5780634014d4681461039e57806340c10f19146103be57806342966c68146103de5780634f4ee353146103fe5780635a16f5c41461041e57806370a082311461043e578063715018a61461045e578063787552951461047357806379cc6790146104935780637de3b0ed146104b357806386b00ad5146104d35780638da5cb5b146104f35780638f32d59b1461051557806395d89b411461052a578063983b2d561461053f578063986502751461055f578063a2086dab14610574578063a457c2d714610594578063a9059cbb146105b4578063aa271e1a146105d4578063d9212164146105f4578063dd62ed3e14610621578063f2fde38b14610641575b600080fd5b3480156101d257600080fd5b506101e66101e1366004612be4565b610661565b6040516101f39190613256565b60405180910390f35b34801561020857600080fd5b50610211610677565b6040516101f39190613264565b34801561022a57600080fd5b5061023e610239366004612a64565b61070e565b005b34801561024c57600080fd5b506101e661025b366004612a34565b61072a565b34801561026c57600080fd5b5061023e61027b366004612ab4565b6107ac565b34801561028c57600080fd5b506102a061029b366004612a96565b6107c1565b6040516101f39190613245565b3480156102b957600080fd5b506102c2610a11565b6040516101f39190613356565b3480156102db57600080fd5b5061023e6102ea366004612a96565b610a17565b3480156102fb57600080fd5b506102c261030a366004612be4565b610a24565b34801561031b57600080fd5b506101e661032a3660046129e7565b610a2c565b34801561033b57600080fd5b5061034f61034a366004612a96565b610ac9565b6040516101f39190613345565b34801561036857600080fd5b50610371610c5f565b6040516101f39190613364565b34801561038a57600080fd5b506101e6610399366004612a34565b610c68565b3480156103aa57600080fd5b5061023e6103b9366004612a96565b610d0b565b3480156103ca57600080fd5b506101e66103d9366004612a34565b610d29565b3480156103ea57600080fd5b5061023e6103f9366004612a96565b610d52565b34801561040a57600080fd5b5061023e610419366004612a64565b610d5c565b34801561042a57600080fd5b5061023e610439366004612a96565b610e28565b34801561044a57600080fd5b506102c2610459366004612987565b610e46565b34801561046a57600080fd5b5061023e610e61565b34801561047f57600080fd5b506101e661048e366004612a96565b610ebe565b34801561049f57600080fd5b5061023e6104ae366004612a34565b610ef5565b3480156104bf57600080fd5b5061023e6104ce366004612c03565b610f03565b3480156104df57600080fd5b5061023e6104ee366004612b41565b610f16565b3480156104ff57600080fd5b50610508610f22565b6040516101f391906131fe565b34801561052157600080fd5b506101e6610f31565b34801561053657600080fd5b50610211610f42565b34801561054b57600080fd5b5061023e61055a366004612987565b610fa3565b34801561056b57600080fd5b5061023e610fc0565b34801561058057600080fd5b5061023e61058f366004612b9c565b610fcb565b3480156105a057600080fd5b506101e66105af366004612a34565b610fe8565b3480156105c057600080fd5b506101e66105cf366004612a34565b611033565b3480156105e057600080fd5b506101e66105ef366004612987565b61104d565b34801561060057600080fd5b5061061461060f366004612a96565b611060565b6040516101f39190613234565b34801561062d57600080fd5b506102c261063c3660046129ad565b61124a565b34801561064d57600080fd5b5061023e61065c366004612987565b611275565b600061066e338484611291565b90505b92915050565b60058054604080516020601f60026000196101006001881615020190951694909404938401819004810282018101909252828152606093909290918301828280156107035780601f106106d857610100808354040283529160200191610703565b820191906000526020600020905b8154815290600101906020018083116106e657829003601f168201915b505050505090505b90565b61071933848461140a565b6107253384848461149b565b505050565b6000600160a060020a038316151561074157600080fd5b336000818152600360209081526040808320600160a060020a03881680855292529182902085905590519091907f8c5be1e5ebec7d5bd14f71427d1e84f3dd0314c0f7b2291e5b200ac8c7c3b9259061079b908690613356565b60405180910390a350600192915050565b6107ba33868686868661156a565b5050505050565b606060006060806000806000871380156107dc5750600a8713155b15156108065760405160e560020a62461bcd0281526004016107fd90613275565b60405180910390fd5b3360009081526009602090815260408083208054825181850281018501909352808352600a6000198d010299509193909284015b8282101561093c57838290600052602060002090600402016080604051908101604052908160008201548152602001600182018054600181600116156101000203166002900480601f0160208091040260200160405190810160405280929190818152602001828054600181600116156101000203166002900480156109015780601f106108d657610100808354040283529160200191610901565b820191906000526020600020905b8154815290600101906020018083116108e457829003601f168201915b50505091835250506002820154602080830191909152600390920154600160a060020a0316604090910152908252600192909201910161083a565b50505050935084845111151561095157610a07565b60408051600a808252610160820190925290816020015b610970612794565b815260200190600190039081610968579050509250600091505b600a821215610a035750336000908152600a6020526040812054859003829003908112156109c8576064845110156109c457829550610a07565b6064015b83818151811015156109d657fe5b9060200190602002015183838151811015156109ee57fe5b6020908102909101015260019091019061098a565b8295505b5050505050919050565b60045490565b610a2133826116b3565b50565b606491020490565b600160a060020a0383166000908152600360209081526040808320338452909152812054821115610a5c57600080fd5b600160a060020a0384166000908152600360209081526040808320338452909152902054610a90908363ffffffff61174816565b600160a060020a0385166000908152600360209081526040808320338452909152902055610abf84848461140a565b5060019392505050565b610ad16127c6565b60008281526001602081905260408220015411610b035760405160e560020a62461bcd0281526004016107fd906132a5565b6000828152600160208181526040808420815160c081018352815481529381015484840152600281015484830152600381015460608501526004810180548351818602810186019094528084529495919460808701949192909184015b82821015610c40576000848152602090819020604080516060810182526003860290920180548352600180820154600160a060020a0316848601526002808301805485516101009482161594909402600019011691909104601f8101879004870283018701855280835294959294938601939192909190830182828015610c285780601f10610bfd57610100808354040283529160200191610c28565b820191906000526020600020905b815481529060010190602001808311610c0b57829003601f168201915b50505050508152505081526020019060010190610b60565b505050908252506005919091015460ff16151560209091015292915050565b60075460ff1690565b6000600160a060020a0383161515610c7f57600080fd5b336000908152600360209081526040808320600160a060020a0387168452909152902054610cb3908363ffffffff61175f16565b336000818152600360209081526040808320600160a060020a038916808552925291829020849055905190927f8c5be1e5ebec7d5bd14f71427d1e84f3dd0314c0f7b2291e5b200ac8c7c3b9259161079b9190613356565b610d13610f31565b1515610d1e57600080fd5b610a21816001611778565b6000610d343361104d565b1515610d3f57600080fd5b610d49838361180a565b50600192915050565b610a2133826118a7565b610d646127c6565b6000806000610d7285610ac9565b9350859250600091505b600184608001515103821015610def57610db286856080015184815181101515610da257fe5b6020908102909101015151610a24565b9050610ddf846080015183815181101515610dc957fe5b906020019060200201516020015182600061070e565b9182900391600190910190610d7c565b60808401518051610e1f91906000198101908110610e0957fe5b906020019060200201516020015184600061070e565b50505050505050565b610e30610f31565b1515610e3b57600080fd5b610a21816000611778565b600160a060020a031660009081526002602052604090205490565b610e69610f31565b1515610e7457600080fd5b60008054604051600160a060020a03909116907f8be0079c531659141344cd1fd0a4f28419497f9722a3daafe3b4186f6b6457e0908390a360008054600160a060020a0319169055565b6000818152600d6020908152604080832054600160a060020a03168352600c82528083208484529091529020544210805b50919050565b610eff828261195a565b5050565b610f1033858585856119ec565b50505050565b61072583833384611aeb565b600054600160a060020a031690565b600054600160a060020a0316331490565b60068054604080516020601f60026000196101006001881615020190951694909404938401819004810282018101909252828152606093909290918301828280156107035780601f106106d857610100808354040283529160200191610703565b610fac3361104d565b1515610fb757600080fd5b610a2181611d81565b610fc933611dc9565b565b610fd3610f31565b1515610fde57600080fd5b610eff8282611e11565b6000600160a060020a0383161515610fff57600080fd5b336000908152600360209081526040808320600160a060020a0387168452909152902054610cb3908363ffffffff61174816565b600061104033848461140a565b610d49338484600061149b565b600061067160088363ffffffff6121a016565b336000908152600b602090815260408083208054825181850281018501909352808352606094600919600a88020194869485949293909291849084015b82821015611190578382906000526020600020906004020160806040519081016040529081600082015481526020016001820154815260200160028201548152602001600382018054600181600116156101000203166002900480601f0160208091040260200160405190810160405280929190818152602001828054600181600116156101000203166002900480156111785780601f1061114d57610100808354040283529160200191611178565b820191906000526020600020905b81548152906001019060200180831161115b57829003601f168201915b5050505050815250508152602001906001019061109d565b5050505092508251600014806111a95750600183510384115b156111b357611241565b60408051600a808252610160820190925290816020015b6111d26127ff565b8152602001906001900390816111ca579050509150600090505b85600a0284101561123d57825184101561123157828481518110151561120e57fe5b90602001906020020151828281518110151561122657fe5b602090810290910101525b600193840193016111ec565b8194505b50505050919050565b600160a060020a03918216600090815260036020908152604080832093909416825291909152205490565b61127d610f31565b151561128857600080fd5b610a21816121d7565b60008061129c6127ff565b600091505b600160a060020a0386166000908152600b60205260409020548210156113fc57600160a060020a0386166000908152600b602052604090208054839081106112e557fe5b906000526020600020906004020160806040519081016040529081600082015481526020016001820154815260200160028201548152602001600382018054600181600116156101000203166002900480601f0160208091040260200160405190810160405280929190818152602001828054600181600116156101000203166002900480156113b65780601f1061138b576101008083540402835291602001916113b6565b820191906000526020600020905b81548152906001019060200180831161139957829003601f168201915b50505050508152505090508481602001511480156113d75750838160400151145b80156113e35750805142105b156113f15760019250611401565b6001909101906112a1565b600092505b50509392505050565b61144f81600019026040805190810160405280600481526020017f73656e64000000000000000000000000000000000000000000000000000000008152508585611aeb565b611490816040805190810160405280600781526020017f72656365697665000000000000000000000000000000000000000000000000008152508486611aeb565b610725838383612247565b60006114a68461232c565b1561152a57506040517f4f4ee3530000000000000000000000000000000000000000000000000000000081528390600160a060020a03821690634f4ee353906114f79088908790879060040161320c565b600060405180830381600087803b15801561151157600080fd5b505af1158015611525573d6000803e3d6000fd5b505050505b83600160a060020a031685600160a060020a03166000805160206134258339815191528560405161155b9190613356565b60405180910390a35050505050565b611575868585611291565b15156115965760405160e560020a62461bcd0281526004016107fd906132b5565b6000858152600d6020526040902054600160a060020a03161580156115c157506115bf85610ebe565b155b156115e8576000858152600d60205260409020546115e890600160a060020a0316866116b3565b6000858152600d6020526040902054600160a060020a0316156116205760405160e560020a62461bcd0281526004016107fd90613335565b6000858152600d602090815260408083208054600160a060020a031916600160a060020a038b16908117909155815160808101835286815280840189815281840189815260608301888152938752600c86528487208c88528652939095208151815594516001860155915160028501555180519193926116a892600385019290910190612828565b505050505050505050565b6000818152600d6020526040902054600160a060020a038381169116146116ef5760405160e560020a62461bcd0281526004016107fd906132e5565b6000818152600d602090815260408083208054600160a060020a0319169055600160a060020a0385168352600c82528083208484529091528120818155600181018290556002810182905590610f1060038301826128a6565b6000808383111561175857600080fd5b5050900390565b60008282018381101561177157600080fd5b9392505050565b6000828152600160208190526040909120015415156117ac5760405160e560020a62461bcd0281526004016107fd906132c5565b60008281526001602052604090206005015460ff16151581151514156117e75760405160e560020a62461bcd0281526004016107fd90613315565b600091825260016020526040909120600501805460ff1916911515919091179055565b600160a060020a038216151561181f57600080fd5b600454611832908263ffffffff61175f16565b600455600160a060020a03821660009081526002602052604090205461185e908263ffffffff61175f16565b600160a060020a0383166000818152600260205260408082209390935591519091906000805160206134258339815191529061189b908590613356565b60405180910390a35050565b600160a060020a03821615156118bc57600080fd5b600160a060020a0382166000908152600260205260409020548111156118e157600080fd5b6004546118f4908263ffffffff61174816565b600455600160a060020a038216600090815260026020526040902054611920908263ffffffff61174816565b600160a060020a0383166000818152600260205260408082209390935591516000805160206134258339815191529061189b908590613356565b600160a060020a038216600090815260036020908152604080832033845290915290205481111561198a57600080fd5b600160a060020a03821660009081526003602090815260408083203384529091529020546119be908263ffffffff61174816565b600160a060020a0383166000908152600360209081526040808320338452909152902055610eff82826118a7565b6119f46127c6565b6119fd84610ac9565b60408101519091508314611a265760405160e560020a62461bcd0281526004016107fd90613305565b611a31868686611291565b15611a515760405160e560020a62461bcd0281526004016107fd90613325565b611a5c30848661070e565b600160a060020a0386166000908152600b602090815260408083208151608081018352606080870151420182528185018b81529382018a81529082018881528354600181810180875595895297879020845160049092020190815594519685019690965551600284015593518051919493611adf92600385019290910190612828565b50505050505050505050565b600160a060020a03821660009081526009602052604090205460641115611bd757600160a060020a03808316600090815260096020908152604080832081516080810183528981528084018981524293820193909352948616606086015280546001818101808455928652948490208651600490920201908155915180519195949293611b7d93850192910190612828565b50604082810151600283015560609092015160039091018054600160a060020a031916600160a060020a03928316179055841660009081526009602090815282822054600a90915291902060001991909101905550610f10565b600160a060020a0382166000908152600a602052604090205460631415611cb857600160a060020a038083166000818152600a602090815260408083208390558051608081018252898152808301899052428183015294861660608601529282526009905290812080549091908110611c4c57fe5b9060005260206000209060040201600082015181600001556020820151816001019080519060200190611c80929190612828565b506040820151600282015560609091015160039091018054600160a060020a031916600160a060020a03909216919091179055610f10565b600160a060020a038083166000818152600a6020818152604080842080546001019081905581516080810183528b81528084018b90524281840152968816606088015294845260098252909220915280549091908110611d1457fe5b9060005260206000209060040201600082015181600001556020820151816001019080519060200190611d48929190612828565b506040820151600282015560609091015160039091018054600160a060020a031916600160a060020a0390921691909117905550505050565b611d9260088263ffffffff61233416565b604051600160a060020a038216907f6ae172837ea30b801fbfcdd4108aa1d5bf8ff775444fd70256b44e6bf3dfc3f690600090a250565b611dda60088263ffffffff61238216565b604051600160a060020a038216907fe94479a9f7e1952cc78f2d6baab678adc1b772d936c6583def489e524cb6669290600090a250565b611e196128ea565b606060008060008060606000806060600160008d8152602001908152602001600020600101546000141515611e635760405160e560020a62461bcd0281526004016107fd906132f5565b611e6c8b6123ce565b9950611e778a61241c565b9850611e9a896000815181101515611e8b57fe5b906020019060200201516124e6565b9750428811611ebe5760405160e560020a62461bcd0281526004016107fd906132d5565b611ed0896001815181101515611e8b57fe5b9650611ee4896002815181101515611e8b57fe5b9550611ef8896003815181101515611e8b57fe5b9450611f1b896004815181101515611f0c57fe5b9060200190602002015161241c565b935083519250600091505b8282101561203c57611f3f8483815181101515611f0c57fe5b905060016000888152602001908152602001600020600401606060405190810160405280611f75846000815181101515611e8b57fe5b8152602001611f9b846001815181101515611f8c57fe5b9060200190602002015161251c565b600160a060020a03168152602001611fca846002815181101515611fbb57fe5b9060200190602002015161254d565b90528154600180820180855560009485526020948590208451600390940201928355838501519183018054600160a060020a031916600160a060020a039093169290921790915560408301518051919461202c92600285019290910190612828565b505060019093019250611f269050565b61215e60016000898152602001908152602001600020600401805480602002602001604051908101604052809291908181526020016000905b82821015612155576000848152602090819020604080516060810182526003860290920180548352600180820154600160a060020a0316848601526002808301805485516101009482161594909402600019011691909104601f810187900487028301870185528083529495929493860193919290919083018282801561213d5780601f106121125761010080835404028352916020019161213d565b820191906000526020600020905b81548152906001019060200180831161212057829003601f168201915b50505050508152505081526020019060010190612075565b505050506125b6565b50505060008481526001602081905260409091209586558581019490945550600284019190915560038301556005909101805460ff1916909117905550505050565b6000600160a060020a03821615156121b757600080fd5b50600160a060020a03166000908152602091909152604090205460ff1690565b600160a060020a03811615156121ec57600080fd5b60008054604051600160a060020a03808516939216917f8be0079c531659141344cd1fd0a4f28419497f9722a3daafe3b4186f6b6457e091a360008054600160a060020a031916600160a060020a0392909216919091179055565b600160a060020a03831660009081526002602052604090205481111561226c57600080fd5b600160a060020a038216151561228157600080fd5b600160a060020a0383166000908152600260205260409020546122aa908263ffffffff61174816565b600160a060020a0380851660009081526002602052604080822093909355908416815220546122df908263ffffffff61175f16565b600160a060020a0380841660008181526002602052604090819020939093559151908516906000805160206134258339815191529061231f908590613356565b60405180910390a3505050565b6000903b1190565b600160a060020a038116151561234957600080fd5b61235382826121a0565b1561235d57600080fd5b600160a060020a0316600090815260209190915260409020805460ff19166001179055565b600160a060020a038116151561239757600080fd5b6123a182826121a0565b15156123ac57600080fd5b600160a060020a0316600090815260209190915260409020805460ff19169055565b6123d66128ea565b60008251600014156123fd5760408051808201909152600080825260208201529150610eef565b5050604080518082019091528151815260209182019181019190915290565b606060008060008061242d866125da565b151561243857600080fd5b61244186612609565b93508360405190808252806020026020018201604052801561247d57816020015b61246a6128ea565b8152602001906001900390816124625790505b50945061248d8660200151612659565b8660200151019250600090505b83811015611241576124ab836126bc565b915060408051908101604052808381526020018481525085828151811015156124d057fe5b602090810290910101529181019160010161249a565b60008060008060006124fb8660200151612659565b86516020978801518201519190039096036101000a90950495945050505050565b8051600090601510156125445760405160e560020a62461bcd0281526004016107fd90613295565b610671826124e6565b6060600080606060006125638660200151612659565b9350838660000151039250826040519080825280601f01601f19166020018201604052801561259c578160200160208202803883390190505b50915081602001905061123d84876020015101828561274d565b8051600010610a215760405160e560020a62461bcd0281526004016107fd90613285565b6020810151805160009190821a9060c060ff831610156125fd5760009250612602565b600192505b5050919050565b600080600080600092506126208560200151612659565b6020860151865191810193500190505b8082101561265057612641826126bc565b60019093019290910190612630565b50909392505050565b8051600090811a60808110156126725760009150610eef565b60b881108061268d575060c0811080159061268d575060f881105b1561269b5760019150610eef565b60c08110156126b05760b51981019150610eef565b60f51981019150610eef565b8051600090811a60808110156126d55760019150610eef565b60b88110156126ea57607e1981019150610eef565b60c08110156127175760b78103600184019350806020036101000a84510460018201810193505050610eef565b60f881101561272c5760be1981019150610eef565b60019290920151602083900360f7016101000a900490910160f51901919050565b60005b60208210612772578351835260209384019390920191601f1990910190612750565b50915181516020939093036101000a6000190180199091169216919091179052565b6080604051908101604052806000815260200160608152602001600081526020016000600160a060020a031681525090565b60c06040519081016040528060008152602001600081526020016000815260200160008152602001606081526020016000151581525090565b608060405190810160405280600081526020016000815260200160008152602001606081525090565b828054600181600116156101000203166002900490600052602060002090601f016020900481019282601f1061286957805160ff1916838001178555612896565b82800160010185558215612896579182015b8281111561289657825182559160200191906001019061287b565b506128a2929150612901565b5090565b50805460018160011615610100020316600290046000825580601f106128cc5750610a21565b601f016020900490600052602060002090810190610a219190612901565b604080518082019091526000808252602082015290565b61070b91905b808211156128a25760008155600101612907565b600061066e82356133cb565b600061066e823561070b565b6000601f8201831361294457600080fd5b813561295761295282613399565b613372565b9150808252602083016020830185838301111561297357600080fd5b61297e8382846133e2565b50505092915050565b60006020828403121561299957600080fd5b60006129a5848461291b565b949350505050565b600080604083850312156129c057600080fd5b60006129cc858561291b565b92505060206129dd8582860161291b565b9150509250929050565b6000806000606084860312156129fc57600080fd5b6000612a08868661291b565b9350506020612a198682870161291b565b9250506040612a2a86828701612927565b9150509250925092565b60008060408385031215612a4757600080fd5b6000612a53858561291b565b92505060206129dd85828601612927565b600080600060608486031215612a7957600080fd5b6000612a85868661291b565b9350506020612a1986828701612927565b600060208284031215612aa857600080fd5b60006129a58484612927565b600080600080600060a08688031215612acc57600080fd5b6000612ad88888612927565b9550506020612ae988828901612927565b9450506040612afa88828901612927565b9350506060612b0b88828901612927565b925050608086013567ffffffffffffffff811115612b2857600080fd5b612b3488828901612933565b9150509295509295909350565b600080600060608486031215612b5657600080fd5b6000612b628686612927565b935050602084013567ffffffffffffffff811115612b7f57600080fd5b612b8b86828701612933565b9250506040612a2a8682870161291b565b60008060408385031215612baf57600080fd5b6000612bbb8585612927565b925050602083013567ffffffffffffffff811115612bd857600080fd5b6129dd85828601612933565b60008060408385031215612bf757600080fd5b6000612a538585612927565b60008060008060808587031215612c1957600080fd5b6000612c258787612927565b9450506020612c3687828801612927565b9350506040612c4787828801612927565b925050606085013567ffffffffffffffff811115612c6457600080fd5b612c7087828801612933565b91505092959194509250565b612c85816133cb565b82525050565b6000612c96826133c7565b80845260208401935083602082028501612caf856133c1565b60005b84811015612ce6578383038852612cca838351613085565b9250612cd5826133c1565b602098909801979150600101612cb2565b50909695505050505050565b6000612cfd826133c7565b80845260208401935083602082028501612d16856133c1565b60005b84811015612ce6578383038852612d318383516130e0565b9250612d3c826133c1565b602098909801979150600101612d19565b6000612d58826133c7565b80845260208401935083602082028501612d71856133c1565b60005b84811015612ce6578383038852612d8c83835161311f565b9250612d97826133c1565b602098909801979150600101612d74565b612c85816133d7565b612c858161070b565b6000612dc5826133c7565b808452612dd98160208601602086016133ee565b612de28161341a565b9093016020019392505050565b600d81527f496e76616c696420706167652e00000000000000000000000000000000000000602082015260400190565b600981527f6e6f742072756c65730000000000000000000000000000000000000000000000602082015260400190565b603a81527f496e76616c696420524c504974656d2e2041646472657373657320617265206560208201527f6e636f64656420696e203230206279746573206f72206c657373000000000000604082015260600190565b600981527f6e6f745f65786973740000000000000000000000000000000000000000000000602082015260400190565b600b81527f6e6f7420616c6c6f776564000000000000000000000000000000000000000000602082015260400190565b600981527f6e6f742065786973740000000000000000000000000000000000000000000000602082015260400190565b600781527f6578706972656400000000000000000000000000000000000000000000000000602082015260400190565b600a81527f73616d65206f776e657200000000000000000000000000000000000000000000602082015260400190565b600581527f6578697374000000000000000000000000000000000000000000000000000000602082015260400190565b601081527f696e636f727265637420616d6f756e7400000000000000000000000000000000602082015260400190565b600b81527f73616d6520737461747573000000000000000000000000000000000000000000602082015260400190565b600a81527f6475706c69636174656400000000000000000000000000000000000000000000602082015260400190565b600f81527f6475706c69636174656420686173680000000000000000000000000000000000602082015260400190565b805160009060808401906130998582612db1565b5060208301516130ac6020860182612db1565b5060408301516130bf6040860182612db1565b50606083015184820360608601526130d78282612dba565b95945050505050565b805160009060608401906130f48582612db1565b5060208301516131076020860182612c7c565b50604083015184820360408601526130d78282612dba565b805160009060808401906131338582612db1565b506020830151848203602086015261314b8282612dba565b91505060408301516131606040860182612db1565b5060608301516131736060860182612c7c565b509392505050565b805160009060c084019061318f8582612db1565b5060208301516131a26020860182612db1565b5060408301516131b56040860182612db1565b5060608301516131c86060860182612db1565b50608083015184820360808601526131e08282612cf2565b91505060a083015161317360a0860182612da8565b612c85816133dc565b602081016106718284612c7c565b6060810161321a8286612c7c565b6132276020830185612db1565b6129a56040830184612db1565b6020808252810161066e8184612c8b565b6020808252810161066e8184612d4d565b602081016106718284612da8565b6020808252810161066e8184612dba565b6020808252810161067181612def565b6020808252810161067181612e1f565b6020808252810161067181612e4f565b6020808252810161067181612ea5565b6020808252810161067181612ed5565b6020808252810161067181612f05565b6020808252810161067181612f35565b6020808252810161067181612f65565b6020808252810161067181612f95565b6020808252810161067181612fc5565b6020808252810161067181612ff5565b6020808252810161067181613025565b6020808252810161067181613055565b6020808252810161066e818461317b565b602081016106718284612db1565b6020810161067182846131f5565b60405181810167ffffffffffffffff8111828210171561339157600080fd5b604052919050565b600067ffffffffffffffff8211156133b057600080fd5b506020601f91909101601f19160190565b60200190565b5190565b600160a060020a031690565b151590565b60ff1690565b82818337506000910152565b60005b838110156134095781810151838201526020016133f1565b83811115610f105750506000910152565b601f01601f1916905600ddf252ad1be2c89b69c2b068fc378daa952ba7f163c4a11628f55a4df523b3efa265627a7a72305820d9cccd9dab95c7cbc5b92b7abaecc027698dfc8dc5d7133fbee0e498b577759d6c6578706572696d656e74616cf50037",
  "source": "pragma solidity 0.4.24;\npragma experimental ABIEncoderV2;\n\nimport \"./Assets.sol\";\n\ncontract Devices  is Assets {\n\n  struct UserDevices {   \n    mapping (bytes32 => Device) devices;\n  } \n\n  struct Device {   \n    uint256 expirationDate;\n    uint256 assetId;\n    uint256 schemaId;\n    string dappId;\n  }\n\n  mapping (address => UserDevices) private userDevices_;\n\n  mapping (bytes32 => address) private deviceHashes_;\n    \n  function isAllowed(bytes32 _deviceHash) public view returns (bool) {\n    bool allowed = userDevices_[deviceHashes_[_deviceHash]].devices[_deviceHash].expirationDate > now ;\n    return allowed;\n  }\n\n  function handshake(bytes32 _deviceHash, uint256 _assetId, uint256 _schemaId, uint256 _lifeTime, string _dappId) public {\n    \n    _handshake(msg.sender, _deviceHash, _assetId, _schemaId, _lifeTime, _dappId);\n  }\n\n  function removeDevice(bytes32 _deviceHash) public {\n    _removeDevice(msg.sender, _deviceHash);\n  }\n    \n  function _handshake(address _owner, bytes32 _deviceHash, uint256 _assetId, uint256 _schemaId, uint256 _lifeTime, string _dappId) internal {\n\n    require(Assets._checkOwnership(_owner, _assetId, _schemaId),\"not allowed\");\n\n    if ((deviceHashes_[_deviceHash] == address(0)) && (!isAllowed(_deviceHash))) {\n      _removeDevice(deviceHashes_[_deviceHash], _deviceHash);\n    }\n\n    require(deviceHashes_[_deviceHash] == address(0), \"duplicated hash\");\n    deviceHashes_[_deviceHash] = _owner; \n    userDevices_[_owner].devices[_deviceHash] =  Device(_lifeTime, _assetId, _schemaId, _dappId);\n  }\n\n  function _removeDevice(address _owner, bytes32 _deviceHash) internal {\n    require(deviceHashes_[_deviceHash] == _owner, \"same owner\");\n    delete deviceHashes_[_deviceHash];\n    delete userDevices_[_owner].devices[_deviceHash];\n  }\n\n}",
  "sourcePath": "/home/jordi/ws/bloomen-wallet-truffle/contracts/bloomen/Devices.sol",
  "compiler": {
    "name": "solc",
    "version": "0.4.24+commit.e67f0147.Emscripten.clang"
  },
  "schemaVersion": "2.0.1",
  "updatedAt": "2019-01-04T16:56:49.452Z"
}