{
  "contractName": "ERC223",
  "abi": [
    {
      "constant": true,
      "inputs": [],
      "name": "name",
      "outputs": [
        {
          "name": "",
          "type": "string"
        }
      ],
      "payable": false,
      "stateMutability": "view",
      "type": "function"
    },
    {
      "constant": false,
      "inputs": [
        {
          "name": "spender",
          "type": "address"
        },
        {
          "name": "value",
          "type": "uint256"
        }
      ],
      "name": "approve",
      "outputs": [
        {
          "name": "",
          "type": "bool"
        }
      ],
      "payable": false,
      "stateMutability": "nonpayable",
      "type": "function"
    },
    {
      "constant": true,
      "inputs": [],
      "name": "totalSupply",
      "outputs": [
        {
          "name": "",
          "type": "uint256"
        }
      ],
      "payable": false,
      "stateMutability": "view",
      "type": "function"
    },
    {
      "constant": false,
      "inputs": [
        {
          "name": "from",
          "type": "address"
        },
        {
          "name": "to",
          "type": "address"
        },
        {
          "name": "value",
          "type": "uint256"
        }
      ],
      "name": "transferFrom",
      "outputs": [
        {
          "name": "",
          "type": "bool"
        }
      ],
      "payable": false,
      "stateMutability": "nonpayable",
      "type": "function"
    },
    {
      "constant": true,
      "inputs": [],
      "name": "decimals",
      "outputs": [
        {
          "name": "",
          "type": "uint8"
        }
      ],
      "payable": false,
      "stateMutability": "view",
      "type": "function"
    },
    {
      "constant": false,
      "inputs": [
        {
          "name": "spender",
          "type": "address"
        },
        {
          "name": "addedValue",
          "type": "uint256"
        }
      ],
      "name": "increaseAllowance",
      "outputs": [
        {
          "name": "",
          "type": "bool"
        }
      ],
      "payable": false,
      "stateMutability": "nonpayable",
      "type": "function"
    },
    {
      "constant": false,
      "inputs": [
        {
          "name": "to",
          "type": "address"
        },
        {
          "name": "value",
          "type": "uint256"
        }
      ],
      "name": "mint",
      "outputs": [
        {
          "name": "",
          "type": "bool"
        }
      ],
      "payable": false,
      "stateMutability": "nonpayable",
      "type": "function"
    },
    {
      "constant": false,
      "inputs": [
        {
          "name": "value",
          "type": "uint256"
        }
      ],
      "name": "burn",
      "outputs": [],
      "payable": false,
      "stateMutability": "nonpayable",
      "type": "function"
    },
    {
      "constant": true,
      "inputs": [
        {
          "name": "owner",
          "type": "address"
        }
      ],
      "name": "balanceOf",
      "outputs": [
        {
          "name": "",
          "type": "uint256"
        }
      ],
      "payable": false,
      "stateMutability": "view",
      "type": "function"
    },
    {
      "constant": false,
      "inputs": [
        {
          "name": "from",
          "type": "address"
        },
        {
          "name": "value",
          "type": "uint256"
        }
      ],
      "name": "burnFrom",
      "outputs": [],
      "payable": false,
      "stateMutability": "nonpayable",
      "type": "function"
    },
    {
      "constant": true,
      "inputs": [],
      "name": "symbol",
      "outputs": [
        {
          "name": "",
          "type": "string"
        }
      ],
      "payable": false,
      "stateMutability": "view",
      "type": "function"
    },
    {
      "constant": false,
      "inputs": [
        {
          "name": "account",
          "type": "address"
        }
      ],
      "name": "addMinter",
      "outputs": [],
      "payable": false,
      "stateMutability": "nonpayable",
      "type": "function"
    },
    {
      "constant": false,
      "inputs": [],
      "name": "renounceMinter",
      "outputs": [],
      "payable": false,
      "stateMutability": "nonpayable",
      "type": "function"
    },
    {
      "constant": false,
      "inputs": [
        {
          "name": "spender",
          "type": "address"
        },
        {
          "name": "subtractedValue",
          "type": "uint256"
        }
      ],
      "name": "decreaseAllowance",
      "outputs": [
        {
          "name": "",
          "type": "bool"
        }
      ],
      "payable": false,
      "stateMutability": "nonpayable",
      "type": "function"
    },
    {
      "constant": true,
      "inputs": [
        {
          "name": "account",
          "type": "address"
        }
      ],
      "name": "isMinter",
      "outputs": [
        {
          "name": "",
          "type": "bool"
        }
      ],
      "payable": false,
      "stateMutability": "view",
      "type": "function"
    },
    {
      "constant": true,
      "inputs": [
        {
          "name": "owner",
          "type": "address"
        },
        {
          "name": "spender",
          "type": "address"
        }
      ],
      "name": "allowance",
      "outputs": [
        {
          "name": "",
          "type": "uint256"
        }
      ],
      "payable": false,
      "stateMutability": "view",
      "type": "function"
    },
    {
      "inputs": [
        {
          "name": "_name",
          "type": "string"
        },
        {
          "name": "_symbol",
          "type": "string"
        },
        {
          "name": "_decimals",
          "type": "uint8"
        }
      ],
      "payable": false,
      "stateMutability": "nonpayable",
      "type": "constructor"
    },
    {
      "anonymous": false,
      "inputs": [
        {
          "indexed": true,
          "name": "account",
          "type": "address"
        }
      ],
      "name": "MinterAdded",
      "type": "event"
    },
    {
      "anonymous": false,
      "inputs": [
        {
          "indexed": true,
          "name": "account",
          "type": "address"
        }
      ],
      "name": "MinterRemoved",
      "type": "event"
    },
    {
      "anonymous": false,
      "inputs": [
        {
          "indexed": true,
          "name": "from",
          "type": "address"
        },
        {
          "indexed": true,
          "name": "to",
          "type": "address"
        },
        {
          "indexed": false,
          "name": "value",
          "type": "uint256"
        }
      ],
      "name": "Transfer",
      "type": "event"
    },
    {
      "anonymous": false,
      "inputs": [
        {
          "indexed": true,
          "name": "owner",
          "type": "address"
        },
        {
          "indexed": true,
          "name": "spender",
          "type": "address"
        },
        {
          "indexed": false,
          "name": "value",
          "type": "uint256"
        }
      ],
      "name": "Approval",
      "type": "event"
    },
    {
      "constant": false,
      "inputs": [
        {
          "name": "_to",
          "type": "address"
        },
        {
          "name": "_value",
          "type": "uint256"
        }
      ],
      "name": "transfer",
      "outputs": [
        {
          "name": "",
          "type": "bool"
        }
      ],
      "payable": false,
      "stateMutability": "nonpayable",
      "type": "function"
    },
    {
      "constant": false,
      "inputs": [
        {
          "name": "_to",
          "type": "address"
        },
        {
          "name": "_value",
          "type": "uint256"
        },
        {
          "name": "_data",
          "type": "bytes"
        }
      ],
      "name": "transfer",
      "outputs": [],
      "payable": false,
      "stateMutability": "nonpayable",
      "type": "function"
    }
  ],
  "bytecode": "0x60806040523480156200001157600080fd5b506040516200107138038062001071833981016040908152815160208084015192840151918401805190949390930192849184918491620000589160039186019062000188565b5081516200006e90600490602085019062000188565b506005805460ff191660ff92909216919091179055506200009a905033640100000000620000a3810204565b5050506200022d565b620000be60068264010000000062000d46620000f582021704565b604051600160a060020a038216907f6ae172837ea30b801fbfcdd4108aa1d5bf8ff775444fd70256b44e6bf3dfc3f690600090a250565b600160a060020a03811615156200010b57600080fd5b62000120828264010000000062000150810204565b156200012b57600080fd5b600160a060020a0316600090815260209190915260409020805460ff19166001179055565b6000600160a060020a03821615156200016857600080fd5b50600160a060020a03166000908152602091909152604090205460ff1690565b828054600181600116156101000203166002900490600052602060002090601f016020900481019282601f10620001cb57805160ff1916838001178555620001fb565b82800160010185558215620001fb579182015b82811115620001fb578251825591602001919060010190620001de565b50620002099291506200020d565b5090565b6200022a91905b8082111562000209576000815560010162000214565b90565b610e34806200023d6000396000f3006080604052600436106100fb5763ffffffff7c010000000000000000000000000000000000000000000000000000000060003504166306fdde038114610100578063095ea7b31461018a57806318160ddd146101c257806323b872dd146101e9578063313ce56714610213578063395093511461023e57806340c10f191461026257806342966c681461028657806370a08231146102a057806379cc6790146102c157806395d89b41146102e5578063983b2d56146102fa578063986502751461031b578063a457c2d714610330578063a9059cbb14610354578063aa271e1a14610378578063be45fd6214610399578063dd62ed3e14610402575b600080fd5b34801561010c57600080fd5b50610115610429565b6040805160208082528351818301528351919283929083019185019080838360005b8381101561014f578181015183820152602001610137565b50505050905090810190601f16801561017c5780820380516001836020036101000a031916815260200191505b509250505060405180910390f35b34801561019657600080fd5b506101ae600160a060020a03600435166024356104bf565b604080519115158252519081900360200190f35b3480156101ce57600080fd5b506101d761053d565b60408051918252519081900360200190f35b3480156101f557600080fd5b506101ae600160a060020a0360043581169060243516604435610543565b34801561021f57600080fd5b506102286105e0565b6040805160ff9092168252519081900360200190f35b34801561024a57600080fd5b506101ae600160a060020a03600435166024356105e9565b34801561026e57600080fd5b506101ae600160a060020a0360043516602435610699565b34801561029257600080fd5b5061029e6004356106c2565b005b3480156102ac57600080fd5b506101d7600160a060020a03600435166106cf565b3480156102cd57600080fd5b5061029e600160a060020a03600435166024356106ea565b3480156102f157600080fd5b506101156106f8565b34801561030657600080fd5b5061029e600160a060020a0360043516610759565b34801561032757600080fd5b5061029e610776565b34801561033c57600080fd5b506101ae600160a060020a0360043516602435610781565b34801561036057600080fd5b506101ae600160a060020a03600435166024356107cc565b34801561038457600080fd5b506101ae600160a060020a03600435166107e7565b3480156103a557600080fd5b50604080516020600460443581810135601f810184900484028501840190955284845261029e948235600160a060020a03169460248035953695946064949201919081908401838280828437509497506108009650505050505050565b34801561040e57600080fd5b506101d7600160a060020a036004358116906024351661081c565b60038054604080516020601f60026000196101006001881615020190951694909404938401819004810282018101909252828152606093909290918301828280156104b55780601f1061048a576101008083540402835291602001916104b5565b820191906000526020600020905b81548152906001019060200180831161049857829003601f168201915b5050505050905090565b6000600160a060020a03831615156104d657600080fd5b336000818152600160209081526040808320600160a060020a03881680855290835292819020869055805186815290519293927f8c5be1e5ebec7d5bd14f71427d1e84f3dd0314c0f7b2291e5b200ac8c7c3b925929181900390910190a350600192915050565b60025490565b600160a060020a038316600090815260016020908152604080832033845290915281205482111561057357600080fd5b600160a060020a03841660009081526001602090815260408083203384529091529020546105a7908363ffffffff61084716565b600160a060020a03851660009081526001602090815260408083203384529091529020556105d684848461085e565b5060019392505050565b60055460ff1690565b6000600160a060020a038316151561060057600080fd5b336000908152600160209081526040808320600160a060020a0387168452909152902054610634908363ffffffff61093e16565b336000818152600160209081526040808320600160a060020a0389168085529083529281902085905580519485525191937f8c5be1e5ebec7d5bd14f71427d1e84f3dd0314c0f7b2291e5b200ac8c7c3b925929081900390910190a350600192915050565b60006106a4336107e7565b15156106af57600080fd5b6106b98383610957565b50600192915050565b6106cc33826109ef565b50565b600160a060020a031660009081526020819052604090205490565b6106f48282610aab565b5050565b60048054604080516020601f60026000196101006001881615020190951694909404938401819004810282018101909252828152606093909290918301828280156104b55780601f1061048a576101008083540402835291602001916104b5565b610762336107e7565b151561076d57600080fd5b6106cc81610b3d565b61077f33610b85565b565b6000600160a060020a038316151561079857600080fd5b336000908152600160209081526040808320600160a060020a0387168452909152902054610634908363ffffffff61084716565b600060606107db33858561085e565b6105d633858584610bcd565b60006107fa60068363ffffffff610d0f16565b92915050565b61080b33848461085e565b61081733848484610bcd565b505050565b600160a060020a03918216600090815260016020908152604080832093909416825291909152205490565b6000808383111561085757600080fd5b5050900390565b600160a060020a03831660009081526020819052604090205481111561088357600080fd5b600160a060020a038216151561089857600080fd5b600160a060020a0383166000908152602081905260409020546108c1908263ffffffff61084716565b600160a060020a0380851660009081526020819052604080822093909355908416815220546108f6908263ffffffff61093e16565b600160a060020a03808416600081815260208181526040918290209490945580518581529051919392871692600080516020610de983398151915292918290030190a3505050565b60008282018381101561095057600080fd5b9392505050565b600160a060020a038216151561096c57600080fd5b60025461097f908263ffffffff61093e16565b600255600160a060020a0382166000908152602081905260409020546109ab908263ffffffff61093e16565b600160a060020a038316600081815260208181526040808320949094558351858152935192939192600080516020610de98339815191529281900390910190a35050565b600160a060020a0382161515610a0457600080fd5b600160a060020a038216600090815260208190526040902054811115610a2957600080fd5b600254610a3c908263ffffffff61084716565b600255600160a060020a038216600090815260208190526040902054610a68908263ffffffff61084716565b600160a060020a03831660008181526020818152604080832094909455835185815293519193600080516020610de9833981519152929081900390910190a35050565b600160a060020a0382166000908152600160209081526040808320338452909152902054811115610adb57600080fd5b600160a060020a0382166000908152600160209081526040808320338452909152902054610b0f908263ffffffff61084716565b600160a060020a03831660009081526001602090815260408083203384529091529020556106f482826109ef565b610b4e60068263ffffffff610d4616565b604051600160a060020a038216907f6ae172837ea30b801fbfcdd4108aa1d5bf8ff775444fd70256b44e6bf3dfc3f690600090a250565b610b9660068263ffffffff610d9416565b604051600160a060020a038216907fe94479a9f7e1952cc78f2d6baab678adc1b772d936c6583def489e524cb6669290600090a250565b6000610bd884610de0565b15610ccf57506040517fc0ee0b8a000000000000000000000000000000000000000000000000000000008152600160a060020a03858116600483019081526024830185905260606044840190815284516064850152845187949385169363c0ee0b8a938a938993899360840190602085019080838360005b83811015610c68578181015183820152602001610c50565b50505050905090810190601f168015610c955780820380516001836020036101000a031916815260200191505b50945050505050600060405180830381600087803b158015610cb657600080fd5b505af1158015610cca573d6000803e3d6000fd5b505050505b83600160a060020a031685600160a060020a0316600080516020610de9833981519152856040518082815260200191505060405180910390a35050505050565b6000600160a060020a0382161515610d2657600080fd5b50600160a060020a03166000908152602091909152604090205460ff1690565b600160a060020a0381161515610d5b57600080fd5b610d658282610d0f565b15610d6f57600080fd5b600160a060020a0316600090815260209190915260409020805460ff19166001179055565b600160a060020a0381161515610da957600080fd5b610db38282610d0f565b1515610dbe57600080fd5b600160a060020a0316600090815260209190915260409020805460ff19169055565b6000903b11905600ddf252ad1be2c89b69c2b068fc378daa952ba7f163c4a11628f55a4df523b3efa165627a7a72305820ff24fbcd27ffe04d0466d022ab984bb5c263e92ebbc93cb3d997bda9abc0f94c0029",
  "source": "pragma solidity ^0.4.23;\r\n\r\n\r\nimport \"../../../node_modules/openzeppelin-solidity/contracts/token/ERC20/ERC20Detailed.sol\";\r\nimport \"../../../node_modules/openzeppelin-solidity/contracts/token/ERC20/ERC20Mintable.sol\";\r\nimport \"../../../node_modules/openzeppelin-solidity/contracts/token/ERC20/ERC20Burnable.sol\";\r\nimport \"../../../node_modules/openzeppelin-solidity/contracts/token/ERC20/ERC20.sol\";\r\nimport \"../../../node_modules/openzeppelin-solidity/contracts/utils/Address.sol\";\r\n\r\n\r\nimport \"./ERC223ReceivingContract.sol\";\r\n\r\ncontract ERC223 is ERC20, ERC20Detailed, ERC20Mintable, ERC20Burnable {\r\n  constructor (string _name, string _symbol, uint8 _decimals) public ERC20Detailed(_name, _symbol, _decimals){}\r\n\r\n    // Overridden transfer method with _data param for transaction data\r\n  function transfer(address _to, uint _value, bytes _data) public {\r\n\r\n    _transfer(msg.sender,_to,_value);\r\n    _tokenFallback(msg.sender, _to, _value , _data );\r\n  }\r\n\r\n    // Overridden Backwards compatible transfer method without _data param\r\n  function transfer(address _to, uint _value) public returns (bool) {\r\n    bytes memory empty;\r\n    _transfer(msg.sender,_to,_value);\r\n    _tokenFallback(msg.sender, _to, _value , empty );\r\n    return true;\r\n  }\r\n\r\n  function _tokenFallback(address sender, address to, uint256 value , bytes data ) internal {\r\n    if(Address.isContract(to)) {\r\n      ERC223ReceivingContract receiver = ERC223ReceivingContract(to);\r\n      receiver.tokenFallback(sender, value, data);\r\n    }\r\n    emit Transfer(sender, to, value);\r\n  }\r\n\r\n\r\n}",
  "sourcePath": "C:\\Users\\a562145\\git\\bloomen-wallet-truffle\\contracts\\bloomen\\token\\ERC223.sol",
  "compiler": {
    "name": "solc",
    "version": "0.4.24+commit.e67f0147.Emscripten.clang"
  },
  "schemaVersion": "2.0.1",
  "updatedAt": "2018-12-03T12:43:39.292Z"
}