{
  "contractName": "ERC223",
  "abi": [
    {
      "constant": true,
      "inputs": [],
      "name": "name",
      "outputs": [
        {
          "name": "",
          "type": "string"
        }
      ],
      "payable": false,
      "stateMutability": "view",
      "type": "function"
    },
    {
      "constant": false,
      "inputs": [
        {
          "name": "spender",
          "type": "address"
        },
        {
          "name": "value",
          "type": "uint256"
        }
      ],
      "name": "approve",
      "outputs": [
        {
          "name": "",
          "type": "bool"
        }
      ],
      "payable": false,
      "stateMutability": "nonpayable",
      "type": "function"
    },
    {
      "constant": true,
      "inputs": [
        {
          "name": "_page",
          "type": "int256"
        }
      ],
      "name": "getMovements",
      "outputs": [
        {
          "components": [
            {
              "name": "amount",
              "type": "int256"
            },
            {
              "name": "description",
              "type": "string"
            },
            {
              "name": "date",
              "type": "uint256"
            },
            {
              "name": "to",
              "type": "address"
            }
          ],
          "name": "",
          "type": "tuple[]"
        }
      ],
      "payable": false,
      "stateMutability": "view",
      "type": "function"
    },
    {
      "constant": true,
      "inputs": [],
      "name": "totalSupply",
      "outputs": [
        {
          "name": "",
          "type": "uint256"
        }
      ],
      "payable": false,
      "stateMutability": "view",
      "type": "function"
    },
    {
      "constant": false,
      "inputs": [
        {
          "name": "from",
          "type": "address"
        },
        {
          "name": "to",
          "type": "address"
        },
        {
          "name": "value",
          "type": "uint256"
        }
      ],
      "name": "transferFrom",
      "outputs": [
        {
          "name": "",
          "type": "bool"
        }
      ],
      "payable": false,
      "stateMutability": "nonpayable",
      "type": "function"
    },
    {
      "constant": true,
      "inputs": [],
      "name": "decimals",
      "outputs": [
        {
          "name": "",
          "type": "uint8"
        }
      ],
      "payable": false,
      "stateMutability": "view",
      "type": "function"
    },
    {
      "constant": false,
      "inputs": [
        {
          "name": "spender",
          "type": "address"
        },
        {
          "name": "addedValue",
          "type": "uint256"
        }
      ],
      "name": "increaseAllowance",
      "outputs": [
        {
          "name": "",
          "type": "bool"
        }
      ],
      "payable": false,
      "stateMutability": "nonpayable",
      "type": "function"
    },
    {
      "constant": false,
      "inputs": [
        {
          "name": "to",
          "type": "address"
        },
        {
          "name": "value",
          "type": "uint256"
        }
      ],
      "name": "mint",
      "outputs": [
        {
          "name": "",
          "type": "bool"
        }
      ],
      "payable": false,
      "stateMutability": "nonpayable",
      "type": "function"
    },
    {
      "constant": false,
      "inputs": [
        {
          "name": "value",
          "type": "uint256"
        }
      ],
      "name": "burn",
      "outputs": [],
      "payable": false,
      "stateMutability": "nonpayable",
      "type": "function"
    },
    {
      "constant": true,
      "inputs": [
        {
          "name": "owner",
          "type": "address"
        }
      ],
      "name": "balanceOf",
      "outputs": [
        {
          "name": "",
          "type": "uint256"
        }
      ],
      "payable": false,
      "stateMutability": "view",
      "type": "function"
    },
    {
      "constant": false,
      "inputs": [
        {
          "name": "from",
          "type": "address"
        },
        {
          "name": "value",
          "type": "uint256"
        }
      ],
      "name": "burnFrom",
      "outputs": [],
      "payable": false,
      "stateMutability": "nonpayable",
      "type": "function"
    },
    {
      "constant": false,
      "inputs": [
        {
          "name": "_amount",
          "type": "int256"
        },
        {
          "name": "_description",
          "type": "string"
        },
        {
          "name": "_to",
          "type": "address"
        }
      ],
      "name": "addMovement",
      "outputs": [],
      "payable": false,
      "stateMutability": "nonpayable",
      "type": "function"
    },
    {
      "constant": true,
      "inputs": [],
      "name": "symbol",
      "outputs": [
        {
          "name": "",
          "type": "string"
        }
      ],
      "payable": false,
      "stateMutability": "view",
      "type": "function"
    },
    {
      "constant": false,
      "inputs": [
        {
          "name": "account",
          "type": "address"
        }
      ],
      "name": "addMinter",
      "outputs": [],
      "payable": false,
      "stateMutability": "nonpayable",
      "type": "function"
    },
    {
      "constant": false,
      "inputs": [],
      "name": "renounceMinter",
      "outputs": [],
      "payable": false,
      "stateMutability": "nonpayable",
      "type": "function"
    },
    {
      "constant": false,
      "inputs": [
        {
          "name": "spender",
          "type": "address"
        },
        {
          "name": "subtractedValue",
          "type": "uint256"
        }
      ],
      "name": "decreaseAllowance",
      "outputs": [
        {
          "name": "",
          "type": "bool"
        }
      ],
      "payable": false,
      "stateMutability": "nonpayable",
      "type": "function"
    },
    {
      "constant": true,
      "inputs": [
        {
          "name": "account",
          "type": "address"
        }
      ],
      "name": "isMinter",
      "outputs": [
        {
          "name": "",
          "type": "bool"
        }
      ],
      "payable": false,
      "stateMutability": "view",
      "type": "function"
    },
    {
      "constant": true,
      "inputs": [
        {
          "name": "owner",
          "type": "address"
        },
        {
          "name": "spender",
          "type": "address"
        }
      ],
      "name": "allowance",
      "outputs": [
        {
          "name": "",
          "type": "uint256"
        }
      ],
      "payable": false,
      "stateMutability": "view",
      "type": "function"
    },
    {
      "inputs": [
        {
          "name": "_name",
          "type": "string"
        },
        {
          "name": "_symbol",
          "type": "string"
        },
        {
          "name": "_decimals",
          "type": "uint8"
        }
      ],
      "payable": false,
      "stateMutability": "nonpayable",
      "type": "constructor"
    },
    {
      "anonymous": false,
      "inputs": [
        {
          "indexed": true,
          "name": "account",
          "type": "address"
        }
      ],
      "name": "MinterAdded",
      "type": "event"
    },
    {
      "anonymous": false,
      "inputs": [
        {
          "indexed": true,
          "name": "account",
          "type": "address"
        }
      ],
      "name": "MinterRemoved",
      "type": "event"
    },
    {
      "anonymous": false,
      "inputs": [
        {
          "indexed": true,
          "name": "from",
          "type": "address"
        },
        {
          "indexed": true,
          "name": "to",
          "type": "address"
        },
        {
          "indexed": false,
          "name": "value",
          "type": "uint256"
        }
      ],
      "name": "Transfer",
      "type": "event"
    },
    {
      "anonymous": false,
      "inputs": [
        {
          "indexed": true,
          "name": "owner",
          "type": "address"
        },
        {
          "indexed": true,
          "name": "spender",
          "type": "address"
        },
        {
          "indexed": false,
          "name": "value",
          "type": "uint256"
        }
      ],
      "name": "Approval",
      "type": "event"
    },
    {
      "constant": false,
      "inputs": [
        {
          "name": "_to",
          "type": "address"
        },
        {
          "name": "_value",
          "type": "uint256"
        }
      ],
      "name": "transfer",
      "outputs": [
        {
          "name": "",
          "type": "bool"
        }
      ],
      "payable": false,
      "stateMutability": "nonpayable",
      "type": "function"
    },
    {
      "constant": false,
      "inputs": [
        {
          "name": "_to",
          "type": "address"
        },
        {
          "name": "_value",
          "type": "uint256"
        },
        {
          "name": "_data",
          "type": "bytes"
        }
      ],
      "name": "transfer",
      "outputs": [],
      "payable": false,
      "stateMutability": "nonpayable",
      "type": "function"
    }
  ],
  "bytecode": "0x60806040523480156200001157600080fd5b50604051620018d4380380620018d4833981016040908152815160208084015192840151918401805190949390930192849184918491620000589160039186019062000188565b5081516200006e90600490602085019062000188565b506005805460ff191660ff92909216919091179055506200009a905033640100000000620000a3810204565b5050506200022d565b620000be600682640100000000620014df620000f582021704565b604051600160a060020a038216907f6ae172837ea30b801fbfcdd4108aa1d5bf8ff775444fd70256b44e6bf3dfc3f690600090a250565b600160a060020a03811615156200010b57600080fd5b62000120828264010000000062000150810204565b156200012b57600080fd5b600160a060020a0316600090815260209190915260409020805460ff19166001179055565b6000600160a060020a03821615156200016857600080fd5b50600160a060020a03166000908152602091909152604090205460ff1690565b828054600181600116156101000203166002900490600052602060002090601f016020900481019282601f10620001cb57805160ff1916838001178555620001fb565b82800160010185558215620001fb579182015b82811115620001fb578251825591602001919060010190620001de565b50620002099291506200020d565b5090565b6200022a91905b8082111562000209576000815560010162000214565b90565b611697806200023d6000396000f3006080604052600436106101115763ffffffff7c010000000000000000000000000000000000000000000000000000000060003504166306fdde038114610116578063095ea7b3146101a057806317b1b498146101d857806318160ddd1461023f57806323b872dd14610266578063313ce5671461029057806339509351146102bb57806340c10f19146102df57806342966c681461030357806370a082311461031d57806379cc67901461033e57806386b00ad51461036257806395d89b41146103cb578063983b2d56146103e05780639865027514610401578063a457c2d714610416578063a9059cbb1461043a578063aa271e1a1461045e578063be45fd621461047f578063dd62ed3e146104e8575b600080fd5b34801561012257600080fd5b5061012b61050f565b6040805160208082528351818301528351919283929083019185019080838360005b8381101561016557818101518382015260200161014d565b50505050905090810190601f1680156101925780820380516001836020036101000a031916815260200191505b509250505060405180910390f35b3480156101ac57600080fd5b506101c4600160a060020a03600435166024356105a6565b604080519115158252519081900360200190f35b3480156101e457600080fd5b506101f0600435610624565b60405180806020018281038252838181518152602001915080516000925b8184101561022e576020808502840181015182526001909401930161020e565b925050509250505060405180910390f35b34801561024b57600080fd5b506102546108b7565b60408051918252519081900360200190f35b34801561027257600080fd5b506101c4600160a060020a03600435811690602435166044356108bd565b34801561029c57600080fd5b506102a561095a565b6040805160ff9092168252519081900360200190f35b3480156102c757600080fd5b506101c4600160a060020a0360043516602435610963565b3480156102eb57600080fd5b506101c4600160a060020a0360043516602435610a13565b34801561030f57600080fd5b5061031b600435610a3c565b005b34801561032957600080fd5b50610254600160a060020a0360043516610a49565b34801561034a57600080fd5b5061031b600160a060020a0360043516602435610a64565b34801561036e57600080fd5b5060408051602060046024803582810135601f810185900485028601850190965285855261031b95833595369560449491939091019190819084018382808284375094975050509235600160a060020a03169350610a7292505050565b3480156103d757600080fd5b5061012b610a83565b3480156103ec57600080fd5b5061031b600160a060020a0360043516610ae4565b34801561040d57600080fd5b5061031b610b01565b34801561042257600080fd5b506101c4600160a060020a0360043516602435610b0c565b34801561044657600080fd5b506101c4600160a060020a0360043516602435610b57565b34801561046a57600080fd5b506101c4600160a060020a0360043516610b72565b34801561048b57600080fd5b50604080516020600460443581810135601f810184900484028501840190955284845261031b948235600160a060020a0316946024803595369594606494920191908190840183828082843750949750610b8b9650505050505050565b3480156104f457600080fd5b50610254600160a060020a0360043581169060243516610ba2565b60038054604080516020601f600260001961010060018816150201909516949094049384018190048102820181019092528281526060939092909183018282801561059b5780601f106105705761010080835404028352916020019161059b565b820191906000526020600020905b81548152906001019060200180831161057e57829003601f168201915b505050505090505b90565b6000600160a060020a03831615156105bd57600080fd5b336000818152600160209081526040808320600160a060020a03881680855290835292819020869055805186815290519293927f8c5be1e5ebec7d5bd14f71427d1e84f3dd0314c0f7b2291e5b200ac8c7c3b925929181900390910190a350600192915050565b6060600060608060008060008713801561063f5750600a8713155b15156106ac57604080517f08c379a000000000000000000000000000000000000000000000000000000000815260206004820152600d60248201527f496e76616c696420706167652e00000000000000000000000000000000000000604482015290519081900360640190fd5b3360009081526007602090815260408083208054825181850281018501909352808352600a6000198d010299509193909284015b828210156107e257838290600052602060002090600402016080604051908101604052908160008201548152602001600182018054600181600116156101000203166002900480601f0160208091040260200160405190810160405280929190818152602001828054600181600116156101000203166002900480156107a75780601f1061077c576101008083540402835291602001916107a7565b820191906000526020600020905b81548152906001019060200180831161078a57829003601f168201915b50505091835250506002820154602080830191909152600390920154600160a060020a031660409091015290825260019290920191016106e0565b5050505093508484511115156107f7576108ad565b60408051600a808252610160820190925290816020015b610816611581565b81526020019060019003908161080e579050509250600091505b600a8212156108a95750336000908152600860205260408120548590038290039081121561086e5760648451101561086a578295506108ad565b6064015b838181518110151561087c57fe5b90602001906020020151838381518110151561089457fe5b60209081029091010152600190910190610830565b8295505b5050505050919050565b60025490565b600160a060020a03831660009081526001602090815260408083203384529091528120548211156108ed57600080fd5b600160a060020a0384166000908152600160209081526040808320338452909152902054610921908363ffffffff610bcd16565b600160a060020a0385166000908152600160209081526040808320338452909152902055610950848484610be4565b5060019392505050565b60055460ff1690565b6000600160a060020a038316151561097a57600080fd5b336000908152600160209081526040808320600160a060020a03871684529091529020546109ae908363ffffffff610c7516565b336000818152600160209081526040808320600160a060020a0389168085529083529281902085905580519485525191937f8c5be1e5ebec7d5bd14f71427d1e84f3dd0314c0f7b2291e5b200ac8c7c3b925929081900390910190a350600192915050565b6000610a1e33610b72565b1515610a2957600080fd5b610a338383610c8e565b50600192915050565b610a463382610d26565b50565b600160a060020a031660009081526020819052604090205490565b610a6e8282610de2565b5050565b610a7e83833384610e74565b505050565b60048054604080516020601f600260001961010060018816150201909516949094049384018190048102820181019092528281526060939092909183018282801561059b5780601f106105705761010080835404028352916020019161059b565b610aed33610b72565b1515610af857600080fd5b610a4681611132565b610b0a3361117a565b565b6000600160a060020a0383161515610b2357600080fd5b336000908152600160209081526040808320600160a060020a03871684529091529020546109ae908363ffffffff610bcd16565b60006060610b66338585610be4565b610950338585846111c2565b6000610b8560068363ffffffff61130416565b92915050565b610b96338484610be4565b610a7e338484846111c2565b600160a060020a03918216600090815260016020908152604080832093909416825291909152205490565b60008083831115610bdd57600080fd5b5050900390565b610c2981600019026040805190810160405280600481526020017f73656e64000000000000000000000000000000000000000000000000000000008152508585610e74565b610c6a816040805190810160405280600781526020017f72656365697665000000000000000000000000000000000000000000000000008152508486610e74565b610a7e83838361133b565b600082820183811015610c8757600080fd5b9392505050565b600160a060020a0382161515610ca357600080fd5b600254610cb6908263ffffffff610c7516565b600255600160a060020a038216600090815260208190526040902054610ce2908263ffffffff610c7516565b600160a060020a03831660008181526020818152604080832094909455835185815293519293919260008051602061164c8339815191529281900390910190a35050565b600160a060020a0382161515610d3b57600080fd5b600160a060020a038216600090815260208190526040902054811115610d6057600080fd5b600254610d73908263ffffffff610bcd16565b600255600160a060020a038216600090815260208190526040902054610d9f908263ffffffff610bcd16565b600160a060020a0383166000818152602081815260408083209490945583518581529351919360008051602061164c833981519152929081900390910190a35050565b600160a060020a0382166000908152600160209081526040808320338452909152902054811115610e1257600080fd5b600160a060020a0382166000908152600160209081526040808320338452909152902054610e46908263ffffffff610bcd16565b600160a060020a0383166000908152600160209081526040808320338452909152902055610a6e8282610d26565b600160a060020a03821660009081526007602052604090205460641115610f6d57600160a060020a03808316600090815260076020908152604080832081516080810183528981528084018981524293820193909352948616606086015280546001818101808455928652948490208651600490920201908155915180519195949293610f06938501929101906115b3565b5060408281015160028301556060909201516003909101805473ffffffffffffffffffffffffffffffffffffffff1916600160a060020a0392831617905584166000908152600760209081528282205460089091529190206000199190910190555061112c565b600160a060020a0382166000908152600860205260409020546063141561105b57600160a060020a0380831660008181526008602090815260408083208390558051608081018252898152808301899052428183015294861660608601529282526007905290812080549091908110610fe257fe5b90600052602060002090600402016000820151816000015560208201518160010190805190602001906110169291906115b3565b50604082015160028201556060909101516003909101805473ffffffffffffffffffffffffffffffffffffffff1916600160a060020a0390921691909117905561112c565b600160a060020a03808316600081815260086020818152604080842080546001019081905581516080810183528b81528084018b905242818401529688166060880152948452600782529092209152805490919081106110b757fe5b90600052602060002090600402016000820151816000015560208201518160010190805190602001906110eb9291906115b3565b50604082015160028201556060909101516003909101805473ffffffffffffffffffffffffffffffffffffffff1916600160a060020a039092169190911790555b50505050565b61114360068263ffffffff6114df16565b604051600160a060020a038216907f6ae172837ea30b801fbfcdd4108aa1d5bf8ff775444fd70256b44e6bf3dfc3f690600090a250565b61118b60068263ffffffff61152d16565b604051600160a060020a038216907fe94479a9f7e1952cc78f2d6baab678adc1b772d936c6583def489e524cb6669290600090a250565b60006111cd84611579565b156112c457506040517fc0ee0b8a000000000000000000000000000000000000000000000000000000008152600160a060020a03858116600483019081526024830185905260606044840190815284516064850152845187949385169363c0ee0b8a938a938993899360840190602085019080838360005b8381101561125d578181015183820152602001611245565b50505050905090810190601f16801561128a5780820380516001836020036101000a031916815260200191505b50945050505050600060405180830381600087803b1580156112ab57600080fd5b505af11580156112bf573d6000803e3d6000fd5b505050505b83600160a060020a031685600160a060020a031660008051602061164c833981519152856040518082815260200191505060405180910390a35050505050565b6000600160a060020a038216151561131b57600080fd5b50600160a060020a03166000908152602091909152604090205460ff1690565b600160a060020a0383166000908152602081905260409020548111156113c257604080517f08c379a000000000000000000000000000000000000000000000000000000000815260206004820152600760248201527f6572726f725f3100000000000000000000000000000000000000000000000000604482015290519081900360640190fd5b600160a060020a038216151561143957604080517f08c379a000000000000000000000000000000000000000000000000000000000815260206004820152600760248201527f6572726f725f3200000000000000000000000000000000000000000000000000604482015290519081900360640190fd5b600160a060020a038316600090815260208190526040902054611462908263ffffffff610bcd16565b600160a060020a038085166000908152602081905260408082209390935590841681522054611497908263ffffffff610c7516565b600160a060020a0380841660008181526020818152604091829020949094558051858152905191939287169260008051602061164c83398151915292918290030190a3505050565b600160a060020a03811615156114f457600080fd5b6114fe8282611304565b1561150857600080fd5b600160a060020a0316600090815260209190915260409020805460ff19166001179055565b600160a060020a038116151561154257600080fd5b61154c8282611304565b151561155757600080fd5b600160a060020a0316600090815260209190915260409020805460ff19169055565b6000903b1190565b6080604051908101604052806000815260200160608152602001600081526020016000600160a060020a031681525090565b828054600181600116156101000203166002900490600052602060002090601f016020900481019282601f106115f457805160ff1916838001178555611621565b82800160010185558215611621579182015b82811115611621578251825591602001919060010190611606565b5061162d929150611631565b5090565b6105a391905b8082111561162d57600081556001016116375600ddf252ad1be2c89b69c2b068fc378daa952ba7f163c4a11628f55a4df523b3efa165627a7a723058202b4f36021ce8077809aec2ce7eaa39a5225dd666767054c3cb03605db922713a0029",
  "source": "pragma solidity ^0.4.23;\n\n\nimport \"../../../node_modules/openzeppelin-solidity/contracts/token/ERC20/ERC20Detailed.sol\";\nimport \"../../../node_modules/openzeppelin-solidity/contracts/token/ERC20/ERC20Mintable.sol\";\nimport \"../../../node_modules/openzeppelin-solidity/contracts/token/ERC20/ERC20Burnable.sol\";\nimport \"../../../node_modules/openzeppelin-solidity/contracts/token/ERC20/ERC20.sol\";\nimport \"../../../node_modules/openzeppelin-solidity/contracts/utils/Address.sol\";\nimport \"./MovementHistory.sol\";\n\n\nimport \"./ERC223ReceivingContract.sol\";\n\ncontract ERC223 is ERC20, ERC20Detailed, ERC20Mintable, ERC20Burnable, MovementHistory {\n  constructor (string _name, string _symbol, uint8 _decimals) public ERC20Detailed(_name, _symbol, _decimals){}\n\n    // Overridden transfer method with _data param for transaction data\n  function transfer(address _to, uint _value, bytes _data) public {\n    _transfer(msg.sender,_to,_value);\n    _tokenFallback(msg.sender, _to, _value , _data );\n  }\n\n    // Overridden Backwards compatible transfer method without _data param\n  function transfer(address _to, uint _value) public returns (bool) {\n    bytes memory empty;\n    _transfer(msg.sender,_to,_value);\n    _tokenFallback(msg.sender, _to, _value , empty );\n    return true;\n  }\n\n  function _tokenFallback(address sender, address to, uint256 value , bytes data ) internal {\n    if(Address.isContract(to)) {\n      ERC223ReceivingContract receiver = ERC223ReceivingContract(to);\n      receiver.tokenFallback(sender, value, data);\n    }\n    emit Transfer(sender, to, value);\n  }\n  \n  function _transfer(address from, address to, uint256 value) internal {\n    _addMovement(int(value) * -1, \"send\", from, to);\n    _addMovement(int(value), \"receive\", to, from);\n    ERC20._transfer(from,to,value);\n  }\n\n}",
  "sourcePath": "/Users/jordiescuderosubirana/ws/bloomen-wallet-truffle/contracts/bloomen/token/ERC223.sol",
  "compiler": {
    "name": "solc",
    "version": "0.4.24+commit.e67f0147.Emscripten.clang"
  },
  "schemaVersion": "2.0.1",
  "updatedAt": "2018-12-25T21:44:39.220Z"
}