{
  "contractName": "JsonContainerFactory",
  "abi": [
    {
      "constant": false,
      "inputs": [
        {
          "name": "_in",
          "type": "bytes"
        },
        {
          "name": "_name",
          "type": "string"
        }
      ],
      "name": "createContainer",
      "outputs": [],
      "payable": false,
      "stateMutability": "nonpayable",
      "type": "function"
    },
    {
      "constant": true,
      "inputs": [],
      "name": "getContainers",
      "outputs": [
        {
          "components": [
            {
              "name": "add",
              "type": "address"
            },
            {
              "name": "name",
              "type": "string"
            }
          ],
          "name": "",
          "type": "tuple[]"
        }
      ],
      "payable": false,
      "stateMutability": "view",
      "type": "function"
    }
  ],
  "bytecode": "0x608060405234801561001057600080fd5b50612418806100206000396000f30060806040526004361061004b5763ffffffff7c01000000000000000000000000000000000000000000000000000000006000350416636416e44d8114610050578063959a17f814610072575b600080fd5b34801561005c57600080fd5b5061007061006b3660046108e9565b61009d565b005b34801561007e57600080fd5b50610087610355565b6040516100949190610ad9565b60405180910390f35b6100a56107b4565b60606000606060006100b56107cb565b60006100c089610464565b96506100cb876104b5565b9550855194508460405190808252806020026020018201604052801561010b57816020015b6100f86107cb565b8152602001906001900390816100f05790505b509350600092505b848310156101db5760606040519081016040528061016661014a898781518110151561013b57fe5b906020019060200201516104b5565b8051600090811061015757fe5b90602001906020020151610588565b815260200161018c61017f898781518110151561013b57fe5b8051600190811061015757fe5b81526020016101b26101a5898781518110151561013b57fe5b8051600290811061015757fe5b81525091508184848151811015156101c657fe5b60209081029091010152600190920191610113565b6101e36107ed565b604051809103906000f0801580156101ff573d6000803e3d6000fd5b506040517f09d2213a00000000000000000000000000000000000000000000000000000000815290915073ffffffffffffffffffffffffffffffffffffffff8216906309d2213a90610255908790600401610af1565b600060405180830381600087803b15801561026f57600080fd5b505af1158015610283573d6000803e3d6000fd5b50506040805180820190915273ffffffffffffffffffffffffffffffffffffffff848116825260208083018d8152600080546001810180835591805285517f290decd9548b62a8d60345a988386fc84ba6bc95484008f6362f93160ef3e5636002909202918201805473ffffffffffffffffffffffffffffffffffffffff191691909616178555915180519197509495509293610346937f290decd9548b62a8d60345a988386fc84ba6bc95484008f6362f93160ef3e5649092019201906107fd565b50505050505050505050505050565b60606000805480602002602001604051908101604052809291908181526020016000905b8282101561045a5760008481526020908190206040805180820182526002868102909301805473ffffffffffffffffffffffffffffffffffffffff1682526001808201805485516101009382161593909302600019011695909504601f8101879004870282018701909452838152919490938582019390918301828280156104425780601f1061041757610100808354040283529160200191610442565b820191906000526020600020905b81548152906001019060200180831161042557829003601f168201915b50505050508152505081526020019060010190610379565b5050505090505b90565b61046c6107b4565b600082516000141561049357604080518082019091526000808252602082015291506104af565b5050604080518082019091528151815260208281019082018190525b50919050565b60606000806000806104c6866105fa565b15156104d157600080fd5b6104da86610629565b93508360405190808252806020026020018201604052801561051657816020015b6105036107b4565b8152602001906001900390816104fb5790505b5094506105268660200151610679565b8660200151019250600090505b8381101561057f57610544836106dc565b9150604080519081016040528083815260200184815250858281518110151561056957fe5b6020908102909101015291810191600101610533565b50505050919050565b60606000806060600061059e8660200151610679565b9350838660000151039250826040519080825280601f01601f1916602001820160405280156105d7578160200160208202803883390190505b5091508160200190506105f184876020015101828561076d565b50949350505050565b6020810151805160009190821a9060c060ff8316101561061d5760009250610622565b600192505b5050919050565b600080600080600092506106408560200151610679565b6020860151865191810193500190505b8082101561067057610661826106dc565b60019093019290910190610650565b50909392505050565b8051600090811a608081101561069257600091506104af565b60b88110806106ad575060c081108015906106ad575060f881105b156106bb57600191506104af565b60c08110156106d05760b519810191506104af565b60f519810191506104af565b8051600090811a60808110156106f557600191506104af565b60b881101561070a57607e19810191506104af565b60c08110156107375760b78103600184019350806020036101000a845104600182018101935050506104af565b60f881101561074c5760be19810191506104af565b60019290920151602083900360f7016101000a900490910160f51901919050565b60005b60208210610792578351835260209384019390920191601f1990910190610770565b50915181516020939093036101000a6000190180199091169216919091179052565b604080518082019091526000808252602082015290565b6060604051908101604052806060815260200160608152602001606081525090565b60405161182480610bbb83390190565b828054600181600116156101000203166002900490600052602060002090601f016020900481019282601f1061083e57805160ff191683800117855561086b565b8280016001018555821561086b579182015b8281111561086b578251825591602001919060010190610850565b5061087792915061087b565b5090565b61046191905b808211156108775760008155600101610881565b6000601f820183136108a657600080fd5b81356108b96108b482610b29565b610b02565b915080825260208301602083018583830111156108d557600080fd5b6108e0838284610b74565b50505092915050565b600080604083850312156108fc57600080fd5b823567ffffffffffffffff81111561091357600080fd5b61091f85828601610895565b925050602083013567ffffffffffffffff81111561093c57600080fd5b61094885828601610895565b9150509250929050565b61095b81610b5b565b82525050565b600061096c82610b57565b8084526020840193508360208202850161098585610b51565b60005b848110156109bc5783830388526109a0838351610a58565b92506109ab82610b51565b602098909801979150600101610988565b50909695505050505050565b60006109d382610b57565b808452602084019350836020820285016109ec85610b51565b60005b848110156109bc578383038852610a07838351610a8d565b9250610a1282610b51565b6020989098019791506001016109ef565b6000610a2e82610b57565b808452610a42816020860160208601610b80565b610a4b81610bb0565b9093016020019392505050565b80516000906040840190610a6c8582610952565b5060208301518482036020860152610a848282610a23565b95945050505050565b8051606080845260009190840190610aa58282610a23565b91505060208301518482036020860152610abf8282610a23565b91505060408301518482036040860152610a848282610a23565b60208082528101610aea8184610961565b9392505050565b60208082528101610aea81846109c8565b60405181810167ffffffffffffffff81118282101715610b2157600080fd5b604052919050565b600067ffffffffffffffff821115610b4057600080fd5b506020601f91909101601f19160190565b60200190565b5190565b73ffffffffffffffffffffffffffffffffffffffff1690565b82818337506000910152565b60005b83811015610b9b578181015183820152602001610b83565b83811115610baa576000848401525b50505050565b601f01601f1916905600608060405234801561001057600080fd5b50611804806100206000396000f3006080604052600436106100565763ffffffff7c010000000000000000000000000000000000000000000000000000000060003504166309d2213a811461005b5780633bc5de301461007d578063c43ed2c8146100a8575b600080fd5b34801561006757600080fd5b5061007b61007636600461150d565b6100c8565b005b34801561008957600080fd5b50610092610126565b60405161009f91906116d0565b60405180910390f35b3480156100b457600080fd5b5061007b6100c336600461154a565b610349565b6000806100d361127e565b83519250600091505b828210156101205783828151811015156100f257fe5b9060200190602002015190506101158160000151826020015183604001516104c2565b6001909101906100dc565b50505050565b60606001805480602002602001604051908101604052809291908181526020016000905b8282101561033f5760008481526020908190206040805160038602909201805460026001821615610100026000190190911604601f81018590049094028301608090810190925260608301848152929390928492909184918401828280156101f35780601f106101c8576101008083540402835291602001916101f3565b820191906000526020600020905b8154815290600101906020018083116101d657829003601f168201915b50505050508152602001600182018054600181600116156101000203166002900480601f0160208091040260200160405190810160405280929190818152602001828054600181600116156101000203166002900480156102955780601f1061026a57610100808354040283529160200191610295565b820191906000526020600020905b81548152906001019060200180831161027857829003601f168201915b5050509183525050600282810180546040805160206001841615610100026000190190931694909404601f810183900483028501830190915280845293810193908301828280156103275780601f106102fc57610100808354040283529160200191610327565b820191906000526020600020905b81548152906001019060200180831161030a57829003601f168201915b5050505050815250508152602001906001019061014a565b5050505090505b90565b6103516112a0565b606060008060006103618661090f565b945061036c85610960565b935083519250600091505b828210156104ba576103be6103a2858481518110151561039357fe5b90602001906020020151610960565b805160039081106103af57fe5b90602001906020020151610a33565b9050801515610446576104416103fa6103de868581518110151561039357fe5b805160009081106103eb57fe5b90602001906020020151610a69565b61041b61040e878681518110151561039357fe5b805160019081106103eb57fe5b61043c61042f888781518110151561039357fe5b805160029081106103eb57fe5b6104c2565b6104af565b806001141561046b576104416104666103de868581518110151561039357fe5b610adb565b6104af6104826103de868581518110151561039357fe5b61049661040e878681518110151561039357fe5b6104aa61042f888781518110151561039357fe5b610d3a565b600190910190610377565b505050505050565b6000606060008060606104d361127e565b6000896040518082805190602001908083835b602083106105055780518252601f1990920191602091820191016104e6565b51815160209384036101000a6000190180199092169116179052604080519290940182900382206000818152808352859020805480840285018401909652858452909d50919550909350840190508282801561058057602002820191906000526020600020905b81548152602001906001019080831161056c575b505050505095506000865111156106cc5785519450600093505b848410156106cc57600186858151811015156105b257fe5b60209081029091010151815481106105c657fe5b6000918252602091829020600390910201805460408051601f60026000196101006001871615020190941693909304928301859004850281018501909152818152928301828280156106595780601f1061062e57610100808354040283529160200191610659565b820191906000526020600020905b81548152906001019060200180831161063c57829003601f168201915b5050505050925061068161066c8b610fcf565b61067585610fcf565b9063ffffffff610ff516565b156106c1576040517f08c379a00000000000000000000000000000000000000000000000000000000081526004016106b8906116e8565b60405180910390fd5b60019093019261059a565b50506040805160608101825289815260208101899052908101879052600154600093505b80841015610855576107af6107aa60018681548110151561070d57fe5b6000918252602091829020600390910201805460408051601f60026000196101006001871615020190941693909304928301859004850281018501909152818152928301828280156107a05780601f10610775576101008083540402835291602001916107a0565b820191906000526020600020905b81548152906001019060200180831161078357829003601f168201915b5050505050610fcf565b611009565b1561084a57816001858154811015156107c457fe5b906000526020600020906003020160008201518160000190805190602001906107ee9291906112b7565b50602082810151805161080792600185019201906112b7565b50604082015180516108239160028401916020909101906112b7565b50505060008781526020818152604082208054600181018255908352912001849055610903565b6001909301926106f0565b600180548082018083556000929092528351805185926003027fb10e2d527612073b26eecdfd717e6a320cf44b4afac2b0732d9fcbe2b7fa0cf601916108a0918391602001906112b7565b5060208281015180516108b992600185019201906112b7565b50604082015180516108d59160028401916020909101906112b7565b5050506000888152602081815260408220600180548254918201835591845291909220600019909201910155505b50505050505050505050565b6109176112a0565b600082516000141561093e576040805180820190915260008082526020820152915061095a565b5050604080518082019091528151815260208281019082018190525b50919050565b60606000806000806109718661100e565b151561097c57600080fd5b6109858661103d565b9350836040519080825280602002602001820160405280156109c157816020015b6109ae6112a0565b8152602001906001900390816109a65790505b5094506109d1866020015161108d565b8660200151019250600090505b83811015610a2a576109ef836110f0565b91506040805190810160405280838152602001848152508582815181101515610a1457fe5b60209081029091010152918101916001016109de565b50505050919050565b6000806000806000610a48866020015161108d565b86516020978801518201519190039096036101000a90950495945050505050565b606060008060606000610a7f866020015161108d565b9350838660000151039250826040519080825280601f01601f191660200182016040528015610ab8578160200160208202803883390190505b509150816020019050610ad2848760200151018285611181565b50949350505050565b600060606000806060856040518082805190602001908083835b60208310610b145780518252601f199092019160209182019101610af5565b51815160209384036101000a6000190180199092169116179052604080519290940182900382206000818152808352859020805480840285018401909652858452909b509195509093508401905082828015610b8f57602002820191906000526020600020905b815481526020019060010190808311610b7b575b5050505050935060008451111515610bd3576040517f08c379a00000000000000000000000000000000000000000000000000000000081526004016106b8906116fe565b83519250600091505b828210156104ba5760018483815181101515610bf457fe5b6020908102909101015181548110610c0857fe5b6000918252602091829020600390910201805460408051601f6002600019610100600187161502019094169390930492830185900485028101850190915281815292830182828015610c9b5780601f10610c7057610100808354040283529160200191610c9b565b820191906000526020600020905b815481529060010190602001808311610c7e57829003601f168201915b50505050509050610cb7610cae87610fcf565b61067583610fcf565b15610d2f5760018483815181101515610ccc57fe5b6020908102909101015181548110610ce057fe5b60009182526020822060039091020190610cfa8282611335565b610d08600183016000611335565b610d16600283016000611335565b50506000858152602081905260408120610d2f9161137c565b600190910190610bdc565b600060606000806060876040518082805190602001908083835b60208310610d735780518252601f199092019160209182019101610d54565b51815160209384036101000a6000190180199092169116179052604080519290940182900382206000818152808352859020805480840285018401909652858452909b509195509093508401905082828015610dee57602002820191906000526020600020905b815481526020019060010190808311610dda575b5050505050935060008451111515610e32576040517f08c379a00000000000000000000000000000000000000000000000000000000081526004016106b8906116fe565b83519250600091505b82821015610fc55760018483815181101515610e5357fe5b6020908102909101015181548110610e6757fe5b6000918252602091829020600390910201805460408051601f6002600019610100600187161502019094169390930492830185900485028101850190915281815292830182828015610efa5780601f10610ecf57610100808354040283529160200191610efa565b820191906000526020600020905b815481529060010190602001808311610edd57829003601f168201915b50505050509050610f0d610cae89610fcf565b15610fba576060604051908101604052808981526020018881526020018781525060018584815181101515610f3e57fe5b6020908102909101015181548110610f5257fe5b90600052602060002090600302016000820151816000019080519060200190610f7c9291906112b7565b506020828101518051610f9592600185019201906112b7565b5060408201518051610fb19160028401916020909101906112b7565b50905050610fc5565b600190910190610e3b565b5050505050505050565b610fd76112a0565b50604080518082019091528151815260209182019181019190915290565b600061100183836111c8565b159392505050565b511590565b6020810151805160009190821a9060c060ff831610156110315760009250611036565b600192505b5050919050565b60008060008060009250611054856020015161108d565b6020860151865191810193500190505b8082101561108457611075826110f0565b60019093019290910190611064565b50909392505050565b8051600090811a60808110156110a6576000915061095a565b60b88110806110c1575060c081108015906110c1575060f881105b156110cf576001915061095a565b60c08110156110e45760b5198101915061095a565b60f5198101915061095a565b8051600090811a6080811015611109576001915061095a565b60b881101561111e57607e198101915061095a565b60c081101561114b5760b78103600184019350806020036101000a8451046001820181019350505061095a565b60f88110156111605760be198101915061095a565b60019290920151602083900360f7016101000a900490910160f51901919050565b60005b602082106111a6578351835260209384019390920191601f1990910190611184565b50915181516020939093036101000a6000190180199091169216919091179052565b60008060008060008060008060008a6000015197508a600001518a6000015110156111f257895197505b8a60200151965089602001519550600094505b8785101561126857865186519094509250828414611254576000199150602088101561123e57600185896020030160080260020a031991505b5081811683821603801561125457809850611270565b602096870196958601959490940193611205565b89518b510398505b505050505050505092915050565b6060604051908101604052806060815260200160608152602001606081525090565b604080518082019091526000808252602082015290565b828054600181600116156101000203166002900490600052602060002090601f016020900481019282601f106112f857805160ff1916838001178555611325565b82800160010185558215611325579182015b8281111561132557825182559160200191906001019061130a565b50611331929150611396565b5090565b50805460018160011615610100020316600290046000825580601f1061135b5750611379565b601f0160209004906000526020600020908101906113799190611396565b50565b508054600082559060005260206000209081019061137991905b61034691905b80821115611331576000815560010161139c565b6000601f820183136113c157600080fd5b81356113d46113cf82611735565b61170e565b81815260209384019390925082018360005b8381101561141257813586016113fc888261146b565b84525060209283019291909101906001016113e6565b5050505092915050565b6000601f8201831361142d57600080fd5b813561143b6113cf82611756565b9150808252602083016020830185838301111561145757600080fd5b611462838284611788565b50505092915050565b60006060828403121561147d57600080fd5b611487606061170e565b9050813567ffffffffffffffff8111156114a057600080fd5b6114ac8482850161141c565b825250602082013567ffffffffffffffff8111156114c957600080fd5b6114d58482850161141c565b602083015250604082013567ffffffffffffffff8111156114f557600080fd5b6115018482850161141c565b60408301525092915050565b60006020828403121561151f57600080fd5b813567ffffffffffffffff81111561153657600080fd5b611542848285016113b0565b949350505050565b60006020828403121561155c57600080fd5b813567ffffffffffffffff81111561157357600080fd5b6115428482850161141c565b600061158a82611784565b808452602084019350836020820285016115a38561177e565b60005b848110156115da5783830388526115be83835161167b565b92506115c98261177e565b6020989098019791506001016115a6565b50909695505050505050565b60006115f182611784565b808452611605816020860160208601611794565b61160e816117c0565b9093016020019392505050565b601b81527f4572726f723a207061746820616c7265616479206578697374732e0000000000602082015260400190565b601c81527f4572726f723a207061746820646f6573206e6f74206578697374732e00000000602082015260400190565b805160608084526000919084019061169382826115e6565b915050602083015184820360208601526116ad82826115e6565b915050604083015184820360408601526116c782826115e6565b95945050505050565b602080825281016116e1818461157f565b9392505050565b602080825281016116f88161161b565b92915050565b602080825281016116f88161164b565b60405181810167ffffffffffffffff8111828210171561172d57600080fd5b604052919050565b600067ffffffffffffffff82111561174c57600080fd5b5060209081020190565b600067ffffffffffffffff82111561176d57600080fd5b506020601f91909101601f19160190565b60200190565b5190565b82818337506000910152565b60005b838110156117af578181015183820152602001611797565b838111156101205750506000910152565b601f01601f1916905600a265627a7a72305820d7d5ff9016190af22025d17454441face3238f1348a02b05f4990d954bfa1e6f6c6578706572696d656e74616cf50037a265627a7a72305820a2c4d41111d486b1220dddec0bbcb2f22efa85deaa9975924f646d82eaa3983f6c6578706572696d656e74616cf50037",
  "source": "pragma solidity 0.4.24;\r\npragma experimental ABIEncoderV2;\r\n\r\nimport \"./lib/Structs.sol\";\r\nimport \"./JsonContainer.sol\";\r\nimport \"../node_modules/solidity-rlp/contracts/RLPReader.sol\";\r\n\r\ncontract JsonContainerFactory is Structs {\r\n\r\n    using RLPReader for bytes;\r\n    using RLPReader for uint;\r\n    using RLPReader for RLPReader.RLPItem;\r\n\r\n    Container[] private containers_;\r\n\r\n    function createContainer(bytes memory _in, string _name) public {\r\n        RLPReader.RLPItem memory item = _in.toRlpItem();\r\n        RLPReader.RLPItem[] memory itemList = item.toList();\r\n\r\n        uint listLength = itemList.length;\r\n        PathValue[] memory data = new PathValue[](listLength);\r\n        for (uint i = 0; i < listLength; i++) {\r\n            PathValue memory pathValue = PathValue(\r\n                string(itemList[i].toList()[0].toBytes()),\r\n                string(itemList[i].toList()[1].toBytes()),\r\n                string(itemList[i].toList()[2].toBytes())\r\n            );\r\n            data[i] = pathValue;\r\n        }\r\n\r\n        JsonContainer container = new JsonContainer();\r\n        container.initialize(data);\r\n        containers_.push(Container(address(container), _name));\r\n    }\r\n\r\n    function getContainers() public view returns (Container[]) {\r\n        return containers_;\r\n    }\r\n\r\n}",
  "sourcePath": "C:\\Users\\a562145\\git\\bloomen-wallet-truffle\\node_modules\\json-warehouse\\contracts\\JsonContainerFactory.sol",
  "compiler": {
    "name": "solc",
    "version": "0.4.24+commit.e67f0147.Emscripten.clang"
  },
  "schemaVersion": "2.0.1",
  "updatedAt": "2018-12-04T08:44:26.230Z"
}