{
  "contractName": "JsonContainer",
  "abi": [
    {
      "constant": true,
      "inputs": [],
      "name": "getNodes",
      "outputs": [
        {
          "components": [
            {
              "name": "path",
              "type": "string"
            },
            {
              "name": "value",
              "type": "string"
            },
            {
              "name": "valueType",
              "type": "string"
            }
          ],
          "name": "",
          "type": "tuple[]"
        }
      ],
      "payable": false,
      "stateMutability": "view",
      "type": "function"
    },
    {
      "constant": false,
      "inputs": [
        {
          "components": [
            {
              "name": "path",
              "type": "string"
            },
            {
              "name": "value",
              "type": "string"
            },
            {
              "name": "valueType",
              "type": "string"
            }
          ],
          "name": "_data",
          "type": "tuple[]"
        }
      ],
      "name": "initialize",
      "outputs": [],
      "payable": false,
      "stateMutability": "nonpayable",
      "type": "function"
    },
    {
      "constant": false,
      "inputs": [
        {
          "name": "_paths",
          "type": "string[]"
        },
        {
          "name": "_values",
          "type": "string[]"
        },
        {
          "name": "_types",
          "type": "string[]"
        }
      ],
      "name": "add",
      "outputs": [],
      "payable": false,
      "stateMutability": "nonpayable",
      "type": "function"
    },
    {
      "constant": false,
      "inputs": [
        {
          "name": "_paths",
          "type": "string[]"
        }
      ],
      "name": "del",
      "outputs": [],
      "payable": false,
      "stateMutability": "nonpayable",
      "type": "function"
    },
    {
      "constant": false,
      "inputs": [
        {
          "name": "_paths",
          "type": "string[]"
        },
        {
          "name": "_values",
          "type": "string[]"
        },
        {
          "name": "_types",
          "type": "string[]"
        }
      ],
      "name": "modify",
      "outputs": [],
      "payable": false,
      "stateMutability": "nonpayable",
      "type": "function"
    }
  ],
  "bytecode": "0x608060405234801561001057600080fd5b5061146f806100206000396000f30060806040526004361061006c5763ffffffff7c010000000000000000000000000000000000000000000000000000000060003504166309d2213a81146100715780633d92072c14610093578063704d287b146100b3578063dd5f3b99146100d3578063e29581aa146100f3575b600080fd5b34801561007d57600080fd5b5061009161008c36600461123b565b61011e565b005b34801561009f57600080fd5b506100916100ae3660046111a7565b610177565b3480156100bf57600080fd5b506100916100ce3660046111a7565b610201565b3480156100df57600080fd5b506100916100ee36600461116a565b610285565b3480156100ff57600080fd5b506101086102bd565b6040516101159190611361565b60405180910390f35b6000610128610e7a565b600091505b825182101561017257828281518110151561014457fe5b9060200190602002015190506101678160000151826020015183604001516104e0565b60019091019061012d565b505050565b60008251845114801561018b575081518451145b151561019657600080fd5b5060005b83518110156101fb576101f384828151811015156101b457fe5b9060200190602002015184838151811015156101cc57fe5b9060200190602002015184848151811015156101e457fe5b906020019060200201516104e0565b60010161019a565b50505050565b600082518451148015610215575081518451145b151561022057600080fd5b5060005b83518110156101fb5761027d848281518110151561023e57fe5b90602001906020020151848381518110151561025657fe5b90602001906020020151848481518110151561026e57fe5b906020019060200201516108ed565b600101610224565b60005b81518110156102b9576102b182828151811015156102a257fe5b90602001906020020151610b59565b600101610288565b5050565b60606001805480602002602001604051908101604052809291908181526020016000905b828210156104d65760008481526020908190206040805160038602909201805460026001821615610100026000190190911604601f810185900490940283016080908101909252606083018481529293909284929091849184018282801561038a5780601f1061035f5761010080835404028352916020019161038a565b820191906000526020600020905b81548152906001019060200180831161036d57829003601f168201915b50505050508152602001600182018054600181600116156101000203166002900480601f01602080910402602001604051908101604052809291908181526020018280546001816001161561010002031660029004801561042c5780601f106104015761010080835404028352916020019161042c565b820191906000526020600020905b81548152906001019060200180831161040f57829003601f168201915b5050509183525050600282810180546040805160206001841615610100026000190190931694909404601f810183900483028501830190915280845293810193908301828280156104be5780601f10610493576101008083540402835291602001916104be565b820191906000526020600020905b8154815290600101906020018083116104a157829003601f168201915b505050505081525050815260200190600101906102e1565b5050505090505b90565b60006060600060606104f0610e7a565b876040518082805190602001908083835b602083106105205780518252601f199092019160209182019101610501565b51815160209384036101000a6000190180199092169116179052604080519290940182900382206000818152808352859020805480840285018401909652858452909b50919550909350840190508282801561059b57602002820191906000526020600020905b815481526020019060010190808311610587575b505050505093506000845111156106ae57600092505b83518310156106ae57600184848151811015156105ca57fe5b60209081029091010151815481106105de57fe5b6000918252602091829020600390910201805460408051601f60026000196101006001871615020190941693909304928301859004850281018501909152818152928301828280156106715780601f1061064657610100808354040283529160200191610671565b820191906000526020600020905b81548152906001019060200180831161065457829003601f168201915b5050505050915061069961068489610d85565b61068d84610d85565b9063ffffffff610dab16565b156106a357600080fd5b6001909201916105b1565b506040805160608101825288815260208101889052908101869052600092505b6001548310156108355761078f61078a6001858154811015156106ed57fe5b6000918252602091829020600390910201805460408051601f60026000196101006001871615020190941693909304928301859004850281018501909152818152928301828280156107805780601f1061075557610100808354040283529160200191610780565b820191906000526020600020905b81548152906001019060200180831161076357829003601f168201915b5050505050610d85565b610dbf565b1561082a57806001848154811015156107a457fe5b906000526020600020906003020160008201518160000190805190602001906107ce929190610e9c565b5060208281015180516107e79260018501920190610e9c565b5060408201518051610803916002840191602090910190610e9c565b505050600085815260208181526040822080546001810182559083529120018390556108e3565b6001909201916106ce565b600180548082018083556000929092528251805184926003027fb10e2d527612073b26eecdfd717e6a320cf44b4afac2b0732d9fcbe2b7fa0cf6019161088091839160200190610e9c565b5060208281015180516108999260018501920190610e9c565b50604082015180516108b5916002840191602090910190610e9c565b5050506000868152602081815260408220600180548254918201835591845291909220600019909201910155505b5050505050505050565b6000606060006060866040518082805190602001908083835b602083106109255780518252601f199092019160209182019101610906565b51815160209384036101000a6000190180199092169116179052604080519290940182900382206000818152808352859020805480840285018401909652858452909a5091955090935084019050828280156109a057602002820191906000526020600020905b81548152602001906001019080831161098c575b50505050509250600083511115156109b757600080fd5b600091505b8251821015610b5057600183838151811015156109d557fe5b60209081029091010151815481106109e957fe5b6000918252602091829020600390910201805460408051601f6002600019610100600187161502019094169390930492830185900485028101850190915281815292830182828015610a7c5780601f10610a5157610100808354040283529160200191610a7c565b820191906000526020600020905b815481529060010190602001808311610a5f57829003601f168201915b50505050509050610a98610a8f88610d85565b61068d83610d85565b15610b45576060604051908101604052808881526020018781526020018681525060018484815181101515610ac957fe5b6020908102909101015181548110610add57fe5b90600052602060002090600302016000820151816000019080519060200190610b07929190610e9c565b506020828101518051610b209260018501920190610e9c565b5060408201518051610b3c916002840191602090910190610e9c565b50905050610b50565b6001909101906109bc565b50505050505050565b6000606060006060846040518082805190602001908083835b60208310610b915780518252601f199092019160209182019101610b72565b51815160209384036101000a6000190180199092169116179052604080519290940182900382206000818152808352859020805480840285018401909652858452909a509195509093508401905082828015610c0c57602002820191906000526020600020905b815481526020019060010190808311610bf8575b5050505050925060008351111515610c2357600080fd5b600091505b8251821015610d7e5760018383815181101515610c4157fe5b6020908102909101015181548110610c5557fe5b6000918252602091829020600390910201805460408051601f6002600019610100600187161502019094169390930492830185900485028101850190915281815292830182828015610ce85780601f10610cbd57610100808354040283529160200191610ce8565b820191906000526020600020905b815481529060010190602001808311610ccb57829003601f168201915b50505050509050610cfb610a8f86610d85565b15610d735760018383815181101515610d1057fe5b6020908102909101015181548110610d2457fe5b60009182526020822060039091020190610d3e8282610f1a565b610d4c600183016000610f1a565b610d5a600283016000610f1a565b50506000848152602081905260408120610d7391610f61565b600190910190610c28565b5050505050565b610d8d610f7f565b50604080518082019091528151815260209182019181019190915290565b6000610db78383610dc4565b159392505050565b511590565b60008060008060008060008060008a6000015197508a600001518a600001511015610dee57895197505b8a60200151965089602001519550600094505b87851015610e6457865186519094509250828414610e505760001991506020881015610e3a57600185896020030160080260020a031991505b50818116838216038015610e5057809850610e6c565b602096870196958601959490940193610e01565b89518b510398505b505050505050505092915050565b6060604051908101604052806060815260200160608152602001606081525090565b828054600181600116156101000203166002900490600052602060002090601f016020900481019282601f10610edd57805160ff1916838001178555610f0a565b82800160010185558215610f0a579182015b82811115610f0a578251825591602001919060010190610eef565b50610f16929150610f96565b5090565b50805460018160011615610100020316600290046000825580601f10610f405750610f5e565b601f016020900490600052602060002090810190610f5e9190610f96565b50565b5080546000825590600052602060002090810190610f5e9190610f96565b604080518082019091526000808252602082015290565b6104dd91905b80821115610f165760008155600101610f9c565b6000601f82018313610fc157600080fd5b8135610fd4610fcf826113a0565b611379565b81815260209384019390925082018360005b838110156110125781358601610ffc8882611079565b8452506020928301929190910190600101610fe6565b5050505092915050565b6000601f8201831361102d57600080fd5b813561103b610fcf826113a0565b81815260209384019390925082018360005b83811015611012578135860161106388826110c8565b845250602092830192919091019060010161104d565b6000601f8201831361108a57600080fd5b8135611098610fcf826113c1565b915080825260208301602083018583830111156110b457600080fd5b6110bf8382846113f3565b50505092915050565b6000606082840312156110da57600080fd5b6110e46060611379565b9050813567ffffffffffffffff8111156110fd57600080fd5b61110984828501611079565b825250602082013567ffffffffffffffff81111561112657600080fd5b61113284828501611079565b602083015250604082013567ffffffffffffffff81111561115257600080fd5b61115e84828501611079565b60408301525092915050565b60006020828403121561117c57600080fd5b813567ffffffffffffffff81111561119357600080fd5b61119f84828501610fb0565b949350505050565b6000806000606084860312156111bc57600080fd5b833567ffffffffffffffff8111156111d357600080fd5b6111df86828701610fb0565b935050602084013567ffffffffffffffff8111156111fc57600080fd5b61120886828701610fb0565b925050604084013567ffffffffffffffff81111561122557600080fd5b61123186828701610fb0565b9150509250925092565b60006020828403121561124d57600080fd5b813567ffffffffffffffff81111561126457600080fd5b61119f8482850161101c565b600061127b826113ef565b80845260208401935083602082028501611294856113e9565b60005b848110156112cb5783830388526112af83835161130c565b92506112ba826113e9565b602098909801979150600101611297565b50909695505050505050565b60006112e2826113ef565b8084526112f68160208601602086016113ff565b6112ff8161142b565b9093016020019392505050565b805160608084526000919084019061132482826112d7565b9150506020830151848203602086015261133e82826112d7565b9150506040830151848203604086015261135882826112d7565b95945050505050565b602080825281016113728184611270565b9392505050565b60405181810167ffffffffffffffff8111828210171561139857600080fd5b604052919050565b600067ffffffffffffffff8211156113b757600080fd5b5060209081020190565b600067ffffffffffffffff8211156113d857600080fd5b506020601f91909101601f19160190565b60200190565b5190565b82818337506000910152565b60005b8381101561141a578181015183820152602001611402565b838111156101fb5750506000910152565b601f01601f1916905600a265627a7a723058208244e56778837495be1f5a64f046fc7df82a04584b2df6b19fc0b6fd2925e1dc6c6578706572696d656e74616cf50037",
  "source": "pragma solidity ^0.4.24;\r\npragma experimental ABIEncoderV2;\r\n\r\nimport \"./lib/Strings.sol\";\r\nimport \"./lib/Structs.sol\";\r\n\r\ncontract JsonContainer is Structs {\r\n\r\n  using Strings for *;\r\n\r\n  mapping (bytes32 => uint[]) private hashIndexMap_;\r\n\r\n  PathValue[] private data_;\r\n\r\n  function getNodes() public view returns (PathValue[]){    \r\n    return data_;\r\n  }\r\n\r\n  function initialize(PathValue[] _data) public {\r\n    for (uint i = 0;i < _data.length; i++) {\r\n      PathValue memory pathValue = _data[i];\r\n      _addPath(pathValue.path, pathValue.value, pathValue.valueType);\r\n    }\r\n  }\r\n\r\n  function add(string[] _paths, string[] _values, string[] _types) public {\r\n    require(_paths.length == _values.length && _paths.length == _types.length);\r\n    for (uint i = 0; i < _paths.length; i++) {\r\n      _addPath(_paths[i], _values[i], _types[i]);\r\n    }\r\n  }\r\n  \r\n  function del(string[] _paths) public {\r\n    for (uint i = 0; i < _paths.length; i++) {\r\n      _deletePath(_paths[i]);\r\n    }\r\n  }\r\n\r\n  function modify(string[] _paths, string[] _values, string[] _types) public {\r\n    require(_paths.length == _values.length && _paths.length == _types.length);\r\n    for (uint i = 0; i < _paths.length; i++) {\r\n      _modifyPath(_paths[i], _values[i], _types[i]);\r\n    }\r\n  }\r\n\r\n  function _addPath(string _path, string _value, string _valueType) internal {\r\n    bytes32 pathHash = keccak256(bytes(_path));\r\n    uint[] memory indexArray = hashIndexMap_[pathHash];\r\n    if (indexArray.length > 0) {\r\n      for (uint i = 0; i < indexArray.length; i++) {\r\n        string memory storedPath = data_[indexArray[i]].path;\r\n        require(!storedPath.toSlice().equals(_path.toSlice()));\r\n      }\r\n    }\r\n    PathValue memory pathValue = PathValue(_path, _value, _valueType);\r\n    for (i = 0; i < data_.length; i++) {\r\n      if (data_[i].path.toSlice().empty()) {\r\n        data_[i] = pathValue;\r\n        hashIndexMap_[pathHash].push(i);\r\n        return;\r\n      }\r\n    }\r\n    data_.push(pathValue);\r\n    hashIndexMap_[pathHash].push(data_.length - 1); \r\n  }\r\n\r\n  function _deletePath(string _path) internal {\r\n    bytes32 pathHash = keccak256(bytes(_path));\r\n    uint[] memory indexArray = hashIndexMap_[pathHash];\r\n    require(indexArray.length > 0);\r\n    for (uint i = 0; i < indexArray.length; i++) {\r\n      string memory storedPath = data_[indexArray[i]].path;\r\n      if (storedPath.toSlice().equals(_path.toSlice())) {\r\n        delete data_[indexArray[i]];\r\n        delete hashIndexMap_[pathHash];\r\n      }\r\n    }\r\n  }\r\n\r\n  function _modifyPath(string _path, string _value, string _valueType) internal {\r\n    bytes32 pathHash = keccak256(bytes(_path));\r\n    uint[] memory indexArray = hashIndexMap_[pathHash];\r\n    require(indexArray.length > 0);\r\n    for (uint i = 0; i < indexArray.length; i++) {\r\n      string memory storedPath = data_[indexArray[i]].path;\r\n      if (storedPath.toSlice().equals(_path.toSlice())) {\r\n        data_[indexArray[i]] = PathValue(_path, _value, _valueType);\r\n        return;\r\n      }\r\n    }\r\n  }\r\n\r\n}",
  "sourcePath": "C:\\Users\\a562145\\git\\bloomen-wallet-truffle\\contracts\\JsonContainer.sol",
  "compiler": {
    "name": "solc",
    "version": "0.4.24+commit.e67f0147.Emscripten.clang"
  },
  "schemaVersion": "2.0.1",
  "updatedAt": "2018-11-16T14:06:56.421Z"
}