{
  "contractName": "Json",
  "abi": [
    {
      "constant": true,
      "inputs": [],
      "name": "getNodes",
      "outputs": [
        {
          "components": [
            {
              "name": "path",
              "type": "string"
            },
            {
              "name": "value",
              "type": "string"
            }
          ],
          "name": "",
          "type": "tuple[]"
        }
      ],
      "payable": false,
      "stateMutability": "view",
      "type": "function"
    },
    {
      "constant": false,
      "inputs": [
        {
          "name": "_path",
          "type": "string"
        },
        {
          "name": "_data",
          "type": "string"
        }
      ],
      "name": "addPathData",
      "outputs": [],
      "payable": false,
      "stateMutability": "nonpayable",
      "type": "function"
    }
  ],
  "bytecode": "0x608060405234801561001057600080fd5b506105e8806100206000396000f30060806040526004361061004b5763ffffffff7c01000000000000000000000000000000000000000000000000000000006000350416633e9c14b28114610050578063e29581aa14610072575b600080fd5b34801561005c57600080fd5b5061007061006b3660046103b7565b61009d565b005b34801561007e57600080fd5b50610087610128565b60405161009491906104f7565b60405180910390f35b6100a56102b4565b506040805180820190915282815260208082018390526000805460018101808355918052835180519293859360029093027f290decd9548b62a8d60345a988386fc84ba6bc95484008f6362f93160ef3e563019261010692849201906102cb565b50602082810151805161011f92600185019201906102cb565b50505050505050565b60606000805480602002602001604051908101604052809291908181526020016000905b828210156102aa5760008481526020908190206040805160028681029093018054600181161561010002600019011693909304601f8101859004909402810160609081018352918101848152909384928491908401828280156101f05780601f106101c5576101008083540402835291602001916101f0565b820191906000526020600020905b8154815290600101906020018083116101d357829003601f168201915b50505050508152602001600182018054600181600116156101000203166002900480601f0160208091040260200160405190810160405280929190818152602001828054600181600116156101000203166002900480156102925780601f1061026757610100808354040283529160200191610292565b820191906000526020600020905b81548152906001019060200180831161027557829003601f168201915b5050505050815250508152602001906001019061014c565b5050505090505b90565b604080518082019091526060808252602082015290565b828054600181600116156101000203166002900490600052602060002090601f016020900481019282601f1061030c57805160ff1916838001178555610339565b82800160010185558215610339579182015b8281111561033957825182559160200191906001019061031e565b50610345929150610349565b5090565b6102b191905b80821115610345576000815560010161034f565b6000601f8201831361037457600080fd5b813561038761038282610536565b61050f565b915080825260208301602083018583830111156103a357600080fd5b6103ae838284610568565b50505092915050565b600080604083850312156103ca57600080fd5b823567ffffffffffffffff8111156103e157600080fd5b6103ed85828601610363565b925050602083013567ffffffffffffffff81111561040a57600080fd5b61041685828601610363565b9150509250929050565b600061042b82610564565b808452602084019350836020820285016104448561055e565b60005b8481101561047b57838303885261045f8383516104bc565b925061046a8261055e565b602098909801979150600101610447565b50909695505050505050565b600061049282610564565b8084526104a6816020860160208601610574565b6104af816105a4565b9093016020019392505050565b80516040808452600091908401906104d48282610487565b915050602083015184820360208601526104ee8282610487565b95945050505050565b602080825281016105088184610420565b9392505050565b60405181810167ffffffffffffffff8111828210171561052e57600080fd5b604052919050565b600067ffffffffffffffff82111561054d57600080fd5b506020601f91909101601f19160190565b60200190565b5190565b82818337506000910152565b60005b8381101561058f578181015183820152602001610577565b8381111561059e576000848401525b50505050565b601f01601f1916905600a265627a7a72305820fa5bbbdb2c82663b69c7010b6a97c547aeb6fce04ec55d08a9a8ec4f9bc84fe66c6578706572696d656e74616cf50037",
  "source": "pragma solidity ^0.4.23;\npragma experimental ABIEncoderV2;\n\ncontract Json  {\n\n  struct PathValue{\n    string path;\n    string value;\n  }\n\n  PathValue[] data_;\n\n  function getNodes() public view returns (PathValue[]){    \n    return data_;\n  }\n\n  function addPathData(string _path, string  _data) public {\n    PathValue memory result = PathValue(_path, _data);\n    data_.push(result);\n  }\n}",
  "sourcePath": "/home/jordi/ws/bloomen-wallet-truffle/contracts/bloomen/common/Json.sol",
  "compiler": {
    "name": "solc",
    "version": "0.4.24+commit.e67f0147.Emscripten.clang"
  },
  "schemaVersion": "2.0.1",
  "updatedAt": "2018-12-05T08:43:02.443Z"
}