{
  "contractName": "PrepaidCardManager",
  "abi": [
    {
      "constant": true,
      "inputs": [],
      "name": "name",
      "outputs": [
        {
          "name": "",
          "type": "string"
        }
      ],
      "payable": false,
      "stateMutability": "view",
      "type": "function"
    },
    {
      "constant": false,
      "inputs": [
        {
          "name": "spender",
          "type": "address"
        },
        {
          "name": "value",
          "type": "uint256"
        }
      ],
      "name": "approve",
      "outputs": [
        {
          "name": "",
          "type": "bool"
        }
      ],
      "payable": false,
      "stateMutability": "nonpayable",
      "type": "function"
    },
    {
      "constant": true,
      "inputs": [
        {
          "name": "_page",
          "type": "int256"
        }
      ],
      "name": "getMovements",
      "outputs": [
        {
          "components": [
            {
              "name": "amount",
              "type": "int256"
            },
            {
              "name": "description",
              "type": "string"
            },
            {
              "name": "date",
              "type": "uint256"
            },
            {
              "name": "to",
              "type": "address"
            }
          ],
          "name": "",
          "type": "tuple[]"
        }
      ],
      "payable": false,
      "stateMutability": "view",
      "type": "function"
    },
    {
      "constant": true,
      "inputs": [],
      "name": "totalSupply",
      "outputs": [
        {
          "name": "",
          "type": "uint256"
        }
      ],
      "payable": false,
      "stateMutability": "view",
      "type": "function"
    },
    {
      "constant": false,
      "inputs": [
        {
          "name": "from",
          "type": "address"
        },
        {
          "name": "to",
          "type": "address"
        },
        {
          "name": "value",
          "type": "uint256"
        }
      ],
      "name": "transferFrom",
      "outputs": [
        {
          "name": "",
          "type": "bool"
        }
      ],
      "payable": false,
      "stateMutability": "nonpayable",
      "type": "function"
    },
    {
      "constant": true,
      "inputs": [],
      "name": "decimals",
      "outputs": [
        {
          "name": "",
          "type": "uint8"
        }
      ],
      "payable": false,
      "stateMutability": "view",
      "type": "function"
    },
    {
      "constant": false,
      "inputs": [
        {
          "name": "spender",
          "type": "address"
        },
        {
          "name": "addedValue",
          "type": "uint256"
        }
      ],
      "name": "increaseAllowance",
      "outputs": [
        {
          "name": "",
          "type": "bool"
        }
      ],
      "payable": false,
      "stateMutability": "nonpayable",
      "type": "function"
    },
    {
      "constant": false,
      "inputs": [
        {
          "name": "to",
          "type": "address"
        },
        {
          "name": "value",
          "type": "uint256"
        }
      ],
      "name": "mint",
      "outputs": [
        {
          "name": "",
          "type": "bool"
        }
      ],
      "payable": false,
      "stateMutability": "nonpayable",
      "type": "function"
    },
    {
      "constant": false,
      "inputs": [
        {
          "name": "value",
          "type": "uint256"
        }
      ],
      "name": "burn",
      "outputs": [],
      "payable": false,
      "stateMutability": "nonpayable",
      "type": "function"
    },
    {
      "constant": true,
      "inputs": [
        {
          "name": "owner",
          "type": "address"
        }
      ],
      "name": "balanceOf",
      "outputs": [
        {
          "name": "",
          "type": "uint256"
        }
      ],
      "payable": false,
      "stateMutability": "view",
      "type": "function"
    },
    {
      "constant": false,
      "inputs": [],
      "name": "renounceOwnership",
      "outputs": [],
      "payable": false,
      "stateMutability": "nonpayable",
      "type": "function"
    },
    {
      "constant": false,
      "inputs": [
        {
          "name": "from",
          "type": "address"
        },
        {
          "name": "value",
          "type": "uint256"
        }
      ],
      "name": "burnFrom",
      "outputs": [],
      "payable": false,
      "stateMutability": "nonpayable",
      "type": "function"
    },
    {
      "constant": true,
      "inputs": [
        {
          "name": "account",
          "type": "address"
        }
      ],
      "name": "isSigner",
      "outputs": [
        {
          "name": "",
          "type": "bool"
        }
      ],
      "payable": false,
      "stateMutability": "view",
      "type": "function"
    },
    {
      "constant": false,
      "inputs": [
        {
          "name": "_amount",
          "type": "int256"
        },
        {
          "name": "_description",
          "type": "string"
        },
        {
          "name": "_to",
          "type": "address"
        }
      ],
      "name": "addMovement",
      "outputs": [],
      "payable": false,
      "stateMutability": "nonpayable",
      "type": "function"
    },
    {
      "constant": true,
      "inputs": [],
      "name": "owner",
      "outputs": [
        {
          "name": "",
          "type": "address"
        }
      ],
      "payable": false,
      "stateMutability": "view",
      "type": "function"
    },
    {
      "constant": true,
      "inputs": [],
      "name": "isOwner",
      "outputs": [
        {
          "name": "",
          "type": "bool"
        }
      ],
      "payable": false,
      "stateMutability": "view",
      "type": "function"
    },
    {
      "constant": true,
      "inputs": [],
      "name": "symbol",
      "outputs": [
        {
          "name": "",
          "type": "string"
        }
      ],
      "payable": false,
      "stateMutability": "view",
      "type": "function"
    },
    {
      "constant": false,
      "inputs": [
        {
          "name": "account",
          "type": "address"
        }
      ],
      "name": "addMinter",
      "outputs": [],
      "payable": false,
      "stateMutability": "nonpayable",
      "type": "function"
    },
    {
      "constant": false,
      "inputs": [],
      "name": "renounceMinter",
      "outputs": [],
      "payable": false,
      "stateMutability": "nonpayable",
      "type": "function"
    },
    {
      "constant": false,
      "inputs": [
        {
          "name": "spender",
          "type": "address"
        },
        {
          "name": "subtractedValue",
          "type": "uint256"
        }
      ],
      "name": "decreaseAllowance",
      "outputs": [
        {
          "name": "",
          "type": "bool"
        }
      ],
      "payable": false,
      "stateMutability": "nonpayable",
      "type": "function"
    },
    {
      "constant": false,
      "inputs": [
        {
          "name": "_to",
          "type": "address"
        },
        {
          "name": "_value",
          "type": "uint256"
        }
      ],
      "name": "transfer",
      "outputs": [
        {
          "name": "",
          "type": "bool"
        }
      ],
      "payable": false,
      "stateMutability": "nonpayable",
      "type": "function"
    },
    {
      "constant": true,
      "inputs": [
        {
          "name": "account",
          "type": "address"
        }
      ],
      "name": "isMinter",
      "outputs": [
        {
          "name": "",
          "type": "bool"
        }
      ],
      "payable": false,
      "stateMutability": "view",
      "type": "function"
    },
    {
      "constant": false,
      "inputs": [
        {
          "name": "_to",
          "type": "address"
        },
        {
          "name": "_value",
          "type": "uint256"
        },
        {
          "name": "_data",
          "type": "bytes"
        }
      ],
      "name": "transfer",
      "outputs": [],
      "payable": false,
      "stateMutability": "nonpayable",
      "type": "function"
    },
    {
      "constant": true,
      "inputs": [
        {
          "name": "owner",
          "type": "address"
        },
        {
          "name": "spender",
          "type": "address"
        }
      ],
      "name": "allowance",
      "outputs": [
        {
          "name": "",
          "type": "uint256"
        }
      ],
      "payable": false,
      "stateMutability": "view",
      "type": "function"
    },
    {
      "constant": false,
      "inputs": [],
      "name": "renounceSigner",
      "outputs": [],
      "payable": false,
      "stateMutability": "nonpayable",
      "type": "function"
    },
    {
      "constant": false,
      "inputs": [
        {
          "name": "account",
          "type": "address"
        }
      ],
      "name": "addSigner",
      "outputs": [],
      "payable": false,
      "stateMutability": "nonpayable",
      "type": "function"
    },
    {
      "constant": false,
      "inputs": [
        {
          "name": "newOwner",
          "type": "address"
        }
      ],
      "name": "transferOwnership",
      "outputs": [],
      "payable": false,
      "stateMutability": "nonpayable",
      "type": "function"
    },
    {
      "inputs": [],
      "payable": false,
      "stateMutability": "nonpayable",
      "type": "constructor"
    },
    {
      "anonymous": false,
      "inputs": [
        {
          "indexed": true,
          "name": "owner",
          "type": "address"
        },
        {
          "indexed": false,
          "name": "cardId",
          "type": "uint256"
        },
        {
          "indexed": true,
          "name": "user",
          "type": "address"
        }
      ],
      "name": "CardValidated",
      "type": "event"
    },
    {
      "anonymous": false,
      "inputs": [
        {
          "indexed": true,
          "name": "account",
          "type": "address"
        }
      ],
      "name": "MinterAdded",
      "type": "event"
    },
    {
      "anonymous": false,
      "inputs": [
        {
          "indexed": true,
          "name": "account",
          "type": "address"
        }
      ],
      "name": "MinterRemoved",
      "type": "event"
    },
    {
      "anonymous": false,
      "inputs": [
        {
          "indexed": true,
          "name": "from",
          "type": "address"
        },
        {
          "indexed": true,
          "name": "to",
          "type": "address"
        },
        {
          "indexed": false,
          "name": "value",
          "type": "uint256"
        }
      ],
      "name": "Transfer",
      "type": "event"
    },
    {
      "anonymous": false,
      "inputs": [
        {
          "indexed": true,
          "name": "owner",
          "type": "address"
        },
        {
          "indexed": true,
          "name": "spender",
          "type": "address"
        },
        {
          "indexed": false,
          "name": "value",
          "type": "uint256"
        }
      ],
      "name": "Approval",
      "type": "event"
    },
    {
      "anonymous": false,
      "inputs": [
        {
          "indexed": true,
          "name": "previousOwner",
          "type": "address"
        },
        {
          "indexed": true,
          "name": "newOwner",
          "type": "address"
        }
      ],
      "name": "OwnershipTransferred",
      "type": "event"
    },
    {
      "anonymous": false,
      "inputs": [
        {
          "indexed": true,
          "name": "account",
          "type": "address"
        }
      ],
      "name": "SignerAdded",
      "type": "event"
    },
    {
      "anonymous": false,
      "inputs": [
        {
          "indexed": true,
          "name": "account",
          "type": "address"
        }
      ],
      "name": "SignerRemoved",
      "type": "event"
    },
    {
      "constant": true,
      "inputs": [
        {
          "name": "_cardId",
          "type": "uint256"
        }
      ],
      "name": "getCard",
      "outputs": [
        {
          "name": "cardId",
          "type": "uint256"
        },
        {
          "name": "owner",
          "type": "address"
        },
        {
          "name": "tokens",
          "type": "uint256"
        },
        {
          "name": "active",
          "type": "bool"
        }
      ],
      "payable": false,
      "stateMutability": "view",
      "type": "function"
    },
    {
      "constant": false,
      "inputs": [
        {
          "name": "_cardId",
          "type": "uint256"
        },
        {
          "name": "_tokens",
          "type": "uint256"
        },
        {
          "name": "_hash",
          "type": "bytes32"
        }
      ],
      "name": "addCard",
      "outputs": [],
      "payable": false,
      "stateMutability": "nonpayable",
      "type": "function"
    },
    {
      "constant": false,
      "inputs": [
        {
          "name": "_cardId",
          "type": "uint256"
        }
      ],
      "name": "activateCard",
      "outputs": [],
      "payable": false,
      "stateMutability": "nonpayable",
      "type": "function"
    },
    {
      "constant": false,
      "inputs": [
        {
          "name": "_secret",
          "type": "bytes"
        }
      ],
      "name": "validateCard",
      "outputs": [],
      "payable": false,
      "stateMutability": "nonpayable",
      "type": "function"
    }
  ],
  "bytecode": "0x60806040523480156200001157600080fd5b506040805190810160405280600b81526020017f426c6f6f6d656e436f696e0000000000000000000000000000000000000000008152506040805190810160405280600381526020017f424c4f000000000000000000000000000000000000000000000000000000000081525060028282826200009d3362000149640100000000026401000000009004565b60018054600160a060020a031916331790819055604051600160a060020a0391909116906000907f8be0079c531659141344cd1fd0a4f28419497f9722a3daafe3b4186f6b6457e0908290a38251620000fe90600590602086019062000280565b5081516200011490600690602085019062000280565b506007805460ff191660ff9290921691909117905550620001409050336401000000006200019b810204565b50505062000325565b6200016460008264010000000062001a35620001ed82021704565b604051600160a060020a038216907f47d1c22a25bb3a5d4e481b9b1e6944c2eade3181a0a20b495ed61d35b5323f2490600090a250565b620001b660088264010000000062001a35620001ed82021704565b604051600160a060020a038216907f6ae172837ea30b801fbfcdd4108aa1d5bf8ff775444fd70256b44e6bf3dfc3f690600090a250565b600160a060020a03811615156200020357600080fd5b62000218828264010000000062000248810204565b156200022357600080fd5b600160a060020a0316600090815260209190915260409020805460ff19166001179055565b6000600160a060020a03821615156200026057600080fd5b50600160a060020a03166000908152602091909152604090205460ff1690565b828054600181600116156101000203166002900490600052602060002090601f016020900481019282601f10620002c357805160ff1916838001178555620002f3565b82800160010185558215620002f3579182015b82811115620002f3578251825591602001919060010190620002d6565b506200030192915062000305565b5090565b6200032291905b808211156200030157600081556001016200030c565b90565b61244d80620003356000396000f30060806040526004361061018a5763ffffffff7c010000000000000000000000000000000000000000000000000000000060003504166306fdde03811461018f578063095ea7b3146101ba57806317b1b498146101e757806318160ddd1461021457806323b872dd14610236578063313ce56714610256578063395093511461027857806340c10f191461029857806342966c68146102b857806370a08231146102da578063715018a6146102fa57806379cc67901461030f5780637df73e271461032f5780637e09ef421461034f57806386b00ad51461036f5780638a9843851461038f5780638da5cb5b146103af5780638f32d59b146103d15780639188d312146103e657806395d89b4114610416578063983b2d561461042b578063986502751461044b578063a457c2d714610460578063a9059cbb14610480578063aa271e1a146104a0578063be45fd62146104c0578063c1debea4146104e0578063dd62ed3e14610500578063e5c8b03d14610520578063eb12d61e14610535578063f2fde38b14610555575b600080fd5b34801561019b57600080fd5b506101a4610575565b6040516101b1919061221f565b60405180910390f35b3480156101c657600080fd5b506101da6101d5366004611cef565b61060c565b6040516101b19190612211565b3480156101f357600080fd5b50610207610202366004611daf565b61068f565b6040516101b19190612200565b34801561022057600080fd5b506102296108df565b6040516101b191906122f0565b34801561024257600080fd5b506101da610251366004611ca2565b6108e5565b34801561026257600080fd5b5061026b610982565b6040516101b19190612333565b34801561028457600080fd5b506101da610293366004611cef565b61098b565b3480156102a457600080fd5b506101da6102b3366004611cef565b610a2e565b3480156102c457600080fd5b506102d86102d3366004611daf565b610a57565b005b3480156102e657600080fd5b506102296102f5366004611c42565b610a64565b34801561030657600080fd5b506102d8610a7f565b34801561031b57600080fd5b506102d861032a366004611cef565b610ae9565b34801561033b57600080fd5b506101da61034a366004611c42565b610af7565b34801561035b57600080fd5b506102d861036a366004611daf565b610b09565b34801561037b57600080fd5b506102d861038a366004611dcd565b610ba5565b34801561039b57600080fd5b506102d86103aa366004611e28565b610bb6565b3480156103bb57600080fd5b506103c4610d2f565b6040516101b191906121bc565b3480156103dd57600080fd5b506101da610d3e565b3480156103f257600080fd5b50610406610401366004611daf565b610d4f565b6040516101b194939291906122fe565b34801561042257600080fd5b506101a4610dc4565b34801561043757600080fd5b506102d8610446366004611c42565b610e25565b34801561045757600080fd5b506102d8610e42565b34801561046c57600080fd5b506101da61047b366004611cef565b610e4d565b34801561048c57600080fd5b506101da61049b366004611cef565b610e98565b3480156104ac57600080fd5b506101da6104bb366004611c42565b610eb3565b3480156104cc57600080fd5b506102d86104db366004611d1f565b610ec6565b3480156104ec57600080fd5b506102d86104fb366004611d7a565b610edd565b34801561050c57600080fd5b5061022961051b366004611c68565b6110b2565b34801561052c57600080fd5b506102d86110dd565b34801561054157600080fd5b506102d8610550366004611c42565b6110e6565b34801561056157600080fd5b506102d8610570366004611c42565b611103565b60058054604080516020601f60026000196101006001881615020190951694909404938401819004810282018101909252828152606093909290918301828280156106015780601f106105d657610100808354040283529160200191610601565b820191906000526020600020905b8154815290600101906020018083116105e457829003601f168201915b505050505090505b90565b6000600160a060020a038316151561062357600080fd5b336000818152600360209081526040808320600160a060020a03881680855292529182902085905590519091907f8c5be1e5ebec7d5bd14f71427d1e84f3dd0314c0f7b2291e5b200ac8c7c3b9259061067d9086906122f0565b60405180910390a35060015b92915050565b606060006060806000806000871380156106aa5750600a8713155b15156106d45760405160e560020a62461bcd0281526004016106cb90612250565b60405180910390fd5b3360009081526009602090815260408083208054825181850281018501909352808352600a6000198d010299509193909284015b8282101561080a57838290600052602060002090600402016080604051908101604052908160008201548152602001600182018054600181600116156101000203166002900480601f0160208091040260200160405190810160405280929190818152602001828054600181600116156101000203166002900480156107cf5780601f106107a4576101008083540402835291602001916107cf565b820191906000526020600020905b8154815290600101906020018083116107b257829003601f168201915b50505091835250506002820154602080830191909152600390920154600160a060020a03166040909101529082526001929092019101610708565b50505050935084845111151561081f576108d5565b60408051600a808252610160820190925290816020015b61083e611ad7565b815260200190600190039081610836579050509250600091505b600a8212156108d15750336000908152600a60205260408120548590038290039081121561089657606484511015610892578295506108d5565b6064015b83818151811015156108a457fe5b9060200190602002015183838151811015156108bc57fe5b60209081029091010152600190910190610858565b8295505b5050505050919050565b60045490565b600160a060020a038316600090815260036020908152604080832033845290915281205482111561091557600080fd5b600160a060020a0384166000908152600360209081526040808320338452909152902054610949908363ffffffff61111f16565b600160a060020a0385166000908152600360209081526040808320338452909152902055610978848484611136565b5060019392505050565b60075460ff1690565b6000600160a060020a03831615156109a257600080fd5b336000908152600360209081526040808320600160a060020a03871684529091529020546109d6908363ffffffff6111c716565b336000818152600360209081526040808320600160a060020a038916808552925291829020849055905190927f8c5be1e5ebec7d5bd14f71427d1e84f3dd0314c0f7b2291e5b200ac8c7c3b9259161067d91906122f0565b6000610a3933610eb3565b1515610a4457600080fd5b610a4e83836111e0565b50600192915050565b610a61338261127d565b50565b600160a060020a031660009081526002602052604090205490565b610a87610d3e565b1515610a9257600080fd5b600154604051600091600160a060020a0316907f8be0079c531659141344cd1fd0a4f28419497f9722a3daafe3b4186f6b6457e0908390a36001805473ffffffffffffffffffffffffffffffffffffffff19169055565b610af38282611330565b5050565b6000610689818363ffffffff6113c216565b6000818152600b6020526040812060040154829110610b3d5760405160e560020a62461bcd0281526004016106cb90612290565b610b4633610af7565b1515610b5157600080fd5b6000828152600b602052604090206003015460ff1615610b865760405160e560020a62461bcd0281526004016106cb906122e0565b506000908152600b60205260409020600301805460ff19166001179055565b610bb1838333846113f9565b505050565b610bbe611b09565b610bc6610d3e565b1515610bd157600080fd5b60008311610bf45760405160e560020a62461bcd0281526004016106cb906122d0565b60008411610c175760405160e560020a62461bcd0281526004016106cb90612260565b6000848152600b602052604090206004015415610c495760405160e560020a62461bcd0281526004016106cb906122c0565b6000828152600c602052604090205415610c785760405160e560020a62461bcd0281526004016106cb90612240565b610c8230846111e0565b506040805160c08101825282815260208082018681528284019586526000606084018181523360808601908152600160a087018181528b8552600b87528885209751885594519087015597516002860155516003850180549851600160a060020a03166101000274ffffffffffffffffffffffffffffffffffffffff001992151560ff19909a1699909917919091169790971790965551600490920191909155918352600c909152902055565b600154600160a060020a031690565b600154600160a060020a0316331490565b6000818152600b602052604081206004015481908190819085908210610d8a5760405160e560020a62461bcd0281526004016106cb90612290565b50505060009283525050600b602052604090206001810154600382015460029092015490926101008304600160a060020a03169260ff1690565b60068054604080516020601f60026000196101006001881615020190951694909404938401819004810282018101909252828152606093909290918301828280156106015780601f106105d657610100808354040283529160200191610601565b610e2e33610eb3565b1515610e3957600080fd5b610a61816116b7565b610e4b336116ff565b565b6000600160a060020a0383161515610e6457600080fd5b336000908152600360209081526040808320600160a060020a03871684529091529020546109d6908363ffffffff61111f16565b60006060610ea7338585611136565b61097833858584611747565b600061068960088363ffffffff6113c216565b610ed1338484611136565b610bb133848484611747565b600080826040518082805190602001908083835b60208310610f105780518252601f199092019160209182019101610ef1565b51815160209384036101000a600019018019909216911617905260408051929094018290039091206000818152600c909252928120549296509194505083119150610f7290505760405160e560020a62461bcd0281526004016106cb906122a0565b6000818152600b602052604090206003015460ff161515600114610fab5760405160e560020a62461bcd0281526004016106cb90612280565b6000818152600b60205260409020548214610fdb5760405160e560020a62461bcd0281526004016106cb90612270565b6000818152600b6020526040902060020154610ffa9030903390611136565b6000818152600b602052604090819020600381015460019091015491513392610100909204600160a060020a0316917f80de5a7d3e27e32cfffc07551af7c9ee302a01b5456991722d7ef54193eab3569161105591906122f0565b60405180910390a36000918252600c60209081526040808420849055918352600b90528120818155600181018290556002810182905560038101805474ffffffffffffffffffffffffffffffffffffffffff191690556004015550565b600160a060020a03918216600090815260036020908152604080832093909416825291909152205490565b610e4b33611816565b6110ef33610af7565b15156110fa57600080fd5b610a618161185e565b61110b610d3e565b151561111657600080fd5b610a61816118a6565b6000808383111561112f57600080fd5b5050900390565b61117b81600019026040805190810160405280600481526020017f73656e640000000000000000000000000000000000000000000000000000000081525085856113f9565b6111bc816040805190810160405280600781526020017f726563656976650000000000000000000000000000000000000000000000000081525084866113f9565b610bb1838383611924565b6000828201838110156111d957600080fd5b9392505050565b600160a060020a03821615156111f557600080fd5b600454611208908263ffffffff6111c716565b600455600160a060020a038216600090815260026020526040902054611234908263ffffffff6111c716565b600160a060020a0383166000818152600260205260408082209390935591519091906000805160206123f4833981519152906112719085906122f0565b60405180910390a35050565b600160a060020a038216151561129257600080fd5b600160a060020a0382166000908152600260205260409020548111156112b757600080fd5b6004546112ca908263ffffffff61111f16565b600455600160a060020a0382166000908152600260205260409020546112f6908263ffffffff61111f16565b600160a060020a0383166000818152600260205260408082209390935591516000805160206123f4833981519152906112719085906122f0565b600160a060020a038216600090815260036020908152604080832033845290915290205481111561136057600080fd5b600160a060020a0382166000908152600360209081526040808320338452909152902054611394908263ffffffff61111f16565b600160a060020a0383166000908152600360209081526040808320338452909152902055610af3828261127d565b6000600160a060020a03821615156113d957600080fd5b50600160a060020a03166000908152602091909152604090205460ff1690565b600160a060020a038216600090815260096020526040902054606411156114f257600160a060020a0380831660009081526009602090815260408083208151608081018352898152808401898152429382019390935294861660608601528054600181810180845592865294849020865160049092020190815591518051919594929361148b93850192910190611b3e565b5060408281015160028301556060909201516003909101805473ffffffffffffffffffffffffffffffffffffffff1916600160a060020a03928316179055841660009081526009602090815282822054600a909152919020600019919091019055506116b1565b600160a060020a0382166000908152600a6020526040902054606314156115e057600160a060020a038083166000818152600a60209081526040808320839055805160808101825289815280830189905242818301529486166060860152928252600990529081208054909190811061156757fe5b906000526020600020906004020160008201518160000155602082015181600101908051906020019061159b929190611b3e565b50604082015160028201556060909101516003909101805473ffffffffffffffffffffffffffffffffffffffff1916600160a060020a039092169190911790556116b1565b600160a060020a038083166000818152600a6020818152604080842080546001019081905581516080810183528b81528084018b9052428184015296881660608801529484526009825290922091528054909190811061163c57fe5b9060005260206000209060040201600082015181600001556020820151816001019080519060200190611670929190611b3e565b50604082015160028201556060909101516003909101805473ffffffffffffffffffffffffffffffffffffffff1916600160a060020a039092169190911790555b50505050565b6116c860088263ffffffff611a3516565b604051600160a060020a038216907f6ae172837ea30b801fbfcdd4108aa1d5bf8ff775444fd70256b44e6bf3dfc3f690600090a250565b61171060088263ffffffff611a8316565b604051600160a060020a038216907fe94479a9f7e1952cc78f2d6baab678adc1b772d936c6583def489e524cb6669290600090a250565b600061175284611acf565b156117d657506040517fc0ee0b8a0000000000000000000000000000000000000000000000000000000081528390600160a060020a0382169063c0ee0b8a906117a3908890879087906004016121ca565b600060405180830381600087803b1580156117bd57600080fd5b505af11580156117d1573d6000803e3d6000fd5b505050505b83600160a060020a031685600160a060020a03166000805160206123f48339815191528560405161180791906122f0565b60405180910390a35050505050565b61182760008263ffffffff611a8316565b604051600160a060020a038216907f3525e22824a8a7df2c9a6029941c824cf95b6447f1e13d5128fd3826d35afe8b90600090a250565b61186f60008263ffffffff611a3516565b604051600160a060020a038216907f47d1c22a25bb3a5d4e481b9b1e6944c2eade3181a0a20b495ed61d35b5323f2490600090a250565b600160a060020a03811615156118bb57600080fd5b600154604051600160a060020a038084169216907f8be0079c531659141344cd1fd0a4f28419497f9722a3daafe3b4186f6b6457e090600090a36001805473ffffffffffffffffffffffffffffffffffffffff1916600160a060020a0392909216919091179055565b600160a060020a03831660009081526002602052604090205481111561195f5760405160e560020a62461bcd0281526004016106cb906122b0565b600160a060020a038216151561198a5760405160e560020a62461bcd0281526004016106cb90612230565b600160a060020a0383166000908152600260205260409020546119b3908263ffffffff61111f16565b600160a060020a0380851660009081526002602052604080822093909355908416815220546119e8908263ffffffff6111c716565b600160a060020a0380841660008181526002602052604090819020939093559151908516906000805160206123f483398151915290611a289085906122f0565b60405180910390a3505050565b600160a060020a0381161515611a4a57600080fd5b611a5482826113c2565b15611a5e57600080fd5b600160a060020a0316600090815260209190915260409020805460ff19166001179055565b600160a060020a0381161515611a9857600080fd5b611aa282826113c2565b1515611aad57600080fd5b600160a060020a0316600090815260209190915260409020805460ff19169055565b6000903b1190565b6080604051908101604052806000815260200160608152602001600081526020016000600160a060020a031681525090565b6040805160c081018252600080825260208201819052918101829052606081018290526080810182905260a081019190915290565b828054600181600116156101000203166002900490600052602060002090601f016020900481019282601f10611b7f57805160ff1916838001178555611bac565b82800160010185558215611bac579182015b82811115611bac578251825591602001919060010190611b91565b50611bb8929150611bbc565b5090565b61060991905b80821115611bb85760008155600101611bc2565b60006111d9823561239a565b60006111d98235610609565b6000601f82018313611bff57600080fd5b8135611c12611c0d82612368565b612341565b91508082526020830160208301858383011115611c2e57600080fd5b611c398382846123b1565b50505092915050565b600060208284031215611c5457600080fd5b6000611c608484611bd6565b949350505050565b60008060408385031215611c7b57600080fd5b6000611c878585611bd6565b9250506020611c9885828601611bd6565b9150509250929050565b600080600060608486031215611cb757600080fd5b6000611cc38686611bd6565b9350506020611cd486828701611bd6565b9250506040611ce586828701611be2565b9150509250925092565b60008060408385031215611d0257600080fd5b6000611d0e8585611bd6565b9250506020611c9885828601611be2565b600080600060608486031215611d3457600080fd5b6000611d408686611bd6565b9350506020611d5186828701611be2565b925050604084013567ffffffffffffffff811115611d6e57600080fd5b611ce586828701611bee565b600060208284031215611d8c57600080fd5b813567ffffffffffffffff811115611da357600080fd5b611c6084828501611bee565b600060208284031215611dc157600080fd5b6000611c608484611be2565b600080600060608486031215611de257600080fd5b6000611dee8686611be2565b935050602084013567ffffffffffffffff811115611e0b57600080fd5b611e1786828701611bee565b9250506040611ce586828701611bd6565b600080600060608486031215611e3d57600080fd5b6000611e498686611be2565b9350506020611cd486828701611be2565b611e638161239a565b82525050565b6000611e7482612396565b80845260208401935083602082028501611e8d85612390565b60005b84811015611ec4578383038852611ea8838351612157565b9250611eb382612390565b602098909801979150600101611e90565b50909695505050505050565b611e63816123a6565b6000611ee482612396565b808452611ef88160208601602086016123bd565b611f01816123e9565b9093016020019392505050565b611e6381610609565b600781527f6572726f725f3200000000000000000000000000000000000000000000000000602082015260400190565b600f81527f6475706c6963617465645f686173680000000000000000000000000000000000602082015260400190565b600d81527f496e76616c696420706167652e00000000000000000000000000000000000000602082015260400190565b601081527f6e6f5f76616c69645f636172645f696400000000000000000000000000000000602082015260400190565b600c81527f77726f6e675f7365637265740000000000000000000000000000000000000000602082015260400190565b600a81527f6e6f745f61637469766500000000000000000000000000000000000000000000602082015260400190565b600981527f6e6f745f65786973740000000000000000000000000000000000000000000000602082015260400190565b600e81527f686173685f6e6f745f666f756e64000000000000000000000000000000000000602082015260400190565b600781527f6572726f725f3100000000000000000000000000000000000000000000000000602082015260400190565b600a81527f636172645f657869737400000000000000000000000000000000000000000000602082015260400190565b600c81527f656d7074795f746f6b656e730000000000000000000000000000000000000000602082015260400190565b600f81527f6e6f745f6163746976617461626c650000000000000000000000000000000000602082015260400190565b8051600090608084019061216b8582611f0e565b50602083015184820360208601526121838282611ed9565b91505060408301516121986040860182611f0e565b5060608301516121ab6060860182611e5a565b509392505050565b611e63816123ab565b602081016106898284611e5a565b606081016121d88286611e5a565b6121e56020830185611f0e565b81810360408301526121f78184611ed9565b95945050505050565b602080825281016111d98184611e69565b602081016106898284611ed0565b602080825281016111d98184611ed9565b6020808252810161068981611f17565b6020808252810161068981611f47565b6020808252810161068981611f77565b6020808252810161068981611fa7565b6020808252810161068981611fd7565b6020808252810161068981612007565b6020808252810161068981612037565b6020808252810161068981612067565b6020808252810161068981612097565b60208082528101610689816120c7565b60208082528101610689816120f7565b6020808252810161068981612127565b602081016106898284611f0e565b6080810161230c8287611f0e565b6123196020830186611e5a565b6123266040830185611f0e565b6121f76060830184611ed0565b6020810161068982846121b3565b60405181810167ffffffffffffffff8111828210171561236057600080fd5b604052919050565b600067ffffffffffffffff82111561237f57600080fd5b506020601f91909101601f19160190565b60200190565b5190565b600160a060020a031690565b151590565b60ff1690565b82818337506000910152565b60005b838110156123d85781810151838201526020016123c0565b838111156116b15750506000910152565b601f01601f1916905600ddf252ad1be2c89b69c2b068fc378daa952ba7f163c4a11628f55a4df523b3efa265627a7a7230582070debeba3525ea8f3c8da2fb2679a47373868571c224f27df01154ed3beb50496c6578706572696d656e74616cf50037",
  "source": "pragma solidity ^0.4.24;\npragma experimental ABIEncoderV2;\n\nimport \"../../node_modules/openzeppelin-solidity/contracts/math/SafeMath.sol\";\nimport \"../../node_modules/openzeppelin-solidity/contracts/access/roles/SignerRole.sol\";\nimport \"../../node_modules/openzeppelin-solidity/contracts/ownership/Ownable.sol\";\n\nimport \"./token/ERC223.sol\";\n\ncontract PrepaidCardManager is SignerRole, Ownable ,ERC223(\"BloomenCoin\",\"BLO\",2) {\n  using SafeMath for uint256;\n\n  event CardValidated(\n    address indexed owner,\n    uint256 cardId,\n    address indexed user\n  );\n\n  struct Card {\n    bytes32 hash;\n    uint256 cardId;  \n    uint256 tokens;\n    bool active;\n    address owner;\n    uint initialized;\n  }\n\n  mapping (uint256 => Card) private cards_;\n  mapping (bytes32 => uint256) private cardsByHash_;\n\n  modifier cardExists(uint256 _cardId) {\n    require(cards_[_cardId].initialized > 0, \"not_exist\");\n    _;\n  }\n  \n  constructor() public {}\n\n  function getCard(uint256 _cardId) cardExists(_cardId) public view returns(uint256 cardId, address owner, uint256 tokens, bool active)  {\n    return (cards_[_cardId].cardId, cards_[_cardId].owner, cards_[_cardId].tokens, cards_[_cardId].active);\n  }\n\n  function addCard(uint256 _cardId, uint256 _tokens, bytes32 _hash) onlyOwner public {\n    require(_tokens > 0, \"empty_tokens\");\n    require(_cardId > 0, \"no_valid_card_id\");\n    require(cards_[_cardId].initialized == 0, \"card_exist\");\n    require(cardsByHash_[_hash] == 0, \"duplicated_hash\");\n\n    _mint(this,_tokens);\n    Card memory newCard = Card(_hash, _cardId, _tokens, false, msg.sender, 1);\n    cards_[_cardId] = newCard;   \n    cardsByHash_[_hash] = _cardId;\n  }\n\n  function activateCard(uint256 _cardId) cardExists(_cardId) onlySigner public {\n    require(cards_[_cardId].active == false, \"not_activatable\");\n    cards_[_cardId].active=true;    \n  }\n\n  function validateCard(bytes _secret) public {\n    bytes32 hash = keccak256(_secret);\n    uint256 cardId = cardsByHash_[hash];\n    require(cardId > 0, \"hash_not_found\");\n    require(cards_[cardId].active == true, \"not_active\");\n    require(cards_[cardId].hash ==  hash, \"wrong_secret\");\n  \n    _transfer(this, msg.sender,cards_[cardId].tokens);\n    emit CardValidated(cards_[cardId].owner, cards_[cardId].cardId, msg.sender);\n  \n    delete cardsByHash_[hash];\n    delete cards_[cardId];\n  }\n\n}",
  "sourcePath": "/Users/jordiescuderosubirana/ws/bloomen-wallet-truffle/contracts/bloomen/PrepaidCardManager.sol",
  "compiler": {
    "name": "solc",
    "version": "0.4.24+commit.e67f0147.Emscripten.clang"
  },
  "schemaVersion": "2.0.1",
  "updatedAt": "2018-12-25T21:45:08.517Z"
}