{
  "contractName": "PrepaidCardManager",
  "abi": [
    {
      "constant": true,
      "inputs": [],
      "name": "name",
      "outputs": [
        {
          "name": "",
          "type": "string"
        }
      ],
      "payable": false,
      "stateMutability": "view",
      "type": "function"
    },
    {
      "constant": false,
      "inputs": [
        {
          "name": "spender",
          "type": "address"
        },
        {
          "name": "value",
          "type": "uint256"
        }
      ],
      "name": "approve",
      "outputs": [
        {
          "name": "",
          "type": "bool"
        }
      ],
      "payable": false,
      "stateMutability": "nonpayable",
      "type": "function"
    },
    {
      "constant": true,
      "inputs": [],
      "name": "totalSupply",
      "outputs": [
        {
          "name": "",
          "type": "uint256"
        }
      ],
      "payable": false,
      "stateMutability": "view",
      "type": "function"
    },
    {
      "constant": false,
      "inputs": [
        {
          "name": "from",
          "type": "address"
        },
        {
          "name": "to",
          "type": "address"
        },
        {
          "name": "value",
          "type": "uint256"
        }
      ],
      "name": "transferFrom",
      "outputs": [
        {
          "name": "",
          "type": "bool"
        }
      ],
      "payable": false,
      "stateMutability": "nonpayable",
      "type": "function"
    },
    {
      "constant": true,
      "inputs": [],
      "name": "decimals",
      "outputs": [
        {
          "name": "",
          "type": "uint8"
        }
      ],
      "payable": false,
      "stateMutability": "view",
      "type": "function"
    },
    {
      "constant": false,
      "inputs": [
        {
          "name": "spender",
          "type": "address"
        },
        {
          "name": "addedValue",
          "type": "uint256"
        }
      ],
      "name": "increaseAllowance",
      "outputs": [
        {
          "name": "",
          "type": "bool"
        }
      ],
      "payable": false,
      "stateMutability": "nonpayable",
      "type": "function"
    },
    {
      "constant": false,
      "inputs": [
        {
          "name": "to",
          "type": "address"
        },
        {
          "name": "value",
          "type": "uint256"
        }
      ],
      "name": "mint",
      "outputs": [
        {
          "name": "",
          "type": "bool"
        }
      ],
      "payable": false,
      "stateMutability": "nonpayable",
      "type": "function"
    },
    {
      "constant": false,
      "inputs": [
        {
          "name": "value",
          "type": "uint256"
        }
      ],
      "name": "burn",
      "outputs": [],
      "payable": false,
      "stateMutability": "nonpayable",
      "type": "function"
    },
    {
      "constant": true,
      "inputs": [
        {
          "name": "owner",
          "type": "address"
        }
      ],
      "name": "balanceOf",
      "outputs": [
        {
          "name": "",
          "type": "uint256"
        }
      ],
      "payable": false,
      "stateMutability": "view",
      "type": "function"
    },
    {
      "constant": false,
      "inputs": [],
      "name": "renounceOwnership",
      "outputs": [],
      "payable": false,
      "stateMutability": "nonpayable",
      "type": "function"
    },
    {
      "constant": false,
      "inputs": [
        {
          "name": "from",
          "type": "address"
        },
        {
          "name": "value",
          "type": "uint256"
        }
      ],
      "name": "burnFrom",
      "outputs": [],
      "payable": false,
      "stateMutability": "nonpayable",
      "type": "function"
    },
    {
      "constant": true,
      "inputs": [
        {
          "name": "account",
          "type": "address"
        }
      ],
      "name": "isSigner",
      "outputs": [
        {
          "name": "",
          "type": "bool"
        }
      ],
      "payable": false,
      "stateMutability": "view",
      "type": "function"
    },
    {
      "constant": true,
      "inputs": [],
      "name": "owner",
      "outputs": [
        {
          "name": "",
          "type": "address"
        }
      ],
      "payable": false,
      "stateMutability": "view",
      "type": "function"
    },
    {
      "constant": true,
      "inputs": [],
      "name": "isOwner",
      "outputs": [
        {
          "name": "",
          "type": "bool"
        }
      ],
      "payable": false,
      "stateMutability": "view",
      "type": "function"
    },
    {
      "constant": true,
      "inputs": [],
      "name": "symbol",
      "outputs": [
        {
          "name": "",
          "type": "string"
        }
      ],
      "payable": false,
      "stateMutability": "view",
      "type": "function"
    },
    {
      "constant": false,
      "inputs": [
        {
          "name": "account",
          "type": "address"
        }
      ],
      "name": "addMinter",
      "outputs": [],
      "payable": false,
      "stateMutability": "nonpayable",
      "type": "function"
    },
    {
      "constant": false,
      "inputs": [],
      "name": "renounceMinter",
      "outputs": [],
      "payable": false,
      "stateMutability": "nonpayable",
      "type": "function"
    },
    {
      "constant": false,
      "inputs": [
        {
          "name": "spender",
          "type": "address"
        },
        {
          "name": "subtractedValue",
          "type": "uint256"
        }
      ],
      "name": "decreaseAllowance",
      "outputs": [
        {
          "name": "",
          "type": "bool"
        }
      ],
      "payable": false,
      "stateMutability": "nonpayable",
      "type": "function"
    },
    {
      "constant": false,
      "inputs": [
        {
          "name": "_to",
          "type": "address"
        },
        {
          "name": "_value",
          "type": "uint256"
        }
      ],
      "name": "transfer",
      "outputs": [
        {
          "name": "",
          "type": "bool"
        }
      ],
      "payable": false,
      "stateMutability": "nonpayable",
      "type": "function"
    },
    {
      "constant": true,
      "inputs": [
        {
          "name": "account",
          "type": "address"
        }
      ],
      "name": "isMinter",
      "outputs": [
        {
          "name": "",
          "type": "bool"
        }
      ],
      "payable": false,
      "stateMutability": "view",
      "type": "function"
    },
    {
      "constant": false,
      "inputs": [
        {
          "name": "_to",
          "type": "address"
        },
        {
          "name": "_value",
          "type": "uint256"
        },
        {
          "name": "_data",
          "type": "bytes"
        }
      ],
      "name": "transfer",
      "outputs": [],
      "payable": false,
      "stateMutability": "nonpayable",
      "type": "function"
    },
    {
      "constant": true,
      "inputs": [
        {
          "name": "owner",
          "type": "address"
        },
        {
          "name": "spender",
          "type": "address"
        }
      ],
      "name": "allowance",
      "outputs": [
        {
          "name": "",
          "type": "uint256"
        }
      ],
      "payable": false,
      "stateMutability": "view",
      "type": "function"
    },
    {
      "constant": false,
      "inputs": [],
      "name": "renounceSigner",
      "outputs": [],
      "payable": false,
      "stateMutability": "nonpayable",
      "type": "function"
    },
    {
      "constant": false,
      "inputs": [
        {
          "name": "account",
          "type": "address"
        }
      ],
      "name": "addSigner",
      "outputs": [],
      "payable": false,
      "stateMutability": "nonpayable",
      "type": "function"
    },
    {
      "constant": false,
      "inputs": [
        {
          "name": "newOwner",
          "type": "address"
        }
      ],
      "name": "transferOwnership",
      "outputs": [],
      "payable": false,
      "stateMutability": "nonpayable",
      "type": "function"
    },
    {
      "inputs": [],
      "payable": false,
      "stateMutability": "nonpayable",
      "type": "constructor"
    },
    {
      "anonymous": false,
      "inputs": [
        {
          "indexed": true,
          "name": "owner",
          "type": "address"
        },
        {
          "indexed": false,
          "name": "cardId",
          "type": "uint256"
        },
        {
          "indexed": true,
          "name": "user",
          "type": "address"
        }
      ],
      "name": "CardValidated",
      "type": "event"
    },
    {
      "anonymous": false,
      "inputs": [
        {
          "indexed": true,
          "name": "account",
          "type": "address"
        }
      ],
      "name": "MinterAdded",
      "type": "event"
    },
    {
      "anonymous": false,
      "inputs": [
        {
          "indexed": true,
          "name": "account",
          "type": "address"
        }
      ],
      "name": "MinterRemoved",
      "type": "event"
    },
    {
      "anonymous": false,
      "inputs": [
        {
          "indexed": true,
          "name": "from",
          "type": "address"
        },
        {
          "indexed": true,
          "name": "to",
          "type": "address"
        },
        {
          "indexed": false,
          "name": "value",
          "type": "uint256"
        }
      ],
      "name": "Transfer",
      "type": "event"
    },
    {
      "anonymous": false,
      "inputs": [
        {
          "indexed": true,
          "name": "owner",
          "type": "address"
        },
        {
          "indexed": true,
          "name": "spender",
          "type": "address"
        },
        {
          "indexed": false,
          "name": "value",
          "type": "uint256"
        }
      ],
      "name": "Approval",
      "type": "event"
    },
    {
      "anonymous": false,
      "inputs": [
        {
          "indexed": true,
          "name": "previousOwner",
          "type": "address"
        },
        {
          "indexed": true,
          "name": "newOwner",
          "type": "address"
        }
      ],
      "name": "OwnershipTransferred",
      "type": "event"
    },
    {
      "anonymous": false,
      "inputs": [
        {
          "indexed": true,
          "name": "account",
          "type": "address"
        }
      ],
      "name": "SignerAdded",
      "type": "event"
    },
    {
      "anonymous": false,
      "inputs": [
        {
          "indexed": true,
          "name": "account",
          "type": "address"
        }
      ],
      "name": "SignerRemoved",
      "type": "event"
    },
    {
      "constant": true,
      "inputs": [
        {
          "name": "_cardId",
          "type": "uint256"
        }
      ],
      "name": "getCard",
      "outputs": [
        {
          "name": "cardId",
          "type": "uint256"
        },
        {
          "name": "owner",
          "type": "address"
        },
        {
          "name": "tokens",
          "type": "uint256"
        },
        {
          "name": "active",
          "type": "bool"
        }
      ],
      "payable": false,
      "stateMutability": "view",
      "type": "function"
    },
    {
      "constant": false,
      "inputs": [
        {
          "name": "_cardId",
          "type": "uint256"
        },
        {
          "name": "_tokens",
          "type": "uint256"
        },
        {
          "name": "_hash",
          "type": "bytes32"
        }
      ],
      "name": "addCard",
      "outputs": [],
      "payable": false,
      "stateMutability": "nonpayable",
      "type": "function"
    },
    {
      "constant": false,
      "inputs": [
        {
          "name": "_cardId",
          "type": "uint256"
        }
      ],
      "name": "activateCard",
      "outputs": [],
      "payable": false,
      "stateMutability": "nonpayable",
      "type": "function"
    },
    {
      "constant": false,
      "inputs": [
        {
          "name": "_secret",
          "type": "bytes"
        }
      ],
      "name": "validateCard",
      "outputs": [],
      "payable": false,
      "stateMutability": "nonpayable",
      "type": "function"
    }
  ],
  "bytecode": "0x60806040523480156200001157600080fd5b506040805190810160405280600b81526020017f426c6f6f6d656e436f696e0000000000000000000000000000000000000000008152506040805190810160405280600381526020017f424c4f000000000000000000000000000000000000000000000000000000000081525060028282826200009d3362000149640100000000026401000000009004565b60018054600160a060020a031916331790819055604051600160a060020a0391909116906000907f8be0079c531659141344cd1fd0a4f28419497f9722a3daafe3b4186f6b6457e0908290a38251620000fe90600590602086019062000280565b5081516200011490600690602085019062000280565b506007805460ff191660ff9290921691909117905550620001409050336401000000006200019b810204565b50505062000325565b620001646000826401000000006200176d620001ed82021704565b604051600160a060020a038216907f47d1c22a25bb3a5d4e481b9b1e6944c2eade3181a0a20b495ed61d35b5323f2490600090a250565b620001b66008826401000000006200176d620001ed82021704565b604051600160a060020a038216907f6ae172837ea30b801fbfcdd4108aa1d5bf8ff775444fd70256b44e6bf3dfc3f690600090a250565b600160a060020a03811615156200020357600080fd5b62000218828264010000000062000248810204565b156200022357600080fd5b600160a060020a0316600090815260209190915260409020805460ff19166001179055565b6000600160a060020a03821615156200026057600080fd5b50600160a060020a03166000908152602091909152604090205460ff1690565b828054600181600116156101000203166002900490600052602060002090601f016020900481019282601f10620002c357805160ff1916838001178555620002f3565b82800160010185558215620002f3579182015b82811115620002f3578251825591602001919060010190620002d6565b506200030192915062000305565b5090565b6200032291905b808211156200030157600081556001016200030c565b90565b61189080620003356000396000f3006080604052600436106101745763ffffffff7c010000000000000000000000000000000000000000000000000000000060003504166306fdde038114610179578063095ea7b31461020357806318160ddd1461023b57806323b872dd14610262578063313ce5671461028c57806339509351146102b757806340c10f19146102db57806342966c68146102ff57806370a0823114610319578063715018a61461033a57806379cc67901461034f5780637df73e27146103735780637e09ef42146103945780638a984385146103ac5780638da5cb5b146103ca5780638f32d59b146103fb5780639188d3121461041057806395d89b4114610458578063983b2d561461046d578063986502751461048e578063a457c2d7146104a3578063a9059cbb146104c7578063aa271e1a146104eb578063be45fd621461050c578063c1debea414610575578063dd62ed3e146105ce578063e5c8b03d146105f5578063eb12d61e1461060a578063f2fde38b1461062b575b600080fd5b34801561018557600080fd5b5061018e61064c565b6040805160208082528351818301528351919283929083019185019080838360005b838110156101c85781810151838201526020016101b0565b50505050905090810190601f1680156101f55780820380516001836020036101000a031916815260200191505b509250505060405180910390f35b34801561020f57600080fd5b50610227600160a060020a03600435166024356106e2565b604080519115158252519081900360200190f35b34801561024757600080fd5b50610250610760565b60408051918252519081900360200190f35b34801561026e57600080fd5b50610227600160a060020a0360043581169060243516604435610766565b34801561029857600080fd5b506102a1610803565b6040805160ff9092168252519081900360200190f35b3480156102c357600080fd5b50610227600160a060020a036004351660243561080c565b3480156102e757600080fd5b50610227600160a060020a03600435166024356108bc565b34801561030b57600080fd5b506103176004356108e5565b005b34801561032557600080fd5b50610250600160a060020a03600435166108f2565b34801561034657600080fd5b5061031761090d565b34801561035b57600080fd5b50610317600160a060020a0360043516602435610977565b34801561037f57600080fd5b50610227600160a060020a0360043516610985565b3480156103a057600080fd5b5061031760043561099d565b3480156103b857600080fd5b50610317600435602435604435610ab2565b3480156103d657600080fd5b506103df610c96565b60408051600160a060020a039092168252519081900360200190f35b34801561040757600080fd5b50610227610ca5565b34801561041c57600080fd5b50610428600435610cb6565b60408051948552600160a060020a0390931660208501528383019190915215156060830152519081900360800190f35b34801561046457600080fd5b5061018e610d60565b34801561047957600080fd5b50610317600160a060020a0360043516610dc1565b34801561049a57600080fd5b50610317610dde565b3480156104af57600080fd5b50610227600160a060020a0360043516602435610de9565b3480156104d357600080fd5b50610227600160a060020a0360043516602435610e34565b3480156104f757600080fd5b50610227600160a060020a0360043516610e4f565b34801561051857600080fd5b50604080516020600460443581810135601f8101849004840285018401909552848452610317948235600160a060020a0316946024803595369594606494920191908190840183828082843750949750610e629650505050505050565b34801561058157600080fd5b506040805160206004803580820135601f8101849004840285018401909552848452610317943694929360249392840191908190840183828082843750949750610e7e9650505050505050565b3480156105da57600080fd5b50610250600160a060020a03600435811690602435166110ed565b34801561060157600080fd5b50610317611118565b34801561061657600080fd5b50610317600160a060020a0360043516611121565b34801561063757600080fd5b50610317600160a060020a036004351661113e565b60058054604080516020601f60026000196101006001881615020190951694909404938401819004810282018101909252828152606093909290918301828280156106d85780601f106106ad576101008083540402835291602001916106d8565b820191906000526020600020905b8154815290600101906020018083116106bb57829003601f168201915b5050505050905090565b6000600160a060020a03831615156106f957600080fd5b336000818152600360209081526040808320600160a060020a03881680855290835292819020869055805186815290519293927f8c5be1e5ebec7d5bd14f71427d1e84f3dd0314c0f7b2291e5b200ac8c7c3b925929181900390910190a350600192915050565b60045490565b600160a060020a038316600090815260036020908152604080832033845290915281205482111561079657600080fd5b600160a060020a03841660009081526003602090815260408083203384529091529020546107ca908363ffffffff61115a16565b600160a060020a03851660009081526003602090815260408083203384529091529020556107f9848484611171565b5060019392505050565b60075460ff1690565b6000600160a060020a038316151561082357600080fd5b336000908152600360209081526040808320600160a060020a0387168452909152902054610857908363ffffffff61125316565b336000818152600360209081526040808320600160a060020a0389168085529083529281902085905580519485525191937f8c5be1e5ebec7d5bd14f71427d1e84f3dd0314c0f7b2291e5b200ac8c7c3b925929081900390910190a350600192915050565b60006108c733610e4f565b15156108d257600080fd5b6108dc838361126c565b50600192915050565b6108ef3382611306565b50565b600160a060020a031660009081526002602052604090205490565b610915610ca5565b151561092057600080fd5b600154604051600091600160a060020a0316907f8be0079c531659141344cd1fd0a4f28419497f9722a3daafe3b4186f6b6457e0908390a36001805473ffffffffffffffffffffffffffffffffffffffff19169055565b61098182826113c4565b5050565b6000610997818363ffffffff61145616565b92915050565b600081815260096020526040812060040154829110610a06576040805160e560020a62461bcd02815260206004820152600960248201527f6e6f745f65786973740000000000000000000000000000000000000000000000604482015290519081900360640190fd5b610a0f33610985565b1515610a1a57600080fd5b60008281526009602052604090206003015460ff1615610a84576040805160e560020a62461bcd02815260206004820152600f60248201527f6e6f745f6163746976617461626c650000000000000000000000000000000000604482015290519081900360640190fd5b50600081815260096020908152604080832060038101805460ff19166001179055548352600a909152902055565b610aba61180f565b8360008111610b13576040805160e560020a62461bcd02815260206004820152600d60248201527f76616c69645f636172645f696400000000000000000000000000000000000000604482015290519081900360640190fd5b610b1b610ca5565b1515610b2657600080fd5b60008411610b7e576040805160e560020a62461bcd02815260206004820152600c60248201527f656d7074795f746f6b656e730000000000000000000000000000000000000000604482015290519081900360640190fd5b60008581526009602052604090206004015415610be5576040805160e560020a62461bcd02815260206004820152600a60248201527f636172645f657869737400000000000000000000000000000000000000000000604482015290519081900360640190fd5b610bef308561126c565b50506040805160c08101825291825260208083018581528383019485526000606085018181523360808701908152600160a08801818152998452600990955294909120945185559051918401919091559251600283015591516003820180549351600160a060020a03166101000274ffffffffffffffffffffffffffffffffffffffff001992151560ff199095169490941791909116929092179091559051600490910155565b600154600160a060020a031690565b600154600160a060020a0316331490565b60008181526009602052604081206004015481908190819085908210610d26576040805160e560020a62461bcd02815260206004820152600960248201527f6e6f745f65786973740000000000000000000000000000000000000000000000604482015290519081900360640190fd5b505050600092835250506009602052604090206001810154600382015460029092015490926101008304600160a060020a03169260ff1690565b60068054604080516020601f60026000196101006001881615020190951694909404938401819004810282018101909252828152606093909290918301828280156106d85780601f106106ad576101008083540402835291602001916106d8565b610dca33610e4f565b1515610dd557600080fd5b6108ef8161148d565b610de7336114d5565b565b6000600160a060020a0383161515610e0057600080fd5b336000908152600360209081526040808320600160a060020a0387168452909152902054610857908363ffffffff61115a16565b60006060610e43338585611171565b6107f93385858461151d565b600061099760088363ffffffff61145616565b610e6d338484611171565b610e793384848461151d565b505050565b600080826040518082805190602001908083835b60208310610eb15780518252601f199092019160209182019101610e92565b51815160209384036101000a600019018019909216911617905260408051929094018290039091206000818152600a909252928120549296509194505083119150610f489050576040805160e560020a62461bcd02815260206004820152600a60248201527f6e6f745f61637469766500000000000000000000000000000000000000000000604482015290519081900360640190fd5b60008181526009602052604090206003015460ff161515600114610fb6576040805160e560020a62461bcd02815260206004820152600a60248201527f6e6f745f61637469766500000000000000000000000000000000000000000000604482015290519081900360640190fd5b600081815260096020526040902054821461101b576040805160e560020a62461bcd02815260206004820152600c60248201527f77726f6e675f7365637265740000000000000000000000000000000000000000604482015290519081900360640190fd5b60008181526009602052604090206002015461103a9030903390611171565b6000818152600960209081526040918290206003810154600190910154835190815292513393610100909204600160a060020a0316927f80de5a7d3e27e32cfffc07551af7c9ee302a01b5456991722d7ef54193eab356928290030190a36000918252600a60209081526040808420849055918352600990528120818155600181018290556002810182905560038101805474ffffffffffffffffffffffffffffffffffffffffff191690556004015550565b600160a060020a03918216600090815260036020908152604080832093909416825291909152205490565b610de73361165f565b61112a33610985565b151561113557600080fd5b6108ef816116a7565b611146610ca5565b151561115157600080fd5b6108ef816116ef565b6000808383111561116a57600080fd5b5050900390565b600160a060020a03831660009081526002602052604090205481111561119657600080fd5b600160a060020a03821615156111ab57600080fd5b600160a060020a0383166000908152600260205260409020546111d4908263ffffffff61115a16565b600160a060020a038085166000908152600260205260408082209390935590841681522054611209908263ffffffff61125316565b600160a060020a03808416600081815260026020908152604091829020949094558051858152905191939287169260008051602061184583398151915292918290030190a3505050565b60008282018381101561126557600080fd5b9392505050565b600160a060020a038216151561128157600080fd5b600454611294908263ffffffff61125316565b600455600160a060020a0382166000908152600260205260409020546112c0908263ffffffff61125316565b600160a060020a03831660008181526002602090815260408083209490945583518581529351929391926000805160206118458339815191529281900390910190a35050565b600160a060020a038216151561131b57600080fd5b600160a060020a03821660009081526002602052604090205481111561134057600080fd5b600454611353908263ffffffff61115a16565b600455600160a060020a03821660009081526002602052604090205461137f908263ffffffff61115a16565b600160a060020a038316600081815260026020908152604080832094909455835185815293519193600080516020611845833981519152929081900390910190a35050565b600160a060020a03821660009081526003602090815260408083203384529091529020548111156113f457600080fd5b600160a060020a0382166000908152600360209081526040808320338452909152902054611428908263ffffffff61115a16565b600160a060020a03831660009081526003602090815260408083203384529091529020556109818282611306565b6000600160a060020a038216151561146d57600080fd5b50600160a060020a03166000908152602091909152604090205460ff1690565b61149e60088263ffffffff61176d16565b604051600160a060020a038216907f6ae172837ea30b801fbfcdd4108aa1d5bf8ff775444fd70256b44e6bf3dfc3f690600090a250565b6114e660088263ffffffff6117bb16565b604051600160a060020a038216907fe94479a9f7e1952cc78f2d6baab678adc1b772d936c6583def489e524cb6669290600090a250565b600061152884611807565b1561161f57506040517fc0ee0b8a000000000000000000000000000000000000000000000000000000008152600160a060020a03858116600483019081526024830185905260606044840190815284516064850152845187949385169363c0ee0b8a938a938993899360840190602085019080838360005b838110156115b85781810151838201526020016115a0565b50505050905090810190601f1680156115e55780820380516001836020036101000a031916815260200191505b50945050505050600060405180830381600087803b15801561160657600080fd5b505af115801561161a573d6000803e3d6000fd5b505050505b83600160a060020a031685600160a060020a0316600080516020611845833981519152856040518082815260200191505060405180910390a35050505050565b61167060008263ffffffff6117bb16565b604051600160a060020a038216907f3525e22824a8a7df2c9a6029941c824cf95b6447f1e13d5128fd3826d35afe8b90600090a250565b6116b860008263ffffffff61176d16565b604051600160a060020a038216907f47d1c22a25bb3a5d4e481b9b1e6944c2eade3181a0a20b495ed61d35b5323f2490600090a250565b600160a060020a038116151561170457600080fd5b600154604051600160a060020a038084169216907f8be0079c531659141344cd1fd0a4f28419497f9722a3daafe3b4186f6b6457e090600090a36001805473ffffffffffffffffffffffffffffffffffffffff1916600160a060020a0392909216919091179055565b600160a060020a038116151561178257600080fd5b61178c8282611456565b1561179657600080fd5b600160a060020a0316600090815260209190915260409020805460ff19166001179055565b600160a060020a03811615156117d057600080fd5b6117da8282611456565b15156117e557600080fd5b600160a060020a0316600090815260209190915260409020805460ff19169055565b6000903b1190565b6040805160c081018252600080825260208201819052918101829052606081018290526080810182905260a0810191909152905600ddf252ad1be2c89b69c2b068fc378daa952ba7f163c4a11628f55a4df523b3efa165627a7a723058209127b1953023ea29988e40e3aa0d0193e52fdaccce3ae1ed1abf6fd60eff837f0029",
  "source": "pragma solidity ^0.4.24;\n\nimport \"../../node_modules/openzeppelin-solidity/contracts/math/SafeMath.sol\";\nimport \"../../node_modules/openzeppelin-solidity/contracts/access/roles/SignerRole.sol\";\nimport \"../../node_modules/openzeppelin-solidity/contracts/ownership/Ownable.sol\";\n\nimport \"./token/ERC223.sol\";\n\ncontract PrepaidCardManager is SignerRole, Ownable ,ERC223(\"BloomenCoin\",\"BLO\",2) {\n  using SafeMath for uint256;\n\n  event CardValidated(\n    address indexed owner,\n    uint256 cardId,\n    address indexed user\n  );\n\n  struct Card {\n    bytes32 hash;\n    uint256 cardId;  \n    uint256 tokens;\n    bool active;\n    address owner;\n    uint initialized;\n  }\n\n  mapping (uint256 => Card) private cards_;\n  mapping (bytes32 => uint256) private activeCards_;\n\n  \n\n  modifier cardExists(uint256 _cardId) {\n    require(cards_[_cardId].initialized > 0, \"not_exist\");\n    _;\n  }\n\n  modifier validExists(uint256 _cardId) {\n    require(_cardId > 0, \"valid_card_id\");\n    _;\n  }\n\n\n  constructor() public {\n\n  }\n\n  function getCard(uint256 _cardId) cardExists(_cardId) public view returns(uint256 cardId, address owner, uint256 tokens, bool active)  {\n    return (cards_[_cardId].cardId, cards_[_cardId].owner, cards_[_cardId].tokens, cards_[_cardId].active);\n  }\n\n  function addCard(uint256 _cardId, uint256 _tokens, bytes32 _hash) validExists(_cardId) onlyOwner public {\n    require(_tokens > 0, \"empty_tokens\");\n    require(cards_[_cardId].initialized == 0, \"card_exist\");\n    _mint(this,_tokens);\n    Card memory newCard = Card(_hash, _cardId, _tokens, false, msg.sender, 1);\n    cards_[_cardId] = newCard;    \n  }\n\n  function activateCard(uint256 _cardId) cardExists(_cardId) onlySigner public {\n    require(cards_[_cardId].active == false, \"not_activatable\");\n    cards_[_cardId].active=true;    \n    activeCards_[cards_[_cardId].hash]=_cardId;\n  }\n\n  function validateCard(bytes _secret) public {\n    bytes32 hash = keccak256(_secret);\n    uint256 cardId = activeCards_[hash];\n    require(cardId > 0, \"not_active\");\n    require(cards_[cardId].active == true, \"not_active\");\n    require(cards_[cardId].hash ==  hash, \"wrong_secret\");\n  \n    _transfer(this, msg.sender,cards_[cardId].tokens);\n    emit CardValidated(cards_[cardId].owner, cards_[cardId].cardId, msg.sender);\n  \n    delete activeCards_[hash];\n    delete cards_[cardId];\n  }\n\n}",
  "sourcePath": "/home/jordi/ws/bloomen-wallet-truffle/contracts/bloomen/PrepaidCardManager.sol",
  "compiler": {
    "name": "solc",
    "version": "0.4.24+commit.e67f0147.Emscripten.clang"
  },
  "schemaVersion": "2.0.1",
  "updatedAt": "2018-12-02T19:26:48.122Z"
}