{
  "contractName": "PrepaidCardManager",
  "abi": [
    {
      "constant": true,
      "inputs": [
        {
          "name": "_assetId",
          "type": "uint256"
        },
        {
          "name": "_schemaId",
          "type": "uint256"
        }
      ],
      "name": "checkOwnership",
      "outputs": [
        {
          "name": "",
          "type": "bool"
        }
      ],
      "payable": false,
      "stateMutability": "view",
      "type": "function"
    },
    {
      "constant": true,
      "inputs": [],
      "name": "name",
      "outputs": [
        {
          "name": "",
          "type": "string"
        }
      ],
      "payable": false,
      "stateMutability": "view",
      "type": "function"
    },
    {
      "constant": false,
      "inputs": [
        {
          "name": "_to",
          "type": "address"
        },
        {
          "name": "_value",
          "type": "uint256"
        },
        {
          "name": "_data",
          "type": "uint256"
        }
      ],
      "name": "transfer",
      "outputs": [],
      "payable": false,
      "stateMutability": "nonpayable",
      "type": "function"
    },
    {
      "constant": false,
      "inputs": [
        {
          "name": "spender",
          "type": "address"
        },
        {
          "name": "value",
          "type": "uint256"
        }
      ],
      "name": "approve",
      "outputs": [
        {
          "name": "",
          "type": "bool"
        }
      ],
      "payable": false,
      "stateMutability": "nonpayable",
      "type": "function"
    },
    {
      "constant": false,
      "inputs": [
        {
          "name": "_deviceHash",
          "type": "bytes32"
        },
        {
          "name": "_assetId",
          "type": "uint256"
        },
        {
          "name": "_schemaId",
          "type": "uint256"
        },
        {
          "name": "_lifeTime",
          "type": "uint256"
        },
        {
          "name": "_dappId",
          "type": "string"
        }
      ],
      "name": "handshake",
      "outputs": [],
      "payable": false,
      "stateMutability": "nonpayable",
      "type": "function"
    },
    {
      "constant": true,
      "inputs": [
        {
          "name": "_page",
          "type": "int256"
        }
      ],
      "name": "getMovements",
      "outputs": [
        {
          "components": [
            {
              "name": "amount",
              "type": "int256"
            },
            {
              "name": "description",
              "type": "string"
            },
            {
              "name": "date",
              "type": "uint256"
            },
            {
              "name": "to",
              "type": "address"
            }
          ],
          "name": "",
          "type": "tuple[]"
        }
      ],
      "payable": false,
      "stateMutability": "view",
      "type": "function"
    },
    {
      "constant": true,
      "inputs": [],
      "name": "totalSupply",
      "outputs": [
        {
          "name": "",
          "type": "uint256"
        }
      ],
      "payable": false,
      "stateMutability": "view",
      "type": "function"
    },
    {
      "constant": false,
      "inputs": [
        {
          "name": "_deviceHash",
          "type": "bytes32"
        }
      ],
      "name": "removeDevice",
      "outputs": [],
      "payable": false,
      "stateMutability": "nonpayable",
      "type": "function"
    },
    {
      "constant": true,
      "inputs": [
        {
          "name": "_target",
          "type": "address"
        },
        {
          "name": "_deviceHash",
          "type": "bytes32"
        }
      ],
      "name": "isAllowedForAddress",
      "outputs": [
        {
          "name": "",
          "type": "bool"
        }
      ],
      "payable": false,
      "stateMutability": "view",
      "type": "function"
    },
    {
      "constant": true,
      "inputs": [
        {
          "name": "theNumber",
          "type": "uint256"
        },
        {
          "name": "percentage",
          "type": "uint256"
        }
      ],
      "name": "calculatePercentage",
      "outputs": [
        {
          "name": "",
          "type": "uint256"
        }
      ],
      "payable": false,
      "stateMutability": "view",
      "type": "function"
    },
    {
      "constant": true,
      "inputs": [
        {
          "name": "_deviceHash",
          "type": "bytes32"
        }
      ],
      "name": "getAddress",
      "outputs": [
        {
          "name": "",
          "type": "address"
        }
      ],
      "payable": false,
      "stateMutability": "view",
      "type": "function"
    },
    {
      "constant": false,
      "inputs": [
        {
          "name": "from",
          "type": "address"
        },
        {
          "name": "to",
          "type": "address"
        },
        {
          "name": "value",
          "type": "uint256"
        }
      ],
      "name": "transferFrom",
      "outputs": [
        {
          "name": "",
          "type": "bool"
        }
      ],
      "payable": false,
      "stateMutability": "nonpayable",
      "type": "function"
    },
    {
      "constant": true,
      "inputs": [
        {
          "name": "_schemaId",
          "type": "uint256"
        }
      ],
      "name": "getSchema",
      "outputs": [
        {
          "components": [
            {
              "name": "expirationDate",
              "type": "uint256"
            },
            {
              "name": "schemaId",
              "type": "uint256"
            },
            {
              "name": "amount",
              "type": "uint256"
            },
            {
              "name": "assetLifeTime",
              "type": "uint256"
            },
            {
              "components": [
                {
                  "name": "percent",
                  "type": "uint256"
                },
                {
                  "name": "receptor",
                  "type": "address"
                },
                {
                  "name": "description",
                  "type": "string"
                }
              ],
              "name": "clearingHouseRules",
              "type": "tuple[]"
            },
            {
              "name": "valid",
              "type": "bool"
            }
          ],
          "name": "",
          "type": "tuple"
        }
      ],
      "payable": false,
      "stateMutability": "view",
      "type": "function"
    },
    {
      "constant": true,
      "inputs": [],
      "name": "decimals",
      "outputs": [
        {
          "name": "",
          "type": "uint8"
        }
      ],
      "payable": false,
      "stateMutability": "view",
      "type": "function"
    },
    {
      "constant": false,
      "inputs": [
        {
          "name": "spender",
          "type": "address"
        },
        {
          "name": "addedValue",
          "type": "uint256"
        }
      ],
      "name": "increaseAllowance",
      "outputs": [
        {
          "name": "",
          "type": "bool"
        }
      ],
      "payable": false,
      "stateMutability": "nonpayable",
      "type": "function"
    },
    {
      "constant": false,
      "inputs": [
        {
          "name": "_schemaId",
          "type": "uint256"
        }
      ],
      "name": "validateSchema",
      "outputs": [],
      "payable": false,
      "stateMutability": "nonpayable",
      "type": "function"
    },
    {
      "constant": false,
      "inputs": [
        {
          "name": "to",
          "type": "address"
        },
        {
          "name": "value",
          "type": "uint256"
        }
      ],
      "name": "mint",
      "outputs": [
        {
          "name": "",
          "type": "bool"
        }
      ],
      "payable": false,
      "stateMutability": "nonpayable",
      "type": "function"
    },
    {
      "constant": false,
      "inputs": [
        {
          "name": "value",
          "type": "uint256"
        }
      ],
      "name": "burn",
      "outputs": [],
      "payable": false,
      "stateMutability": "nonpayable",
      "type": "function"
    },
    {
      "constant": true,
      "inputs": [],
      "name": "getAssetsPageCount",
      "outputs": [
        {
          "name": "",
          "type": "uint256"
        }
      ],
      "payable": false,
      "stateMutability": "view",
      "type": "function"
    },
    {
      "constant": false,
      "inputs": [
        {
          "name": "_from",
          "type": "address"
        },
        {
          "name": "_value",
          "type": "uint256"
        },
        {
          "name": "_schemaId",
          "type": "uint256"
        }
      ],
      "name": "tokenFallback",
      "outputs": [],
      "payable": false,
      "stateMutability": "nonpayable",
      "type": "function"
    },
    {
      "constant": false,
      "inputs": [
        {
          "name": "_schemaId",
          "type": "uint256"
        }
      ],
      "name": "invalidateSchema",
      "outputs": [],
      "payable": false,
      "stateMutability": "nonpayable",
      "type": "function"
    },
    {
      "constant": true,
      "inputs": [
        {
          "name": "_page",
          "type": "uint256"
        }
      ],
      "name": "getDevices",
      "outputs": [
        {
          "components": [
            {
              "name": "expirationDate",
              "type": "uint256"
            },
            {
              "name": "assetId",
              "type": "uint256"
            },
            {
              "name": "schemaId",
              "type": "uint256"
            },
            {
              "name": "dappId",
              "type": "string"
            }
          ],
          "name": "",
          "type": "tuple[]"
        }
      ],
      "payable": false,
      "stateMutability": "view",
      "type": "function"
    },
    {
      "constant": true,
      "inputs": [
        {
          "name": "_target",
          "type": "address"
        },
        {
          "name": "_assetId",
          "type": "uint256"
        },
        {
          "name": "_schemaId",
          "type": "uint256"
        }
      ],
      "name": "checkOwnershipForAddress",
      "outputs": [
        {
          "name": "",
          "type": "bool"
        }
      ],
      "payable": false,
      "stateMutability": "view",
      "type": "function"
    },
    {
      "constant": true,
      "inputs": [
        {
          "name": "owner",
          "type": "address"
        }
      ],
      "name": "balanceOf",
      "outputs": [
        {
          "name": "",
          "type": "uint256"
        }
      ],
      "payable": false,
      "stateMutability": "view",
      "type": "function"
    },
    {
      "constant": false,
      "inputs": [],
      "name": "renounceOwnership",
      "outputs": [],
      "payable": false,
      "stateMutability": "nonpayable",
      "type": "function"
    },
    {
      "constant": true,
      "inputs": [
        {
          "name": "_deviceHash",
          "type": "bytes32"
        }
      ],
      "name": "isAllowed",
      "outputs": [
        {
          "name": "",
          "type": "bool"
        }
      ],
      "payable": false,
      "stateMutability": "view",
      "type": "function"
    },
    {
      "constant": false,
      "inputs": [
        {
          "name": "from",
          "type": "address"
        },
        {
          "name": "value",
          "type": "uint256"
        }
      ],
      "name": "burnFrom",
      "outputs": [],
      "payable": false,
      "stateMutability": "nonpayable",
      "type": "function"
    },
    {
      "constant": false,
      "inputs": [
        {
          "name": "_assetId",
          "type": "uint256"
        },
        {
          "name": "_schemaId",
          "type": "uint256"
        },
        {
          "name": "_amount",
          "type": "uint256"
        },
        {
          "name": "_dappId",
          "type": "string"
        }
      ],
      "name": "buy",
      "outputs": [],
      "payable": false,
      "stateMutability": "nonpayable",
      "type": "function"
    },
    {
      "constant": true,
      "inputs": [
        {
          "name": "account",
          "type": "address"
        }
      ],
      "name": "isSigner",
      "outputs": [
        {
          "name": "",
          "type": "bool"
        }
      ],
      "payable": false,
      "stateMutability": "view",
      "type": "function"
    },
    {
      "constant": false,
      "inputs": [
        {
          "name": "_amount",
          "type": "int256"
        },
        {
          "name": "_description",
          "type": "string"
        },
        {
          "name": "_to",
          "type": "address"
        }
      ],
      "name": "addMovement",
      "outputs": [],
      "payable": false,
      "stateMutability": "nonpayable",
      "type": "function"
    },
    {
      "constant": true,
      "inputs": [],
      "name": "owner",
      "outputs": [
        {
          "name": "",
          "type": "address"
        }
      ],
      "payable": false,
      "stateMutability": "view",
      "type": "function"
    },
    {
      "constant": true,
      "inputs": [],
      "name": "isOwner",
      "outputs": [
        {
          "name": "",
          "type": "bool"
        }
      ],
      "payable": false,
      "stateMutability": "view",
      "type": "function"
    },
    {
      "constant": true,
      "inputs": [],
      "name": "symbol",
      "outputs": [
        {
          "name": "",
          "type": "string"
        }
      ],
      "payable": false,
      "stateMutability": "view",
      "type": "function"
    },
    {
      "constant": false,
      "inputs": [
        {
          "name": "account",
          "type": "address"
        }
      ],
      "name": "addMinter",
      "outputs": [],
      "payable": false,
      "stateMutability": "nonpayable",
      "type": "function"
    },
    {
      "constant": false,
      "inputs": [],
      "name": "renounceMinter",
      "outputs": [],
      "payable": false,
      "stateMutability": "nonpayable",
      "type": "function"
    },
    {
      "constant": false,
      "inputs": [
        {
          "name": "_schemaId",
          "type": "uint256"
        },
        {
          "name": "_data",
          "type": "bytes"
        }
      ],
      "name": "createSchema",
      "outputs": [],
      "payable": false,
      "stateMutability": "nonpayable",
      "type": "function"
    },
    {
      "constant": false,
      "inputs": [
        {
          "name": "spender",
          "type": "address"
        },
        {
          "name": "subtractedValue",
          "type": "uint256"
        }
      ],
      "name": "decreaseAllowance",
      "outputs": [
        {
          "name": "",
          "type": "bool"
        }
      ],
      "payable": false,
      "stateMutability": "nonpayable",
      "type": "function"
    },
    {
      "constant": false,
      "inputs": [
        {
          "name": "_to",
          "type": "address"
        },
        {
          "name": "_value",
          "type": "uint256"
        }
      ],
      "name": "transfer",
      "outputs": [
        {
          "name": "",
          "type": "bool"
        }
      ],
      "payable": false,
      "stateMutability": "nonpayable",
      "type": "function"
    },
    {
      "constant": true,
      "inputs": [
        {
          "name": "account",
          "type": "address"
        }
      ],
      "name": "isMinter",
      "outputs": [
        {
          "name": "",
          "type": "bool"
        }
      ],
      "payable": false,
      "stateMutability": "view",
      "type": "function"
    },
    {
      "constant": true,
      "inputs": [],
      "name": "getDevicesPageCount",
      "outputs": [
        {
          "name": "",
          "type": "uint256"
        }
      ],
      "payable": false,
      "stateMutability": "view",
      "type": "function"
    },
    {
      "constant": true,
      "inputs": [
        {
          "name": "_page",
          "type": "uint256"
        }
      ],
      "name": "getAssets",
      "outputs": [
        {
          "components": [
            {
              "name": "expirationDate",
              "type": "uint256"
            },
            {
              "name": "assetId",
              "type": "uint256"
            },
            {
              "name": "schemaId",
              "type": "uint256"
            },
            {
              "name": "dappId",
              "type": "string"
            }
          ],
          "name": "",
          "type": "tuple[]"
        }
      ],
      "payable": false,
      "stateMutability": "view",
      "type": "function"
    },
    {
      "constant": true,
      "inputs": [
        {
          "name": "owner",
          "type": "address"
        },
        {
          "name": "spender",
          "type": "address"
        }
      ],
      "name": "allowance",
      "outputs": [
        {
          "name": "",
          "type": "uint256"
        }
      ],
      "payable": false,
      "stateMutability": "view",
      "type": "function"
    },
    {
      "constant": false,
      "inputs": [],
      "name": "renounceSigner",
      "outputs": [],
      "payable": false,
      "stateMutability": "nonpayable",
      "type": "function"
    },
    {
      "constant": false,
      "inputs": [
        {
          "name": "account",
          "type": "address"
        }
      ],
      "name": "addSigner",
      "outputs": [],
      "payable": false,
      "stateMutability": "nonpayable",
      "type": "function"
    },
    {
      "constant": false,
      "inputs": [
        {
          "name": "newOwner",
          "type": "address"
        }
      ],
      "name": "transferOwnership",
      "outputs": [],
      "payable": false,
      "stateMutability": "nonpayable",
      "type": "function"
    },
    {
      "inputs": [],
      "payable": false,
      "stateMutability": "nonpayable",
      "type": "constructor"
    },
    {
      "anonymous": false,
      "inputs": [
        {
          "indexed": true,
          "name": "owner",
          "type": "address"
        },
        {
          "indexed": false,
          "name": "cardId",
          "type": "uint256"
        },
        {
          "indexed": true,
          "name": "user",
          "type": "address"
        }
      ],
      "name": "CardValidated",
      "type": "event"
    },
    {
      "anonymous": false,
      "inputs": [
        {
          "indexed": true,
          "name": "account",
          "type": "address"
        }
      ],
      "name": "MinterAdded",
      "type": "event"
    },
    {
      "anonymous": false,
      "inputs": [
        {
          "indexed": true,
          "name": "account",
          "type": "address"
        }
      ],
      "name": "MinterRemoved",
      "type": "event"
    },
    {
      "anonymous": false,
      "inputs": [
        {
          "indexed": true,
          "name": "from",
          "type": "address"
        },
        {
          "indexed": true,
          "name": "to",
          "type": "address"
        },
        {
          "indexed": false,
          "name": "value",
          "type": "uint256"
        }
      ],
      "name": "Transfer",
      "type": "event"
    },
    {
      "anonymous": false,
      "inputs": [
        {
          "indexed": true,
          "name": "owner",
          "type": "address"
        },
        {
          "indexed": true,
          "name": "spender",
          "type": "address"
        },
        {
          "indexed": false,
          "name": "value",
          "type": "uint256"
        }
      ],
      "name": "Approval",
      "type": "event"
    },
    {
      "anonymous": false,
      "inputs": [
        {
          "indexed": true,
          "name": "previousOwner",
          "type": "address"
        },
        {
          "indexed": true,
          "name": "newOwner",
          "type": "address"
        }
      ],
      "name": "OwnershipTransferred",
      "type": "event"
    },
    {
      "anonymous": false,
      "inputs": [
        {
          "indexed": true,
          "name": "account",
          "type": "address"
        }
      ],
      "name": "SignerAdded",
      "type": "event"
    },
    {
      "anonymous": false,
      "inputs": [
        {
          "indexed": true,
          "name": "account",
          "type": "address"
        }
      ],
      "name": "SignerRemoved",
      "type": "event"
    },
    {
      "constant": true,
      "inputs": [
        {
          "name": "_cardId",
          "type": "uint256"
        }
      ],
      "name": "getCard",
      "outputs": [
        {
          "name": "cardId",
          "type": "uint256"
        },
        {
          "name": "owner",
          "type": "address"
        },
        {
          "name": "tokens",
          "type": "uint256"
        },
        {
          "name": "active",
          "type": "bool"
        }
      ],
      "payable": false,
      "stateMutability": "view",
      "type": "function"
    },
    {
      "constant": false,
      "inputs": [
        {
          "name": "_cardId",
          "type": "uint256"
        },
        {
          "name": "_tokens",
          "type": "uint256"
        },
        {
          "name": "_hash",
          "type": "bytes32"
        }
      ],
      "name": "addCard",
      "outputs": [],
      "payable": false,
      "stateMutability": "nonpayable",
      "type": "function"
    },
    {
      "constant": false,
      "inputs": [
        {
          "name": "_cardId",
          "type": "uint256"
        }
      ],
      "name": "activateCard",
      "outputs": [],
      "payable": false,
      "stateMutability": "nonpayable",
      "type": "function"
    },
    {
      "constant": false,
      "inputs": [
        {
          "name": "_secret",
          "type": "bytes"
        }
      ],
      "name": "validateCard",
      "outputs": [],
      "payable": false,
      "stateMutability": "nonpayable",
      "type": "function"
    }
  ],
  "bytecode": "0x60806040523480156200001157600080fd5b506040805190810160405280600b81526020017f426c6f6f6d656e436f696e0000000000000000000000000000000000000000008152506040805190810160405280600381526020017f424c4f000000000000000000000000000000000000000000000000000000000081525060028282826200009d3362000149640100000000026401000000009004565b60018054600160a060020a031916331790819055604051600160a060020a0391909116906000907f8be0079c531659141344cd1fd0a4f28419497f9722a3daafe3b4186f6b6457e0908290a38251620000fe90600690602086019062000280565b5081516200011490600790602085019062000280565b506008805460ff191660ff9290921691909117905550620001409050336401000000006200019b810204565b50505062000325565b6200016460008264010000000062002ec1620001ed82021704565b604051600160a060020a038216907f47d1c22a25bb3a5d4e481b9b1e6944c2eade3181a0a20b495ed61d35b5323f2490600090a250565b620001b660098264010000000062002ec1620001ed82021704565b604051600160a060020a038216907f6ae172837ea30b801fbfcdd4108aa1d5bf8ff775444fd70256b44e6bf3dfc3f690600090a250565b600160a060020a03811615156200020357600080fd5b62000218828264010000000062000248810204565b156200022357600080fd5b600160a060020a0316600090815260209190915260409020805460ff19166001179055565b6000600160a060020a03821615156200026057600080fd5b50600160a060020a03166000908152602091909152604090205460ff1690565b828054600181600116156101000203166002900490600052602060002090601f016020900481019282601f10620002c357805160ff1916838001178555620002f3565b82800160010185558215620002f3579182015b82811115620002f3578251825591602001919060010190620002d6565b506200030192915062000305565b5090565b6200032291905b808211156200030157600081556001016200030c565b90565b61434780620003356000396000f3006080604052600436106102505763ffffffff7c010000000000000000000000000000000000000000000000000000000060003504166304edae0f811461025557806306fdde031461028b578063095bcdb6146102ad578063095ea7b3146102cf578063132c6aa4146102ef57806317b1b4981461030f57806318160ddd1461033c5780631d2662001461035e5780631d8418991461037e5780632133e3b91461039e57806321f8a721146103be57806323b872dd146103eb5780632b26fb291461040b578063313ce56714610438578063395093511461045a5780634014d4681461047a57806340c10f191461049a57806342966c68146104ba5780634aa3bfeb146104da5780634f4ee353146104ef5780635a16f5c41461050f5780636d9db7ed1461052f578063700651aa1461055c57806370a082311461057c578063715018a61461059c57806378755295146105b157806379cc6790146105d15780637de3b0ed146105f15780637df73e27146106115780637e09ef421461063157806386b00ad5146106515780638a984385146106715780638da5cb5b146106915780638f32d59b146106a65780639188d312146106bb57806395d89b41146106eb578063983b2d56146107005780639865027514610720578063a2086dab14610735578063a457c2d714610755578063a9059cbb14610775578063aa271e1a14610795578063c1debea4146107b5578063c8c2eb66146107d5578063d9212164146107ea578063dd62ed3e14610817578063e5c8b03d14610837578063eb12d61e1461084c578063f2fde38b1461086c575b600080fd5b34801561026157600080fd5b506102756102703660046137eb565b61088c565b604051610282919061406a565b60405180910390f35b34801561029757600080fd5b506102a06108a2565b6040516102829190614078565b3480156102b957600080fd5b506102cd6102c8366004613636565b610939565b005b3480156102db57600080fd5b506102756102ea366004613606565b610955565b3480156102fb57600080fd5b506102cd61030a366004613686565b6109d7565b34801561031b57600080fd5b5061032f61032a366004613668565b6109ec565b6040516102829190614059565b34801561034857600080fd5b50610351610c3d565b60405161028291906141ea565b34801561036a57600080fd5b506102cd610379366004613668565b610c43565b34801561038a57600080fd5b50610275610399366004613606565b610c50565b3480156103aa57600080fd5b506103516103b93660046137eb565b610c87565b3480156103ca57600080fd5b506103de6103d9366004613668565b610c8f565b6040516102829190614001565b3480156103f757600080fd5b506102756104063660046135b9565b610cca565b34801561041757600080fd5b5061042b610426366004613668565b610d67565b60405161028291906141d9565b34801561044457600080fd5b5061044d610efd565b604051610282919061422d565b34801561046657600080fd5b50610275610475366004613606565b610f06565b34801561048657600080fd5b506102cd610495366004613668565b610fa9565b3480156104a657600080fd5b506102756104b5366004613606565b610fc7565b3480156104c657600080fd5b506102cd6104d5366004613668565b610ff0565b3480156104e657600080fd5b50610351610ffa565b3480156104fb57600080fd5b506102cd61050a366004613636565b611014565b34801561051b57600080fd5b506102cd61052a366004613668565b6110e0565b34801561053b57600080fd5b5061054f61054a366004613668565b6110fe565b6040516102829190614048565b34801561056857600080fd5b50610275610577366004613636565b611301565b34801561058857600080fd5b50610351610597366004613561565b61130e565b3480156105a857600080fd5b506102cd611329565b3480156105bd57600080fd5b506102756105cc366004613668565b611386565b3480156105dd57600080fd5b506102cd6105ec366004613606565b6113bd565b3480156105fd57600080fd5b506102cd61060c36600461382b565b6113cb565b34801561061d57600080fd5b5061027561062c366004613561565b6113de565b34801561063d57600080fd5b506102cd61064c366004613668565b6113f0565b34801561065d57600080fd5b506102cd61066c366004613748565b61148c565b34801561067d57600080fd5b506102cd61068c36600461380a565b611498565b34801561069d57600080fd5b506103de611611565b3480156106b257600080fd5b50610275611620565b3480156106c757600080fd5b506106db6106d6366004613668565b611631565b60405161028294939291906141f8565b3480156106f757600080fd5b506102a06116a6565b34801561070c57600080fd5b506102cd61071b366004613561565b611707565b34801561072c57600080fd5b506102cd611724565b34801561074157600080fd5b506102cd6107503660046137a3565b61172f565b34801561076157600080fd5b50610275610770366004613606565b61174c565b34801561078157600080fd5b50610275610790366004613606565b611797565b3480156107a157600080fd5b506102756107b0366004613561565b6117b1565b3480156107c157600080fd5b506102cd6107d0366004613713565b6117c4565b3480156107e157600080fd5b50610351611999565b3480156107f657600080fd5b5061080a610805366004613668565b6119b4565b6040516102829190614037565b34801561082357600080fd5b5061035161083236600461357f565b611b9a565b34801561084357600080fd5b506102cd611bc5565b34801561085857600080fd5b506102cd610867366004613561565b611bce565b34801561087857600080fd5b506102cd610887366004613561565b611beb565b6000610899338484611c07565b90505b92915050565b60068054604080516020601f600260001961010060018816150201909516949094049384018190048102820181019092528281526060939092909183018282801561092e5780601f106109035761010080835404028352916020019161092e565b820191906000526020600020905b81548152906001019060200180831161091157829003601f168201915b505050505090505b90565b610944338484611d80565b61095033848484611e11565b505050565b6000600160a060020a038316151561096c57600080fd5b336000818152600460209081526040808320600160a060020a03881680855292529182902085905590519091907f8c5be1e5ebec7d5bd14f71427d1e84f3dd0314c0f7b2291e5b200ac8c7c3b925906109c69086906141ea565b60405180910390a350600192915050565b6109e5338686868686611ee0565b5050505050565b60606000606080600080600087138015610a075750600a8713155b1515610a315760405160e560020a62461bcd028152600401610a2890614099565b60405180910390fd5b336000908152600a6020818152604080842080548251818502810185019093528083526000198d019094029950909390929184015b82821015610b6857838290600052602060002090600402016080604051908101604052908160008201548152602001600182018054600181600116156101000203166002900480601f016020809104026020016040519081016040528092919081815260200182805460018160011615610100020316600290048015610b2d5780601f10610b0257610100808354040283529160200191610b2d565b820191906000526020600020905b815481529060010190602001808311610b1057829003601f168201915b50505091835250506002820154602080830191909152600390920154600160a060020a03166040909101529082526001929092019101610a66565b505050509350848451111515610b7d57610c33565b60408051600a808252610160820190925290816020015b610b9c613315565b815260200190600190039081610b94579050509250600091505b600a821215610c2f5750336000908152600b602052604081205485900382900390811215610bf457606484511015610bf057829550610c33565b6064015b8381815181101515610c0257fe5b906020019060200201518383815181101515610c1a57fe5b60209081029091010152600190910190610bb6565b8295505b5050505050919050565b60055490565b610c4d3382612058565b50565b6000818152600e60205260408120548190600160a060020a038581169116148015610c7f5750610c7f83611386565b949350505050565b606491020490565b6000806000610c9d84611386565b91508115610cbf57506000838152600e6020526040902054600160a060020a03165b8092505b5050919050565b600160a060020a0383166000908152600460209081526040808320338452909152812054821115610cfa57600080fd5b600160a060020a0384166000908152600460209081526040808320338452909152902054610d2e908363ffffffff61223c16565b600160a060020a0385166000908152600460209081526040808320338452909152902055610d5d848484611d80565b5060019392505050565b610d6f613347565b60008281526002602052604081206001015411610da15760405160e560020a62461bcd028152600401610a28906140f9565b6000828152600260208181526040808420815160c081018352815481526001820154818501529381015484830152600381015460608501526004810180548351818602810186019094528084529495919460808701949192909184015b82821015610ede576000848152602090819020604080516060810182526003860290920180548352600180820154600160a060020a0316848601526002808301805485516101009482161594909402600019011691909104601f8101879004870283018701855280835294959294938601939192909190830182828015610ec65780601f10610e9b57610100808354040283529160200191610ec6565b820191906000526020600020905b815481529060010190602001808311610ea957829003601f168201915b50505050508152505081526020019060010190610dfe565b505050908252506005919091015460ff16151560209091015292915050565b60085460ff1690565b6000600160a060020a0383161515610f1d57600080fd5b336000908152600460209081526040808320600160a060020a0387168452909152902054610f51908363ffffffff61225316565b336000818152600460209081526040808320600160a060020a038916808552925291829020849055905190927f8c5be1e5ebec7d5bd14f71427d1e84f3dd0314c0f7b2291e5b200ac8c7c3b925916109c691906141ea565b610fb1611620565b1515610fbc57600080fd5b610c4d81600161226c565b6000610fd2336117b1565b1515610fdd57600080fd5b610fe783836122fd565b50600192915050565b610c4d338261239a565b336000908152600c6020526040812054600a905b06905090565b61101c613347565b600080600061102a85610d67565b9350859250600091505b6001846080015151038210156110a75761106a8685608001518481518110151561105a57fe5b6020908102909101015151610c87565b905061109784608001518381518110151561108157fe5b9060200190602002015160200151826000610939565b9182900391600190910190611034565b608084015180516110d7919060001981019081106110c157fe5b9060200190602002015160200151846000610939565b50505050505050565b6110e8611620565b15156110f357600080fd5b610c4d81600061226c565b60408051600a8082526101608201909252606091829160009183918391816020015b611128613380565b815260200190600190039081611120575050336000908152600d60209081526040918290206001018054835181840281018401909452808452939750600a8a026009190196509192908301828280156111a157602002820191906000526020600020905b8154815260019091019060200180831161118c575b505050505091508151600014806111bb5750600182510383115b156111c5576112f8565b5060005b85600a028310156112f45781518310156112e857336000908152600d6020526040812083519091908490869081106111fd57fe5b6020908102919091018101518252818101929092526040908101600020815160808101835281548152600180830154828601526002808401548386015260038401805486516000199482161561010002949094011691909104601f81018790048702830187019095528482529194929360608601939192918301828280156112c65780601f1061129b576101008083540402835291602001916112c6565b820191906000526020600020905b8154815290600101906020018083116112a957829003601f168201915b50505050508152505084828151811015156112dd57fe5b602090810290910101525b600192830192016111c9565b8394505b50505050919050565b6000610c7f848484611c07565b600160a060020a031660009081526003602052604090205490565b611331611620565b151561133c57600080fd5b600154604051600091600160a060020a0316907f8be0079c531659141344cd1fd0a4f28419497f9722a3daafe3b4186f6b6457e0908390a360018054600160a060020a0319169055565b6000818152600e6020908152604080832054600160a060020a03168352600d82528083208484529091529020544210805b50919050565b6113c7828261244d565b5050565b6113d833858585856124df565b50505050565b600061089c818363ffffffff6125e716565b6000818152600f60205260408120600401548291106114245760405160e560020a62461bcd028152600401610a28906140f9565b61142d336113de565b151561143857600080fd5b6000828152600f602052604090206003015460ff161561146d5760405160e560020a62461bcd028152600401610a28906141c9565b506000908152600f60205260409020600301805460ff19166001179055565b6109508383338461261e565b6114a06133a9565b6114a8611620565b15156114b357600080fd5b600083116114d65760405160e560020a62461bcd028152600401610a28906141a9565b600084116114f95760405160e560020a62461bcd028152600401610a28906140a9565b6000848152600f60205260409020600401541561152b5760405160e560020a62461bcd028152600401610a2890614179565b6000828152601060205260409020541561155a5760405160e560020a62461bcd028152600401610a2890614089565b61156430846122fd565b506040805160c08101825282815260208082018681528284019586526000606084018181523360808601908152600160a087018181528b8552600f87528885209751885594519087015597516002860155516003850180549851600160a060020a03166101000274ffffffffffffffffffffffffffffffffffffffff001992151560ff19909a16999099179190911697909717909655516004909201919091559183526010909152902055565b600154600160a060020a031690565b600154600160a060020a0316331490565b6000818152600f60205260408120600401548190819081908590821061166c5760405160e560020a62461bcd028152600401610a28906140f9565b50505060009283525050600f602052604090206001810154600382015460029092015490926101008304600160a060020a03169260ff1690565b60078054604080516020601f600260001961010060018816150201909516949094049384018190048102820181019092528281526060939092909183018282801561092e5780601f106109035761010080835404028352916020019161092e565b611710336117b1565b151561171b57600080fd5b610c4d816128b4565b61172d336128fc565b565b611737611620565b151561174257600080fd5b6113c78282612944565b6000600160a060020a038316151561176357600080fd5b336000908152600460209081526040808320600160a060020a0387168452909152902054610f51908363ffffffff61223c16565b60006117a4338484611d80565b610fe73384846000611e11565b600061089c60098363ffffffff6125e716565b600080826040518082805190602001908083835b602083106117f75780518252601f1990920191602091820191016117d8565b51815160209384036101000a600019018019909216911617905260408051929094018290039091206000818152601090925292812054929650919450508311915061185990505760405160e560020a62461bcd028152600401610a2890614149565b6000818152600f602052604090206003015460ff1615156001146118925760405160e560020a62461bcd028152600401610a28906140e9565b6000818152600f602052604090205482146118c25760405160e560020a62461bcd028152600401610a28906140c9565b6000818152600f60205260409020600201546118e19030903390611d80565b6000818152600f602052604090819020600381015460019091015491513392610100909204600160a060020a0316917f80de5a7d3e27e32cfffc07551af7c9ee302a01b5456991722d7ef54193eab3569161193c91906141ea565b60405180910390a36000918252601060209081526040808420849055918352600f90528120818155600181018290556002810182905560038101805474ffffffffffffffffffffffffffffffffffffffffff191690556004015550565b336000908152600d6020526040812060010154600a9061100e565b336000908152600c602090815260408083208054825181850281018501909352808352606094600919600a88020194869485949293909291849084015b82821015611ae4578382906000526020600020906004020160806040519081016040529081600082015481526020016001820154815260200160028201548152602001600382018054600181600116156101000203166002900480601f016020809104026020016040519081016040528092919081815260200182805460018160011615610100020316600290048015611acc5780601f10611aa157610100808354040283529160200191611acc565b820191906000526020600020905b815481529060010190602001808311611aaf57829003601f168201915b505050505081525050815260200190600101906119f1565b505050509250825160001480611afd5750600183510384115b15611b07576112f8565b60408051600a808252610160820190925290816020015b611b26613380565b815260200190600190039081611b1e579050509150600090505b85600a02841015611b91578251841015611b85578284815181101515611b6257fe5b906020019060200201518282815181101515611b7a57fe5b602090810290910101525b60019384019301611b40565b50949350505050565b600160a060020a03918216600090815260046020908152604080832093909416825291909152205490565b61172d33612cd3565b611bd7336113de565b1515611be257600080fd5b610c4d81612d1b565b611bf3611620565b1515611bfe57600080fd5b610c4d81612d63565b600080611c12613380565b600091505b600160a060020a0386166000908152600c6020526040902054821015611d7257600160a060020a0386166000908152600c60205260409020805483908110611c5b57fe5b906000526020600020906004020160806040519081016040529081600082015481526020016001820154815260200160028201548152602001600382018054600181600116156101000203166002900480601f016020809104026020016040519081016040528092919081815260200182805460018160011615610100020316600290048015611d2c5780601f10611d0157610100808354040283529160200191611d2c565b820191906000526020600020905b815481529060010190602001808311611d0f57829003601f168201915b5050505050815250509050848160200151148015611d4d5750838160400151145b8015611d595750805142105b15611d675760019250611d77565b600190910190611c17565b600092505b50509392505050565b611dc581600019026040805190810160405280600481526020017f73656e6400000000000000000000000000000000000000000000000000000000815250858561261e565b611e06816040805190810160405280600781526020017f7265636569766500000000000000000000000000000000000000000000000000815250848661261e565b610950838383612dd4565b6000611e1c84612eb9565b15611ea057506040517f4f4ee3530000000000000000000000000000000000000000000000000000000081528390600160a060020a03821690634f4ee35390611e6d9088908790879060040161400f565b600060405180830381600087803b158015611e8757600080fd5b505af1158015611e9b573d6000803e3d6000fd5b505050505b83600160a060020a031685600160a060020a03166000805160206142ee83398151915285604051611ed191906141ea565b60405180910390a35050505050565b611eeb868585611c07565b1515611f0c5760405160e560020a62461bcd028152600401610a2890614109565b6000858152600e6020526040902054600160a060020a031615801590611f385750611f3685611386565b155b15611f5f576000858152600e6020526040902054611f5f90600160a060020a031686612058565b6000858152600e6020526040902054600160a060020a031615611f975760405160e560020a62461bcd028152600401610a28906141b9565b6000858152600e602090815260408083208054600160a060020a031916600160a060020a038b16908117909155815160808101835286815280840189815281840189815260608301888152938752600d86528487208c885286529390952081518155945160018601559151600285015551805191939261201f926003850192909101906133de565b505050600160a060020a039095166000908152600d60209081526040822060019081018054918201815583529120019390935550505050565b6000818152600e60205260408120548190600160a060020a038581169116146120965760405160e560020a62461bcd028152600401610a2890614139565b6000838152600e602090815260408083208054600160a060020a0319169055600160a060020a0387168352600d825280832086845290915281208181556001810182905560028101829055906120ef600383018261345c565b505060009150600090505b600160a060020a0384166000908152600d6020526040902060010154600019018110156121d957811561219757600160a060020a0384166000908152600d60205260409020600190810180549091830190811061215357fe5b6000918252602080832090910154600160a060020a0387168352600d909152604090912060010180548390811061218657fe5b6000918252602090912001556121d1565b600160a060020a0384166000908152600d602052604090206001018054849190839081106121c157fe5b6000918252602090912001541491505b6001016120fa565b600160a060020a0384166000908152600d602052604090206001018054600019810190811061220457fe5b60009182526020808320909101829055600160a060020a0386168252600d9052604090206001018054906109e59060001983016134a0565b6000808383111561224c57600080fd5b5050900390565b60008282018381101561226557600080fd5b9392505050565b600082815260026020526040902060010154151561229f5760405160e560020a62461bcd028152600401610a2890614119565b60008281526002602052604090206005015460ff16151581151514156122da5760405160e560020a62461bcd028152600401610a2890614189565b600091825260026020526040909120600501805460ff1916911515919091179055565b600160a060020a038216151561231257600080fd5b600554612325908263ffffffff61225316565b600555600160a060020a038216600090815260036020526040902054612351908263ffffffff61225316565b600160a060020a0383166000818152600360205260408082209390935591519091906000805160206142ee8339815191529061238e9085906141ea565b60405180910390a35050565b600160a060020a03821615156123af57600080fd5b600160a060020a0382166000908152600360205260409020548111156123d457600080fd5b6005546123e7908263ffffffff61223c16565b600555600160a060020a038216600090815260036020526040902054612413908263ffffffff61223c16565b600160a060020a0383166000818152600360205260408082209390935591516000805160206142ee8339815191529061238e9085906141ea565b600160a060020a038216600090815260046020908152604080832033845290915290205481111561247d57600080fd5b600160a060020a03821660009081526004602090815260408083203384529091529020546124b1908263ffffffff61223c16565b600160a060020a03831660009081526004602090815260408083203384529091529020556113c7828261239a565b6124e7613347565b6124f084610d67565b604081015190915083146125195760405160e560020a62461bcd028152600401610a2890614169565b612524868686611c07565b156125445760405160e560020a62461bcd028152600401610a2890614199565b600083111561255857612558308486610939565b600160a060020a0386166000908152600c602090815260408083208151608081018352606080870151420182528185018b81529382018a815290820188815283546001818101808755958952978790208451600490920201908155945196850196909655516002840155935180519194936125db926003850192909101906133de565b50505050505050505050565b6000600160a060020a03821615156125fe57600080fd5b50600160a060020a03166000908152602091909152604090205460ff1690565b600160a060020a0382166000908152600a60205260409020546064111561270a57600160a060020a038083166000908152600a60209081526040808320815160808101835289815280840189815242938201939093529486166060860152805460018181018084559286529484902086516004909202019081559151805191959492936126b0938501929101906133de565b50604082810151600283015560609092015160039091018054600160a060020a031916600160a060020a0392831617905584166000908152600a602090815282822054600b909152919020600019919091019055506113d8565b600160a060020a0382166000908152600b6020526040902054606314156127eb57600160a060020a038083166000818152600b60209081526040808320839055805160808101825289815280830189905242818301529486166060860152928252600a90529081208054909190811061277f57fe5b90600052602060002090600402016000820151816000015560208201518160010190805190602001906127b39291906133de565b506040820151600282015560609091015160039091018054600160a060020a031916600160a060020a039092169190911790556113d8565b600160a060020a038083166000818152600b6020818152604080842080546001019081905581516080810183528b81528084018b905242818401529688166060880152948452600a825290922091528054909190811061284757fe5b906000526020600020906004020160008201518160000155602082015181600101908051906020019061287b9291906133de565b506040820151600282015560609091015160039091018054600160a060020a031916600160a060020a0390921691909117905550505050565b6128c560098263ffffffff612ec116565b604051600160a060020a038216907f6ae172837ea30b801fbfcdd4108aa1d5bf8ff775444fd70256b44e6bf3dfc3f690600090a250565b61290d60098263ffffffff612f0f16565b604051600160a060020a038216907fe94479a9f7e1952cc78f2d6baab678adc1b772d936c6583def489e524cb6669290600090a250565b61294c6134c4565b606060008060008060606000806060600260008d81526020019081526020016000206001015460001415156129965760405160e560020a62461bcd028152600401610a2890614159565b61299f8b612f5b565b99506129aa8a612fa9565b98506129cd8960008151811015156129be57fe5b90602001906020020151613073565b97504288116129f15760405160e560020a62461bcd028152600401610a2890614129565b612a038960018151811015156129be57fe5b9650612a178960028151811015156129be57fe5b9550612a2b8960038151811015156129be57fe5b9450612a4e896004815181101515612a3f57fe5b90602001906020020151612fa9565b935083519250600091505b82821015612b6f57612a728483815181101515612a3f57fe5b905060026000888152602001908152602001600020600401606060405190810160405280612aa88460008151811015156129be57fe5b8152602001612ace846001815181101515612abf57fe5b906020019060200201516130a9565b600160a060020a03168152602001612afd846002815181101515612aee57fe5b906020019060200201516130da565b90528154600180820180855560009485526020948590208451600390940201928355838501519183018054600160a060020a031916600160a060020a0390931692909217909155604083015180519194612b5f926002850192909101906133de565b505060019093019250612a599050565b612c9160026000898152602001908152602001600020600401805480602002602001604051908101604052809291908181526020016000905b82821015612c88576000848152602090819020604080516060810182526003860290920180548352600180820154600160a060020a0316848601526002808301805485516101009482161594909402600019011691909104601f8101879004870283018701855280835294959294938601939192909190830182828015612c705780601f10612c4557610100808354040283529160200191612c70565b820191906000526020600020905b815481529060010190602001808311612c5357829003601f168201915b50505050508152505081526020019060010190612ba8565b50505050613143565b50505060008481526002602081905260409091209586556001808701959095558501929092556003840155506005909101805460ff1916909117905550505050565b612ce460008263ffffffff612f0f16565b604051600160a060020a038216907f3525e22824a8a7df2c9a6029941c824cf95b6447f1e13d5128fd3826d35afe8b90600090a250565b612d2c60008263ffffffff612ec116565b604051600160a060020a038216907f47d1c22a25bb3a5d4e481b9b1e6944c2eade3181a0a20b495ed61d35b5323f2490600090a250565b600160a060020a0381161515612d7857600080fd5b600154604051600160a060020a038084169216907f8be0079c531659141344cd1fd0a4f28419497f9722a3daafe3b4186f6b6457e090600090a360018054600160a060020a031916600160a060020a0392909216919091179055565b600160a060020a038316600090815260036020526040902054811115612df957600080fd5b600160a060020a0382161515612e0e57600080fd5b600160a060020a038316600090815260036020526040902054612e37908263ffffffff61223c16565b600160a060020a038085166000908152600360205260408082209390935590841681522054612e6c908263ffffffff61225316565b600160a060020a0380841660008181526003602052604090819020939093559151908516906000805160206142ee83398151915290612eac9085906141ea565b60405180910390a3505050565b6000903b1190565b600160a060020a0381161515612ed657600080fd5b612ee082826125e7565b15612eea57600080fd5b600160a060020a0316600090815260209190915260409020805460ff19166001179055565b600160a060020a0381161515612f2457600080fd5b612f2e82826125e7565b1515612f3957600080fd5b600160a060020a0316600090815260209190915260409020805460ff19169055565b612f636134c4565b6000825160001415612f8a57604080518082019091526000808252602082015291506113b7565b5050604080518082019091528151815260209182019181019190915290565b6060600080600080612fba86613167565b1515612fc557600080fd5b612fce8661318a565b93508360405190808252806020026020018201604052801561300a57816020015b612ff76134c4565b815260200190600190039081612fef5790505b50945061301a86602001516131da565b8660200151019250600090505b838110156112f8576130388361323d565b9150604080519081016040528083815260200184815250858281518110151561305d57fe5b6020908102909101015291810191600101613027565b600080600080600061308886602001516131da565b86516020978801518201519190039096036101000a90950495945050505050565b8051600090601510156130d15760405160e560020a62461bcd028152600401610a28906140d9565b61089c82613073565b6060600080606060006130f086602001516131da565b9350838660000151039250826040519080825280601f01601f191660200182016040528015613129578160200160208202803883390190505b509150816020019050611b918487602001510182856132ce565b8051600010610c4d5760405160e560020a62461bcd028152600401610a28906140b9565b6020810151805160009190821a9060c060ff83161015610d5d5760009250610cc3565b600080600080600092506131a185602001516131da565b6020860151865191810193500190505b808210156131d1576131c28261323d565b600190930192909101906131b1565b50909392505050565b8051600090811a60808110156131f357600091506113b7565b60b881108061320e575060c0811080159061320e575060f881105b1561321c57600191506113b7565b60c08110156132315760b519810191506113b7565b60f519810191506113b7565b8051600090811a608081101561325657600191506113b7565b60b881101561326b57607e19810191506113b7565b60c08110156132985760b78103600184019350806020036101000a845104600182018101935050506113b7565b60f88110156132ad5760be19810191506113b7565b60019290920151602083900360f7016101000a900490910160f51901919050565b60005b602082106132f3578351835260209384019390920191601f19909101906132d1565b50915181516020939093036101000a6000190180199091169216919091179052565b6080604051908101604052806000815260200160608152602001600081526020016000600160a060020a031681525090565b60c06040519081016040528060008152602001600081526020016000815260200160008152602001606081526020016000151581525090565b608060405190810160405280600081526020016000815260200160008152602001606081525090565b6040805160c081018252600080825260208201819052918101829052606081018290526080810182905260a081019190915290565b828054600181600116156101000203166002900490600052602060002090601f016020900481019282601f1061341f57805160ff191683800117855561344c565b8280016001018555821561344c579182015b8281111561344c578251825591602001919060010190613431565b506134589291506134db565b5090565b50805460018160011615610100020316600290046000825580601f106134825750610c4d565b601f016020900490600052602060002090810190610c4d91906134db565b815481835581811115610950576000838152602090206109509181019083016134db565b604080518082019091526000808252602082015290565b61093691905b8082111561345857600081556001016134e1565b60006108998235614294565b60006108998235610936565b6000601f8201831361351e57600080fd5b813561353161352c82614262565b61423b565b9150808252602083016020830185838301111561354d57600080fd5b6135588382846142ab565b50505092915050565b60006020828403121561357357600080fd5b6000610c7f84846134f5565b6000806040838503121561359257600080fd5b600061359e85856134f5565b92505060206135af858286016134f5565b9150509250929050565b6000806000606084860312156135ce57600080fd5b60006135da86866134f5565b93505060206135eb868287016134f5565b92505060406135fc86828701613501565b9150509250925092565b6000806040838503121561361957600080fd5b600061362585856134f5565b92505060206135af85828601613501565b60008060006060848603121561364b57600080fd5b600061365786866134f5565b93505060206135eb86828701613501565b60006020828403121561367a57600080fd5b6000610c7f8484613501565b600080600080600060a0868803121561369e57600080fd5b60006136aa8888613501565b95505060206136bb88828901613501565b94505060406136cc88828901613501565b93505060606136dd88828901613501565b925050608086013567ffffffffffffffff8111156136fa57600080fd5b6137068882890161350d565b9150509295509295909350565b60006020828403121561372557600080fd5b813567ffffffffffffffff81111561373c57600080fd5b610c7f8482850161350d565b60008060006060848603121561375d57600080fd5b60006137698686613501565b935050602084013567ffffffffffffffff81111561378657600080fd5b6137928682870161350d565b92505060406135fc868287016134f5565b600080604083850312156137b657600080fd5b60006137c28585613501565b925050602083013567ffffffffffffffff8111156137df57600080fd5b6135af8582860161350d565b600080604083850312156137fe57600080fd5b60006136258585613501565b60008060006060848603121561381f57600080fd5b60006136578686613501565b6000806000806080858703121561384157600080fd5b600061384d8787613501565b945050602061385e87828801613501565b935050604061386f87828801613501565b925050606085013567ffffffffffffffff81111561388c57600080fd5b6138988782880161350d565b91505092959194509250565b6138ad81614294565b82525050565b60006138be82614290565b808452602084019350836020820285016138d78561428a565b60005b8481101561390e5783830388526138f2838351613e88565b92506138fd8261428a565b6020989098019791506001016138da565b50909695505050505050565b600061392582614290565b8084526020840193508360208202850161393e8561428a565b60005b8481101561390e578383038852613959838351613ee3565b92506139648261428a565b602098909801979150600101613941565b600061398082614290565b808452602084019350836020820285016139998561428a565b60005b8481101561390e5783830388526139b4838351613e88565b92506139bf8261428a565b60209890980197915060010161399c565b60006139db82614290565b808452602084019350836020820285016139f48561428a565b60005b8481101561390e578383038852613a0f838351613f22565b9250613a1a8261428a565b6020989098019791506001016139f7565b6138ad816142a0565b6138ad81610936565b6000613a4882614290565b808452613a5c8160208601602086016142b7565b613a65816142e3565b9093016020019392505050565b600f81527f6475706c6963617465645f686173680000000000000000000000000000000000602082015260400190565b600d81527f496e76616c696420706167652e00000000000000000000000000000000000000602082015260400190565b601081527f6e6f5f76616c69645f636172645f696400000000000000000000000000000000602082015260400190565b600981527f6e6f742072756c65730000000000000000000000000000000000000000000000602082015260400190565b600c81527f77726f6e675f7365637265740000000000000000000000000000000000000000602082015260400190565b603a81527f496e76616c696420524c504974656d2e2041646472657373657320617265206560208201527f6e636f64656420696e203230206279746573206f72206c657373000000000000604082015260600190565b600a81527f6e6f745f61637469766500000000000000000000000000000000000000000000602082015260400190565b600981527f6e6f745f65786973740000000000000000000000000000000000000000000000602082015260400190565b600b81527f6e6f7420616c6c6f776564000000000000000000000000000000000000000000602082015260400190565b600981527f6e6f742065786973740000000000000000000000000000000000000000000000602082015260400190565b600781527f6578706972656400000000000000000000000000000000000000000000000000602082015260400190565b600a81527f73616d65206f776e657200000000000000000000000000000000000000000000602082015260400190565b600e81527f686173685f6e6f745f666f756e64000000000000000000000000000000000000602082015260400190565b600581527f6578697374000000000000000000000000000000000000000000000000000000602082015260400190565b601081527f696e636f727265637420616d6f756e7400000000000000000000000000000000602082015260400190565b600a81527f636172645f657869737400000000000000000000000000000000000000000000602082015260400190565b600b81527f73616d6520737461747573000000000000000000000000000000000000000000602082015260400190565b600a81527f6475706c69636174656400000000000000000000000000000000000000000000602082015260400190565b600c81527f656d7074795f746f6b656e730000000000000000000000000000000000000000602082015260400190565b600f81527f6475706c69636174656420686173680000000000000000000000000000000000602082015260400190565b600f81527f6e6f745f6163746976617461626c650000000000000000000000000000000000602082015260400190565b80516000906080840190613e9c8582613a34565b506020830151613eaf6020860182613a34565b506040830151613ec26040860182613a34565b5060608301518482036060860152613eda8282613a3d565b95945050505050565b80516000906060840190613ef78582613a34565b506020830151613f0a60208601826138a4565b5060408301518482036040860152613eda8282613a3d565b80516000906080840190613f368582613a34565b5060208301518482036020860152613f4e8282613a3d565b9150506040830151613f636040860182613a34565b506060830151613f7660608601826138a4565b509392505050565b805160009060c0840190613f928582613a34565b506020830151613fa56020860182613a34565b506040830151613fb86040860182613a34565b506060830151613fcb6060860182613a34565b5060808301518482036080860152613fe3828261391a565b91505060a0830151613f7660a0860182613a2b565b6138ad816142a5565b6020810161089c82846138a4565b6060810161401d82866138a4565b61402a6020830185613a34565b610c7f6040830184613a34565b6020808252810161089981846138b3565b602080825281016108998184613975565b6020808252810161089981846139d0565b6020810161089c8284613a2b565b602080825281016108998184613a3d565b6020808252810161089c81613a72565b6020808252810161089c81613aa2565b6020808252810161089c81613ad2565b6020808252810161089c81613b02565b6020808252810161089c81613b32565b6020808252810161089c81613b62565b6020808252810161089c81613bb8565b6020808252810161089c81613be8565b6020808252810161089c81613c18565b6020808252810161089c81613c48565b6020808252810161089c81613c78565b6020808252810161089c81613ca8565b6020808252810161089c81613cd8565b6020808252810161089c81613d08565b6020808252810161089c81613d38565b6020808252810161089c81613d68565b6020808252810161089c81613d98565b6020808252810161089c81613dc8565b6020808252810161089c81613df8565b6020808252810161089c81613e28565b6020808252810161089c81613e58565b602080825281016108998184613f7e565b6020810161089c8284613a34565b608081016142068287613a34565b61421360208301866138a4565b6142206040830185613a34565b613eda6060830184613a2b565b6020810161089c8284613ff8565b60405181810167ffffffffffffffff8111828210171561425a57600080fd5b604052919050565b600067ffffffffffffffff82111561427957600080fd5b506020601f91909101601f19160190565b60200190565b5190565b600160a060020a031690565b151590565b60ff1690565b82818337506000910152565b60005b838110156142d25781810151838201526020016142ba565b838111156113d85750506000910152565b601f01601f1916905600ddf252ad1be2c89b69c2b068fc378daa952ba7f163c4a11628f55a4df523b3efa265627a7a72305820e9dfb5141b5fec8b9b17e0c76e86bea9339a867578df363e0e402f226f73334e6c6578706572696d656e74616cf50037",
  "source": "pragma solidity ^0.4.24;\npragma experimental ABIEncoderV2;\n\nimport \"../../node_modules/openzeppelin-solidity/contracts/math/SafeMath.sol\";\nimport \"../../node_modules/openzeppelin-solidity/contracts/access/roles/SignerRole.sol\";\nimport \"../../node_modules/openzeppelin-solidity/contracts/ownership/Ownable.sol\";\n\nimport \"./Devices.sol\";\n\ncontract PrepaidCardManager is SignerRole, Ownable , Devices {\n  using SafeMath for uint256;\n\n  event CardValidated(\n    address indexed owner,\n    uint256 cardId,\n    address indexed user\n  );\n\n  struct Card {\n    bytes32 hash;\n    uint256 cardId;  \n    uint256 tokens;\n    bool active;\n    address owner;\n    uint initialized;\n  }\n\n  mapping (uint256 => Card) private cards_;\n  mapping (bytes32 => uint256) private cardsByHash_;\n\n  modifier cardExists(uint256 _cardId) {\n    require(cards_[_cardId].initialized > 0, \"not_exist\");\n    _;\n  }\n  \n  constructor() public {}\n\n  function getCard(uint256 _cardId) cardExists(_cardId) public view returns(uint256 cardId, address owner, uint256 tokens, bool active)  {\n    return (cards_[_cardId].cardId, cards_[_cardId].owner, cards_[_cardId].tokens, cards_[_cardId].active);\n  }\n\n  function addCard(uint256 _cardId, uint256 _tokens, bytes32 _hash) onlyOwner public {\n    require(_tokens > 0, \"empty_tokens\");\n    require(_cardId > 0, \"no_valid_card_id\");\n    require(cards_[_cardId].initialized == 0, \"card_exist\");\n    require(cardsByHash_[_hash] == 0, \"duplicated_hash\");\n\n    _mint(this,_tokens);\n    Card memory newCard = Card(_hash, _cardId, _tokens, false, msg.sender, 1);\n    cards_[_cardId] = newCard;   \n    cardsByHash_[_hash] = _cardId;\n  }\n\n  function activateCard(uint256 _cardId) cardExists(_cardId) onlySigner public {\n    require(cards_[_cardId].active == false, \"not_activatable\");\n    cards_[_cardId].active=true;    \n  }\n\n  function validateCard(bytes _secret) public {\n    bytes32 hash = keccak256(_secret);\n    uint256 cardId = cardsByHash_[hash];\n    require(cardId > 0, \"hash_not_found\");\n    require(cards_[cardId].active == true, \"not_active\");\n    require(cards_[cardId].hash ==  hash, \"wrong_secret\");\n  \n    _transfer(this, msg.sender,cards_[cardId].tokens);\n    emit CardValidated(cards_[cardId].owner, cards_[cardId].cardId, msg.sender);\n  \n    delete cardsByHash_[hash];\n    delete cards_[cardId];\n  }\n\n}",
  "sourcePath": "/home/jordi/ws/bloomen-wallet-truffle/contracts/bloomen/PrepaidCardManager.sol",
  "compiler": {
    "name": "solc",
    "version": "0.4.24+commit.e67f0147.Emscripten.clang"
  },
  "schemaVersion": "2.0.1",
  "updatedAt": "2019-01-15T20:01:21.622Z"
}