{
  "contractName": "PrepaidCardManager",
  "abi": [
    {
      "constant": true,
      "inputs": [
        {
          "name": "_assetId",
          "type": "uint256"
        },
        {
          "name": "_schemaId",
          "type": "uint256"
        }
      ],
      "name": "checkOwnership",
      "outputs": [
        {
          "name": "",
          "type": "bool"
        }
      ],
      "payable": false,
      "stateMutability": "view",
      "type": "function"
    },
    {
      "constant": true,
      "inputs": [],
      "name": "name",
      "outputs": [
        {
          "name": "",
          "type": "string"
        }
      ],
      "payable": false,
      "stateMutability": "view",
      "type": "function"
    },
    {
      "constant": false,
      "inputs": [
        {
          "name": "_to",
          "type": "address"
        },
        {
          "name": "_value",
          "type": "uint256"
        },
        {
          "name": "_data",
          "type": "uint256"
        }
      ],
      "name": "transfer",
      "outputs": [],
      "payable": false,
      "stateMutability": "nonpayable",
      "type": "function"
    },
    {
      "constant": false,
      "inputs": [
        {
          "name": "spender",
          "type": "address"
        },
        {
          "name": "value",
          "type": "uint256"
        }
      ],
      "name": "approve",
      "outputs": [
        {
          "name": "",
          "type": "bool"
        }
      ],
      "payable": false,
      "stateMutability": "nonpayable",
      "type": "function"
    },
    {
      "constant": false,
      "inputs": [
        {
          "name": "_deviceHash",
          "type": "bytes32"
        },
        {
          "name": "_assetId",
          "type": "uint256"
        },
        {
          "name": "_schemaId",
          "type": "uint256"
        },
        {
          "name": "_lifeTime",
          "type": "uint256"
        },
        {
          "name": "_dappId",
          "type": "string"
        }
      ],
      "name": "handshake",
      "outputs": [],
      "payable": false,
      "stateMutability": "nonpayable",
      "type": "function"
    },
    {
      "constant": true,
      "inputs": [
        {
          "name": "_page",
          "type": "int256"
        }
      ],
      "name": "getMovements",
      "outputs": [
        {
          "components": [
            {
              "name": "amount",
              "type": "int256"
            },
            {
              "name": "description",
              "type": "string"
            },
            {
              "name": "date",
              "type": "uint256"
            },
            {
              "name": "to",
              "type": "address"
            }
          ],
          "name": "",
          "type": "tuple[]"
        }
      ],
      "payable": false,
      "stateMutability": "view",
      "type": "function"
    },
    {
      "constant": true,
      "inputs": [],
      "name": "totalSupply",
      "outputs": [
        {
          "name": "",
          "type": "uint256"
        }
      ],
      "payable": false,
      "stateMutability": "view",
      "type": "function"
    },
    {
      "constant": false,
      "inputs": [
        {
          "name": "_deviceHash",
          "type": "bytes32"
        }
      ],
      "name": "removeDevice",
      "outputs": [],
      "payable": false,
      "stateMutability": "nonpayable",
      "type": "function"
    },
    {
      "constant": true,
      "inputs": [
        {
          "name": "theNumber",
          "type": "uint256"
        },
        {
          "name": "percentage",
          "type": "uint256"
        }
      ],
      "name": "calculatePercentage",
      "outputs": [
        {
          "name": "",
          "type": "uint256"
        }
      ],
      "payable": false,
      "stateMutability": "view",
      "type": "function"
    },
    {
      "constant": false,
      "inputs": [
        {
          "name": "from",
          "type": "address"
        },
        {
          "name": "to",
          "type": "address"
        },
        {
          "name": "value",
          "type": "uint256"
        }
      ],
      "name": "transferFrom",
      "outputs": [
        {
          "name": "",
          "type": "bool"
        }
      ],
      "payable": false,
      "stateMutability": "nonpayable",
      "type": "function"
    },
    {
      "constant": true,
      "inputs": [
        {
          "name": "_schemaId",
          "type": "uint256"
        }
      ],
      "name": "getSchema",
      "outputs": [
        {
          "components": [
            {
              "name": "expirationDate",
              "type": "uint256"
            },
            {
              "name": "schemaId",
              "type": "uint256"
            },
            {
              "name": "amount",
              "type": "uint256"
            },
            {
              "name": "assetLifeTime",
              "type": "uint256"
            },
            {
              "components": [
                {
                  "name": "percent",
                  "type": "uint256"
                },
                {
                  "name": "receptor",
                  "type": "address"
                },
                {
                  "name": "description",
                  "type": "string"
                }
              ],
              "name": "clearingHouseRules",
              "type": "tuple[]"
            },
            {
              "name": "valid",
              "type": "bool"
            }
          ],
          "name": "",
          "type": "tuple"
        }
      ],
      "payable": false,
      "stateMutability": "view",
      "type": "function"
    },
    {
      "constant": true,
      "inputs": [],
      "name": "decimals",
      "outputs": [
        {
          "name": "",
          "type": "uint8"
        }
      ],
      "payable": false,
      "stateMutability": "view",
      "type": "function"
    },
    {
      "constant": false,
      "inputs": [
        {
          "name": "spender",
          "type": "address"
        },
        {
          "name": "addedValue",
          "type": "uint256"
        }
      ],
      "name": "increaseAllowance",
      "outputs": [
        {
          "name": "",
          "type": "bool"
        }
      ],
      "payable": false,
      "stateMutability": "nonpayable",
      "type": "function"
    },
    {
      "constant": false,
      "inputs": [
        {
          "name": "_schemaId",
          "type": "uint256"
        }
      ],
      "name": "validateSchema",
      "outputs": [],
      "payable": false,
      "stateMutability": "nonpayable",
      "type": "function"
    },
    {
      "constant": false,
      "inputs": [
        {
          "name": "to",
          "type": "address"
        },
        {
          "name": "value",
          "type": "uint256"
        }
      ],
      "name": "mint",
      "outputs": [
        {
          "name": "",
          "type": "bool"
        }
      ],
      "payable": false,
      "stateMutability": "nonpayable",
      "type": "function"
    },
    {
      "constant": false,
      "inputs": [
        {
          "name": "value",
          "type": "uint256"
        }
      ],
      "name": "burn",
      "outputs": [],
      "payable": false,
      "stateMutability": "nonpayable",
      "type": "function"
    },
    {
      "constant": false,
      "inputs": [
        {
          "name": "_from",
          "type": "address"
        },
        {
          "name": "_value",
          "type": "uint256"
        },
        {
          "name": "_schemaId",
          "type": "uint256"
        }
      ],
      "name": "tokenFallback",
      "outputs": [],
      "payable": false,
      "stateMutability": "nonpayable",
      "type": "function"
    },
    {
      "constant": false,
      "inputs": [
        {
          "name": "_schemaId",
          "type": "uint256"
        }
      ],
      "name": "invalidateSchema",
      "outputs": [],
      "payable": false,
      "stateMutability": "nonpayable",
      "type": "function"
    },
    {
      "constant": true,
      "inputs": [
        {
          "name": "owner",
          "type": "address"
        }
      ],
      "name": "balanceOf",
      "outputs": [
        {
          "name": "",
          "type": "uint256"
        }
      ],
      "payable": false,
      "stateMutability": "view",
      "type": "function"
    },
    {
      "constant": false,
      "inputs": [],
      "name": "renounceOwnership",
      "outputs": [],
      "payable": false,
      "stateMutability": "nonpayable",
      "type": "function"
    },
    {
      "constant": true,
      "inputs": [
        {
          "name": "_deviceHash",
          "type": "bytes32"
        }
      ],
      "name": "isAllowed",
      "outputs": [
        {
          "name": "",
          "type": "bool"
        }
      ],
      "payable": false,
      "stateMutability": "view",
      "type": "function"
    },
    {
      "constant": false,
      "inputs": [
        {
          "name": "from",
          "type": "address"
        },
        {
          "name": "value",
          "type": "uint256"
        }
      ],
      "name": "burnFrom",
      "outputs": [],
      "payable": false,
      "stateMutability": "nonpayable",
      "type": "function"
    },
    {
      "constant": false,
      "inputs": [
        {
          "name": "_assetId",
          "type": "uint256"
        },
        {
          "name": "_schemaId",
          "type": "uint256"
        },
        {
          "name": "_amount",
          "type": "uint256"
        },
        {
          "name": "_dappId",
          "type": "string"
        }
      ],
      "name": "buy",
      "outputs": [],
      "payable": false,
      "stateMutability": "nonpayable",
      "type": "function"
    },
    {
      "constant": true,
      "inputs": [
        {
          "name": "account",
          "type": "address"
        }
      ],
      "name": "isSigner",
      "outputs": [
        {
          "name": "",
          "type": "bool"
        }
      ],
      "payable": false,
      "stateMutability": "view",
      "type": "function"
    },
    {
      "constant": false,
      "inputs": [
        {
          "name": "_amount",
          "type": "int256"
        },
        {
          "name": "_description",
          "type": "string"
        },
        {
          "name": "_to",
          "type": "address"
        }
      ],
      "name": "addMovement",
      "outputs": [],
      "payable": false,
      "stateMutability": "nonpayable",
      "type": "function"
    },
    {
      "constant": true,
      "inputs": [],
      "name": "owner",
      "outputs": [
        {
          "name": "",
          "type": "address"
        }
      ],
      "payable": false,
      "stateMutability": "view",
      "type": "function"
    },
    {
      "constant": true,
      "inputs": [],
      "name": "isOwner",
      "outputs": [
        {
          "name": "",
          "type": "bool"
        }
      ],
      "payable": false,
      "stateMutability": "view",
      "type": "function"
    },
    {
      "constant": true,
      "inputs": [],
      "name": "symbol",
      "outputs": [
        {
          "name": "",
          "type": "string"
        }
      ],
      "payable": false,
      "stateMutability": "view",
      "type": "function"
    },
    {
      "constant": false,
      "inputs": [
        {
          "name": "account",
          "type": "address"
        }
      ],
      "name": "addMinter",
      "outputs": [],
      "payable": false,
      "stateMutability": "nonpayable",
      "type": "function"
    },
    {
      "constant": false,
      "inputs": [],
      "name": "renounceMinter",
      "outputs": [],
      "payable": false,
      "stateMutability": "nonpayable",
      "type": "function"
    },
    {
      "constant": false,
      "inputs": [
        {
          "name": "_schemaId",
          "type": "uint256"
        },
        {
          "name": "_data",
          "type": "bytes"
        }
      ],
      "name": "createSchema",
      "outputs": [],
      "payable": false,
      "stateMutability": "nonpayable",
      "type": "function"
    },
    {
      "constant": false,
      "inputs": [
        {
          "name": "spender",
          "type": "address"
        },
        {
          "name": "subtractedValue",
          "type": "uint256"
        }
      ],
      "name": "decreaseAllowance",
      "outputs": [
        {
          "name": "",
          "type": "bool"
        }
      ],
      "payable": false,
      "stateMutability": "nonpayable",
      "type": "function"
    },
    {
      "constant": false,
      "inputs": [
        {
          "name": "_to",
          "type": "address"
        },
        {
          "name": "_value",
          "type": "uint256"
        }
      ],
      "name": "transfer",
      "outputs": [
        {
          "name": "",
          "type": "bool"
        }
      ],
      "payable": false,
      "stateMutability": "nonpayable",
      "type": "function"
    },
    {
      "constant": true,
      "inputs": [
        {
          "name": "account",
          "type": "address"
        }
      ],
      "name": "isMinter",
      "outputs": [
        {
          "name": "",
          "type": "bool"
        }
      ],
      "payable": false,
      "stateMutability": "view",
      "type": "function"
    },
    {
      "constant": true,
      "inputs": [
        {
          "name": "_page",
          "type": "uint256"
        }
      ],
      "name": "getAssets",
      "outputs": [
        {
          "components": [
            {
              "name": "expirationDate",
              "type": "uint256"
            },
            {
              "name": "assetId",
              "type": "uint256"
            },
            {
              "name": "schemaId",
              "type": "uint256"
            },
            {
              "name": "dappId",
              "type": "string"
            }
          ],
          "name": "",
          "type": "tuple[]"
        }
      ],
      "payable": false,
      "stateMutability": "view",
      "type": "function"
    },
    {
      "constant": true,
      "inputs": [
        {
          "name": "owner",
          "type": "address"
        },
        {
          "name": "spender",
          "type": "address"
        }
      ],
      "name": "allowance",
      "outputs": [
        {
          "name": "",
          "type": "uint256"
        }
      ],
      "payable": false,
      "stateMutability": "view",
      "type": "function"
    },
    {
      "constant": false,
      "inputs": [],
      "name": "renounceSigner",
      "outputs": [],
      "payable": false,
      "stateMutability": "nonpayable",
      "type": "function"
    },
    {
      "constant": false,
      "inputs": [
        {
          "name": "account",
          "type": "address"
        }
      ],
      "name": "addSigner",
      "outputs": [],
      "payable": false,
      "stateMutability": "nonpayable",
      "type": "function"
    },
    {
      "constant": false,
      "inputs": [
        {
          "name": "newOwner",
          "type": "address"
        }
      ],
      "name": "transferOwnership",
      "outputs": [],
      "payable": false,
      "stateMutability": "nonpayable",
      "type": "function"
    },
    {
      "inputs": [],
      "payable": false,
      "stateMutability": "nonpayable",
      "type": "constructor"
    },
    {
      "anonymous": false,
      "inputs": [
        {
          "indexed": true,
          "name": "owner",
          "type": "address"
        },
        {
          "indexed": false,
          "name": "cardId",
          "type": "uint256"
        },
        {
          "indexed": true,
          "name": "user",
          "type": "address"
        }
      ],
      "name": "CardValidated",
      "type": "event"
    },
    {
      "anonymous": false,
      "inputs": [
        {
          "indexed": true,
          "name": "account",
          "type": "address"
        }
      ],
      "name": "MinterAdded",
      "type": "event"
    },
    {
      "anonymous": false,
      "inputs": [
        {
          "indexed": true,
          "name": "account",
          "type": "address"
        }
      ],
      "name": "MinterRemoved",
      "type": "event"
    },
    {
      "anonymous": false,
      "inputs": [
        {
          "indexed": true,
          "name": "from",
          "type": "address"
        },
        {
          "indexed": true,
          "name": "to",
          "type": "address"
        },
        {
          "indexed": false,
          "name": "value",
          "type": "uint256"
        }
      ],
      "name": "Transfer",
      "type": "event"
    },
    {
      "anonymous": false,
      "inputs": [
        {
          "indexed": true,
          "name": "owner",
          "type": "address"
        },
        {
          "indexed": true,
          "name": "spender",
          "type": "address"
        },
        {
          "indexed": false,
          "name": "value",
          "type": "uint256"
        }
      ],
      "name": "Approval",
      "type": "event"
    },
    {
      "anonymous": false,
      "inputs": [
        {
          "indexed": true,
          "name": "previousOwner",
          "type": "address"
        },
        {
          "indexed": true,
          "name": "newOwner",
          "type": "address"
        }
      ],
      "name": "OwnershipTransferred",
      "type": "event"
    },
    {
      "anonymous": false,
      "inputs": [
        {
          "indexed": true,
          "name": "account",
          "type": "address"
        }
      ],
      "name": "SignerAdded",
      "type": "event"
    },
    {
      "anonymous": false,
      "inputs": [
        {
          "indexed": true,
          "name": "account",
          "type": "address"
        }
      ],
      "name": "SignerRemoved",
      "type": "event"
    },
    {
      "constant": true,
      "inputs": [
        {
          "name": "_cardId",
          "type": "uint256"
        }
      ],
      "name": "getCard",
      "outputs": [
        {
          "name": "cardId",
          "type": "uint256"
        },
        {
          "name": "owner",
          "type": "address"
        },
        {
          "name": "tokens",
          "type": "uint256"
        },
        {
          "name": "active",
          "type": "bool"
        }
      ],
      "payable": false,
      "stateMutability": "view",
      "type": "function"
    },
    {
      "constant": false,
      "inputs": [
        {
          "name": "_cardId",
          "type": "uint256"
        },
        {
          "name": "_tokens",
          "type": "uint256"
        },
        {
          "name": "_hash",
          "type": "bytes32"
        }
      ],
      "name": "addCard",
      "outputs": [],
      "payable": false,
      "stateMutability": "nonpayable",
      "type": "function"
    },
    {
      "constant": false,
      "inputs": [
        {
          "name": "_cardId",
          "type": "uint256"
        }
      ],
      "name": "activateCard",
      "outputs": [],
      "payable": false,
      "stateMutability": "nonpayable",
      "type": "function"
    },
    {
      "constant": false,
      "inputs": [
        {
          "name": "_secret",
          "type": "bytes"
        }
      ],
      "name": "validateCard",
      "outputs": [],
      "payable": false,
      "stateMutability": "nonpayable",
      "type": "function"
    }
  ],
  "bytecode": "0x60806040523480156200001157600080fd5b506040805190810160405280600b81526020017f426c6f6f6d656e436f696e0000000000000000000000000000000000000000008152506040805190810160405280600381526020017f424c4f000000000000000000000000000000000000000000000000000000000081525060028282826200009d3362000149640100000000026401000000009004565b60018054600160a060020a031916331790819055604051600160a060020a0391909116906000907f8be0079c531659141344cd1fd0a4f28419497f9722a3daafe3b4186f6b6457e0908290a38251620000fe90600690602086019062000280565b5081516200011490600790602085019062000280565b506008805460ff191660ff9290921691909117905550620001409050336401000000006200019b810204565b50505062000325565b620001646000826401000000006200298e620001ed82021704565b604051600160a060020a038216907f47d1c22a25bb3a5d4e481b9b1e6944c2eade3181a0a20b495ed61d35b5323f2490600090a250565b620001b66009826401000000006200298e620001ed82021704565b604051600160a060020a038216907f6ae172837ea30b801fbfcdd4108aa1d5bf8ff775444fd70256b44e6bf3dfc3f690600090a250565b600160a060020a03811615156200020357600080fd5b62000218828264010000000062000248810204565b156200022357600080fd5b600160a060020a0316600090815260209190915260409020805460ff19166001179055565b6000600160a060020a03821615156200026057600080fd5b50600160a060020a03166000908152602091909152604090205460ff1690565b828054600181600116156101000203166002900490600052602060002090601f016020900481019282601f10620002c357805160ff1916838001178555620002f3565b82800160010185558215620002f3579182015b82811115620002f3578251825591602001919060010190620002d6565b506200030192915062000305565b5090565b6200032291905b808211156200030157600081556001016200030c565b90565b613d9880620003356000396000f30060806040526004361061020e5763ffffffff7c010000000000000000000000000000000000000000000000000000000060003504166304edae0f811461021357806306fdde0314610249578063095bcdb61461026b578063095ea7b31461028d578063132c6aa4146102ad57806317b1b498146102cd57806318160ddd146102fa5780631d2662001461031c5780632133e3b91461033c57806323b872dd1461035c5780632b26fb291461037c578063313ce567146103a957806339509351146103cb5780634014d468146103eb57806340c10f191461040b57806342966c681461042b5780634f4ee3531461044b5780635a16f5c41461046b57806370a082311461048b578063715018a6146104ab57806378755295146104c057806379cc6790146104e05780637de3b0ed146105005780637df73e27146105205780637e09ef421461054057806386b00ad5146105605780638a984385146105805780638da5cb5b146105a05780638f32d59b146105c25780639188d312146105d757806395d89b4114610607578063983b2d561461061c578063986502751461063c578063a2086dab14610651578063a457c2d714610671578063a9059cbb14610691578063aa271e1a146106b1578063c1debea4146106d1578063d9212164146106f1578063dd62ed3e1461071e578063e5c8b03d1461073e578063eb12d61e14610753578063f2fde38b14610773575b600080fd5b34801561021f57600080fd5b5061023361022e3660046132a8565b610793565b6040516102409190613abb565b60405180910390f35b34801561025557600080fd5b5061025e6107a9565b6040516102409190613ac9565b34801561027757600080fd5b5061028b6102863660046130f3565b610840565b005b34801561029957600080fd5b506102336102a83660046130c3565b61085c565b3480156102b957600080fd5b5061028b6102c8366004613143565b6108de565b3480156102d957600080fd5b506102ed6102e8366004613125565b6108f3565b6040516102409190613aaa565b34801561030657600080fd5b5061030f610b44565b6040516102409190613c3b565b34801561032857600080fd5b5061028b610337366004613125565b610b4a565b34801561034857600080fd5b5061030f6103573660046132a8565b610b57565b34801561036857600080fd5b50610233610377366004613076565b610b5f565b34801561038857600080fd5b5061039c610397366004613125565b610bfc565b6040516102409190613c2a565b3480156103b557600080fd5b506103be610d92565b6040516102409190613c7e565b3480156103d757600080fd5b506102336103e63660046130c3565b610d9b565b3480156103f757600080fd5b5061028b610406366004613125565b610e3e565b34801561041757600080fd5b506102336104263660046130c3565b610e5c565b34801561043757600080fd5b5061028b610446366004613125565b610e85565b34801561045757600080fd5b5061028b6104663660046130f3565b610e8f565b34801561047757600080fd5b5061028b610486366004613125565b610f5b565b34801561049757600080fd5b5061030f6104a6366004613016565b610f79565b3480156104b757600080fd5b5061028b610f94565b3480156104cc57600080fd5b506102336104db366004613125565b610ff1565b3480156104ec57600080fd5b5061028b6104fb3660046130c3565b611028565b34801561050c57600080fd5b5061028b61051b3660046132e8565b611036565b34801561052c57600080fd5b5061023361053b366004613016565b611049565b34801561054c57600080fd5b5061028b61055b366004613125565b61105b565b34801561056c57600080fd5b5061028b61057b366004613205565b6110f7565b34801561058c57600080fd5b5061028b61059b3660046132c7565b611103565b3480156105ac57600080fd5b506105b561127c565b6040516102409190613a63565b3480156105ce57600080fd5b5061023361128b565b3480156105e357600080fd5b506105f76105f2366004613125565b61129c565b6040516102409493929190613c49565b34801561061357600080fd5b5061025e611311565b34801561062857600080fd5b5061028b610637366004613016565b611372565b34801561064857600080fd5b5061028b61138f565b34801561065d57600080fd5b5061028b61066c366004613260565b61139a565b34801561067d57600080fd5b5061023361068c3660046130c3565b6113b7565b34801561069d57600080fd5b506102336106ac3660046130c3565b611402565b3480156106bd57600080fd5b506102336106cc366004613016565b61141c565b3480156106dd57600080fd5b5061028b6106ec3660046131d0565b61142f565b3480156106fd57600080fd5b5061071161070c366004613125565b611604565b6040516102409190613a99565b34801561072a57600080fd5b5061030f61073936600461303c565b6117ee565b34801561074a57600080fd5b5061028b611819565b34801561075f57600080fd5b5061028b61076e366004613016565b611822565b34801561077f57600080fd5b5061028b61078e366004613016565b61183f565b60006107a033848461185b565b90505b92915050565b60068054604080516020601f60026000196101006001881615020190951694909404938401819004810282018101909252828152606093909290918301828280156108355780601f1061080a57610100808354040283529160200191610835565b820191906000526020600020905b81548152906001019060200180831161081857829003601f168201915b505050505090505b90565b61084b3384846119d4565b61085733848484611a65565b505050565b6000600160a060020a038316151561087357600080fd5b336000818152600460209081526040808320600160a060020a03881680855292529182902085905590519091907f8c5be1e5ebec7d5bd14f71427d1e84f3dd0314c0f7b2291e5b200ac8c7c3b925906108cd908690613c3b565b60405180910390a350600192915050565b6108ec338686868686611b34565b5050505050565b6060600060608060008060008713801561090e5750600a8713155b15156109385760405160e560020a62461bcd02815260040161092f90613aea565b60405180910390fd5b336000908152600a6020818152604080842080548251818502810185019093528083526000198d019094029950909390929184015b82821015610a6f57838290600052602060002090600402016080604051908101604052908160008201548152602001600182018054600181600116156101000203166002900480601f016020809104026020016040519081016040528092919081815260200182805460018160011615610100020316600290048015610a345780601f10610a0957610100808354040283529160200191610a34565b820191906000526020600020905b815481529060010190602001808311610a1757829003601f168201915b50505091835250506002820154602080830191909152600390920154600160a060020a0316604090910152908252600192909201910161096d565b505050509350848451111515610a8457610b3a565b60408051600a808252610160820190925290816020015b610aa3612dee565b815260200190600190039081610a9b579050509250600091505b600a821215610b365750336000908152600b602052604081205485900382900390811215610afb57606484511015610af757829550610b3a565b6064015b8381815181101515610b0957fe5b906020019060200201518383815181101515610b2157fe5b60209081029091010152600190910190610abd565b8295505b5050505050919050565b60055490565b610b543382611c7d565b50565b606491020490565b600160a060020a0383166000908152600460209081526040808320338452909152812054821115610b8f57600080fd5b600160a060020a0384166000908152600460209081526040808320338452909152902054610bc3908363ffffffff611d1216565b600160a060020a0385166000908152600460209081526040808320338452909152902055610bf28484846119d4565b5060019392505050565b610c04612e20565b60008281526002602052604081206001015411610c365760405160e560020a62461bcd02815260040161092f90613b4a565b6000828152600260208181526040808420815160c081018352815481526001820154818501529381015484830152600381015460608501526004810180548351818602810186019094528084529495919460808701949192909184015b82821015610d73576000848152602090819020604080516060810182526003860290920180548352600180820154600160a060020a0316848601526002808301805485516101009482161594909402600019011691909104601f8101879004870283018701855280835294959294938601939192909190830182828015610d5b5780601f10610d3057610100808354040283529160200191610d5b565b820191906000526020600020905b815481529060010190602001808311610d3e57829003601f168201915b50505050508152505081526020019060010190610c93565b505050908252506005919091015460ff16151560209091015292915050565b60085460ff1690565b6000600160a060020a0383161515610db257600080fd5b336000908152600460209081526040808320600160a060020a0387168452909152902054610de6908363ffffffff611d2916565b336000818152600460209081526040808320600160a060020a038916808552925291829020849055905190927f8c5be1e5ebec7d5bd14f71427d1e84f3dd0314c0f7b2291e5b200ac8c7c3b925916108cd9190613c3b565b610e4661128b565b1515610e5157600080fd5b610b54816001611d42565b6000610e673361141c565b1515610e7257600080fd5b610e7c8383611dd3565b50600192915050565b610b543382611e70565b610e97612e20565b6000806000610ea585610bfc565b9350859250600091505b600184608001515103821015610f2257610ee586856080015184815181101515610ed557fe5b6020908102909101015151610b57565b9050610f12846080015183815181101515610efc57fe5b9060200190602002015160200151826000610840565b9182900391600190910190610eaf565b60808401518051610f5291906000198101908110610f3c57fe5b9060200190602002015160200151846000610840565b50505050505050565b610f6361128b565b1515610f6e57600080fd5b610b54816000611d42565b600160a060020a031660009081526003602052604090205490565b610f9c61128b565b1515610fa757600080fd5b600154604051600091600160a060020a0316907f8be0079c531659141344cd1fd0a4f28419497f9722a3daafe3b4186f6b6457e0908390a360018054600160a060020a0319169055565b6000818152600e6020908152604080832054600160a060020a03168352600d82528083208484529091529020544210805b50919050565b6110328282611f23565b5050565b6110433385858585611fb5565b50505050565b60006107a3818363ffffffff6120b416565b6000818152600f602052604081206004015482911061108f5760405160e560020a62461bcd02815260040161092f90613b4a565b61109833611049565b15156110a357600080fd5b6000828152600f602052604090206003015460ff16156110d85760405160e560020a62461bcd02815260040161092f90613c1a565b506000908152600f60205260409020600301805460ff19166001179055565b610857838333846120eb565b61110b612e59565b61111361128b565b151561111e57600080fd5b600083116111415760405160e560020a62461bcd02815260040161092f90613bfa565b600084116111645760405160e560020a62461bcd02815260040161092f90613afa565b6000848152600f6020526040902060040154156111965760405160e560020a62461bcd02815260040161092f90613bca565b600082815260106020526040902054156111c55760405160e560020a62461bcd02815260040161092f90613ada565b6111cf3084611dd3565b506040805160c08101825282815260208082018681528284019586526000606084018181523360808601908152600160a087018181528b8552600f87528885209751885594519087015597516002860155516003850180549851600160a060020a03166101000274ffffffffffffffffffffffffffffffffffffffff001992151560ff19909a16999099179190911697909717909655516004909201919091559183526010909152902055565b600154600160a060020a031690565b600154600160a060020a0316331490565b6000818152600f6020526040812060040154819081908190859082106112d75760405160e560020a62461bcd02815260040161092f90613b4a565b50505060009283525050600f602052604090206001810154600382015460029092015490926101008304600160a060020a03169260ff1690565b60078054604080516020601f60026000196101006001881615020190951694909404938401819004810282018101909252828152606093909290918301828280156108355780601f1061080a57610100808354040283529160200191610835565b61137b3361141c565b151561138657600080fd5b610b5481612381565b611398336123c9565b565b6113a261128b565b15156113ad57600080fd5b6110328282612411565b6000600160a060020a03831615156113ce57600080fd5b336000908152600460209081526040808320600160a060020a0387168452909152902054610de6908363ffffffff611d1216565b600061140f3384846119d4565b610e7c3384846000611a65565b60006107a360098363ffffffff6120b416565b600080826040518082805190602001908083835b602083106114625780518252601f199092019160209182019101611443565b51815160209384036101000a60001901801990921691161790526040805192909401829003909120600081815260109092529281205492965091945050831191506114c490505760405160e560020a62461bcd02815260040161092f90613b9a565b6000818152600f602052604090206003015460ff1615156001146114fd5760405160e560020a62461bcd02815260040161092f90613b3a565b6000818152600f6020526040902054821461152d5760405160e560020a62461bcd02815260040161092f90613b1a565b6000818152600f602052604090206002015461154c90309033906119d4565b6000818152600f602052604090819020600381015460019091015491513392610100909204600160a060020a0316917f80de5a7d3e27e32cfffc07551af7c9ee302a01b5456991722d7ef54193eab356916115a79190613c3b565b60405180910390a36000918252601060209081526040808420849055918352600f90528120818155600181018290556002810182905560038101805474ffffffffffffffffffffffffffffffffffffffffff191690556004015550565b336000908152600c602090815260408083208054825181850281018501909352808352606094600919600a88020194869485949293909291849084015b82821015611734578382906000526020600020906004020160806040519081016040529081600082015481526020016001820154815260200160028201548152602001600382018054600181600116156101000203166002900480601f01602080910402602001604051908101604052809291908181526020018280546001816001161561010002031660029004801561171c5780601f106116f15761010080835404028352916020019161171c565b820191906000526020600020905b8154815290600101906020018083116116ff57829003601f168201915b50505050508152505081526020019060010190611641565b50505050925082516000148061174d5750600183510384115b15611757576117e5565b60408051600a808252610160820190925290816020015b611776612e8e565b81526020019060019003908161176e579050509150600090505b85600a028410156117e15782518410156117d55782848151811015156117b257fe5b9060200190602002015182828151811015156117ca57fe5b602090810290910101525b60019384019301611790565b8194505b50505050919050565b600160a060020a03918216600090815260046020908152604080832093909416825291909152205490565b611398336127a0565b61182b33611049565b151561183657600080fd5b610b54816127e8565b61184761128b565b151561185257600080fd5b610b5481612830565b600080611866612e8e565b600091505b600160a060020a0386166000908152600c60205260409020548210156119c657600160a060020a0386166000908152600c602052604090208054839081106118af57fe5b906000526020600020906004020160806040519081016040529081600082015481526020016001820154815260200160028201548152602001600382018054600181600116156101000203166002900480601f0160208091040260200160405190810160405280929190818152602001828054600181600116156101000203166002900480156119805780601f1061195557610100808354040283529160200191611980565b820191906000526020600020905b81548152906001019060200180831161196357829003601f168201915b50505050508152505090508481602001511480156119a15750838160400151145b80156119ad5750805142105b156119bb57600192506119cb565b60019091019061186b565b600092505b50509392505050565b611a1981600019026040805190810160405280600481526020017f73656e640000000000000000000000000000000000000000000000000000000081525085856120eb565b611a5a816040805190810160405280600781526020017f726563656976650000000000000000000000000000000000000000000000000081525084866120eb565b6108578383836128a1565b6000611a7084612986565b15611af457506040517f4f4ee3530000000000000000000000000000000000000000000000000000000081528390600160a060020a03821690634f4ee35390611ac190889087908790600401613a71565b600060405180830381600087803b158015611adb57600080fd5b505af1158015611aef573d6000803e3d6000fd5b505050505b83600160a060020a031685600160a060020a0316600080516020613d3f83398151915285604051611b259190613c3b565b60405180910390a35050505050565b611b3f86858561185b565b1515611b605760405160e560020a62461bcd02815260040161092f90613b5a565b6000858152600e6020526040902054600160a060020a0316158015611b8b5750611b8985610ff1565b155b15611bb2576000858152600e6020526040902054611bb290600160a060020a031686611c7d565b6000858152600e6020526040902054600160a060020a031615611bea5760405160e560020a62461bcd02815260040161092f90613c0a565b6000858152600e602090815260408083208054600160a060020a031916600160a060020a038b16908117909155815160808101835286815280840189815281840189815260608301888152938752600d86528487208c8852865293909520815181559451600186015591516002850155518051919392611c7292600385019290910190612eb7565b505050505050505050565b6000818152600e6020526040902054600160a060020a03838116911614611cb95760405160e560020a62461bcd02815260040161092f90613b8a565b6000818152600e602090815260408083208054600160a060020a0319169055600160a060020a0385168352600d825280832084845290915281208181556001810182905560028101829055906110436003830182612f35565b60008083831115611d2257600080fd5b5050900390565b600082820183811015611d3b57600080fd5b9392505050565b6000828152600260205260409020600101541515611d755760405160e560020a62461bcd02815260040161092f90613b6a565b60008281526002602052604090206005015460ff1615158115151415611db05760405160e560020a62461bcd02815260040161092f90613bda565b600091825260026020526040909120600501805460ff1916911515919091179055565b600160a060020a0382161515611de857600080fd5b600554611dfb908263ffffffff611d2916565b600555600160a060020a038216600090815260036020526040902054611e27908263ffffffff611d2916565b600160a060020a038316600081815260036020526040808220939093559151909190600080516020613d3f83398151915290611e64908590613c3b565b60405180910390a35050565b600160a060020a0382161515611e8557600080fd5b600160a060020a038216600090815260036020526040902054811115611eaa57600080fd5b600554611ebd908263ffffffff611d1216565b600555600160a060020a038216600090815260036020526040902054611ee9908263ffffffff611d1216565b600160a060020a038316600081815260036020526040808220939093559151600080516020613d3f83398151915290611e64908590613c3b565b600160a060020a0382166000908152600460209081526040808320338452909152902054811115611f5357600080fd5b600160a060020a0382166000908152600460209081526040808320338452909152902054611f87908263ffffffff611d1216565b600160a060020a03831660009081526004602090815260408083203384529091529020556110328282611e70565b611fbd612e20565b611fc684610bfc565b60408101519091508314611fef5760405160e560020a62461bcd02815260040161092f90613bba565b611ffa86868661185b565b1561201a5760405160e560020a62461bcd02815260040161092f90613bea565b612025308486610840565b600160a060020a0386166000908152600c602090815260408083208151608081018352606080870151420182528185018b81529382018a815290820188815283546001818101808755958952978790208451600490920201908155945196850196909655516002840155935180519194936120a892600385019290910190612eb7565b50505050505050505050565b6000600160a060020a03821615156120cb57600080fd5b50600160a060020a03166000908152602091909152604090205460ff1690565b600160a060020a0382166000908152600a6020526040902054606411156121d757600160a060020a038083166000908152600a602090815260408083208151608081018352898152808401898152429382019390935294861660608601528054600181810180845592865294849020865160049092020190815591518051919594929361217d93850192910190612eb7565b50604082810151600283015560609092015160039091018054600160a060020a031916600160a060020a0392831617905584166000908152600a602090815282822054600b90915291902060001991909101905550611043565b600160a060020a0382166000908152600b6020526040902054606314156122b857600160a060020a038083166000818152600b60209081526040808320839055805160808101825289815280830189905242818301529486166060860152928252600a90529081208054909190811061224c57fe5b9060005260206000209060040201600082015181600001556020820151816001019080519060200190612280929190612eb7565b506040820151600282015560609091015160039091018054600160a060020a031916600160a060020a03909216919091179055611043565b600160a060020a038083166000818152600b6020818152604080842080546001019081905581516080810183528b81528084018b905242818401529688166060880152948452600a825290922091528054909190811061231457fe5b9060005260206000209060040201600082015181600001556020820151816001019080519060200190612348929190612eb7565b506040820151600282015560609091015160039091018054600160a060020a031916600160a060020a0390921691909117905550505050565b61239260098263ffffffff61298e16565b604051600160a060020a038216907f6ae172837ea30b801fbfcdd4108aa1d5bf8ff775444fd70256b44e6bf3dfc3f690600090a250565b6123da60098263ffffffff6129dc16565b604051600160a060020a038216907fe94479a9f7e1952cc78f2d6baab678adc1b772d936c6583def489e524cb6669290600090a250565b612419612f79565b606060008060008060606000806060600260008d81526020019081526020016000206001015460001415156124635760405160e560020a62461bcd02815260040161092f90613baa565b61246c8b612a28565b99506124778a612a76565b985061249a89600081518110151561248b57fe5b90602001906020020151612b40565b97504288116124be5760405160e560020a62461bcd02815260040161092f90613b7a565b6124d089600181518110151561248b57fe5b96506124e489600281518110151561248b57fe5b95506124f889600381518110151561248b57fe5b945061251b89600481518110151561250c57fe5b90602001906020020151612a76565b935083519250600091505b8282101561263c5761253f848381518110151561250c57fe5b90506002600088815260200190815260200160002060040160606040519081016040528061257584600081518110151561248b57fe5b815260200161259b84600181518110151561258c57fe5b90602001906020020151612b76565b600160a060020a031681526020016125ca8460028151811015156125bb57fe5b90602001906020020151612ba7565b90528154600180820180855560009485526020948590208451600390940201928355838501519183018054600160a060020a031916600160a060020a039093169290921790915560408301518051919461262c92600285019290910190612eb7565b5050600190930192506125269050565b61275e60026000898152602001908152602001600020600401805480602002602001604051908101604052809291908181526020016000905b82821015612755576000848152602090819020604080516060810182526003860290920180548352600180820154600160a060020a0316848601526002808301805485516101009482161594909402600019011691909104601f810187900487028301870185528083529495929493860193919290919083018282801561273d5780601f106127125761010080835404028352916020019161273d565b820191906000526020600020905b81548152906001019060200180831161272057829003601f168201915b50505050508152505081526020019060010190612675565b50505050612c10565b50505060008481526002602081905260409091209586556001808701959095558501929092556003840155506005909101805460ff1916909117905550505050565b6127b160008263ffffffff6129dc16565b604051600160a060020a038216907f3525e22824a8a7df2c9a6029941c824cf95b6447f1e13d5128fd3826d35afe8b90600090a250565b6127f960008263ffffffff61298e16565b604051600160a060020a038216907f47d1c22a25bb3a5d4e481b9b1e6944c2eade3181a0a20b495ed61d35b5323f2490600090a250565b600160a060020a038116151561284557600080fd5b600154604051600160a060020a038084169216907f8be0079c531659141344cd1fd0a4f28419497f9722a3daafe3b4186f6b6457e090600090a360018054600160a060020a031916600160a060020a0392909216919091179055565b600160a060020a0383166000908152600360205260409020548111156128c657600080fd5b600160a060020a03821615156128db57600080fd5b600160a060020a038316600090815260036020526040902054612904908263ffffffff611d1216565b600160a060020a038085166000908152600360205260408082209390935590841681522054612939908263ffffffff611d2916565b600160a060020a038084166000818152600360205260409081902093909355915190851690600080516020613d3f83398151915290612979908590613c3b565b60405180910390a3505050565b6000903b1190565b600160a060020a03811615156129a357600080fd5b6129ad82826120b4565b156129b757600080fd5b600160a060020a0316600090815260209190915260409020805460ff19166001179055565b600160a060020a03811615156129f157600080fd5b6129fb82826120b4565b1515612a0657600080fd5b600160a060020a0316600090815260209190915260409020805460ff19169055565b612a30612f79565b6000825160001415612a575760408051808201909152600080825260208201529150611022565b5050604080518082019091528151815260209182019181019190915290565b6060600080600080612a8786612c34565b1515612a9257600080fd5b612a9b86612c63565b935083604051908082528060200260200182016040528015612ad757816020015b612ac4612f79565b815260200190600190039081612abc5790505b509450612ae78660200151612cb3565b8660200151019250600090505b838110156117e557612b0583612d16565b91506040805190810160405280838152602001848152508582815181101515612b2a57fe5b6020908102909101015291810191600101612af4565b6000806000806000612b558660200151612cb3565b86516020978801518201519190039096036101000a90950495945050505050565b805160009060151015612b9e5760405160e560020a62461bcd02815260040161092f90613b2a565b6107a382612b40565b606060008060606000612bbd8660200151612cb3565b9350838660000151039250826040519080825280601f01601f191660200182016040528015612bf6578160200160208202803883390190505b5091508160200190506117e1848760200151018285612da7565b8051600010610b545760405160e560020a62461bcd02815260040161092f90613b0a565b6020810151805160009190821a9060c060ff83161015612c575760009250612c5c565b600192505b5050919050565b60008060008060009250612c7a8560200151612cb3565b6020860151865191810193500190505b80821015612caa57612c9b82612d16565b60019093019290910190612c8a565b50909392505050565b8051600090811a6080811015612ccc5760009150611022565b60b8811080612ce7575060c08110801590612ce7575060f881105b15612cf55760019150611022565b60c0811015612d0a5760b51981019150611022565b60f51981019150611022565b8051600090811a6080811015612d2f5760019150611022565b60b8811015612d4457607e1981019150611022565b60c0811015612d715760b78103600184019350806020036101000a84510460018201810193505050611022565b60f8811015612d865760be1981019150611022565b60019290920151602083900360f7016101000a900490910160f51901919050565b60005b60208210612dcc578351835260209384019390920191601f1990910190612daa565b50915181516020939093036101000a6000190180199091169216919091179052565b6080604051908101604052806000815260200160608152602001600081526020016000600160a060020a031681525090565b60c06040519081016040528060008152602001600081526020016000815260200160008152602001606081526020016000151581525090565b6040805160c081018252600080825260208201819052918101829052606081018290526080810182905260a081019190915290565b608060405190810160405280600081526020016000815260200160008152602001606081525090565b828054600181600116156101000203166002900490600052602060002090601f016020900481019282601f10612ef857805160ff1916838001178555612f25565b82800160010185558215612f25579182015b82811115612f25578251825591602001919060010190612f0a565b50612f31929150612f90565b5090565b50805460018160011615610100020316600290046000825580601f10612f5b5750610b54565b601f016020900490600052602060002090810190610b549190612f90565b604080518082019091526000808252602082015290565b61083d91905b80821115612f315760008155600101612f96565b60006107a08235613ce5565b60006107a0823561083d565b6000601f82018313612fd357600080fd5b8135612fe6612fe182613cb3565b613c8c565b9150808252602083016020830185838301111561300257600080fd5b61300d838284613cfc565b50505092915050565b60006020828403121561302857600080fd5b60006130348484612faa565b949350505050565b6000806040838503121561304f57600080fd5b600061305b8585612faa565b925050602061306c85828601612faa565b9150509250929050565b60008060006060848603121561308b57600080fd5b60006130978686612faa565b93505060206130a886828701612faa565b92505060406130b986828701612fb6565b9150509250925092565b600080604083850312156130d657600080fd5b60006130e28585612faa565b925050602061306c85828601612fb6565b60008060006060848603121561310857600080fd5b60006131148686612faa565b93505060206130a886828701612fb6565b60006020828403121561313757600080fd5b60006130348484612fb6565b600080600080600060a0868803121561315b57600080fd5b60006131678888612fb6565b955050602061317888828901612fb6565b945050604061318988828901612fb6565b935050606061319a88828901612fb6565b925050608086013567ffffffffffffffff8111156131b757600080fd5b6131c388828901612fc2565b9150509295509295909350565b6000602082840312156131e257600080fd5b813567ffffffffffffffff8111156131f957600080fd5b61303484828501612fc2565b60008060006060848603121561321a57600080fd5b60006132268686612fb6565b935050602084013567ffffffffffffffff81111561324357600080fd5b61324f86828701612fc2565b92505060406130b986828701612faa565b6000806040838503121561327357600080fd5b600061327f8585612fb6565b925050602083013567ffffffffffffffff81111561329c57600080fd5b61306c85828601612fc2565b600080604083850312156132bb57600080fd5b60006130e28585612fb6565b6000806000606084860312156132dc57600080fd5b60006131148686612fb6565b600080600080608085870312156132fe57600080fd5b600061330a8787612fb6565b945050602061331b87828801612fb6565b935050604061332c87828801612fb6565b925050606085013567ffffffffffffffff81111561334957600080fd5b61335587828801612fc2565b91505092959194509250565b61336a81613ce5565b82525050565b600061337b82613ce1565b8084526020840193508360208202850161339485613cdb565b60005b848110156133cb5783830388526133af8383516138ea565b92506133ba82613cdb565b602098909801979150600101613397565b50909695505050505050565b60006133e282613ce1565b808452602084019350836020820285016133fb85613cdb565b60005b848110156133cb578383038852613416838351613945565b925061342182613cdb565b6020989098019791506001016133fe565b600061343d82613ce1565b8084526020840193508360208202850161345685613cdb565b60005b848110156133cb578383038852613471838351613984565b925061347c82613cdb565b602098909801979150600101613459565b61336a81613cf1565b61336a8161083d565b60006134aa82613ce1565b8084526134be816020860160208601613d08565b6134c781613d34565b9093016020019392505050565b600f81527f6475706c6963617465645f686173680000000000000000000000000000000000602082015260400190565b600d81527f496e76616c696420706167652e00000000000000000000000000000000000000602082015260400190565b601081527f6e6f5f76616c69645f636172645f696400000000000000000000000000000000602082015260400190565b600981527f6e6f742072756c65730000000000000000000000000000000000000000000000602082015260400190565b600c81527f77726f6e675f7365637265740000000000000000000000000000000000000000602082015260400190565b603a81527f496e76616c696420524c504974656d2e2041646472657373657320617265206560208201527f6e636f64656420696e203230206279746573206f72206c657373000000000000604082015260600190565b600a81527f6e6f745f61637469766500000000000000000000000000000000000000000000602082015260400190565b600981527f6e6f745f65786973740000000000000000000000000000000000000000000000602082015260400190565b600b81527f6e6f7420616c6c6f776564000000000000000000000000000000000000000000602082015260400190565b600981527f6e6f742065786973740000000000000000000000000000000000000000000000602082015260400190565b600781527f6578706972656400000000000000000000000000000000000000000000000000602082015260400190565b600a81527f73616d65206f776e657200000000000000000000000000000000000000000000602082015260400190565b600e81527f686173685f6e6f745f666f756e64000000000000000000000000000000000000602082015260400190565b600581527f6578697374000000000000000000000000000000000000000000000000000000602082015260400190565b601081527f696e636f727265637420616d6f756e7400000000000000000000000000000000602082015260400190565b600a81527f636172645f657869737400000000000000000000000000000000000000000000602082015260400190565b600b81527f73616d6520737461747573000000000000000000000000000000000000000000602082015260400190565b600a81527f6475706c69636174656400000000000000000000000000000000000000000000602082015260400190565b600c81527f656d7074795f746f6b656e730000000000000000000000000000000000000000602082015260400190565b600f81527f6475706c69636174656420686173680000000000000000000000000000000000602082015260400190565b600f81527f6e6f745f6163746976617461626c650000000000000000000000000000000000602082015260400190565b805160009060808401906138fe8582613496565b5060208301516139116020860182613496565b5060408301516139246040860182613496565b506060830151848203606086015261393c828261349f565b95945050505050565b805160009060608401906139598582613496565b50602083015161396c6020860182613361565b506040830151848203604086015261393c828261349f565b805160009060808401906139988582613496565b50602083015184820360208601526139b0828261349f565b91505060408301516139c56040860182613496565b5060608301516139d86060860182613361565b509392505050565b805160009060c08401906139f48582613496565b506020830151613a076020860182613496565b506040830151613a1a6040860182613496565b506060830151613a2d6060860182613496565b5060808301518482036080860152613a4582826133d7565b91505060a08301516139d860a086018261348d565b61336a81613cf6565b602081016107a38284613361565b60608101613a7f8286613361565b613a8c6020830185613496565b6130346040830184613496565b602080825281016107a08184613370565b602080825281016107a08184613432565b602081016107a3828461348d565b602080825281016107a0818461349f565b602080825281016107a3816134d4565b602080825281016107a381613504565b602080825281016107a381613534565b602080825281016107a381613564565b602080825281016107a381613594565b602080825281016107a3816135c4565b602080825281016107a38161361a565b602080825281016107a38161364a565b602080825281016107a38161367a565b602080825281016107a3816136aa565b602080825281016107a3816136da565b602080825281016107a38161370a565b602080825281016107a38161373a565b602080825281016107a38161376a565b602080825281016107a38161379a565b602080825281016107a3816137ca565b602080825281016107a3816137fa565b602080825281016107a38161382a565b602080825281016107a38161385a565b602080825281016107a38161388a565b602080825281016107a3816138ba565b602080825281016107a081846139e0565b602081016107a38284613496565b60808101613c578287613496565b613c646020830186613361565b613c716040830185613496565b61393c606083018461348d565b602081016107a38284613a5a565b60405181810167ffffffffffffffff81118282101715613cab57600080fd5b604052919050565b600067ffffffffffffffff821115613cca57600080fd5b506020601f91909101601f19160190565b60200190565b5190565b600160a060020a031690565b151590565b60ff1690565b82818337506000910152565b60005b83811015613d23578181015183820152602001613d0b565b838111156110435750506000910152565b601f01601f1916905600ddf252ad1be2c89b69c2b068fc378daa952ba7f163c4a11628f55a4df523b3efa265627a7a723058207987bebb15d9e875ba2e0c28b1718358ef8cd5452c75fac34131503918a39ca46c6578706572696d656e74616cf50037",
  "source": "pragma solidity ^0.4.24;\npragma experimental ABIEncoderV2;\n\nimport \"../../node_modules/openzeppelin-solidity/contracts/math/SafeMath.sol\";\nimport \"../../node_modules/openzeppelin-solidity/contracts/access/roles/SignerRole.sol\";\nimport \"../../node_modules/openzeppelin-solidity/contracts/ownership/Ownable.sol\";\n\nimport \"./Devices.sol\";\n\ncontract PrepaidCardManager is SignerRole, Ownable , Devices {\n  using SafeMath for uint256;\n\n  event CardValidated(\n    address indexed owner,\n    uint256 cardId,\n    address indexed user\n  );\n\n  struct Card {\n    bytes32 hash;\n    uint256 cardId;  \n    uint256 tokens;\n    bool active;\n    address owner;\n    uint initialized;\n  }\n\n  mapping (uint256 => Card) private cards_;\n  mapping (bytes32 => uint256) private cardsByHash_;\n\n  modifier cardExists(uint256 _cardId) {\n    require(cards_[_cardId].initialized > 0, \"not_exist\");\n    _;\n  }\n  \n  constructor() public {}\n\n  function getCard(uint256 _cardId) cardExists(_cardId) public view returns(uint256 cardId, address owner, uint256 tokens, bool active)  {\n    return (cards_[_cardId].cardId, cards_[_cardId].owner, cards_[_cardId].tokens, cards_[_cardId].active);\n  }\n\n  function addCard(uint256 _cardId, uint256 _tokens, bytes32 _hash) onlyOwner public {\n    require(_tokens > 0, \"empty_tokens\");\n    require(_cardId > 0, \"no_valid_card_id\");\n    require(cards_[_cardId].initialized == 0, \"card_exist\");\n    require(cardsByHash_[_hash] == 0, \"duplicated_hash\");\n\n    _mint(this,_tokens);\n    Card memory newCard = Card(_hash, _cardId, _tokens, false, msg.sender, 1);\n    cards_[_cardId] = newCard;   \n    cardsByHash_[_hash] = _cardId;\n  }\n\n  function activateCard(uint256 _cardId) cardExists(_cardId) onlySigner public {\n    require(cards_[_cardId].active == false, \"not_activatable\");\n    cards_[_cardId].active=true;    \n  }\n\n  function validateCard(bytes _secret) public {\n    bytes32 hash = keccak256(_secret);\n    uint256 cardId = cardsByHash_[hash];\n    require(cardId > 0, \"hash_not_found\");\n    require(cards_[cardId].active == true, \"not_active\");\n    require(cards_[cardId].hash ==  hash, \"wrong_secret\");\n  \n    _transfer(this, msg.sender,cards_[cardId].tokens);\n    emit CardValidated(cards_[cardId].owner, cards_[cardId].cardId, msg.sender);\n  \n    delete cardsByHash_[hash];\n    delete cards_[cardId];\n  }\n\n}",
  "sourcePath": "/home/jordi/ws/bloomen-wallet-truffle/contracts/bloomen/PrepaidCardManager.sol",
  "compiler": {
    "name": "solc",
    "version": "0.4.24+commit.e67f0147.Emscripten.clang"
  },
  "schemaVersion": "2.0.1",
  "updatedAt": "2019-01-04T17:24:18.273Z"
}