{
  "contractName": "PrepaidCardManager",
  "abi": [
    {
      "constant": true,
      "inputs": [],
      "name": "name",
      "outputs": [
        {
          "name": "",
          "type": "string"
        }
      ],
      "payable": false,
      "stateMutability": "view",
      "type": "function"
    },
    {
      "constant": false,
      "inputs": [
        {
          "name": "spender",
          "type": "address"
        },
        {
          "name": "value",
          "type": "uint256"
        }
      ],
      "name": "approve",
      "outputs": [
        {
          "name": "",
          "type": "bool"
        }
      ],
      "payable": false,
      "stateMutability": "nonpayable",
      "type": "function"
    },
    {
      "constant": true,
      "inputs": [],
      "name": "totalSupply",
      "outputs": [
        {
          "name": "",
          "type": "uint256"
        }
      ],
      "payable": false,
      "stateMutability": "view",
      "type": "function"
    },
    {
      "constant": false,
      "inputs": [
        {
          "name": "from",
          "type": "address"
        },
        {
          "name": "to",
          "type": "address"
        },
        {
          "name": "value",
          "type": "uint256"
        }
      ],
      "name": "transferFrom",
      "outputs": [
        {
          "name": "",
          "type": "bool"
        }
      ],
      "payable": false,
      "stateMutability": "nonpayable",
      "type": "function"
    },
    {
      "constant": true,
      "inputs": [],
      "name": "decimals",
      "outputs": [
        {
          "name": "",
          "type": "uint8"
        }
      ],
      "payable": false,
      "stateMutability": "view",
      "type": "function"
    },
    {
      "constant": false,
      "inputs": [
        {
          "name": "spender",
          "type": "address"
        },
        {
          "name": "addedValue",
          "type": "uint256"
        }
      ],
      "name": "increaseAllowance",
      "outputs": [
        {
          "name": "",
          "type": "bool"
        }
      ],
      "payable": false,
      "stateMutability": "nonpayable",
      "type": "function"
    },
    {
      "constant": false,
      "inputs": [
        {
          "name": "to",
          "type": "address"
        },
        {
          "name": "value",
          "type": "uint256"
        }
      ],
      "name": "mint",
      "outputs": [
        {
          "name": "",
          "type": "bool"
        }
      ],
      "payable": false,
      "stateMutability": "nonpayable",
      "type": "function"
    },
    {
      "constant": false,
      "inputs": [
        {
          "name": "value",
          "type": "uint256"
        }
      ],
      "name": "burn",
      "outputs": [],
      "payable": false,
      "stateMutability": "nonpayable",
      "type": "function"
    },
    {
      "constant": true,
      "inputs": [
        {
          "name": "owner",
          "type": "address"
        }
      ],
      "name": "balanceOf",
      "outputs": [
        {
          "name": "",
          "type": "uint256"
        }
      ],
      "payable": false,
      "stateMutability": "view",
      "type": "function"
    },
    {
      "constant": false,
      "inputs": [],
      "name": "renounceOwnership",
      "outputs": [],
      "payable": false,
      "stateMutability": "nonpayable",
      "type": "function"
    },
    {
      "constant": false,
      "inputs": [
        {
          "name": "from",
          "type": "address"
        },
        {
          "name": "value",
          "type": "uint256"
        }
      ],
      "name": "burnFrom",
      "outputs": [],
      "payable": false,
      "stateMutability": "nonpayable",
      "type": "function"
    },
    {
      "constant": true,
      "inputs": [
        {
          "name": "account",
          "type": "address"
        }
      ],
      "name": "isSigner",
      "outputs": [
        {
          "name": "",
          "type": "bool"
        }
      ],
      "payable": false,
      "stateMutability": "view",
      "type": "function"
    },
    {
      "constant": true,
      "inputs": [],
      "name": "owner",
      "outputs": [
        {
          "name": "",
          "type": "address"
        }
      ],
      "payable": false,
      "stateMutability": "view",
      "type": "function"
    },
    {
      "constant": true,
      "inputs": [],
      "name": "isOwner",
      "outputs": [
        {
          "name": "",
          "type": "bool"
        }
      ],
      "payable": false,
      "stateMutability": "view",
      "type": "function"
    },
    {
      "constant": true,
      "inputs": [],
      "name": "symbol",
      "outputs": [
        {
          "name": "",
          "type": "string"
        }
      ],
      "payable": false,
      "stateMutability": "view",
      "type": "function"
    },
    {
      "constant": false,
      "inputs": [
        {
          "name": "account",
          "type": "address"
        }
      ],
      "name": "addMinter",
      "outputs": [],
      "payable": false,
      "stateMutability": "nonpayable",
      "type": "function"
    },
    {
      "constant": false,
      "inputs": [],
      "name": "renounceMinter",
      "outputs": [],
      "payable": false,
      "stateMutability": "nonpayable",
      "type": "function"
    },
    {
      "constant": false,
      "inputs": [
        {
          "name": "spender",
          "type": "address"
        },
        {
          "name": "subtractedValue",
          "type": "uint256"
        }
      ],
      "name": "decreaseAllowance",
      "outputs": [
        {
          "name": "",
          "type": "bool"
        }
      ],
      "payable": false,
      "stateMutability": "nonpayable",
      "type": "function"
    },
    {
      "constant": false,
      "inputs": [
        {
          "name": "_to",
          "type": "address"
        },
        {
          "name": "_value",
          "type": "uint256"
        }
      ],
      "name": "transfer",
      "outputs": [
        {
          "name": "",
          "type": "bool"
        }
      ],
      "payable": false,
      "stateMutability": "nonpayable",
      "type": "function"
    },
    {
      "constant": true,
      "inputs": [
        {
          "name": "account",
          "type": "address"
        }
      ],
      "name": "isMinter",
      "outputs": [
        {
          "name": "",
          "type": "bool"
        }
      ],
      "payable": false,
      "stateMutability": "view",
      "type": "function"
    },
    {
      "constant": false,
      "inputs": [
        {
          "name": "_to",
          "type": "address"
        },
        {
          "name": "_value",
          "type": "uint256"
        },
        {
          "name": "_data",
          "type": "bytes"
        }
      ],
      "name": "transfer",
      "outputs": [],
      "payable": false,
      "stateMutability": "nonpayable",
      "type": "function"
    },
    {
      "constant": true,
      "inputs": [
        {
          "name": "owner",
          "type": "address"
        },
        {
          "name": "spender",
          "type": "address"
        }
      ],
      "name": "allowance",
      "outputs": [
        {
          "name": "",
          "type": "uint256"
        }
      ],
      "payable": false,
      "stateMutability": "view",
      "type": "function"
    },
    {
      "constant": false,
      "inputs": [],
      "name": "renounceSigner",
      "outputs": [],
      "payable": false,
      "stateMutability": "nonpayable",
      "type": "function"
    },
    {
      "constant": false,
      "inputs": [
        {
          "name": "account",
          "type": "address"
        }
      ],
      "name": "addSigner",
      "outputs": [],
      "payable": false,
      "stateMutability": "nonpayable",
      "type": "function"
    },
    {
      "constant": false,
      "inputs": [
        {
          "name": "newOwner",
          "type": "address"
        }
      ],
      "name": "transferOwnership",
      "outputs": [],
      "payable": false,
      "stateMutability": "nonpayable",
      "type": "function"
    },
    {
      "inputs": [],
      "payable": false,
      "stateMutability": "nonpayable",
      "type": "constructor"
    },
    {
      "anonymous": false,
      "inputs": [
        {
          "indexed": true,
          "name": "owner",
          "type": "address"
        },
        {
          "indexed": false,
          "name": "cardId",
          "type": "uint256"
        },
        {
          "indexed": true,
          "name": "user",
          "type": "address"
        }
      ],
      "name": "CardValidated",
      "type": "event"
    },
    {
      "anonymous": false,
      "inputs": [
        {
          "indexed": true,
          "name": "account",
          "type": "address"
        }
      ],
      "name": "MinterAdded",
      "type": "event"
    },
    {
      "anonymous": false,
      "inputs": [
        {
          "indexed": true,
          "name": "account",
          "type": "address"
        }
      ],
      "name": "MinterRemoved",
      "type": "event"
    },
    {
      "anonymous": false,
      "inputs": [
        {
          "indexed": true,
          "name": "from",
          "type": "address"
        },
        {
          "indexed": true,
          "name": "to",
          "type": "address"
        },
        {
          "indexed": false,
          "name": "value",
          "type": "uint256"
        }
      ],
      "name": "Transfer",
      "type": "event"
    },
    {
      "anonymous": false,
      "inputs": [
        {
          "indexed": true,
          "name": "owner",
          "type": "address"
        },
        {
          "indexed": true,
          "name": "spender",
          "type": "address"
        },
        {
          "indexed": false,
          "name": "value",
          "type": "uint256"
        }
      ],
      "name": "Approval",
      "type": "event"
    },
    {
      "anonymous": false,
      "inputs": [
        {
          "indexed": true,
          "name": "previousOwner",
          "type": "address"
        },
        {
          "indexed": true,
          "name": "newOwner",
          "type": "address"
        }
      ],
      "name": "OwnershipTransferred",
      "type": "event"
    },
    {
      "anonymous": false,
      "inputs": [
        {
          "indexed": true,
          "name": "account",
          "type": "address"
        }
      ],
      "name": "SignerAdded",
      "type": "event"
    },
    {
      "anonymous": false,
      "inputs": [
        {
          "indexed": true,
          "name": "account",
          "type": "address"
        }
      ],
      "name": "SignerRemoved",
      "type": "event"
    },
    {
      "constant": true,
      "inputs": [
        {
          "name": "_cardId",
          "type": "uint256"
        }
      ],
      "name": "getCard",
      "outputs": [
        {
          "name": "cardId",
          "type": "uint256"
        },
        {
          "name": "owner",
          "type": "address"
        },
        {
          "name": "tokens",
          "type": "uint256"
        },
        {
          "name": "active",
          "type": "bool"
        }
      ],
      "payable": false,
      "stateMutability": "view",
      "type": "function"
    },
    {
      "constant": false,
      "inputs": [
        {
          "name": "_cardId",
          "type": "uint256"
        },
        {
          "name": "_tokens",
          "type": "uint256"
        },
        {
          "name": "_hash",
          "type": "bytes32"
        }
      ],
      "name": "addCard",
      "outputs": [],
      "payable": false,
      "stateMutability": "nonpayable",
      "type": "function"
    },
    {
      "constant": false,
      "inputs": [
        {
          "name": "_cardId",
          "type": "uint256"
        }
      ],
      "name": "activateCard",
      "outputs": [],
      "payable": false,
      "stateMutability": "nonpayable",
      "type": "function"
    },
    {
      "constant": false,
      "inputs": [
        {
          "name": "_secret",
          "type": "bytes"
        }
      ],
      "name": "validateCard",
      "outputs": [],
      "payable": false,
      "stateMutability": "nonpayable",
      "type": "function"
    }
  ],
  "bytecode": "0x60806040523480156200001157600080fd5b506040805190810160405280600b81526020017f426c6f6f6d656e436f696e0000000000000000000000000000000000000000008152506040805190810160405280600381526020017f424c4f000000000000000000000000000000000000000000000000000000000081525060028282826200009d3362000149640100000000026401000000009004565b60018054600160a060020a031916331790819055604051600160a060020a0391909116906000907f8be0079c531659141344cd1fd0a4f28419497f9722a3daafe3b4186f6b6457e0908290a38251620000fe90600590602086019062000280565b5081516200011490600690602085019062000280565b506007805460ff191660ff9290921691909117905550620001409050336401000000006200019b810204565b50505062000325565b62000164600082640100000000620017d1620001ed82021704565b604051600160a060020a038216907f47d1c22a25bb3a5d4e481b9b1e6944c2eade3181a0a20b495ed61d35b5323f2490600090a250565b620001b6600882640100000000620017d1620001ed82021704565b604051600160a060020a038216907f6ae172837ea30b801fbfcdd4108aa1d5bf8ff775444fd70256b44e6bf3dfc3f690600090a250565b600160a060020a03811615156200020357600080fd5b62000218828264010000000062000248810204565b156200022357600080fd5b600160a060020a0316600090815260209190915260409020805460ff19166001179055565b6000600160a060020a03821615156200026057600080fd5b50600160a060020a03166000908152602091909152604090205460ff1690565b828054600181600116156101000203166002900490600052602060002090601f016020900481019282601f10620002c357805160ff1916838001178555620002f3565b82800160010185558215620002f3579182015b82811115620002f3578251825591602001919060010190620002d6565b506200030192915062000305565b5090565b6200032291905b808211156200030157600081556001016200030c565b90565b6118f480620003356000396000f3006080604052600436106101745763ffffffff7c010000000000000000000000000000000000000000000000000000000060003504166306fdde038114610179578063095ea7b31461020357806318160ddd1461023b57806323b872dd14610262578063313ce5671461028c57806339509351146102b757806340c10f19146102db57806342966c68146102ff57806370a0823114610319578063715018a61461033a57806379cc67901461034f5780637df73e27146103735780637e09ef42146103945780638a984385146103ac5780638da5cb5b146103ca5780638f32d59b146103fb5780639188d3121461041057806395d89b4114610458578063983b2d561461046d578063986502751461048e578063a457c2d7146104a3578063a9059cbb146104c7578063aa271e1a146104eb578063be45fd621461050c578063c1debea414610575578063dd62ed3e146105ce578063e5c8b03d146105f5578063eb12d61e1461060a578063f2fde38b1461062b575b600080fd5b34801561018557600080fd5b5061018e61064c565b6040805160208082528351818301528351919283929083019185019080838360005b838110156101c85781810151838201526020016101b0565b50505050905090810190601f1680156101f55780820380516001836020036101000a031916815260200191505b509250505060405180910390f35b34801561020f57600080fd5b50610227600160a060020a03600435166024356106e2565b604080519115158252519081900360200190f35b34801561024757600080fd5b50610250610760565b60408051918252519081900360200190f35b34801561026e57600080fd5b50610227600160a060020a0360043581169060243516604435610766565b34801561029857600080fd5b506102a1610803565b6040805160ff9092168252519081900360200190f35b3480156102c357600080fd5b50610227600160a060020a036004351660243561080c565b3480156102e757600080fd5b50610227600160a060020a03600435166024356108bc565b34801561030b57600080fd5b506103176004356108e5565b005b34801561032557600080fd5b50610250600160a060020a03600435166108f2565b34801561034657600080fd5b5061031761090d565b34801561035b57600080fd5b50610317600160a060020a0360043516602435610977565b34801561037f57600080fd5b50610227600160a060020a0360043516610985565b3480156103a057600080fd5b5061031760043561099d565b3480156103b857600080fd5b50610317600435602435604435610ab2565b3480156103d657600080fd5b506103df610cfa565b60408051600160a060020a039092168252519081900360200190f35b34801561040757600080fd5b50610227610d09565b34801561041c57600080fd5b50610428600435610d1a565b60408051948552600160a060020a0390931660208501528383019190915215156060830152519081900360800190f35b34801561046457600080fd5b5061018e610dc4565b34801561047957600080fd5b50610317600160a060020a0360043516610e25565b34801561049a57600080fd5b50610317610e42565b3480156104af57600080fd5b50610227600160a060020a0360043516602435610e4d565b3480156104d357600080fd5b50610227600160a060020a0360043516602435610e98565b3480156104f757600080fd5b50610227600160a060020a0360043516610eb3565b34801561051857600080fd5b50604080516020600460443581810135601f8101849004840285018401909552848452610317948235600160a060020a0316946024803595369594606494920191908190840183828082843750949750610ec69650505050505050565b34801561058157600080fd5b506040805160206004803580820135601f8101849004840285018401909552848452610317943694929360249392840191908190840183828082843750949750610ee29650505050505050565b3480156105da57600080fd5b50610250600160a060020a0360043581169060243516611151565b34801561060157600080fd5b5061031761117c565b34801561061657600080fd5b50610317600160a060020a0360043516611185565b34801561063757600080fd5b50610317600160a060020a03600435166111a2565b60058054604080516020601f60026000196101006001881615020190951694909404938401819004810282018101909252828152606093909290918301828280156106d85780601f106106ad576101008083540402835291602001916106d8565b820191906000526020600020905b8154815290600101906020018083116106bb57829003601f168201915b5050505050905090565b6000600160a060020a03831615156106f957600080fd5b336000818152600360209081526040808320600160a060020a03881680855290835292819020869055805186815290519293927f8c5be1e5ebec7d5bd14f71427d1e84f3dd0314c0f7b2291e5b200ac8c7c3b925929181900390910190a350600192915050565b60045490565b600160a060020a038316600090815260036020908152604080832033845290915281205482111561079657600080fd5b600160a060020a03841660009081526003602090815260408083203384529091529020546107ca908363ffffffff6111be16565b600160a060020a03851660009081526003602090815260408083203384529091529020556107f98484846111d5565b5060019392505050565b60075460ff1690565b6000600160a060020a038316151561082357600080fd5b336000908152600360209081526040808320600160a060020a0387168452909152902054610857908363ffffffff6112b716565b336000818152600360209081526040808320600160a060020a0389168085529083529281902085905580519485525191937f8c5be1e5ebec7d5bd14f71427d1e84f3dd0314c0f7b2291e5b200ac8c7c3b925929081900390910190a350600192915050565b60006108c733610eb3565b15156108d257600080fd5b6108dc83836112d0565b50600192915050565b6108ef338261136a565b50565b600160a060020a031660009081526002602052604090205490565b610915610d09565b151561092057600080fd5b600154604051600091600160a060020a0316907f8be0079c531659141344cd1fd0a4f28419497f9722a3daafe3b4186f6b6457e0908390a36001805473ffffffffffffffffffffffffffffffffffffffff19169055565b6109818282611428565b5050565b6000610997818363ffffffff6114ba16565b92915050565b600081815260096020526040812060040154829110610a06576040805160e560020a62461bcd02815260206004820152600960248201527f6e6f745f65786973740000000000000000000000000000000000000000000000604482015290519081900360640190fd5b610a0f33610985565b1515610a1a57600080fd5b60008281526009602052604090206003015460ff1615610a84576040805160e560020a62461bcd02815260206004820152600f60248201527f6e6f745f6163746976617461626c650000000000000000000000000000000000604482015290519081900360640190fd5b50600081815260096020908152604080832060038101805460ff19166001179055548352600a909152902055565b610aba611873565b8360008111610b13576040805160e560020a62461bcd02815260206004820152600d60248201527f76616c69645f636172645f696400000000000000000000000000000000000000604482015290519081900360640190fd5b610b1b610d09565b1515610b2657600080fd5b60008411610b7e576040805160e560020a62461bcd02815260206004820152600c60248201527f656d7074795f746f6b656e730000000000000000000000000000000000000000604482015290519081900360640190fd5b60008581526009602052604090206004015415610be5576040805160e560020a62461bcd02815260206004820152600a60248201527f636172645f657869737400000000000000000000000000000000000000000000604482015290519081900360640190fd5b6000838152600a602052604090205415610c49576040805160e560020a62461bcd02815260206004820152600f60248201527f6475706c6963617465645f686173680000000000000000000000000000000000604482015290519081900360640190fd5b610c5330856112d0565b50506040805160c08101825291825260208083018581528383019485526000606085018181523360808701908152600160a08801818152998452600990955294909120945185559051918401919091559251600283015591516003820180549351600160a060020a03166101000274ffffffffffffffffffffffffffffffffffffffff001992151560ff199095169490941791909116929092179091559051600490910155565b600154600160a060020a031690565b600154600160a060020a0316331490565b60008181526009602052604081206004015481908190819085908210610d8a576040805160e560020a62461bcd02815260206004820152600960248201527f6e6f745f65786973740000000000000000000000000000000000000000000000604482015290519081900360640190fd5b505050600092835250506009602052604090206001810154600382015460029092015490926101008304600160a060020a03169260ff1690565b60068054604080516020601f60026000196101006001881615020190951694909404938401819004810282018101909252828152606093909290918301828280156106d85780601f106106ad576101008083540402835291602001916106d8565b610e2e33610eb3565b1515610e3957600080fd5b6108ef816114f1565b610e4b33611539565b565b6000600160a060020a0383161515610e6457600080fd5b336000908152600360209081526040808320600160a060020a0387168452909152902054610857908363ffffffff6111be16565b60006060610ea73385856111d5565b6107f933858584611581565b600061099760088363ffffffff6114ba16565b610ed13384846111d5565b610edd33848484611581565b505050565b600080826040518082805190602001908083835b60208310610f155780518252601f199092019160209182019101610ef6565b51815160209384036101000a600019018019909216911617905260408051929094018290039091206000818152600a909252928120549296509194505083119150610fac9050576040805160e560020a62461bcd02815260206004820152600a60248201527f6e6f745f61637469766500000000000000000000000000000000000000000000604482015290519081900360640190fd5b60008181526009602052604090206003015460ff16151560011461101a576040805160e560020a62461bcd02815260206004820152600a60248201527f6e6f745f61637469766500000000000000000000000000000000000000000000604482015290519081900360640190fd5b600081815260096020526040902054821461107f576040805160e560020a62461bcd02815260206004820152600c60248201527f77726f6e675f7365637265740000000000000000000000000000000000000000604482015290519081900360640190fd5b60008181526009602052604090206002015461109e90309033906111d5565b6000818152600960209081526040918290206003810154600190910154835190815292513393610100909204600160a060020a0316927f80de5a7d3e27e32cfffc07551af7c9ee302a01b5456991722d7ef54193eab356928290030190a36000918252600a60209081526040808420849055918352600990528120818155600181018290556002810182905560038101805474ffffffffffffffffffffffffffffffffffffffffff191690556004015550565b600160a060020a03918216600090815260036020908152604080832093909416825291909152205490565b610e4b336116c3565b61118e33610985565b151561119957600080fd5b6108ef8161170b565b6111aa610d09565b15156111b557600080fd5b6108ef81611753565b600080838311156111ce57600080fd5b5050900390565b600160a060020a0383166000908152600260205260409020548111156111fa57600080fd5b600160a060020a038216151561120f57600080fd5b600160a060020a038316600090815260026020526040902054611238908263ffffffff6111be16565b600160a060020a03808516600090815260026020526040808220939093559084168152205461126d908263ffffffff6112b716565b600160a060020a0380841660008181526002602090815260409182902094909455805185815290519193928716926000805160206118a983398151915292918290030190a3505050565b6000828201838110156112c957600080fd5b9392505050565b600160a060020a03821615156112e557600080fd5b6004546112f8908263ffffffff6112b716565b600455600160a060020a038216600090815260026020526040902054611324908263ffffffff6112b716565b600160a060020a03831660008181526002602090815260408083209490945583518581529351929391926000805160206118a98339815191529281900390910190a35050565b600160a060020a038216151561137f57600080fd5b600160a060020a0382166000908152600260205260409020548111156113a457600080fd5b6004546113b7908263ffffffff6111be16565b600455600160a060020a0382166000908152600260205260409020546113e3908263ffffffff6111be16565b600160a060020a0383166000818152600260209081526040808320949094558351858152935191936000805160206118a9833981519152929081900390910190a35050565b600160a060020a038216600090815260036020908152604080832033845290915290205481111561145857600080fd5b600160a060020a038216600090815260036020908152604080832033845290915290205461148c908263ffffffff6111be16565b600160a060020a0383166000908152600360209081526040808320338452909152902055610981828261136a565b6000600160a060020a03821615156114d157600080fd5b50600160a060020a03166000908152602091909152604090205460ff1690565b61150260088263ffffffff6117d116565b604051600160a060020a038216907f6ae172837ea30b801fbfcdd4108aa1d5bf8ff775444fd70256b44e6bf3dfc3f690600090a250565b61154a60088263ffffffff61181f16565b604051600160a060020a038216907fe94479a9f7e1952cc78f2d6baab678adc1b772d936c6583def489e524cb6669290600090a250565b600061158c8461186b565b1561168357506040517fc0ee0b8a000000000000000000000000000000000000000000000000000000008152600160a060020a03858116600483019081526024830185905260606044840190815284516064850152845187949385169363c0ee0b8a938a938993899360840190602085019080838360005b8381101561161c578181015183820152602001611604565b50505050905090810190601f1680156116495780820380516001836020036101000a031916815260200191505b50945050505050600060405180830381600087803b15801561166a57600080fd5b505af115801561167e573d6000803e3d6000fd5b505050505b83600160a060020a031685600160a060020a03166000805160206118a9833981519152856040518082815260200191505060405180910390a35050505050565b6116d460008263ffffffff61181f16565b604051600160a060020a038216907f3525e22824a8a7df2c9a6029941c824cf95b6447f1e13d5128fd3826d35afe8b90600090a250565b61171c60008263ffffffff6117d116565b604051600160a060020a038216907f47d1c22a25bb3a5d4e481b9b1e6944c2eade3181a0a20b495ed61d35b5323f2490600090a250565b600160a060020a038116151561176857600080fd5b600154604051600160a060020a038084169216907f8be0079c531659141344cd1fd0a4f28419497f9722a3daafe3b4186f6b6457e090600090a36001805473ffffffffffffffffffffffffffffffffffffffff1916600160a060020a0392909216919091179055565b600160a060020a03811615156117e657600080fd5b6117f082826114ba565b156117fa57600080fd5b600160a060020a0316600090815260209190915260409020805460ff19166001179055565b600160a060020a038116151561183457600080fd5b61183e82826114ba565b151561184957600080fd5b600160a060020a0316600090815260209190915260409020805460ff19169055565b6000903b1190565b6040805160c081018252600080825260208201819052918101829052606081018290526080810182905260a0810191909152905600ddf252ad1be2c89b69c2b068fc378daa952ba7f163c4a11628f55a4df523b3efa165627a7a72305820ac4800f8dcf6edf3714658e349e275e444e12f59c10e93ba9b86a6a3f52745610029",
  "source": "pragma solidity ^0.4.24;\r\n\r\nimport \"../../node_modules/openzeppelin-solidity/contracts/math/SafeMath.sol\";\r\nimport \"../../node_modules/openzeppelin-solidity/contracts/access/roles/SignerRole.sol\";\r\nimport \"../../node_modules/openzeppelin-solidity/contracts/ownership/Ownable.sol\";\r\n\r\nimport \"./token/ERC223.sol\";\r\n\r\ncontract PrepaidCardManager is SignerRole, Ownable ,ERC223(\"BloomenCoin\",\"BLO\",2) {\r\n    using SafeMath for uint256;\r\n\r\n    event CardValidated(\r\n        address indexed owner,\r\n        uint256 cardId,\r\n        address indexed user\r\n    );\r\n\r\n    struct Card {\r\n        bytes32 hash;\r\n        uint256 cardId;\r\n        uint256 tokens;\r\n        bool active;\r\n        address owner;\r\n        uint initialized;\r\n    }\r\n\r\n    mapping (uint256 => Card) private cards_;\r\n    mapping (bytes32 => uint256) private activeCards_;\r\n\r\n    modifier cardExists(uint256 _cardId) {\r\n        require(cards_[_cardId].initialized > 0, \"not_exist\");\r\n        _;\r\n    }\r\n\r\n    modifier validExists(uint256 _cardId) {\r\n        require(_cardId > 0, \"valid_card_id\");\r\n        _;\r\n    }\r\n\r\n    constructor() public {\r\n\r\n    }\r\n\r\n    function getCard(uint256 _cardId) public view cardExists(_cardId) returns(uint256 cardId, address owner, uint256 tokens, bool active)  {\r\n        return (cards_[_cardId].cardId, cards_[_cardId].owner, cards_[_cardId].tokens, cards_[_cardId].active);\r\n    }\r\n\r\n    function addCard(uint256 _cardId, uint256 _tokens, bytes32 _hash) public validExists(_cardId) onlyOwner {\r\n        require(_tokens > 0, \"empty_tokens\");\r\n        require(cards_[_cardId].initialized == 0, \"card_exist\");\r\n        require(activeCards_[_hash] == 0, \"duplicated_hash\");\r\n\r\n        _mint(this,_tokens);\r\n        Card memory newCard = Card(_hash, _cardId, _tokens, false, msg.sender, 1);\r\n        cards_[_cardId] = newCard;\r\n    }\r\n\r\n    function activateCard(uint256 _cardId) public cardExists(_cardId) onlySigner {\r\n        require(cards_[_cardId].active == false, \"not_activatable\");\r\n        cards_[_cardId].active = true;\r\n        activeCards_[cards_[_cardId].hash] = _cardId;\r\n    }\r\n\r\n    function validateCard(bytes _secret) public {\r\n        bytes32 hash = keccak256(_secret);\r\n        uint256 cardId = activeCards_[hash];\r\n        require(cardId > 0, \"not_active\");\r\n        require(cards_[cardId].active == true, \"not_active\");\r\n        require(cards_[cardId].hash == hash, \"wrong_secret\");\r\n      \r\n        _transfer(this, msg.sender,cards_[cardId].tokens);\r\n        emit CardValidated(cards_[cardId].owner, cards_[cardId].cardId, msg.sender);\r\n      \r\n        delete activeCards_[hash];\r\n        delete cards_[cardId];\r\n    }\r\n\r\n}",
  "sourcePath": "C:\\Users\\a562145\\git\\bloomen-wallet-truffle\\contracts\\bloomen\\PrepaidCardManager.sol",
  "compiler": {
    "name": "solc",
    "version": "0.4.24+commit.e67f0147.Emscripten.clang"
  },
  "schemaVersion": "2.0.1",
  "updatedAt": "2018-12-03T13:49:19.856Z"
}