{
  "contractName": "PrepaidCardManager",
  "abi": [
    {
      "constant": true,
      "inputs": [
        {
          "name": "_assetId",
          "type": "uint256"
        },
        {
          "name": "_schemaId",
          "type": "uint256"
        }
      ],
      "name": "checkOwnership",
      "outputs": [
        {
          "name": "",
          "type": "bool"
        }
      ],
      "payable": false,
      "stateMutability": "view",
      "type": "function"
    },
    {
      "constant": true,
      "inputs": [],
      "name": "name",
      "outputs": [
        {
          "name": "",
          "type": "string"
        }
      ],
      "payable": false,
      "stateMutability": "view",
      "type": "function"
    },
    {
      "constant": false,
      "inputs": [
        {
          "name": "_assetId",
          "type": "uint256"
        },
        {
          "name": "_schemaId",
          "type": "uint256"
        },
        {
          "name": "_amount",
          "type": "uint256"
        },
        {
          "name": "_dappId",
          "type": "string"
        },
        {
          "name": "_description",
          "type": "string"
        }
      ],
      "name": "buy",
      "outputs": [],
      "payable": false,
      "stateMutability": "nonpayable",
      "type": "function"
    },
    {
      "constant": false,
      "inputs": [
        {
          "name": "_to",
          "type": "address"
        },
        {
          "name": "_value",
          "type": "uint256"
        },
        {
          "name": "_data",
          "type": "uint256"
        }
      ],
      "name": "transfer",
      "outputs": [],
      "payable": false,
      "stateMutability": "nonpayable",
      "type": "function"
    },
    {
      "constant": false,
      "inputs": [
        {
          "name": "spender",
          "type": "address"
        },
        {
          "name": "value",
          "type": "uint256"
        }
      ],
      "name": "approve",
      "outputs": [
        {
          "name": "",
          "type": "bool"
        }
      ],
      "payable": false,
      "stateMutability": "nonpayable",
      "type": "function"
    },
    {
      "constant": false,
      "inputs": [
        {
          "name": "_deviceHash",
          "type": "bytes32"
        },
        {
          "name": "_assetId",
          "type": "uint256"
        },
        {
          "name": "_schemaId",
          "type": "uint256"
        },
        {
          "name": "_lifeTime",
          "type": "uint256"
        },
        {
          "name": "_dappId",
          "type": "string"
        }
      ],
      "name": "handshake",
      "outputs": [],
      "payable": false,
      "stateMutability": "nonpayable",
      "type": "function"
    },
    {
      "constant": true,
      "inputs": [
        {
          "name": "_page",
          "type": "int256"
        }
      ],
      "name": "getMovements",
      "outputs": [
        {
          "components": [
            {
              "name": "amount",
              "type": "int256"
            },
            {
              "name": "description",
              "type": "string"
            },
            {
              "name": "date",
              "type": "uint256"
            },
            {
              "name": "to",
              "type": "address"
            }
          ],
          "name": "",
          "type": "tuple[]"
        }
      ],
      "payable": false,
      "stateMutability": "view",
      "type": "function"
    },
    {
      "constant": true,
      "inputs": [],
      "name": "totalSupply",
      "outputs": [
        {
          "name": "",
          "type": "uint256"
        }
      ],
      "payable": false,
      "stateMutability": "view",
      "type": "function"
    },
    {
      "constant": false,
      "inputs": [
        {
          "name": "_deviceHash",
          "type": "bytes32"
        }
      ],
      "name": "removeDevice",
      "outputs": [],
      "payable": false,
      "stateMutability": "nonpayable",
      "type": "function"
    },
    {
      "constant": true,
      "inputs": [
        {
          "name": "_target",
          "type": "address"
        },
        {
          "name": "_deviceHash",
          "type": "bytes32"
        }
      ],
      "name": "isAllowedForAddress",
      "outputs": [
        {
          "name": "",
          "type": "bool"
        }
      ],
      "payable": false,
      "stateMutability": "view",
      "type": "function"
    },
    {
      "constant": true,
      "inputs": [
        {
          "name": "theNumber",
          "type": "uint256"
        },
        {
          "name": "percentage",
          "type": "uint256"
        }
      ],
      "name": "calculatePercentage",
      "outputs": [
        {
          "name": "",
          "type": "uint256"
        }
      ],
      "payable": false,
      "stateMutability": "view",
      "type": "function"
    },
    {
      "constant": true,
      "inputs": [
        {
          "name": "_deviceHash",
          "type": "bytes32"
        }
      ],
      "name": "getAddress",
      "outputs": [
        {
          "name": "",
          "type": "address"
        }
      ],
      "payable": false,
      "stateMutability": "view",
      "type": "function"
    },
    {
      "constant": false,
      "inputs": [
        {
          "name": "from",
          "type": "address"
        },
        {
          "name": "to",
          "type": "address"
        },
        {
          "name": "value",
          "type": "uint256"
        }
      ],
      "name": "transferFrom",
      "outputs": [
        {
          "name": "",
          "type": "bool"
        }
      ],
      "payable": false,
      "stateMutability": "nonpayable",
      "type": "function"
    },
    {
      "constant": true,
      "inputs": [
        {
          "name": "_schemaId",
          "type": "uint256"
        }
      ],
      "name": "getSchema",
      "outputs": [
        {
          "components": [
            {
              "name": "expirationDate",
              "type": "uint256"
            },
            {
              "name": "schemaId",
              "type": "uint256"
            },
            {
              "name": "amount",
              "type": "uint256"
            },
            {
              "name": "assetLifeTime",
              "type": "uint256"
            },
            {
              "components": [
                {
                  "name": "percent",
                  "type": "uint256"
                },
                {
                  "name": "receptor",
                  "type": "address"
                },
                {
                  "name": "description",
                  "type": "string"
                }
              ],
              "name": "clearingHouseRules",
              "type": "tuple[]"
            },
            {
              "name": "valid",
              "type": "bool"
            }
          ],
          "name": "",
          "type": "tuple"
        }
      ],
      "payable": false,
      "stateMutability": "view",
      "type": "function"
    },
    {
      "constant": true,
      "inputs": [],
      "name": "decimals",
      "outputs": [
        {
          "name": "",
          "type": "uint8"
        }
      ],
      "payable": false,
      "stateMutability": "view",
      "type": "function"
    },
    {
      "constant": false,
      "inputs": [
        {
          "name": "spender",
          "type": "address"
        },
        {
          "name": "addedValue",
          "type": "uint256"
        }
      ],
      "name": "increaseAllowance",
      "outputs": [
        {
          "name": "",
          "type": "bool"
        }
      ],
      "payable": false,
      "stateMutability": "nonpayable",
      "type": "function"
    },
    {
      "constant": false,
      "inputs": [
        {
          "name": "_schemaId",
          "type": "uint256"
        }
      ],
      "name": "validateSchema",
      "outputs": [],
      "payable": false,
      "stateMutability": "nonpayable",
      "type": "function"
    },
    {
      "constant": false,
      "inputs": [
        {
          "name": "to",
          "type": "address"
        },
        {
          "name": "value",
          "type": "uint256"
        }
      ],
      "name": "mint",
      "outputs": [
        {
          "name": "",
          "type": "bool"
        }
      ],
      "payable": false,
      "stateMutability": "nonpayable",
      "type": "function"
    },
    {
      "constant": false,
      "inputs": [
        {
          "name": "value",
          "type": "uint256"
        }
      ],
      "name": "burn",
      "outputs": [],
      "payable": false,
      "stateMutability": "nonpayable",
      "type": "function"
    },
    {
      "constant": false,
      "inputs": [
        {
          "name": "_deviceHash",
          "type": "bytes32"
        },
        {
          "name": "_assetId",
          "type": "uint256"
        },
        {
          "name": "_schemaId",
          "type": "uint256"
        },
        {
          "name": "_lifeTime",
          "type": "uint256"
        },
        {
          "name": "_dappId",
          "type": "string"
        },
        {
          "name": "_description",
          "type": "string"
        }
      ],
      "name": "handshake",
      "outputs": [],
      "payable": false,
      "stateMutability": "nonpayable",
      "type": "function"
    },
    {
      "constant": true,
      "inputs": [],
      "name": "getAssetsPageCount",
      "outputs": [
        {
          "name": "",
          "type": "uint256"
        }
      ],
      "payable": false,
      "stateMutability": "view",
      "type": "function"
    },
    {
      "constant": false,
      "inputs": [
        {
          "name": "_from",
          "type": "address"
        },
        {
          "name": "_value",
          "type": "uint256"
        },
        {
          "name": "_schemaId",
          "type": "uint256"
        }
      ],
      "name": "tokenFallback",
      "outputs": [],
      "payable": false,
      "stateMutability": "nonpayable",
      "type": "function"
    },
    {
      "constant": false,
      "inputs": [
        {
          "name": "_schemaId",
          "type": "uint256"
        }
      ],
      "name": "invalidateSchema",
      "outputs": [],
      "payable": false,
      "stateMutability": "nonpayable",
      "type": "function"
    },
    {
      "constant": true,
      "inputs": [
        {
          "name": "_page",
          "type": "uint256"
        }
      ],
      "name": "getDevices",
      "outputs": [
        {
          "components": [
            {
              "name": "expirationDate",
              "type": "uint256"
            },
            {
              "name": "assetId",
              "type": "uint256"
            },
            {
              "name": "schemaId",
              "type": "uint256"
            },
            {
              "name": "dappId",
              "type": "string"
            },
            {
              "name": "description",
              "type": "string"
            }
          ],
          "name": "",
          "type": "tuple[]"
        }
      ],
      "payable": false,
      "stateMutability": "view",
      "type": "function"
    },
    {
      "constant": true,
      "inputs": [
        {
          "name": "_target",
          "type": "address"
        },
        {
          "name": "_assetId",
          "type": "uint256"
        },
        {
          "name": "_schemaId",
          "type": "uint256"
        }
      ],
      "name": "checkOwnershipForAddress",
      "outputs": [
        {
          "name": "",
          "type": "bool"
        }
      ],
      "payable": false,
      "stateMutability": "view",
      "type": "function"
    },
    {
      "constant": true,
      "inputs": [
        {
          "name": "owner",
          "type": "address"
        }
      ],
      "name": "balanceOf",
      "outputs": [
        {
          "name": "",
          "type": "uint256"
        }
      ],
      "payable": false,
      "stateMutability": "view",
      "type": "function"
    },
    {
      "constant": false,
      "inputs": [],
      "name": "renounceOwnership",
      "outputs": [],
      "payable": false,
      "stateMutability": "nonpayable",
      "type": "function"
    },
    {
      "constant": true,
      "inputs": [
        {
          "name": "_deviceHash",
          "type": "bytes32"
        }
      ],
      "name": "isAllowed",
      "outputs": [
        {
          "name": "",
          "type": "bool"
        }
      ],
      "payable": false,
      "stateMutability": "view",
      "type": "function"
    },
    {
      "constant": false,
      "inputs": [
        {
          "name": "from",
          "type": "address"
        },
        {
          "name": "value",
          "type": "uint256"
        }
      ],
      "name": "burnFrom",
      "outputs": [],
      "payable": false,
      "stateMutability": "nonpayable",
      "type": "function"
    },
    {
      "constant": false,
      "inputs": [
        {
          "name": "_assetId",
          "type": "uint256"
        },
        {
          "name": "_schemaId",
          "type": "uint256"
        },
        {
          "name": "_amount",
          "type": "uint256"
        },
        {
          "name": "_dappId",
          "type": "string"
        }
      ],
      "name": "buy",
      "outputs": [],
      "payable": false,
      "stateMutability": "nonpayable",
      "type": "function"
    },
    {
      "constant": true,
      "inputs": [
        {
          "name": "account",
          "type": "address"
        }
      ],
      "name": "isSigner",
      "outputs": [
        {
          "name": "",
          "type": "bool"
        }
      ],
      "payable": false,
      "stateMutability": "view",
      "type": "function"
    },
    {
      "constant": false,
      "inputs": [
        {
          "name": "_amount",
          "type": "int256"
        },
        {
          "name": "_description",
          "type": "string"
        },
        {
          "name": "_to",
          "type": "address"
        }
      ],
      "name": "addMovement",
      "outputs": [],
      "payable": false,
      "stateMutability": "nonpayable",
      "type": "function"
    },
    {
      "constant": true,
      "inputs": [],
      "name": "owner",
      "outputs": [
        {
          "name": "",
          "type": "address"
        }
      ],
      "payable": false,
      "stateMutability": "view",
      "type": "function"
    },
    {
      "constant": true,
      "inputs": [],
      "name": "isOwner",
      "outputs": [
        {
          "name": "",
          "type": "bool"
        }
      ],
      "payable": false,
      "stateMutability": "view",
      "type": "function"
    },
    {
      "constant": true,
      "inputs": [],
      "name": "symbol",
      "outputs": [
        {
          "name": "",
          "type": "string"
        }
      ],
      "payable": false,
      "stateMutability": "view",
      "type": "function"
    },
    {
      "constant": false,
      "inputs": [
        {
          "name": "account",
          "type": "address"
        }
      ],
      "name": "addMinter",
      "outputs": [],
      "payable": false,
      "stateMutability": "nonpayable",
      "type": "function"
    },
    {
      "constant": false,
      "inputs": [],
      "name": "renounceMinter",
      "outputs": [],
      "payable": false,
      "stateMutability": "nonpayable",
      "type": "function"
    },
    {
      "constant": false,
      "inputs": [
        {
          "name": "_schemaId",
          "type": "uint256"
        },
        {
          "name": "_data",
          "type": "bytes"
        }
      ],
      "name": "createSchema",
      "outputs": [],
      "payable": false,
      "stateMutability": "nonpayable",
      "type": "function"
    },
    {
      "constant": false,
      "inputs": [
        {
          "name": "spender",
          "type": "address"
        },
        {
          "name": "subtractedValue",
          "type": "uint256"
        }
      ],
      "name": "decreaseAllowance",
      "outputs": [
        {
          "name": "",
          "type": "bool"
        }
      ],
      "payable": false,
      "stateMutability": "nonpayable",
      "type": "function"
    },
    {
      "constant": false,
      "inputs": [
        {
          "name": "_to",
          "type": "address"
        },
        {
          "name": "_value",
          "type": "uint256"
        }
      ],
      "name": "transfer",
      "outputs": [
        {
          "name": "",
          "type": "bool"
        }
      ],
      "payable": false,
      "stateMutability": "nonpayable",
      "type": "function"
    },
    {
      "constant": true,
      "inputs": [
        {
          "name": "account",
          "type": "address"
        }
      ],
      "name": "isMinter",
      "outputs": [
        {
          "name": "",
          "type": "bool"
        }
      ],
      "payable": false,
      "stateMutability": "view",
      "type": "function"
    },
    {
      "constant": true,
      "inputs": [],
      "name": "getDevicesPageCount",
      "outputs": [
        {
          "name": "",
          "type": "uint256"
        }
      ],
      "payable": false,
      "stateMutability": "view",
      "type": "function"
    },
    {
      "constant": true,
      "inputs": [
        {
          "name": "_page",
          "type": "uint256"
        }
      ],
      "name": "getAssets",
      "outputs": [
        {
          "components": [
            {
              "name": "expirationDate",
              "type": "uint256"
            },
            {
              "name": "assetId",
              "type": "uint256"
            },
            {
              "name": "schemaId",
              "type": "uint256"
            },
            {
              "name": "dappId",
              "type": "string"
            },
            {
              "name": "description",
              "type": "string"
            }
          ],
          "name": "",
          "type": "tuple[]"
        }
      ],
      "payable": false,
      "stateMutability": "view",
      "type": "function"
    },
    {
      "constant": true,
      "inputs": [
        {
          "name": "owner",
          "type": "address"
        },
        {
          "name": "spender",
          "type": "address"
        }
      ],
      "name": "allowance",
      "outputs": [
        {
          "name": "",
          "type": "uint256"
        }
      ],
      "payable": false,
      "stateMutability": "view",
      "type": "function"
    },
    {
      "constant": false,
      "inputs": [],
      "name": "renounceSigner",
      "outputs": [],
      "payable": false,
      "stateMutability": "nonpayable",
      "type": "function"
    },
    {
      "constant": false,
      "inputs": [
        {
          "name": "account",
          "type": "address"
        }
      ],
      "name": "addSigner",
      "outputs": [],
      "payable": false,
      "stateMutability": "nonpayable",
      "type": "function"
    },
    {
      "constant": false,
      "inputs": [
        {
          "name": "newOwner",
          "type": "address"
        }
      ],
      "name": "transferOwnership",
      "outputs": [],
      "payable": false,
      "stateMutability": "nonpayable",
      "type": "function"
    },
    {
      "inputs": [],
      "payable": false,
      "stateMutability": "nonpayable",
      "type": "constructor"
    },
    {
      "anonymous": false,
      "inputs": [
        {
          "indexed": true,
          "name": "owner",
          "type": "address"
        },
        {
          "indexed": false,
          "name": "cardId",
          "type": "uint256"
        },
        {
          "indexed": true,
          "name": "user",
          "type": "address"
        }
      ],
      "name": "CardValidated",
      "type": "event"
    },
    {
      "anonymous": false,
      "inputs": [
        {
          "indexed": true,
          "name": "account",
          "type": "address"
        }
      ],
      "name": "MinterAdded",
      "type": "event"
    },
    {
      "anonymous": false,
      "inputs": [
        {
          "indexed": true,
          "name": "account",
          "type": "address"
        }
      ],
      "name": "MinterRemoved",
      "type": "event"
    },
    {
      "anonymous": false,
      "inputs": [
        {
          "indexed": true,
          "name": "from",
          "type": "address"
        },
        {
          "indexed": true,
          "name": "to",
          "type": "address"
        },
        {
          "indexed": false,
          "name": "value",
          "type": "uint256"
        }
      ],
      "name": "Transfer",
      "type": "event"
    },
    {
      "anonymous": false,
      "inputs": [
        {
          "indexed": true,
          "name": "owner",
          "type": "address"
        },
        {
          "indexed": true,
          "name": "spender",
          "type": "address"
        },
        {
          "indexed": false,
          "name": "value",
          "type": "uint256"
        }
      ],
      "name": "Approval",
      "type": "event"
    },
    {
      "anonymous": false,
      "inputs": [
        {
          "indexed": true,
          "name": "previousOwner",
          "type": "address"
        },
        {
          "indexed": true,
          "name": "newOwner",
          "type": "address"
        }
      ],
      "name": "OwnershipTransferred",
      "type": "event"
    },
    {
      "anonymous": false,
      "inputs": [
        {
          "indexed": true,
          "name": "account",
          "type": "address"
        }
      ],
      "name": "SignerAdded",
      "type": "event"
    },
    {
      "anonymous": false,
      "inputs": [
        {
          "indexed": true,
          "name": "account",
          "type": "address"
        }
      ],
      "name": "SignerRemoved",
      "type": "event"
    },
    {
      "constant": true,
      "inputs": [
        {
          "name": "_cardId",
          "type": "uint256"
        }
      ],
      "name": "getCard",
      "outputs": [
        {
          "name": "cardId",
          "type": "uint256"
        },
        {
          "name": "owner",
          "type": "address"
        },
        {
          "name": "tokens",
          "type": "uint256"
        },
        {
          "name": "active",
          "type": "bool"
        }
      ],
      "payable": false,
      "stateMutability": "view",
      "type": "function"
    },
    {
      "constant": false,
      "inputs": [
        {
          "name": "_cardId",
          "type": "uint256"
        },
        {
          "name": "_tokens",
          "type": "uint256"
        },
        {
          "name": "_hash",
          "type": "bytes32"
        }
      ],
      "name": "addCard",
      "outputs": [],
      "payable": false,
      "stateMutability": "nonpayable",
      "type": "function"
    },
    {
      "constant": false,
      "inputs": [
        {
          "name": "_cardId",
          "type": "uint256"
        }
      ],
      "name": "activateCard",
      "outputs": [],
      "payable": false,
      "stateMutability": "nonpayable",
      "type": "function"
    },
    {
      "constant": false,
      "inputs": [
        {
          "name": "_secret",
          "type": "bytes"
        }
      ],
      "name": "validateCard",
      "outputs": [],
      "payable": false,
      "stateMutability": "nonpayable",
      "type": "function"
    }
  ],
  "bytecode": "0x60806040523480156200001157600080fd5b506040805190810160405280600b81526020017f426c6f6f6d656e436f696e0000000000000000000000000000000000000000008152506040805190810160405280600381526020017f424c4f000000000000000000000000000000000000000000000000000000000081525060028282826200009d3362000149640100000000026401000000009004565b60018054600160a060020a031916331790819055604051600160a060020a0391909116906000907f8be0079c531659141344cd1fd0a4f28419497f9722a3daafe3b4186f6b6457e0908290a38251620000fe90600690602086019062000280565b5081516200011490600790602085019062000280565b506008805460ff191660ff9290921691909117905550620001409050336401000000006200019b810204565b50505062000325565b620001646000826401000000006200319c620001ed82021704565b604051600160a060020a038216907f47d1c22a25bb3a5d4e481b9b1e6944c2eade3181a0a20b495ed61d35b5323f2490600090a250565b620001b66009826401000000006200319c620001ed82021704565b604051600160a060020a038216907f6ae172837ea30b801fbfcdd4108aa1d5bf8ff775444fd70256b44e6bf3dfc3f690600090a250565b600160a060020a03811615156200020357600080fd5b62000218828264010000000062000248810204565b156200022357600080fd5b600160a060020a0316600090815260209190915260409020805460ff19166001179055565b6000600160a060020a03821615156200026057600080fd5b50600160a060020a03166000908152602091909152604090205460ff1690565b828054600181600116156101000203166002900490600052602060002090601f016020900481019282601f10620002c357805160ff1916838001178555620002f3565b82800160010185558215620002f3579182015b82811115620002f3578251825591602001919060010190620002d6565b506200030192915062000305565b5090565b6200032291905b808211156200030157600081556001016200030c565b90565b6147e980620003356000396000f3006080604052600436106102665763ffffffff7c010000000000000000000000000000000000000000000000000000000060003504166304edae0f811461026b57806306fdde03146102a1578063080e6887146102c3578063095bcdb6146102e5578063095ea7b314610305578063132c6aa41461032557806317b1b4981461034557806318160ddd146103725780631d266200146103945780631d841899146103b45780632133e3b9146103d457806321f8a721146103f457806323b872dd146104215780632b26fb2914610441578063313ce5671461046e57806339509351146104905780634014d468146104b057806340c10f19146104d057806342966c68146104f057806342b4bed4146105105780634aa3bfeb146105305780634f4ee353146105455780635a16f5c4146105655780636d9db7ed14610585578063700651aa146105b257806370a08231146105d2578063715018a6146105f2578063787552951461060757806379cc6790146106275780637de3b0ed146106475780637df73e27146106675780637e09ef421461068757806386b00ad5146106a75780638a984385146106c75780638da5cb5b146106e75780638f32d59b146106fc5780639188d3121461071157806395d89b4114610741578063983b2d56146107565780639865027514610776578063a2086dab1461078b578063a457c2d7146107ab578063a9059cbb146107cb578063aa271e1a146107eb578063c1debea41461080b578063c8c2eb661461082b578063d921216414610840578063dd62ed3e1461086d578063e5c8b03d1461088d578063eb12d61e146108a2578063f2fde38b146108c2575b600080fd5b34801561027757600080fd5b5061028b610286366004613b84565b6108e2565b60405161029891906144ec565b60405180910390f35b3480156102ad57600080fd5b506102b66108f8565b60405161029891906144fa565b3480156102cf57600080fd5b506102e36102de366004613c3d565b61098f565b005b3480156102f157600080fd5b506102e3610300366004613918565b6109a4565b34801561031157600080fd5b5061028b6103203660046138e8565b6109c0565b34801561033157600080fd5b506102e3610340366004613968565b610a42565b34801561035157600080fd5b5061036561036036600461394a565b610a61565b60405161029891906144db565b34801561037e57600080fd5b50610387610cb2565b604051610298919061468c565b3480156103a057600080fd5b506102e36103af36600461394a565b610cb8565b3480156103c057600080fd5b5061028b6103cf3660046138e8565b610cc5565b3480156103e057600080fd5b506103876103ef366004613b84565b610cfc565b34801561040057600080fd5b5061041461040f36600461394a565b610d04565b6040516102989190614483565b34801561042d57600080fd5b5061028b61043c36600461389b565b610d3f565b34801561044d57600080fd5b5061046161045c36600461394a565b610ddc565b604051610298919061467b565b34801561047a57600080fd5b50610483610f72565b60405161029891906146cf565b34801561049c57600080fd5b5061028b6104ab3660046138e8565b610f7b565b3480156104bc57600080fd5b506102e36104cb36600461394a565b61101e565b3480156104dc57600080fd5b5061028b6104eb3660046138e8565b61103c565b3480156104fc57600080fd5b506102e361050b36600461394a565b611065565b34801561051c57600080fd5b506102e361052b3660046139f5565b61106f565b34801561053c57600080fd5b50610387611086565b34801561055157600080fd5b506102e3610560366004613918565b6110a0565b34801561057157600080fd5b506102e361058036600461394a565b61116c565b34801561059157600080fd5b506105a56105a036600461394a565b61118a565b60405161029891906144ca565b3480156105be57600080fd5b5061028b6105cd366004613918565b611421565b3480156105de57600080fd5b506103876105ed366004613843565b61142e565b3480156105fe57600080fd5b506102e3611449565b34801561061357600080fd5b5061028b61062236600461394a565b6114a6565b34801561063357600080fd5b506102e36106423660046138e8565b6114dd565b34801561065357600080fd5b506102e3610662366004613bc4565b6114eb565b34801561067357600080fd5b5061028b610682366004613843565b61150f565b34801561069357600080fd5b506102e36106a236600461394a565b611521565b3480156106b357600080fd5b506102e36106c2366004613ae1565b6115bd565b3480156106d357600080fd5b506102e36106e2366004613ba3565b6115c9565b3480156106f357600080fd5b50610414611742565b34801561070857600080fd5b5061028b611751565b34801561071d57600080fd5b5061073161072c36600461394a565b611762565b604051610298949392919061469a565b34801561074d57600080fd5b506102b66117d7565b34801561076257600080fd5b506102e3610771366004613843565b611838565b34801561078257600080fd5b506102e3611855565b34801561079757600080fd5b506102e36107a6366004613b3c565b611860565b3480156107b757600080fd5b5061028b6107c63660046138e8565b61187d565b3480156107d757600080fd5b5061028b6107e63660046138e8565b6118c8565b3480156107f757600080fd5b5061028b610806366004613843565b6118e2565b34801561081757600080fd5b506102e3610826366004613aac565b6118f5565b34801561083757600080fd5b50610387611aca565b34801561084c57600080fd5b5061086061085b36600461394a565b611ae5565b60405161029891906144b9565b34801561087957600080fd5b50610387610888366004613861565b611d5f565b34801561089957600080fd5b506102e3611d8a565b3480156108ae57600080fd5b506102e36108bd366004613843565b611d93565b3480156108ce57600080fd5b506102e36108dd366004613843565b611db0565b60006108ef338484611dcc565b90505b92915050565b60068054604080516020601f60026000196101006001881615020190951694909404938401819004810282018101909252828152606093909290918301828280156109845780601f1061095957610100808354040283529160200191610984565b820191906000526020600020905b81548152906001019060200180831161096757829003601f168201915b505050505090505b90565b61099d338686868686611fd9565b5050505050565b6109af338484612105565b6109bb33848484612196565b505050565b6000600160a060020a03831615156109d757600080fd5b336000818152600460209081526040808320600160a060020a03881680855292529182902085905590519091907f8c5be1e5ebec7d5bd14f71427d1e84f3dd0314c0f7b2291e5b200ac8c7c3b92590610a3190869061468c565b60405180910390a350600192915050565b61099d3386868686866020604051908101604052806000815250612265565b60606000606080600080600087138015610a7c5750600a8713155b1515610aa65760405160e560020a62461bcd028152600401610a9d9061452b565b60405180910390fd5b336000908152600a6020818152604080842080548251818502810185019093528083526000198d019094029950909390929184015b82821015610bdd57838290600052602060002090600402016080604051908101604052908160008201548152602001600182018054600181600116156101000203166002900480601f016020809104026020016040519081016040528092919081815260200182805460018160011615610100020316600290048015610ba25780601f10610b7757610100808354040283529160200191610ba2565b820191906000526020600020905b815481529060010190602001808311610b8557829003601f168201915b50505091835250506002820154602080830191909152600390920154600160a060020a03166040909101529082526001929092019101610adb565b505050509350848451111515610bf257610ca8565b60408051600a808252610160820190925290816020015b610c116135f0565b815260200190600190039081610c09579050509250600091505b600a821215610ca45750336000908152600b602052604081205485900382900390811215610c6957606484511015610c6557829550610ca8565b6064015b8381815181101515610c7757fe5b906020019060200201518383815181101515610c8f57fe5b60209081029091010152600190910190610c2b565b8295505b5050505050919050565b60055490565b610cc23382612401565b50565b6000818152600e60205260408120548190600160a060020a038581169116148015610cf45750610cf4836114a6565b949350505050565b606491020490565b6000806000610d12846114a6565b91508115610d3457506000838152600e6020526040902054600160a060020a03165b8092505b5050919050565b600160a060020a0383166000908152600460209081526040808320338452909152812054821115610d6f57600080fd5b600160a060020a0384166000908152600460209081526040808320338452909152902054610da3908363ffffffff6125f316565b600160a060020a0385166000908152600460209081526040808320338452909152902055610dd2848484612105565b5060019392505050565b610de4613622565b60008281526002602052604081206001015411610e165760405160e560020a62461bcd028152600401610a9d9061458b565b6000828152600260208181526040808420815160c081018352815481526001820154818501529381015484830152600381015460608501526004810180548351818602810186019094528084529495919460808701949192909184015b82821015610f53576000848152602090819020604080516060810182526003860290920180548352600180820154600160a060020a0316848601526002808301805485516101009482161594909402600019011691909104601f8101879004870283018701855280835294959294938601939192909190830182828015610f3b5780601f10610f1057610100808354040283529160200191610f3b565b820191906000526020600020905b815481529060010190602001808311610f1e57829003601f168201915b50505050508152505081526020019060010190610e73565b505050908252506005919091015460ff16151560209091015292915050565b60085460ff1690565b6000600160a060020a0383161515610f9257600080fd5b336000908152600460209081526040808320600160a060020a0387168452909152902054610fc6908363ffffffff61260a16565b336000818152600460209081526040808320600160a060020a038916808552925291829020849055905190927f8c5be1e5ebec7d5bd14f71427d1e84f3dd0314c0f7b2291e5b200ac8c7c3b92591610a31919061468c565b611026611751565b151561103157600080fd5b610cc2816001612623565b6000611047336118e2565b151561105257600080fd5b61105c83836126b4565b50600192915050565b610cc23382612751565b61107e33878787878787612265565b505050505050565b336000908152600c6020526040812054600a905b06905090565b6110a8613622565b60008060006110b685610ddc565b9350859250600091505b600184608001515103821015611133576110f6868560800151848151811015156110e657fe5b6020908102909101015151610cfc565b905061112384608001518381518110151561110d57fe5b90602001906020020151602001518260006109a4565b91829003916001909101906110c0565b608084015180516111639190600019810190811061114d57fe5b90602001906020020151602001518460006109a4565b50505050505050565b611174611751565b151561117f57600080fd5b610cc2816000612623565b60408051600a8082526101608201909252606091829160009183918391816020015b6111b461365b565b8152602001906001900390816111ac575050336000908152600d60209081526040918290206001018054835181840281018401909452808452939750600a8a0260091901965091929083018282801561122d57602002820191906000526020600020905b81548152600190910190602001808311611218575b505050505091508151600014806112475750600182510383115b1561125157611418565b5060005b85600a0283101561141457815183101561140857336000908152600d60205260408120835190919084908690811061128957fe5b6020908102919091018101518252818101929092526040908101600020815160a08101835281548152600180830154828601526002808401548386015260038401805486516000199482161561010002949094011691909104601f81018790048702830187019095528482529194929360608601939192918301828280156113525780601f1061132757610100808354040283529160200191611352565b820191906000526020600020905b81548152906001019060200180831161133557829003601f168201915b505050918352505060048201805460408051602060026001851615610100026000190190941693909304601f81018490048402820184019092528181529382019392918301828280156113e65780601f106113bb576101008083540402835291602001916113e6565b820191906000526020600020905b8154815290600101906020018083116113c957829003601f168201915b50505050508152505084828151811015156113fd57fe5b602090810290910101525b60019283019201611255565b8394505b50505050919050565b6000610cf4848484611dcc565b600160a060020a031660009081526003602052604090205490565b611451611751565b151561145c57600080fd5b600154604051600091600160a060020a0316907f8be0079c531659141344cd1fd0a4f28419497f9722a3daafe3b4186f6b6457e0908390a360018054600160a060020a0319169055565b6000818152600e6020908152604080832054600160a060020a03168352600d82528083208484529091529020544210805b50919050565b6114e78282612804565b5050565b61150933858585856020604051908101604052806000815250611fd9565b50505050565b60006108f2818363ffffffff61289616565b6000818152600f60205260408120600401548291106115555760405160e560020a62461bcd028152600401610a9d9061458b565b61155e3361150f565b151561156957600080fd5b6000828152600f602052604090206003015460ff161561159e5760405160e560020a62461bcd028152600401610a9d9061466b565b506000908152600f60205260409020600301805460ff19166001179055565b6109bb838333846128cd565b6115d161368b565b6115d9611751565b15156115e457600080fd5b600083116116075760405160e560020a62461bcd028152600401610a9d9061464b565b6000841161162a5760405160e560020a62461bcd028152600401610a9d9061453b565b6000848152600f60205260409020600401541561165c5760405160e560020a62461bcd028152600401610a9d9061461b565b6000828152601060205260409020541561168b5760405160e560020a62461bcd028152600401610a9d9061451b565b61169530846126b4565b506040805160c08101825282815260208082018681528284019586526000606084018181523360808601908152600160a087018181528b8552600f87528885209751885594519087015597516002860155516003850180549851600160a060020a03166101000274ffffffffffffffffffffffffffffffffffffffff001992151560ff19909a16999099179190911697909717909655516004909201919091559183526010909152902055565b600154600160a060020a031690565b600154600160a060020a0316331490565b6000818152600f60205260408120600401548190819081908590821061179d5760405160e560020a62461bcd028152600401610a9d9061458b565b50505060009283525050600f602052604090206001810154600382015460029092015490926101008304600160a060020a03169260ff1690565b60078054604080516020601f60026000196101006001881615020190951694909404938401819004810282018101909252828152606093909290918301828280156109845780601f1061095957610100808354040283529160200191610984565b611841336118e2565b151561184c57600080fd5b610cc281612b63565b61185e33612bab565b565b611868611751565b151561187357600080fd5b6114e78282612bf3565b6000600160a060020a038316151561189457600080fd5b336000908152600460209081526040808320600160a060020a0387168452909152902054610fc6908363ffffffff6125f316565b60006118d5338484612105565b61105c3384846000612196565b60006108f260098363ffffffff61289616565b600080826040518082805190602001908083835b602083106119285780518252601f199092019160209182019101611909565b51815160209384036101000a600019018019909216911617905260408051929094018290039091206000818152601090925292812054929650919450508311915061198a90505760405160e560020a62461bcd028152600401610a9d906145db565b6000818152600f602052604090206003015460ff1615156001146119c35760405160e560020a62461bcd028152600401610a9d9061457b565b6000818152600f602052604090205482146119f35760405160e560020a62461bcd028152600401610a9d9061455b565b6000818152600f6020526040902060020154611a129030903390612105565b6000818152600f602052604090819020600381015460019091015491513392610100909204600160a060020a0316917f80de5a7d3e27e32cfffc07551af7c9ee302a01b5456991722d7ef54193eab35691611a6d919061468c565b60405180910390a36000918252601060209081526040808420849055918352600f90528120818155600181018290556002810182905560038101805474ffffffffffffffffffffffffffffffffffffffffff191690556004015550565b336000908152600d6020526040812060010154600a9061109a565b336000908152600c602090815260408083208054825181850281018501909352808352606094600919600a88020194869485949293909291849084015b82821015611ca9578382906000526020600020906005020160a06040519081016040529081600082015481526020016001820154815260200160028201548152602001600382018054600181600116156101000203166002900480601f016020809104026020016040519081016040528092919081815260200182805460018160011615610100020316600290048015611bfd5780601f10611bd257610100808354040283529160200191611bfd565b820191906000526020600020905b815481529060010190602001808311611be057829003601f168201915b505050918352505060048201805460408051602060026001851615610100026000190190941693909304601f8101849004840282018401909252818152938201939291830182828015611c915780601f10611c6657610100808354040283529160200191611c91565b820191906000526020600020905b815481529060010190602001808311611c7457829003601f168201915b50505050508152505081526020019060010190611b22565b505050509250825160001480611cc25750600183510384115b15611ccc57611418565b60408051600a808252610160820190925290816020015b611ceb61365b565b815260200190600190039081611ce3579050509150600090505b85600a02841015611d56578251841015611d4a578284815181101515611d2757fe5b906020019060200201518282815181101515611d3f57fe5b602090810290910101525b60019384019301611d05565b50949350505050565b600160a060020a03918216600090815260046020908152604080832093909416825291909152205490565b61185e33612f82565b611d9c3361150f565b1515611da757600080fd5b610cc281612fca565b611db8611751565b1515611dc357600080fd5b610cc281613012565b600080611dd761365b565b600091505b600160a060020a0386166000908152600c6020526040902054821015611fcb57600160a060020a0386166000908152600c60205260409020805483908110611e2057fe5b906000526020600020906005020160a06040519081016040529081600082015481526020016001820154815260200160028201548152602001600382018054600181600116156101000203166002900480601f016020809104026020016040519081016040528092919081815260200182805460018160011615610100020316600290048015611ef15780601f10611ec657610100808354040283529160200191611ef1565b820191906000526020600020905b815481529060010190602001808311611ed457829003601f168201915b505050918352505060048201805460408051602060026001851615610100026000190190941693909304601f8101849004840282018401909252818152938201939291830182828015611f855780601f10611f5a57610100808354040283529160200191611f85565b820191906000526020600020905b815481529060010190602001808311611f6857829003601f168201915b5050505050815250509050848160200151148015611fa65750838160400151145b8015611fb25750805142105b15611fc05760019250611fd0565b600190910190611ddc565b600092505b50509392505050565b611fe1613622565b611fea85610ddc565b604081015190915084146120135760405160e560020a62461bcd028152600401610a9d9061460b565b61201e878787611dcc565b1561203e5760405160e560020a62461bcd028152600401610a9d9061463b565b6000841115612052576120523085876109a4565b600160a060020a0387166000908152600c60209081526040808320815160a081018352606080870151420182528185018c81529382018b81529082018981526080830189905283546001818101808755958952978790208451600590920201908155945196850196909655516002840155935180519194936120dc926003850192909101906136c0565b50608082015180516120f89160048401916020909101906136c0565b5050505050505050505050565b61214a81600019026040805190810160405280600481526020017f73656e640000000000000000000000000000000000000000000000000000000081525085856128cd565b61218b816040805190810160405280600781526020017f726563656976650000000000000000000000000000000000000000000000000081525084866128cd565b6109bb838383613083565b60006121a184613194565b1561222557506040517f4f4ee3530000000000000000000000000000000000000000000000000000000081528390600160a060020a03821690634f4ee353906121f290889087908790600401614491565b600060405180830381600087803b15801561220c57600080fd5b505af1158015612220573d6000803e3d6000fd5b505050505b83600160a060020a031685600160a060020a031660008051602061479083398151915285604051612256919061468c565b60405180910390a35050505050565b612270878686611dcc565b15156122915760405160e560020a62461bcd028152600401610a9d9061459b565b6000868152600e6020526040902054600160a060020a0316158015906122bd57506122bb866114a6565b155b156122e4576000868152600e60205260409020546122e490600160a060020a031687612401565b6000868152600e6020526040902054600160a060020a03161561231c5760405160e560020a62461bcd028152600401610a9d9061465b565b6000868152600e602090815260408083208054600160a060020a031916600160a060020a038c16908117909155815160a0810183528781528084018a81528184018a81526060830189815260808401899052938752600d86528487208d88528652939095208151815594516001860155915160028501555180519193926123ab926003850192909101906136c0565b50608082015180516123c79160048401916020909101906136c0565b505050600160a060020a039096166000908152600d6020908152604082206001908101805491820181558352912001949094555050505050565b6000818152600e60205260408120548190600160a060020a0385811691161461243f5760405160e560020a62461bcd028152600401610a9d906145cb565b6000838152600e602090815260408083208054600160a060020a0319169055600160a060020a0387168352600d82528083208684529091528120818155600181018290556002810182905590612498600383018261373e565b6124a660048301600061373e565b505060009150600090505b600160a060020a0384166000908152600d60205260409020600101546000190181101561259057811561254e57600160a060020a0384166000908152600d60205260409020600190810180549091830190811061250a57fe5b6000918252602080832090910154600160a060020a0387168352600d909152604090912060010180548390811061253d57fe5b600091825260209091200155612588565b600160a060020a0384166000908152600d6020526040902060010180548491908390811061257857fe5b6000918252602090912001541491505b6001016124b1565b600160a060020a0384166000908152600d60205260409020600101805460001981019081106125bb57fe5b60009182526020808320909101829055600160a060020a0386168252600d90526040902060010180549061099d906000198301613782565b6000808383111561260357600080fd5b5050900390565b60008282018381101561261c57600080fd5b9392505050565b60008281526002602052604090206001015415156126565760405160e560020a62461bcd028152600401610a9d906145ab565b60008281526002602052604090206005015460ff16151581151514156126915760405160e560020a62461bcd028152600401610a9d9061462b565b600091825260026020526040909120600501805460ff1916911515919091179055565b600160a060020a03821615156126c957600080fd5b6005546126dc908263ffffffff61260a16565b600555600160a060020a038216600090815260036020526040902054612708908263ffffffff61260a16565b600160a060020a0383166000818152600360205260408082209390935591519091906000805160206147908339815191529061274590859061468c565b60405180910390a35050565b600160a060020a038216151561276657600080fd5b600160a060020a03821660009081526003602052604090205481111561278b57600080fd5b60055461279e908263ffffffff6125f316565b600555600160a060020a0382166000908152600360205260409020546127ca908263ffffffff6125f316565b600160a060020a0383166000818152600360205260408082209390935591516000805160206147908339815191529061274590859061468c565b600160a060020a038216600090815260046020908152604080832033845290915290205481111561283457600080fd5b600160a060020a0382166000908152600460209081526040808320338452909152902054612868908263ffffffff6125f316565b600160a060020a03831660009081526004602090815260408083203384529091529020556114e78282612751565b6000600160a060020a03821615156128ad57600080fd5b50600160a060020a03166000908152602091909152604090205460ff1690565b600160a060020a0382166000908152600a6020526040902054606411156129b957600160a060020a038083166000908152600a602090815260408083208151608081018352898152808401898152429382019390935294861660608601528054600181810180845592865294849020865160049092020190815591518051919594929361295f938501929101906136c0565b50604082810151600283015560609092015160039091018054600160a060020a031916600160a060020a0392831617905584166000908152600a602090815282822054600b90915291902060001991909101905550611509565b600160a060020a0382166000908152600b602052604090205460631415612a9a57600160a060020a038083166000818152600b60209081526040808320839055805160808101825289815280830189905242818301529486166060860152928252600a905290812080549091908110612a2e57fe5b9060005260206000209060040201600082015181600001556020820151816001019080519060200190612a629291906136c0565b506040820151600282015560609091015160039091018054600160a060020a031916600160a060020a03909216919091179055611509565b600160a060020a038083166000818152600b6020818152604080842080546001019081905581516080810183528b81528084018b905242818401529688166060880152948452600a8252909220915280549091908110612af657fe5b9060005260206000209060040201600082015181600001556020820151816001019080519060200190612b2a9291906136c0565b506040820151600282015560609091015160039091018054600160a060020a031916600160a060020a0390921691909117905550505050565b612b7460098263ffffffff61319c16565b604051600160a060020a038216907f6ae172837ea30b801fbfcdd4108aa1d5bf8ff775444fd70256b44e6bf3dfc3f690600090a250565b612bbc60098263ffffffff6131ea16565b604051600160a060020a038216907fe94479a9f7e1952cc78f2d6baab678adc1b772d936c6583def489e524cb6669290600090a250565b612bfb6137a6565b606060008060008060606000806060600260008d8152602001908152602001600020600101546000141515612c455760405160e560020a62461bcd028152600401610a9d906145fb565b612c4e8b613236565b9950612c598a613284565b9850612c7c896000815181101515612c6d57fe5b9060200190602002015161334e565b9750428811612ca05760405160e560020a62461bcd028152600401610a9d906145bb565b612cb2896001815181101515612c6d57fe5b9650612cc6896002815181101515612c6d57fe5b9550612cda896003815181101515612c6d57fe5b9450612cfd896004815181101515612cee57fe5b90602001906020020151613284565b935083519250600091505b82821015612e1e57612d218483815181101515612cee57fe5b905060026000888152602001908152602001600020600401606060405190810160405280612d57846000815181101515612c6d57fe5b8152602001612d7d846001815181101515612d6e57fe5b90602001906020020151613384565b600160a060020a03168152602001612dac846002815181101515612d9d57fe5b906020019060200201516133b5565b90528154600180820180855560009485526020948590208451600390940201928355838501519183018054600160a060020a031916600160a060020a0390931692909217909155604083015180519194612e0e926002850192909101906136c0565b505060019093019250612d089050565b612f4060026000898152602001908152602001600020600401805480602002602001604051908101604052809291908181526020016000905b82821015612f37576000848152602090819020604080516060810182526003860290920180548352600180820154600160a060020a0316848601526002808301805485516101009482161594909402600019011691909104601f8101879004870283018701855280835294959294938601939192909190830182828015612f1f5780601f10612ef457610100808354040283529160200191612f1f565b820191906000526020600020905b815481529060010190602001808311612f0257829003601f168201915b50505050508152505081526020019060010190612e57565b5050505061341e565b50505060008481526002602081905260409091209586556001808701959095558501929092556003840155506005909101805460ff1916909117905550505050565b612f9360008263ffffffff6131ea16565b604051600160a060020a038216907f3525e22824a8a7df2c9a6029941c824cf95b6447f1e13d5128fd3826d35afe8b90600090a250565b612fdb60008263ffffffff61319c16565b604051600160a060020a038216907f47d1c22a25bb3a5d4e481b9b1e6944c2eade3181a0a20b495ed61d35b5323f2490600090a250565b600160a060020a038116151561302757600080fd5b600154604051600160a060020a038084169216907f8be0079c531659141344cd1fd0a4f28419497f9722a3daafe3b4186f6b6457e090600090a360018054600160a060020a031916600160a060020a0392909216919091179055565b600160a060020a0383166000908152600360205260409020548111156130be5760405160e560020a62461bcd028152600401610a9d906145eb565b600160a060020a03821615156130e95760405160e560020a62461bcd028152600401610a9d9061450b565b600160a060020a038316600090815260036020526040902054613112908263ffffffff6125f316565b600160a060020a038085166000908152600360205260408082209390935590841681522054613147908263ffffffff61260a16565b600160a060020a0380841660008181526003602052604090819020939093559151908516906000805160206147908339815191529061318790859061468c565b60405180910390a3505050565b6000903b1190565b600160a060020a03811615156131b157600080fd5b6131bb8282612896565b156131c557600080fd5b600160a060020a0316600090815260209190915260409020805460ff19166001179055565b600160a060020a03811615156131ff57600080fd5b6132098282612896565b151561321457600080fd5b600160a060020a0316600090815260209190915260409020805460ff19169055565b61323e6137a6565b600082516000141561326557604080518082019091526000808252602082015291506114d7565b5050604080518082019091528151815260209182019181019190915290565b606060008060008061329586613442565b15156132a057600080fd5b6132a986613465565b9350836040519080825280602002602001820160405280156132e557816020015b6132d26137a6565b8152602001906001900390816132ca5790505b5094506132f586602001516134b5565b8660200151019250600090505b838110156114185761331383613518565b9150604080519081016040528083815260200184815250858281518110151561333857fe5b6020908102909101015291810191600101613302565b600080600080600061336386602001516134b5565b86516020978801518201519190039096036101000a90950495945050505050565b8051600090601510156133ac5760405160e560020a62461bcd028152600401610a9d9061456b565b6108f28261334e565b6060600080606060006133cb86602001516134b5565b9350838660000151039250826040519080825280601f01601f191660200182016040528015613404578160200160208202803883390190505b509150816020019050611d568487602001510182856135a9565b8051600010610cc25760405160e560020a62461bcd028152600401610a9d9061454b565b6020810151805160009190821a9060c060ff83161015610dd25760009250610d38565b6000806000806000925061347c85602001516134b5565b6020860151865191810193500190505b808210156134ac5761349d82613518565b6001909301929091019061348c565b50909392505050565b8051600090811a60808110156134ce57600091506114d7565b60b88110806134e9575060c081108015906134e9575060f881105b156134f757600191506114d7565b60c081101561350c5760b519810191506114d7565b60f519810191506114d7565b8051600090811a608081101561353157600191506114d7565b60b881101561354657607e19810191506114d7565b60c08110156135735760b78103600184019350806020036101000a845104600182018101935050506114d7565b60f88110156135885760be19810191506114d7565b60019290920151602083900360f7016101000a900490910160f51901919050565b60005b602082106135ce578351835260209384019390920191601f19909101906135ac565b50915181516020939093036101000a6000190180199091169216919091179052565b6080604051908101604052806000815260200160608152602001600081526020016000600160a060020a031681525090565b60c06040519081016040528060008152602001600081526020016000815260200160008152602001606081526020016000151581525090565b60a06040519081016040528060008152602001600081526020016000815260200160608152602001606081525090565b6040805160c081018252600080825260208201819052918101829052606081018290526080810182905260a081019190915290565b828054600181600116156101000203166002900490600052602060002090601f016020900481019282601f1061370157805160ff191683800117855561372e565b8280016001018555821561372e579182015b8281111561372e578251825591602001919060010190613713565b5061373a9291506137bd565b5090565b50805460018160011615610100020316600290046000825580601f106137645750610cc2565b601f016020900490600052602060002090810190610cc291906137bd565b8154818355818111156109bb576000838152602090206109bb9181019083016137bd565b604080518082019091526000808252602082015290565b61098c91905b8082111561373a57600081556001016137c3565b60006108ef8235614736565b60006108ef823561098c565b6000601f8201831361380057600080fd5b813561381361380e82614704565b6146dd565b9150808252602083016020830185838301111561382f57600080fd5b61383a83828461474d565b50505092915050565b60006020828403121561385557600080fd5b6000610cf484846137d7565b6000806040838503121561387457600080fd5b600061388085856137d7565b9250506020613891858286016137d7565b9150509250929050565b6000806000606084860312156138b057600080fd5b60006138bc86866137d7565b93505060206138cd868287016137d7565b92505060406138de868287016137e3565b9150509250925092565b600080604083850312156138fb57600080fd5b600061390785856137d7565b9250506020613891858286016137e3565b60008060006060848603121561392d57600080fd5b600061393986866137d7565b93505060206138cd868287016137e3565b60006020828403121561395c57600080fd5b6000610cf484846137e3565b600080600080600060a0868803121561398057600080fd5b600061398c88886137e3565b955050602061399d888289016137e3565b94505060406139ae888289016137e3565b93505060606139bf888289016137e3565b925050608086013567ffffffffffffffff8111156139dc57600080fd5b6139e8888289016137ef565b9150509295509295909350565b60008060008060008060c08789031215613a0e57600080fd5b6000613a1a89896137e3565b9650506020613a2b89828a016137e3565b9550506040613a3c89828a016137e3565b9450506060613a4d89828a016137e3565b935050608087013567ffffffffffffffff811115613a6a57600080fd5b613a7689828a016137ef565b92505060a087013567ffffffffffffffff811115613a9357600080fd5b613a9f89828a016137ef565b9150509295509295509295565b600060208284031215613abe57600080fd5b813567ffffffffffffffff811115613ad557600080fd5b610cf4848285016137ef565b600080600060608486031215613af657600080fd5b6000613b0286866137e3565b935050602084013567ffffffffffffffff811115613b1f57600080fd5b613b2b868287016137ef565b92505060406138de868287016137d7565b60008060408385031215613b4f57600080fd5b6000613b5b85856137e3565b925050602083013567ffffffffffffffff811115613b7857600080fd5b613891858286016137ef565b60008060408385031215613b9757600080fd5b600061390785856137e3565b600080600060608486031215613bb857600080fd5b600061393986866137e3565b60008060008060808587031215613bda57600080fd5b6000613be687876137e3565b9450506020613bf7878288016137e3565b9350506040613c08878288016137e3565b925050606085013567ffffffffffffffff811115613c2557600080fd5b613c31878288016137ef565b91505092959194509250565b600080600080600060a08688031215613c5557600080fd5b6000613c6188886137e3565b9550506020613c72888289016137e3565b9450506040613c83888289016137e3565b935050606086013567ffffffffffffffff811115613ca057600080fd5b6139bf888289016137ef565b613cb581614736565b82525050565b6000613cc682614732565b80845260208401935083602082028501613cdf8561472c565b60005b84811015613d16578383038852613cfa8383516142f0565b9250613d058261472c565b602098909801979150600101613ce2565b50909695505050505050565b6000613d2d82614732565b80845260208401935083602082028501613d468561472c565b60005b84811015613d16578383038852613d61838351614365565b9250613d6c8261472c565b602098909801979150600101613d49565b6000613d8882614732565b80845260208401935083602082028501613da18561472c565b60005b84811015613d16578383038852613dbc8383516142f0565b9250613dc78261472c565b602098909801979150600101613da4565b6000613de382614732565b80845260208401935083602082028501613dfc8561472c565b60005b84811015613d16578383038852613e178383516143a4565b9250613e228261472c565b602098909801979150600101613dff565b613cb581614742565b613cb58161098c565b6000613e5082614732565b808452613e64816020860160208601614759565b613e6d81614785565b9093016020019392505050565b600781527f6572726f725f3200000000000000000000000000000000000000000000000000602082015260400190565b600f81527f6475706c6963617465645f686173680000000000000000000000000000000000602082015260400190565b600d81527f496e76616c696420706167652e00000000000000000000000000000000000000602082015260400190565b601081527f6e6f5f76616c69645f636172645f696400000000000000000000000000000000602082015260400190565b600981527f6e6f742072756c65730000000000000000000000000000000000000000000000602082015260400190565b600c81527f77726f6e675f7365637265740000000000000000000000000000000000000000602082015260400190565b603a81527f496e76616c696420524c504974656d2e2041646472657373657320617265206560208201527f6e636f64656420696e203230206279746573206f72206c657373000000000000604082015260600190565b600a81527f6e6f745f61637469766500000000000000000000000000000000000000000000602082015260400190565b600981527f6e6f745f65786973740000000000000000000000000000000000000000000000602082015260400190565b600b81527f6e6f7420616c6c6f776564000000000000000000000000000000000000000000602082015260400190565b600981527f6e6f742065786973740000000000000000000000000000000000000000000000602082015260400190565b600781527f6578706972656400000000000000000000000000000000000000000000000000602082015260400190565b600a81527f73616d65206f776e657200000000000000000000000000000000000000000000602082015260400190565b600e81527f686173685f6e6f745f666f756e64000000000000000000000000000000000000602082015260400190565b600781527f6572726f725f3100000000000000000000000000000000000000000000000000602082015260400190565b600581527f6578697374000000000000000000000000000000000000000000000000000000602082015260400190565b601081527f696e636f727265637420616d6f756e7400000000000000000000000000000000602082015260400190565b600a81527f636172645f657869737400000000000000000000000000000000000000000000602082015260400190565b600b81527f73616d6520737461747573000000000000000000000000000000000000000000602082015260400190565b600a81527f6475706c69636174656400000000000000000000000000000000000000000000602082015260400190565b600c81527f656d7074795f746f6b656e730000000000000000000000000000000000000000602082015260400190565b600f81527f6475706c69636174656420686173680000000000000000000000000000000000602082015260400190565b600f81527f6e6f745f6163746976617461626c650000000000000000000000000000000000602082015260400190565b805160009060a08401906143048582613e3c565b5060208301516143176020860182613e3c565b50604083015161432a6040860182613e3c565b50606083015184820360608601526143428282613e45565b9150506080830151848203608086015261435c8282613e45565b95945050505050565b805160009060608401906143798582613e3c565b50602083015161438c6020860182613cac565b506040830151848203604086015261435c8282613e45565b805160009060808401906143b88582613e3c565b50602083015184820360208601526143d08282613e45565b91505060408301516143e56040860182613e3c565b5060608301516143f86060860182613cac565b509392505050565b805160009060c08401906144148582613e3c565b5060208301516144276020860182613e3c565b50604083015161443a6040860182613e3c565b50606083015161444d6060860182613e3c565b50608083015184820360808601526144658282613d22565b91505060a08301516143f860a0860182613e33565b613cb581614747565b602081016108f28284613cac565b6060810161449f8286613cac565b6144ac6020830185613e3c565b610cf46040830184613e3c565b602080825281016108ef8184613cbb565b602080825281016108ef8184613d7d565b602080825281016108ef8184613dd8565b602081016108f28284613e33565b602080825281016108ef8184613e45565b602080825281016108f281613e7a565b602080825281016108f281613eaa565b602080825281016108f281613eda565b602080825281016108f281613f0a565b602080825281016108f281613f3a565b602080825281016108f281613f6a565b602080825281016108f281613f9a565b602080825281016108f281613ff0565b602080825281016108f281614020565b602080825281016108f281614050565b602080825281016108f281614080565b602080825281016108f2816140b0565b602080825281016108f2816140e0565b602080825281016108f281614110565b602080825281016108f281614140565b602080825281016108f281614170565b602080825281016108f2816141a0565b602080825281016108f2816141d0565b602080825281016108f281614200565b602080825281016108f281614230565b602080825281016108f281614260565b602080825281016108f281614290565b602080825281016108f2816142c0565b602080825281016108ef8184614400565b602081016108f28284613e3c565b608081016146a88287613e3c565b6146b56020830186613cac565b6146c26040830185613e3c565b61435c6060830184613e33565b602081016108f2828461447a565b60405181810167ffffffffffffffff811182821017156146fc57600080fd5b604052919050565b600067ffffffffffffffff82111561471b57600080fd5b506020601f91909101601f19160190565b60200190565b5190565b600160a060020a031690565b151590565b60ff1690565b82818337506000910152565b60005b8381101561477457818101518382015260200161475c565b838111156115095750506000910152565b601f01601f1916905600ddf252ad1be2c89b69c2b068fc378daa952ba7f163c4a11628f55a4df523b3efa265627a7a7230582098328e08bb61fe87a720f2d1efc3da7ef55245792172057c4bd75fec8ce9d3e86c6578706572696d656e74616cf50037",
  "source": "pragma solidity ^0.4.24;\npragma experimental ABIEncoderV2;\n\nimport \"../../node_modules/openzeppelin-solidity/contracts/math/SafeMath.sol\";\nimport \"../../node_modules/openzeppelin-solidity/contracts/access/roles/SignerRole.sol\";\nimport \"../../node_modules/openzeppelin-solidity/contracts/ownership/Ownable.sol\";\n\nimport \"./Devices.sol\";\n\ncontract PrepaidCardManager is SignerRole, Ownable , Devices {\n  using SafeMath for uint256;\n\n  event CardValidated(\n    address indexed owner,\n    uint256 cardId,\n    address indexed user\n  );\n\n  struct Card {\n    bytes32 hash;\n    uint256 cardId;  \n    uint256 tokens;\n    bool active;\n    address owner;\n    uint initialized;\n  }\n\n  mapping (uint256 => Card) private cards_;\n  mapping (bytes32 => uint256) private cardsByHash_;\n\n  modifier cardExists(uint256 _cardId) {\n    require(cards_[_cardId].initialized > 0, \"not_exist\");\n    _;\n  }\n  \n  constructor() public {}\n\n  function getCard(uint256 _cardId) cardExists(_cardId) public view returns(uint256 cardId, address owner, uint256 tokens, bool active)  {\n    return (cards_[_cardId].cardId, cards_[_cardId].owner, cards_[_cardId].tokens, cards_[_cardId].active);\n  }\n\n  function addCard(uint256 _cardId, uint256 _tokens, bytes32 _hash) onlyOwner public {\n    require(_tokens > 0, \"empty_tokens\");\n    require(_cardId > 0, \"no_valid_card_id\");\n    require(cards_[_cardId].initialized == 0, \"card_exist\");\n    require(cardsByHash_[_hash] == 0, \"duplicated_hash\");\n\n    _mint(this,_tokens);\n    Card memory newCard = Card(_hash, _cardId, _tokens, false, msg.sender, 1);\n    cards_[_cardId] = newCard;   \n    cardsByHash_[_hash] = _cardId;\n  }\n\n  function activateCard(uint256 _cardId) cardExists(_cardId) onlySigner public {\n    require(cards_[_cardId].active == false, \"not_activatable\");\n    cards_[_cardId].active=true;    \n  }\n\n  function validateCard(bytes _secret) public {\n    bytes32 hash = keccak256(_secret);\n    uint256 cardId = cardsByHash_[hash];\n    require(cardId > 0, \"hash_not_found\");\n    require(cards_[cardId].active == true, \"not_active\");\n    require(cards_[cardId].hash ==  hash, \"wrong_secret\");\n  \n    _transfer(this, msg.sender,cards_[cardId].tokens);\n    emit CardValidated(cards_[cardId].owner, cards_[cardId].cardId, msg.sender);\n  \n    delete cardsByHash_[hash];\n    delete cards_[cardId];\n  }\n\n}",
  "sourcePath": "/Users/jordiescuderosubirana/ws/bloomen-wallet-truffle/contracts/bloomen/PrepaidCardManager.sol",
  "compiler": {
    "name": "solc",
    "version": "0.4.24+commit.e67f0147.Emscripten.clang"
  },
  "schemaVersion": "2.0.1",
  "updatedAt": "2019-01-16T19:31:43.090Z"
}