{
  "contractName": "Schemas",
  "abi": [
    {
      "constant": false,
      "inputs": [],
      "name": "renounceOwnership",
      "outputs": [],
      "payable": false,
      "stateMutability": "nonpayable",
      "type": "function"
    },
    {
      "constant": true,
      "inputs": [],
      "name": "owner",
      "outputs": [
        {
          "name": "",
          "type": "address"
        }
      ],
      "payable": false,
      "stateMutability": "view",
      "type": "function"
    },
    {
      "constant": true,
      "inputs": [],
      "name": "isOwner",
      "outputs": [
        {
          "name": "",
          "type": "bool"
        }
      ],
      "payable": false,
      "stateMutability": "view",
      "type": "function"
    },
    {
      "constant": false,
      "inputs": [
        {
          "name": "newOwner",
          "type": "address"
        }
      ],
      "name": "transferOwnership",
      "outputs": [],
      "payable": false,
      "stateMutability": "nonpayable",
      "type": "function"
    },
    {
      "anonymous": false,
      "inputs": [
        {
          "indexed": true,
          "name": "previousOwner",
          "type": "address"
        },
        {
          "indexed": true,
          "name": "newOwner",
          "type": "address"
        }
      ],
      "name": "OwnershipTransferred",
      "type": "event"
    },
    {
      "constant": true,
      "inputs": [
        {
          "name": "_schemaId",
          "type": "uint256"
        }
      ],
      "name": "getSchema",
      "outputs": [
        {
          "components": [
            {
              "name": "expirationDate",
              "type": "uint256"
            },
            {
              "name": "schemaId",
              "type": "uint256"
            },
            {
              "name": "amount",
              "type": "uint256"
            },
            {
              "name": "assetLifeTime",
              "type": "uint256"
            },
            {
              "components": [
                {
                  "name": "percent",
                  "type": "uint256"
                },
                {
                  "name": "receptor",
                  "type": "address"
                },
                {
                  "name": "description",
                  "type": "string"
                }
              ],
              "name": "clearingHouseRules",
              "type": "tuple[]"
            },
            {
              "name": "valid",
              "type": "bool"
            }
          ],
          "name": "",
          "type": "tuple"
        }
      ],
      "payable": false,
      "stateMutability": "view",
      "type": "function"
    },
    {
      "constant": false,
      "inputs": [
        {
          "name": "_schemaId",
          "type": "uint256"
        },
        {
          "name": "_data",
          "type": "bytes"
        }
      ],
      "name": "createSchema",
      "outputs": [],
      "payable": false,
      "stateMutability": "nonpayable",
      "type": "function"
    },
    {
      "constant": false,
      "inputs": [
        {
          "name": "_schemaId",
          "type": "uint256"
        }
      ],
      "name": "invalidateSchema",
      "outputs": [],
      "payable": false,
      "stateMutability": "nonpayable",
      "type": "function"
    },
    {
      "constant": false,
      "inputs": [
        {
          "name": "_schemaId",
          "type": "uint256"
        }
      ],
      "name": "validateSchema",
      "outputs": [],
      "payable": false,
      "stateMutability": "nonpayable",
      "type": "function"
    }
  ],
  "bytecode": "0x6080604081905260008054600160a060020a0319163317808255600160a060020a0316917f8be0079c531659141344cd1fd0a4f28419497f9722a3daafe3b4186f6b6457e0908290a361134a806100576000396000f30060806040526004361061008d5763ffffffff7c01000000000000000000000000000000000000000000000000000000006000350416632b26fb2981146100925780634014d468146100c85780635a16f5c4146100ea578063715018a61461010a5780638da5cb5b1461011f5780638f32d59b14610141578063a2086dab14610163578063f2fde38b14610183575b600080fd5b34801561009e57600080fd5b506100b26100ad366004610e56565b6101a3565b6040516100bf919061124f565b60405180910390f35b3480156100d457600080fd5b506100e86100e3366004610e56565b610342565b005b3480156100f657600080fd5b506100e8610105366004610e56565b610363565b34801561011657600080fd5b506100e8610381565b34801561012b57600080fd5b506101346103eb565b6040516100bf91906111c3565b34801561014d57600080fd5b506101566103fb565b6040516100bf91906111d1565b34801561016f57600080fd5b506100e861017e366004610e74565b61040c565b34801561018f57600080fd5b506100e861019e366004610e30565b61042d565b6101ab610cd5565b600082815260016020819052604082200154116101e65760405160e560020a62461bcd0281526004016101dd906111ff565b60405180910390fd5b6000828152600160208181526040808420815160c081018352815481529381015484840152600281015484830152600381015460608501526004810180548351818602810186019094528084529495919460808701949192909184015b82821015610323576000848152602090819020604080516060810182526003860290920180548352600180820154600160a060020a0316848601526002808301805485516101009482161594909402600019011691909104601f810187900487028301870185528083529495929493860193919290919083018282801561030b5780601f106102e05761010080835404028352916020019161030b565b820191906000526020600020905b8154815290600101906020018083116102ee57829003601f168201915b50505050508152505081526020019060010190610243565b505050908252506005919091015460ff16151560209091015292915050565b61034a6103fb565b151561035557600080fd5b610360816001610449565b50565b61036b6103fb565b151561037657600080fd5b610360816000610449565b6103896103fb565b151561039457600080fd5b60008054604051600160a060020a03909116907f8be0079c531659141344cd1fd0a4f28419497f9722a3daafe3b4186f6b6457e0908390a36000805473ffffffffffffffffffffffffffffffffffffffff19169055565b600054600160a060020a03165b90565b600054600160a060020a0316331490565b6104146103fb565b151561041f57600080fd5b61042982826104db565b5050565b6104356103fb565b151561044057600080fd5b61036081610877565b60008281526001602081905260409091200154151561047d5760405160e560020a62461bcd0281526004016101dd9061120f565b60008281526001602052604090206005015460ff16151581151514156104b85760405160e560020a62461bcd0281526004016101dd9061123f565b600091825260016020526040909120600501805460ff1916911515919091179055565b6104e3610d0e565b606060008060008060606000806060600160008d815260200190815260200160002060010154600014151561052d5760405160e560020a62461bcd0281526004016101dd9061122f565b6105368b6108f4565b99506105418a610945565b985061056489600081518110151561055557fe5b90602001906020020151610a18565b97504288116105885760405160e560020a62461bcd0281526004016101dd9061121f565b61059a89600181518110151561055557fe5b96506105ae89600281518110151561055557fe5b95506105c289600381518110151561055557fe5b94506105e58960048151811015156105d657fe5b90602001906020020151610945565b935083519250600091505b828210156107135761060984838151811015156105d657fe5b90506001600088815260200190815260200160002060040160606040519081016040528061063f84600081518110151561055557fe5b815260200161066584600181518110151561065657fe5b90602001906020020151610a4e565b600160a060020a0316815260200161069484600281518110151561068557fe5b90602001906020020151610a85565b9052815460018082018085556000948552602094859020845160039094020192835583850151918301805473ffffffffffffffffffffffffffffffffffffffff1916600160a060020a039093169290921790915560408301518051919461070392600285019290910190610d25565b5050600190930192506105f09050565b61083560016000898152602001908152602001600020600401805480602002602001604051908101604052809291908181526020016000905b8282101561082c576000848152602090819020604080516060810182526003860290920180548352600180820154600160a060020a0316848601526002808301805485516101009482161594909402600019011691909104601f81018790048702830187018552808352949592949386019391929091908301828280156108145780601f106107e957610100808354040283529160200191610814565b820191906000526020600020905b8154815290600101906020018083116107f757829003601f168201915b5050505050815250508152602001906001019061074c565b50505050610af7565b50505060008481526001602081905260409091209586558581019490945550600284019190915560038301556005909101805460ff1916909117905550505050565b600160a060020a038116151561088c57600080fd5b60008054604051600160a060020a03808516939216917f8be0079c531659141344cd1fd0a4f28419497f9722a3daafe3b4186f6b6457e091a36000805473ffffffffffffffffffffffffffffffffffffffff1916600160a060020a0392909216919091179055565b6108fc610d0e565b6000825160001415610923576040805180820190915260008082526020820152915061093f565b5050604080518082019091528151815260208281019082018190525b50919050565b606060008060008061095686610b1b565b151561096157600080fd5b61096a86610b4a565b9350836040519080825280602002602001820160405280156109a657816020015b610993610d0e565b81526020019060019003908161098b5790505b5094506109b68660200151610b9a565b8660200151019250600090505b83811015610a0f576109d483610bfd565b915060408051908101604052808381526020018481525085828151811015156109f957fe5b60209081029091010152918101916001016109c3565b50505050919050565b6000806000806000610a2d8660200151610b9a565b86516020978801518201519190039096036101000a90950495945050505050565b805160009060151015610a765760405160e560020a62461bcd0281526004016101dd906111ef565b610a7f82610a18565b92915050565b606060008060606000610a9b8660200151610b9a565b9350838660000151039250826040519080825280601f01601f191660200182016040528015610ad4578160200160208202803883390190505b509150816020019050610aee848760200151018285610c8e565b50949350505050565b80516000106103605760405160e560020a62461bcd0281526004016101dd906111df565b6020810151805160009190821a9060c060ff83161015610b3e5760009250610b43565b600192505b5050919050565b60008060008060009250610b618560200151610b9a565b6020860151865191810193500190505b80821015610b9157610b8282610bfd565b60019093019290910190610b71565b50909392505050565b8051600090811a6080811015610bb3576000915061093f565b60b8811080610bce575060c08110801590610bce575060f881105b15610bdc576001915061093f565b60c0811015610bf15760b5198101915061093f565b60f5198101915061093f565b8051600090811a6080811015610c16576001915061093f565b60b8811015610c2b57607e198101915061093f565b60c0811015610c585760b78103600184019350806020036101000a8451046001820181019350505061093f565b60f8811015610c6d5760be198101915061093f565b60019290920151602083900360f7016101000a900490910160f51901919050565b60005b60208210610cb3578351835260209384019390920191601f1990910190610c91565b50915181516020939093036101000a6000190180199091169216919091179052565b60c06040519081016040528060008152602001600081526020016000815260200160008152602001606081526020016000151581525090565b604080518082019091526000808252602082015290565b828054600181600116156101000203166002900490600052602060002090601f016020900481019282601f10610d6657805160ff1916838001178555610d93565b82800160010185558215610d93579182015b82811115610d93578251825591602001919060010190610d78565b50610d9f929150610da3565b5090565b6103f891905b80821115610d9f5760008155600101610da9565b6000610dc982356112b9565b9392505050565b6000601f82018313610de157600080fd5b8135610df4610def82611287565b611260565b91508082526020830160208301858383011115610e1057600080fd5b610e1b8382846112ca565b50505092915050565b6000610dc982356103f8565b600060208284031215610e4257600080fd5b6000610e4e8484610dbd565b949350505050565b600060208284031215610e6857600080fd5b6000610e4e8484610e24565b60008060408385031215610e8757600080fd5b6000610e938585610e24565b925050602083013567ffffffffffffffff811115610eb057600080fd5b610ebc85828601610dd0565b9150509250929050565b610ecf816112b9565b82525050565b6000610ee0826112b5565b80845260208401935083602082028501610ef9856112af565b60005b84811015610f30578383038852610f148383516110f0565b9250610f1f826112af565b602098909801979150600101610efc565b50909695505050505050565b610ecf816112c5565b6000610f50826112b5565b808452610f648160208601602086016112d6565b610f6d81611306565b9093016020019392505050565b600981527f6e6f742072756c65730000000000000000000000000000000000000000000000602082015260400190565b603a81527f496e76616c696420524c504974656d2e2041646472657373657320617265206560208201527f6e636f64656420696e203230206279746573206f72206c657373000000000000604082015260600190565b600981527f6e6f745f65786973740000000000000000000000000000000000000000000000602082015260400190565b600981527f6e6f742065786973740000000000000000000000000000000000000000000000602082015260400190565b600781527f6578706972656400000000000000000000000000000000000000000000000000602082015260400190565b600581527f6578697374000000000000000000000000000000000000000000000000000000602082015260400190565b600b81527f73616d6520737461747573000000000000000000000000000000000000000000602082015260400190565b8051600090606084019061110485826111ba565b5060208301516111176020860182610ec6565b506040830151848203604086015261112f8282610f45565b95945050505050565b805160009060c084019061114c85826111ba565b50602083015161115f60208601826111ba565b50604083015161117260408601826111ba565b50606083015161118560608601826111ba565b506080830151848203608086015261119d8282610ed5565b91505060a08301516111b260a0860182610f3c565b509392505050565b610ecf816103f8565b60208101610a7f8284610ec6565b60208101610a7f8284610f3c565b60208082528101610a7f81610f7a565b60208082528101610a7f81610faa565b60208082528101610a7f81611000565b60208082528101610a7f81611030565b60208082528101610a7f81611060565b60208082528101610a7f81611090565b60208082528101610a7f816110c0565b60208082528101610dc98184611138565b60405181810167ffffffffffffffff8111828210171561127f57600080fd5b604052919050565b600067ffffffffffffffff82111561129e57600080fd5b506020601f91909101601f19160190565b60200190565b5190565b600160a060020a031690565b151590565b82818337506000910152565b60005b838110156112f15781810151838201526020016112d9565b83811115611300576000848401525b50505050565b601f01601f1916905600a265627a7a72305820ecefcf2e322a6aa1fc4ce034dec151763e3eb0055e014bf4c1fbd6cd6fb44f2f6c6578706572696d656e74616cf50037",
  "source": "pragma solidity 0.4.24;\npragma experimental ABIEncoderV2;\n\nimport \"../../node_modules/solidity-rlp/contracts/RLPReader.sol\";\nimport \"../../node_modules/openzeppelin-solidity/contracts/ownership/Ownable.sol\";\n\ncontract  Schemas is Ownable {\n\n  using RLPReader for bytes;\n  using RLPReader for uint;\n  using RLPReader for RLPReader.RLPItem;\n\n  struct Schema {   \n    uint expirationDate;\n    uint256 schemaId;\n    uint256 amount;\n    uint256 assetLifeTime;\n    ClearingHouseRule[] clearingHouseRules;\n    bool valid;\n  }\n\n  struct ClearingHouseRule {  \n    uint percent; \n    address receptor;\n    string description;\n  }\n\n  mapping (uint256 => Schema) private schemas_;\n\n  function getSchema(uint256 _schemaId) public view returns (Schema) {\n    require(schemas_[_schemaId].schemaId > 0, \"not_exist\");\n    return (schemas_[_schemaId]);\n  }\n\n  function createSchema(uint256 _schemaId, bytes memory _data) public onlyOwner  {\n    _createSchema(_schemaId, _data);  \n  }\n\n  function invalidateSchema(uint256 _schemaId) public  onlyOwner {\n    _schemaStatus(_schemaId, false);  \n  }\n\n  function validateSchema(uint256 _schemaId) public onlyOwner  {\n    _schemaStatus(_schemaId, true);  \n  }\n\n  function _createSchema(uint256 _schemaId, bytes _in) internal  {\n    // RLP format : [<expirationDate>,<schemaId>,<amount>,<assetLifeTime>,[ [<percent>,<address>,<description>],[<percent>,<address>,<description>]]]\n\n    require(schemas_[_schemaId].schemaId == 0, \"exist\"); \n   \n    RLPReader.RLPItem memory item = _in.toRlpItem();\n    RLPReader.RLPItem[] memory itemList = item.toList();\n\n    uint expirationDate = itemList[0].toUint();\n\n    require(expirationDate > now, \"expired\");\n\n    uint256 schemaId = uint256(itemList[1].toUint());\n    uint256 amount = uint256(itemList[2].toUint());\n    uint256 assetLifeTime = uint256(itemList[3].toUint());\n\n    \n    RLPReader.RLPItem[] memory clearingHouseRulesItemList = itemList[4].toList();\n    \n    uint listLength = clearingHouseRulesItemList.length;\n    for (uint i = 0; i < listLength; i++) {\n      RLPReader.RLPItem[] memory tempListItem = clearingHouseRulesItemList[i].toList();\n        \n      schemas_[schemaId].clearingHouseRules.push(\n        ClearingHouseRule(tempListItem[0].toUint(),tempListItem[1].toAddress(),string(tempListItem[2].toBytes()))\n      );    \n    }\n    \n    _validateClearingHouseRules(schemas_[schemaId].clearingHouseRules);\n    \n    schemas_[schemaId].expirationDate = expirationDate;\n    schemas_[schemaId].schemaId = schemaId;\n    schemas_[schemaId].amount = amount;\n    schemas_[schemaId].assetLifeTime = assetLifeTime;\n    schemas_[schemaId].valid = true;\n  }\n\n  function _schemaStatus(uint256 _schemaId, bool _newStatus) internal  {\n    require(schemas_[_schemaId].schemaId != 0, \"not exist\"); \n    require(schemas_[_schemaId].valid != _newStatus , \"same status\");\n    schemas_[_schemaId].valid = _newStatus;\n  }\n\n  function _validateClearingHouseRules(ClearingHouseRule[] clearingHouseRules) internal  {\n    require(clearingHouseRules.length > 0, \"not rules\"); \n    // TODO: more rules\n  }\n\n}",
  "sourcePath": "/home/jordi/ws/bloomen-wallet-truffle/contracts/bloomen/Schemas.sol",
  "compiler": {
    "name": "solc",
    "version": "0.4.24+commit.e67f0147.Emscripten.clang"
  },
  "schemaVersion": "2.0.1",
  "updatedAt": "2019-01-04T16:56:49.462Z"
}