{
  "contractName": "SimpleStorage",
  "abi": [
    {
      "constant": true,
      "inputs": [],
      "name": "storedData",
      "outputs": [
        {
          "name": "",
          "type": "uint256"
        }
      ],
      "payable": false,
      "stateMutability": "view",
      "type": "function"
    },
    {
      "inputs": [
        {
          "name": "initVal",
          "type": "uint256"
        }
      ],
      "payable": false,
      "stateMutability": "nonpayable",
      "type": "constructor"
    },
    {
      "anonymous": false,
      "inputs": [
        {
          "indexed": false,
          "name": "value",
          "type": "uint256"
        }
      ],
      "name": "ValueChanged",
      "type": "event"
    },
    {
      "constant": false,
      "inputs": [
        {
          "name": "x",
          "type": "uint256"
        }
      ],
      "name": "set",
      "outputs": [],
      "payable": false,
      "stateMutability": "nonpayable",
      "type": "function"
    },
    {
      "constant": true,
      "inputs": [],
      "name": "get",
      "outputs": [
        {
          "name": "retVal",
          "type": "uint256"
        }
      ],
      "payable": false,
      "stateMutability": "view",
      "type": "function"
    }
  ],
  "bytecode": "0x608060405234801561001057600080fd5b5060405160208061014b8339810160405251600055610117806100346000396000f30060806040526004361060525763ffffffff7c01000000000000000000000000000000000000000000000000000000006000350416632a1afcd98114605757806360fe47b114607b5780636d4ce63c146092575b600080fd5b348015606257600080fd5b50606960a4565b60408051918252519081900360200190f35b348015608657600080fd5b50609060043560aa565b005b348015609d57600080fd5b50606960e5565b60005481565b60008190556040805182815290517f93fe6d397c74fdf1402a8b72e47b68512f0510d7b98a4bc4cbdf6ac7108b3c599181900360200190a150565b600054905600a165627a7a72305820948b86ca55ad5e3bc1482eb1d4fd650fef8c127235aac85bc2e90683f9cacd8f0029",
  "source": "// File: `./contracts/SimpleStorage.sol`\r\n\r\npragma solidity ^0.4.17;\r\n\r\ncontract SimpleStorage {\r\n  uint public storedData;\r\n\r\n  constructor(uint initVal) public {\r\n    storedData = initVal;\r\n  }\r\n\r\n  function set(uint x) public {\r\n    storedData = x;\r\n    emit ValueChanged(x);\r\n  }\r\n\r\n  function get() view public returns (uint retVal) {\r\n    return storedData;\r\n  }\r\n\r\n  event ValueChanged(\r\n    uint256 value\r\n  );\r\n}\r\n",
  "sourcePath": "C:\\Users\\a562145\\git\\bloomen-wallet-truffle\\contracts\\utils\\SimpleStorage.sol",
  "compiler": {
    "name": "solc",
    "version": "0.4.24+commit.e67f0147.Emscripten.clang"
  },
  "schemaVersion": "2.0.1",
  "updatedAt": "2018-12-04T08:47:39.450Z"
}