{
  "contractName": "SmJson",
  "abi": [
    {
      "constant": true,
      "inputs": [],
      "name": "getNodes",
      "outputs": [
        {
          "components": [
            {
              "name": "path",
              "type": "string"
            },
            {
              "name": "value",
              "type": "string"
            },
            {
              "name": "valueType",
              "type": "string"
            }
          ],
          "name": "",
          "type": "tuple[]"
        }
      ],
      "payable": false,
      "stateMutability": "view",
      "type": "function"
    },
    {
      "constant": false,
      "inputs": [
        {
          "name": "_path",
          "type": "string"
        },
        {
          "name": "_value",
          "type": "string"
        },
        {
          "name": "_valueType",
          "type": "string"
        }
      ],
      "name": "addPath",
      "outputs": [],
      "payable": false,
      "stateMutability": "nonpayable",
      "type": "function"
    },
    {
      "constant": false,
      "inputs": [
        {
          "name": "_path",
          "type": "string"
        }
      ],
      "name": "deletePath",
      "outputs": [],
      "payable": false,
      "stateMutability": "nonpayable",
      "type": "function"
    },
    {
      "constant": false,
      "inputs": [
        {
          "name": "_path",
          "type": "string"
        },
        {
          "name": "_value",
          "type": "string"
        },
        {
          "name": "_valueType",
          "type": "string"
        }
      ],
      "name": "modifyPath",
      "outputs": [],
      "payable": false,
      "stateMutability": "nonpayable",
      "type": "function"
    }
  ],
  "bytecode": "0x608060405234801561001057600080fd5b506110ed806100206000396000f3006080604052600436106100615763ffffffff7c01000000000000000000000000000000000000000000000000000000006000350416635a38c81e81146100665780639fa0339414610088578063de7eb551146100a8578063e29581aa146100c8575b600080fd5b34801561007257600080fd5b50610086610081366004610e77565b6100f3565b005b34801561009457600080fd5b506100866100a3366004610e77565b61036b565b3480156100b457600080fd5b506100866100c3366004610e3a565b61076c565b3480156100d457600080fd5b506100dd610998565b6040516100ea9190610ffc565b60405180910390f35b6000606060006060866040518082805190602001908083835b6020831061012b5780518252601f19909201916020918201910161010c565b51815160209384036101000a6000190180199092169116179052604080519290940182900382206000818152808352859020805480840285018401909652858452909a5091955090935084019050828280156101a657602002820191906000526020600020905b815481526020019060010190808311610192575b50505050509250600083511115156101bd57600080fd5b600091505b825182101561036257600183838151811015156101db57fe5b60209081029091010151815481106101ef57fe5b6000918252602091829020600390910201805460408051601f60026000196101006001871615020190941693909304928301859004850281018501909152818152928301828280156102825780601f1061025757610100808354040283529160200191610282565b820191906000526020600020905b81548152906001019060200180831161026557829003601f168201915b505050505090506102aa61029588610bbb565b61029e83610bbb565b9063ffffffff610be116565b156103575760606040519081016040528088815260200187815260200186815250600184848151811015156102db57fe5b60209081029091010151815481106102ef57fe5b90600052602060002090600302016000820151816000019080519060200190610319929190610cb0565b5060208281015180516103329260018501920190610cb0565b506040820151805161034e916002840191602090910190610cb0565b50905050610362565b6001909101906101c2565b50505050505050565b600060606000606061037b610d2e565b876040518082805190602001908083835b602083106103ab5780518252601f19909201916020918201910161038c565b51815160209384036101000a6000190180199092169116179052604080519290940182900382206000818152808352859020805480840285018401909652858452909b50919550909350840190508282801561042657602002820191906000526020600020905b815481526020019060010190808311610412575b5050505050935060008451111561052d57600092505b835183101561052d576001848481518110151561045557fe5b602090810290910101518154811061046957fe5b6000918252602091829020600390910201805460408051601f60026000196101006001871615020190941693909304928301859004850281018501909152818152928301828280156104fc5780601f106104d1576101008083540402835291602001916104fc565b820191906000526020600020905b8154815290600101906020018083116104df57829003601f168201915b5050505050915061051861050f89610bbb565b61029e84610bbb565b1561052257600080fd5b60019092019161043c565b506040805160608101825288815260208101889052908101869052600092505b6001548310156106b45761060e61060960018581548110151561056c57fe5b6000918252602091829020600390910201805460408051601f60026000196101006001871615020190941693909304928301859004850281018501909152818152928301828280156105ff5780601f106105d4576101008083540402835291602001916105ff565b820191906000526020600020905b8154815290600101906020018083116105e257829003601f168201915b5050505050610bbb565b610bf5565b156106a9578060018481548110151561062357fe5b9060005260206000209060030201600082015181600001908051906020019061064d929190610cb0565b5060208281015180516106669260018501920190610cb0565b5060408201518051610682916002840191602090910190610cb0565b50505060008581526020818152604082208054600181018255908352912001839055610762565b60019092019161054d565b600180548082018083556000929092528251805184926003027fb10e2d527612073b26eecdfd717e6a320cf44b4afac2b0732d9fcbe2b7fa0cf601916106ff91839160200190610cb0565b5060208281015180516107189260018501920190610cb0565b5060408201518051610734916002840191602090910190610cb0565b5050506000868152602081815260408220600180548254918201835591845291909220600019909201910155505b5050505050505050565b6000606060006060846040518082805190602001908083835b602083106107a45780518252601f199092019160209182019101610785565b51815160209384036101000a6000190180199092169116179052604080519290940182900382206000818152808352859020805480840285018401909652858452909a50919550909350840190508282801561081f57602002820191906000526020600020905b81548152602001906001019080831161080b575b505050505092506000835111151561083657600080fd5b600091505b8251821015610991576001838381518110151561085457fe5b602090810290910101518154811061086857fe5b6000918252602091829020600390910201805460408051601f60026000196101006001871615020190941693909304928301859004850281018501909152818152928301828280156108fb5780601f106108d0576101008083540402835291602001916108fb565b820191906000526020600020905b8154815290600101906020018083116108de57829003601f168201915b5050505050905061090e61029586610bbb565b15610986576001838381518110151561092357fe5b602090810290910101518154811061093757fe5b600091825260208220600390910201906109518282610d50565b61095f600183016000610d50565b61096d600283016000610d50565b5050600084815260208190526040812061098691610d97565b60019091019061083b565b5050505050565b60606001805480602002602001604051908101604052809291908181526020016000905b82821015610bb15760008481526020908190206040805160038602909201805460026001821615610100026000190190911604601f8101859004909402830160809081019092526060830184815292939092849290918491840182828015610a655780601f10610a3a57610100808354040283529160200191610a65565b820191906000526020600020905b815481529060010190602001808311610a4857829003601f168201915b50505050508152602001600182018054600181600116156101000203166002900480601f016020809104026020016040519081016040528092919081815260200182805460018160011615610100020316600290048015610b075780601f10610adc57610100808354040283529160200191610b07565b820191906000526020600020905b815481529060010190602001808311610aea57829003601f168201915b5050509183525050600282810180546040805160206001841615610100026000190190931694909404601f81018390048302850183019091528084529381019390830182828015610b995780601f10610b6e57610100808354040283529160200191610b99565b820191906000526020600020905b815481529060010190602001808311610b7c57829003601f168201915b505050505081525050815260200190600101906109bc565b5050505090505b90565b610bc3610db5565b50604080518082019091528151815260209182019181019190915290565b6000610bed8383610bfa565b159392505050565b511590565b60008060008060008060008060008a6000015197508a600001518a600001511015610c2457895197505b8a60200151965089602001519550600094505b87851015610c9a57865186519094509250828414610c865760001991506020881015610c7057600185896020030160080260020a031991505b50818116838216038015610c8657809850610ca2565b602096870196958601959490940193610c37565b89518b510398505b505050505050505092915050565b828054600181600116156101000203166002900490600052602060002090601f016020900481019282601f10610cf157805160ff1916838001178555610d1e565b82800160010185558215610d1e579182015b82811115610d1e578251825591602001919060010190610d03565b50610d2a929150610dcc565b5090565b6060604051908101604052806060815260200160608152602001606081525090565b50805460018160011615610100020316600290046000825580601f10610d765750610d94565b601f016020900490600052602060002090810190610d949190610dcc565b50565b5080546000825590600052602060002090810190610d949190610dcc565b604080518082019091526000808252602082015290565b610bb891905b80821115610d2a5760008155600101610dd2565b6000601f82018313610df757600080fd5b8135610e0a610e058261103b565b611014565b91508082526020830160208301858383011115610e2657600080fd5b610e3183828461106d565b50505092915050565b600060208284031215610e4c57600080fd5b813567ffffffffffffffff811115610e6357600080fd5b610e6f84828501610de6565b949350505050565b600080600060608486031215610e8c57600080fd5b833567ffffffffffffffff811115610ea357600080fd5b610eaf86828701610de6565b935050602084013567ffffffffffffffff811115610ecc57600080fd5b610ed886828701610de6565b925050604084013567ffffffffffffffff811115610ef557600080fd5b610f0186828701610de6565b9150509250925092565b6000610f1682611069565b80845260208401935083602082028501610f2f85611063565b60005b84811015610f66578383038852610f4a838351610fa7565b9250610f5582611063565b602098909801979150600101610f32565b50909695505050505050565b6000610f7d82611069565b808452610f91816020860160208601611079565b610f9a816110a9565b9093016020019392505050565b8051606080845260009190840190610fbf8282610f72565b91505060208301518482036020860152610fd98282610f72565b91505060408301518482036040860152610ff38282610f72565b95945050505050565b6020808252810161100d8184610f0b565b9392505050565b60405181810167ffffffffffffffff8111828210171561103357600080fd5b604052919050565b600067ffffffffffffffff82111561105257600080fd5b506020601f91909101601f19160190565b60200190565b5190565b82818337506000910152565b60005b8381101561109457818101518382015260200161107c565b838111156110a3576000848401525b50505050565b601f01601f1916905600a265627a7a72305820836cda31bf637d91c17461100f21cc1c66afa1aa9e9659454b78960a8da60eed6c6578706572696d656e74616cf50037",
  "source": "// File: `./contracts/SimpleStorage.sol`\r\n\r\npragma solidity ^0.4.24;\r\npragma experimental ABIEncoderV2;\r\n\r\nimport \"./lib/Strings.sol\";\r\n\r\ncontract SmJson {\r\n\r\n  using Strings for *;\r\n\r\n  struct PathValue{\r\n    string path;\r\n    string value;\r\n    string valueType;\r\n  }\r\n\r\n  mapping (bytes32 => uint[]) private hashIndexMap_;\r\n\r\n  PathValue[] private data_;\r\n\r\n  function getNodes() public view returns (PathValue[]){    \r\n    return data_;\r\n  }\r\n\r\n  function addPath(string _path, string _value, string _valueType) public {\r\n    bytes32 pathHash = keccak256(bytes(_path));\r\n    uint[] memory indexArray = hashIndexMap_[pathHash];\r\n    if (indexArray.length > 0) {\r\n      for (uint i = 0; i < indexArray.length; i++) {\r\n        string memory storedPath = data_[indexArray[i]].path;\r\n        require(!storedPath.toSlice().equals(_path.toSlice()));\r\n      }\r\n    }\r\n    PathValue memory pathValue = PathValue(_path, _value, _valueType);\r\n    for (i = 0; i < data_.length; i++) {\r\n      if (data_[i].path.toSlice().empty()) {\r\n        data_[i] = pathValue;\r\n        hashIndexMap_[pathHash].push(i);\r\n        return;\r\n      }\r\n    }\r\n    data_.push(pathValue);\r\n    hashIndexMap_[pathHash].push(data_.length - 1); \r\n  }\r\n\r\n  function deletePath(string _path) public {\r\n    bytes32 pathHash = keccak256(bytes(_path));\r\n    uint[] memory indexArray = hashIndexMap_[pathHash];\r\n    require(indexArray.length > 0);\r\n    for (uint i = 0; i < indexArray.length; i++) {\r\n      string memory storedPath = data_[indexArray[i]].path;\r\n      if (storedPath.toSlice().equals(_path.toSlice())) {\r\n        delete data_[indexArray[i]];\r\n        delete hashIndexMap_[pathHash];\r\n      }\r\n    }\r\n  }\r\n\r\n  function modifyPath(string _path, string _value, string _valueType) public {\r\n    bytes32 pathHash = keccak256(bytes(_path));\r\n    uint[] memory indexArray = hashIndexMap_[pathHash];\r\n    require(indexArray.length > 0);\r\n    for (uint i = 0; i < indexArray.length; i++) {\r\n      string memory storedPath = data_[indexArray[i]].path;\r\n      if (storedPath.toSlice().equals(_path.toSlice())) {\r\n        data_[indexArray[i]] = PathValue(_path, _value, _valueType);\r\n        return;\r\n      }\r\n    }\r\n  }\r\n\r\n}",
  "sourcePath": "C:\\Users\\a562145\\git\\bloomen-wallet-truffle\\contracts\\SmJson.sol",
  "compiler": {
    "name": "solc",
    "version": "0.4.24+commit.e67f0147.Emscripten.clang"
  },
  "schemaVersion": "2.0.1",
  "updatedAt": "2018-11-15T10:56:52.924Z"
}