{
  "contractName": "SmJson",
  "abi": [
    {
      "constant": true,
      "inputs": [],
      "name": "getNodes",
      "outputs": [
        {
          "components": [
            {
              "name": "path",
              "type": "string"
            },
            {
              "name": "value",
              "type": "string"
            }
          ],
          "name": "",
          "type": "tuple[]"
        }
      ],
      "payable": false,
      "stateMutability": "view",
      "type": "function"
    },
    {
      "constant": false,
      "inputs": [
        {
          "name": "_path",
          "type": "string"
        },
        {
          "name": "_value",
          "type": "string"
        }
      ],
      "name": "addPath",
      "outputs": [],
      "payable": false,
      "stateMutability": "nonpayable",
      "type": "function"
    },
    {
      "constant": false,
      "inputs": [
        {
          "name": "_path",
          "type": "string"
        }
      ],
      "name": "deletePath",
      "outputs": [],
      "payable": false,
      "stateMutability": "nonpayable",
      "type": "function"
    },
    {
      "constant": false,
      "inputs": [
        {
          "name": "_path",
          "type": "string"
        },
        {
          "name": "_value",
          "type": "string"
        }
      ],
      "name": "modifyPath",
      "outputs": [],
      "payable": false,
      "stateMutability": "nonpayable",
      "type": "function"
    }
  ],
  "bytecode": "0x608060405234801561001057600080fd5b50610f95806100206000396000f3006080604052600436106100615763ffffffff7c010000000000000000000000000000000000000000000000000000000060003504166335ffbf5b8114610066578063de7eb55114610088578063e29581aa146100a8578063e516aabf146100d3575b600080fd5b34801561007257600080fd5b50610086610081366004610d64565b6100f3565b005b34801561009457600080fd5b506100866100a3366004610d27565b6104c1565b3480156100b457600080fd5b506100bd6106e8565b6040516100ca9190610ea4565b60405180910390f35b3480156100df57600080fd5b506100866100ee366004610d64565b610874565b6000606060006060610103610ba8565b866040518082805190602001908083835b602083106101335780518252601f199092019160209182019101610114565b51815160209384036101000a6000190180199092169116179052604080519290940182900382206000818152808352859020805480840285018401909652858452909b5091955090935084019050828280156101ae57602002820191906000526020600020905b81548152602001906001019080831161019a575b505050505093506000845111156102c157600092505b83518310156102c157600184848151811015156101dd57fe5b60209081029091010151815481106101f157fe5b60009182526020918290206002918202018054604080516001831615610100026000190190921693909304601f8101859004850282018501909352828152929091908301828280156102845780601f1061025957610100808354040283529160200191610284565b820191906000526020600020905b81548152906001019060200180831161026757829003601f168201915b505050505091506102ac61029788610ab3565b6102a084610ab3565b9063ffffffff610ad916565b156102b657600080fd5b6001909201916101c4565b506040805180820190915286815260208101869052600092505b6001548310156104265761039c6103976001858154811015156102fa57fe5b60009182526020918290206002918202018054604080516001831615610100026000190190921693909304601f81018590048502820185019093528281529290919083018282801561038d5780601f106103625761010080835404028352916020019161038d565b820191906000526020600020905b81548152906001019060200180831161037057829003601f168201915b5050505050610ab3565b610aed565b1561041b57806001848154811015156103b157fe5b906000526020600020906002020160008201518160000190805190602001906103db929190610bbf565b5060208281015180516103f49260018501920190610bbf565b505050600085815260208181526040822080546001810182559083529120018390556104b8565b6001909201916102db565b600180548082018083556000929092528251805184926002027fb10e2d527612073b26eecdfd717e6a320cf44b4afac2b0732d9fcbe2b7fa0cf6019161047191839160200190610bbf565b50602082810151805161048a9260018501920190610bbf565b5050506000868152602081815260408220600180548254918201835591845291909220600019909201910155505b50505050505050565b6000606060006060846040518082805190602001908083835b602083106104f95780518252601f1990920191602091820191016104da565b51815160209384036101000a6000190180199092169116179052604080519290940182900382206000818152808352859020805480840285018401909652858452909a50919550909350840190508282801561057457602002820191906000526020600020905b815481526020019060010190808311610560575b505050505092506000835111151561058b57600080fd5b600091505b82518210156106e157600183838151811015156105a957fe5b60209081029091010151815481106105bd57fe5b60009182526020918290206002918202018054604080516001831615610100026000190190921693909304601f8101859004850282018501909352828152929091908301828280156106505780601f1061062557610100808354040283529160200191610650565b820191906000526020600020905b81548152906001019060200180831161063357829003601f168201915b5050505050905061066c61066386610ab3565b6102a083610ab3565b156106d6576001838381518110151561068157fe5b602090810290910101518154811061069557fe5b600091825260208220600290910201906106af8282610c3d565b6106bd600183016000610c3d565b505060008481526020819052604081206106d691610c84565b600190910190610590565b5050505050565b60606001805480602002602001604051908101604052809291908181526020016000905b8282101561086a5760008481526020908190206040805160028681029093018054600181161561010002600019011693909304601f8101859004909402810160609081018352918101848152909384928491908401828280156107b05780601f10610785576101008083540402835291602001916107b0565b820191906000526020600020905b81548152906001019060200180831161079357829003601f168201915b50505050508152602001600182018054600181600116156101000203166002900480601f0160208091040260200160405190810160405280929190818152602001828054600181600116156101000203166002900480156108525780601f1061082757610100808354040283529160200191610852565b820191906000526020600020905b81548152906001019060200180831161083557829003601f168201915b5050505050815250508152602001906001019061070c565b5050505090505b90565b6000606060006060856040518082805190602001908083835b602083106108ac5780518252601f19909201916020918201910161088d565b51815160209384036101000a6000190180199092169116179052604080519290940182900382206000818152808352859020805480840285018401909652858452909a50919550909350840190508282801561092757602002820191906000526020600020905b815481526020019060010190808311610913575b505050505092506000835111151561093e57600080fd5b600091505b8251821015610aab576001838381518110151561095c57fe5b602090810290910101518154811061097057fe5b60009182526020918290206002918202018054604080516001831615610100026000190190921693909304601f810185900485028201850190935282815292909190830182828015610a035780601f106109d857610100808354040283529160200191610a03565b820191906000526020600020905b8154815290600101906020018083116109e657829003601f168201915b50505050509050610a1661066387610ab3565b15610aa05760408051908101604052808781526020018681525060018484815181101515610a4057fe5b6020908102909101015181548110610a5457fe5b90600052602060002090600202016000820151816000019080519060200190610a7e929190610bbf565b506020828101518051610a979260018501920190610bbf565b50905050610aab565b600190910190610943565b505050505050565b610abb610ca2565b50604080518082019091528151815260209182019181019190915290565b6000610ae58383610af2565b159392505050565b511590565b60008060008060008060008060008a6000015197508a600001518a600001511015610b1c57895197505b8a60200151965089602001519550600094505b87851015610b9257865186519094509250828414610b7e5760001991506020881015610b6857600185896020030160080260020a031991505b50818116838216038015610b7e57809850610b9a565b602096870196958601959490940193610b2f565b89518b510398505b505050505050505092915050565b604080518082019091526060808252602082015290565b828054600181600116156101000203166002900490600052602060002090601f016020900481019282601f10610c0057805160ff1916838001178555610c2d565b82800160010185558215610c2d579182015b82811115610c2d578251825591602001919060010190610c12565b50610c39929150610cb9565b5090565b50805460018160011615610100020316600290046000825580601f10610c635750610c81565b601f016020900490600052602060002090810190610c819190610cb9565b50565b5080546000825590600052602060002090810190610c819190610cb9565b604080518082019091526000808252602082015290565b61087191905b80821115610c395760008155600101610cbf565b6000601f82018313610ce457600080fd5b8135610cf7610cf282610ee3565b610ebc565b91508082526020830160208301858383011115610d1357600080fd5b610d1e838284610f15565b50505092915050565b600060208284031215610d3957600080fd5b813567ffffffffffffffff811115610d5057600080fd5b610d5c84828501610cd3565b949350505050565b60008060408385031215610d7757600080fd5b823567ffffffffffffffff811115610d8e57600080fd5b610d9a85828601610cd3565b925050602083013567ffffffffffffffff811115610db757600080fd5b610dc385828601610cd3565b9150509250929050565b6000610dd882610f11565b80845260208401935083602082028501610df185610f0b565b60005b84811015610e28578383038852610e0c838351610e69565b9250610e1782610f0b565b602098909801979150600101610df4565b50909695505050505050565b6000610e3f82610f11565b808452610e53816020860160208601610f21565b610e5c81610f51565b9093016020019392505050565b8051604080845260009190840190610e818282610e34565b91505060208301518482036020860152610e9b8282610e34565b95945050505050565b60208082528101610eb58184610dcd565b9392505050565b60405181810167ffffffffffffffff81118282101715610edb57600080fd5b604052919050565b600067ffffffffffffffff821115610efa57600080fd5b506020601f91909101601f19160190565b60200190565b5190565b82818337506000910152565b60005b83811015610f3c578181015183820152602001610f24565b83811115610f4b576000848401525b50505050565b601f01601f1916905600a265627a7a723058207a2cb35f22553cf6fb01beabec5f0c2a49e0826583b4649806d9b2c94f9784606c6578706572696d656e74616cf50037",
  "source": "// File: `./contracts/SimpleStorage.sol`\r\n\r\npragma solidity ^0.4.24;\r\npragma experimental ABIEncoderV2;\r\n\r\nimport \"./lib/Strings.sol\";\r\n\r\ncontract SmJson {\r\n\r\n  using Strings for *;\r\n\r\n  struct PathValue{\r\n    string path;\r\n    string value;\r\n  }\r\n\r\n  mapping (bytes32 => uint[]) private hashIndexMap_;\r\n\r\n  PathValue[] private data_;\r\n\r\n  function getNodes() public view returns (PathValue[]){    \r\n    return data_;\r\n  }\r\n\r\n  function addPath(string _path, string _value) public {\r\n    bytes32 pathHash = keccak256(bytes(_path));\r\n    uint[] memory indexArray = hashIndexMap_[pathHash];\r\n    if (indexArray.length > 0) {\r\n      for (uint i = 0; i < indexArray.length; i++) {\r\n        string memory storedPath = data_[indexArray[i]].path;\r\n        require(!storedPath.toSlice().equals(_path.toSlice()));\r\n      }\r\n    }\r\n    PathValue memory pathValue = PathValue(_path, _value);\r\n    for (i = 0; i < data_.length; i++) {\r\n      if (data_[i].path.toSlice().empty()) {\r\n        data_[i] = pathValue;\r\n        hashIndexMap_[pathHash].push(i);\r\n        return;\r\n      }\r\n    }\r\n    data_.push(pathValue);\r\n    hashIndexMap_[pathHash].push(data_.length - 1); \r\n  }\r\n\r\n  function deletePath(string _path) public {\r\n    bytes32 pathHash = keccak256(bytes(_path));\r\n    uint[] memory indexArray = hashIndexMap_[pathHash];\r\n    require(indexArray.length > 0);\r\n    for (uint i = 0; i < indexArray.length; i++) {\r\n      string memory storedPath = data_[indexArray[i]].path;\r\n      if (storedPath.toSlice().equals(_path.toSlice())) {\r\n        delete data_[indexArray[i]];\r\n        delete hashIndexMap_[pathHash];\r\n      }\r\n    }\r\n  }\r\n\r\n  function modifyPath(string _path, string _value) public {\r\n    bytes32 pathHash = keccak256(bytes(_path));\r\n    uint[] memory indexArray = hashIndexMap_[pathHash];\r\n    require(indexArray.length > 0);\r\n    for (uint i = 0; i < indexArray.length; i++) {\r\n      string memory storedPath = data_[indexArray[i]].path;\r\n      if (storedPath.toSlice().equals(_path.toSlice())) {\r\n        data_[indexArray[i]] = PathValue(_path, _value);\r\n        return;\r\n      }\r\n    }\r\n  }\r\n\r\n}",
  "sourcePath": "C:\\Users\\a562145\\git\\bloomen-wallet-truffle\\contracts\\SmJson.sol",
  "compiler": {
    "name": "solc",
    "version": "0.4.24+commit.e67f0147.Emscripten.clang"
  },
  "schemaVersion": "2.0.1",
  "updatedAt": "2018-11-14T12:37:58.028Z"
}